:020000040800F2
:10000000F0390020DD0100081D130008DB12000894
:1000100019130008810600081522000800000000DE
:100020000000000000000000000000004501000882
:10003000791000080000000089010008111C000868
:10004000F7010008F7010008F7010008F7010008B0
:10005000F7010008F7010008F7010008F7010008A0
:10006000F7010008F7010008F7010008F701000890
:10007000F7010008F7010008F7010008F701000880
:10008000F7010008F7010008F7010008F701000870
:10009000F9210008F7010008F7010008F70100083E
:1000A000F7010008F7010008F7010008F701000850
:1000B000A51C0008F7010008F7010008F701000877
:1000C000F7010008F7010008F7010008F701000830
:1000D000F7010008F51F0008F7010008F701000804
:1000E000F7010008F7010008F7010008F701000810
:1000F000F7010008F7010008F7010008F701000800
:10010000F7010008F7010008F7010008F7010008EF
:10011000F7010008F7010008F7010008F7010008DF
:10012000F7010008F7010008F7010008F7010008CF
:10013000DFF80CD000F00EFA00480047192E000836
:10014000F0390020224B19680868B0E8F00F80F3FE
:100150000988BFF36F8F4FF0000080F311884EF0D5
:100160000D0E70470000000006480068006880F32C
:10017000088862B661B6BFF34F8FBFF36F8F00DFA1
:1001800000BF00BF08ED00E0EFF30980BFF36F8F01
:100190000F4B1A6820E9F00F106008B54FF05F00B0
:1001A00080F31188BFF34F8FBFF36F8F07F070F8A4
:1001B0004FF0000080F31188BDE808401968086816
:1001C000B0E8F00F80F30988BFF36F8F704700BF6E
:1001D0004C000020EFF30580704700000648804780
:1001E00006480047FEE7FEE7FEE7FEE7FEE7FEE71C
:1001F000FEE7FEE7FEE7FEE7451C000831010008C8
:1002000040EA01039B0703D009E008C9121F08C098
:10021000042AFAD203E011F8013B00F8013B521E18
:10022000F9D2704730B504460020034600E05B1C5D
:10023000934203D2E05CCD5C401BF8D030BD2DE989
:10024000FE4F804681EA0300C00F0C46009021F06B
:10025000004123F00045B8EB0200A94105D2404619
:10026000214690461C460B46024623F000401043B0
:1002700047D0270DC7F30A00C3F30A510290401A72
:10028000019040286BDAC3F3130040F4801B009800
:10029000924620B10023D2EB030A63EB0B0B0198CB
:1002A0005946C0F14002504600F09FF806460D4600
:1002B00050465946019A00F0A7F810EB080061413A
:1002C000002487EA115284EAE7731A4340D0009A67
:1002D00062B3019A012A4FEA075215DC001B61EB59
:1002E00002014FF0004202EA0752CDE90042001C31
:1002F00041F5801132462B4600F0DEF803B0BDE830
:10030000F08F40462146F9E7001B61EB0201001C1B
:1003100041F5801300185B412018A2F5001747EB48
:10032000030140EAD570B6196D4111E06D084FEA3E
:10033000360645EAC0754FEA0752001B61EB020121
:10034000001C41F5801149084FEA30000019514165
:1003500032462B4603B0BDE8F04F00F09EB800983F
:10036000012240000023D0EB020263EBE07300980F
:1003700021464FEAE074B8EB000061EB0401E9E7C5
:1003800083F000435BE781F0004158E700F0004252
:1003900030F000400AD0C10D01F56071C0F31600C5
:1003A00042EA0151C208400711437047002001464C
:1003B000704701F0004330B421F0004150EA0102DF
:1003C00006D00A0DA2F56072C1F31301002A02DC07
:1003D00030BC00207047440F44EAC104C100E0185B
:1003E00030BC00EBC25000F021B8202A04DB203AD8
:1003F00000FA02F1002070479140C2F1200320FA78
:1004000003F3194390407047202A06DBCB17203AAC
:1004100041FA02F043EAE07306E041FA02F3D04009
:10042000C2F1200291400843194670470029A8BF35
:100430007047401C490008BF20F00100704710B40D
:10044000B0FA80FC00FA0CF050EA010404BF10BCC2
:10045000704749B1CCF1200421FA04F411FA0CF1EF
:1004600018BF012121430843A3EB0C01CB1D4FEA28
:1004700000614FEA102042BF002010BC704700EB23
:10048000C35010440029A4BF10BC7047401C490051
:1004900008BF20F0010010BC704710B5141E73F1A6
:1004A000000408DA401C41F1000192185B411A4334
:1004B00001D120F0010010BD2DE9F04D92469B4680
:1004C00011B1B1FA81F202E0B0FA80F22032904626
:1004D000FFF78BFF04460F4640EA0A0041EA0B0192
:1004E00053465A46084313D0114653EA010019D027
:1004F000C8F14002504600F03FF805460E4650460F
:1005000059464246FFF771FF084305D0012004E039
:1005100020463946BDE8F08D0020054346EAE076E6
:100520002C4337430A986305E40AA0EB0800002235
:10053000FD0A44EA47540A3002D500200146E9E7A3
:10054000010510196941DDE9084500196941BDE857
:10055000F04DA2E7064C074D06E0E06840F00103CD
:1005600094E8070098471034AC42F6D3FFF7E4FD57
:10057000247D0008447D0008202A04DB203A21FA6B
:1005800002F00021704721FA02F3D040C2F12002AC
:10059000914008431946704770B58C1810F8015BFC
:1005A00015F0070301D110F8013B2A1106D110F80C
:1005B000012B03E010F8016B01F8016B5B1EF9D110
:1005C0002B0705D40023521E0DD401F8013BFAE796
:1005D00010F8013BCB1A921C03E013F8015B01F801
:1005E000015B521EF9D5A142D8D3002070BD10B5D1
:1005F00000F048F810BD000000F038F8FFF7F7FFF2
:1006000000BF322006F09CFD0348C06880F4805093
:100610000149C860F5E70000001001401CB500204A
:10062000012103468022CDE9001006A1084807F009
:1006300077F90446012C03D006A001F0EFFD1CBDA4
:1006400000BFFCE74150505F5461736B0000000035
:10065000F90500084150505F5461736B2063726567
:10066000617465206661696C6564000010B500F016
:1006700037FE00F050FB01F051FB01F0AFFD10BD63
:1006800000BFFEE71CB500F059F800200221034628
:100690008022CDE9001005A1094807F041F9044680
:1006A000012C00D01CBD00BFFCE7000043414E4FB1
:1006B00070656E5F4170705F5461736B0000000085
:1006C000C506000801242146174806F0C5F9002197
:1006D000154806F0ABFA0521134806F0A7FA00BF4B
:1006E000322006F02DFD104802F0E3F9052805D070
:1006F0004FF400510D4800F0B3FD05E00B48C06811
:1007000080F400500949C86009490868FFF73EFEB7
:100710000746084A084BFFF792FD0546FFF749FEDA
:1007200003490860DCE70000AC0300200010014032
:10073000AC0000209A9999999999A93F1CB5244831
:10074000006868B9002214210A2006F04DFE2049F5
:1007500008600846006818B91EA001F05FFD1CBDC6
:100760002348006868B9002214210A2006F03CFEE4
:100770001F4908600846006818B91EA001F04EFD28
:10078000EDE70020032103464FF48072CDE900100D
:100790001FA1234807F0C4F80446012C03D021A070
:1007A00001F03CFDDBE70020032103464FF480729B
:1007B000CDE9001022A1254807F0B2F80446012C2B
:1007C00003D023A001F02AFDC9E700BFC7E700005E
:1007D0009800002043414E53656E64517565756500
:1007E00020637265617465206661696C65640000F0
:1007F0009C00002043414E5263765175657565201B
:10080000637265617465206661696C6564000000EF
:1008100043414E53656E645F5461736B000000008A
:10082000B509000843414E53656E645F5461736BB4
:1008300020637265617465206661696C656400009F
:1008400043414E5263765F5461736B003109000877
:1008500043414E5263765F5461736B2063726561EE
:100860007465206661696C65640000001FB5012134
:10087000084600F0AFFE1C208DF80C000C208DF80F
:100880000D0000208DF80E0001208DF80F0003A848
:1008900000F046FD154800681549B0FBF1F0401E18
:1008A00080B2ADF800000020ADF802004FF6FF70F6
:1008B000ADF804000020ADF8060069464FF0804016
:1008C00001F034FA0121880701F0F9F901221146FB
:1008D000900701F01AFA00214FF0804001F024FA4D
:1008E0000121880701F0F1F91FBD00000000002080
:1008F000A086010010B504460A48006888B10023AC
:10090000094A21460748006806F0A8FE0648006824
:1009100038B14FF0805005490860BFF34F8FBFF3E7
:100920006F8F10BD9C000020A800002004ED00E0A7
:10093000002400BF64221B491B48006806F00AFF20
:100940000128F7D117480088184908801548407ACF
:10095000022802D10120887002E00020134988702B
:100960001048807A1149C870002407E00D480B3008
:10097000015D0E48001D0155601CC4B20948807A13
:10098000A042F3DC00220121880701F0BEF90749EB
:10099000074801F0E1FE01221146900701F0B5F988
:1009A000C8E70000BC3100209C000020D0310020AE
:1009B000AC03002000BF64220A490B48006806F01F
:1009C000C9FE0128F7D10749084800F022FA042897
:1009D000F1D1012006F0B4FB0249044800F019FAF5
:1009E000E9E70000A83100209800002000640040E2
:1009F00000B589B00121480600F0ECFD14208DF807
:100A000020000A208DF8210000208DF8220001200E
:100A10008DF8230008A800F083FC00208DF81A0050
:100A20008DF81B008DF81C008DF81D008DF81E0040
:100A30008DF81F008DF816008DF8170002208DF834
:100A4000180001208DF819000620ADF8140005A942
:100A5000114800F0D6F800208DF80E008DF80F0038
:100A600001208DF810000020ADF80400ADF806005C
:100A7000ADF80800ADF80A00ADF80C0001208DF8C3
:100A8000110001A800F00AF801220221024800F03A
:100A9000AFF809B000BD00000064004010B50021AF
:100AA000837A012202FA03F13D4A126842F0010200
:100AB0003B4B1A603A4A1C3212688A43384B1C334B
:100AC0001A60027BCAB9364A0C3212688A43344B28
:100AD0000C331A604288C38842EA0343304A4032EA
:100AE000847A42F834300288838842EA03432C4AED
:100AF0004032847A02EBC4025360027B012A19D18E
:100B0000274A0C3212680A43254B0C331A6042887C
:100B1000038842EA0343224A4032847A42F834305E
:100B2000C288838842EA03431D4A4032847A02EB3A
:100B3000C4025360C27A3AB9194A121D12688A4334
:100B4000174B1B1D1A6006E0154A121D12680A4356
:100B5000134B1B1D1A60028932B9114A14321268F4
:100B60008A430F4B14331A600289012A06D10C4ABA
:100B7000143212680A430A4B14331A60427B012A6A
:100B800006D1074A1C3212680A43054B1C331A600F
:100B9000034A126822F00102014B1A6010BD0000E6
:100BA0000066004008B50121092000F023FD4FF444
:100BB0008070ADF8000048208DF8030069460B48AE
:100BC00000F078FA4FF40070ADF8000018208DF8AE
:100BD000030003208DF802006946044800F06AFA19
:100BE00001214FF4EA1000F0F1FA08BD000C0140B9
:100BF0001AB143690B43436102E043698B4343618C
:100C0000704730B5024600200023146824F0020427
:100C10001460146844F00104146000E05B1C546824
:100C200004F001041CB94FF6FF74A342F6D15468D6
:100C300004F001040CB900206CE08C79012C04D183
:100C4000146844F08004146003E0146824F0800405
:100C50001460CC79012C04D1146844F04004146071
:100C600003E0146824F0400414600C7A012C04D1D1
:100C7000146844F02004146003E0146824F0200495
:100C800014604C7A012C04D1146844F010041460F0
:100C900003E0146824F0100414608C7A012C04D151
:100CA000146844F00804146003E0146824F0080495
:100CB0001460CC7A012C04D1146844F0040414604C
:100CC00003E0146824F0040414608C78A407CD7841
:100CD00044EA05640D7944EA05444D7944EA055433
:100CE0000D886D1E2C43D461146824F00104146037
:100CF000002300E05B1C546804F001041CB14FF6B3
:100D0000FF74A342F6D1546804F001040CB1002032
:100D100000E0012030BD10B5FFF744FFFFF768FE8B
:100D200010BD10B500F5D87303EB01131B6803F079
:100D300004031372137A53B900F5D87303EB01134C
:100D40001B6840F2FF7404EA5353136009E000F596
:100D5000D87303EB01131B686FF0604404EAD303FC
:100D6000536000F5D87303EB01131B6803F0020313
:100D7000537200F5D87303EB01135B6803F00F03A4
:100D8000937200F5D87303EB01135B681B0AD374ED
:100D900000F5D87303EB01139B68D37200F5D87389
:100DA00003EB01139B681C0A147300F5D87303EB63
:100DB00001139B681C0C547300F5D87303EB0113EB
:100DC0009B681B0E937300F5D87303EB0113DB686C
:100DD000D37300F5D87303EB0113DB681C0A14749A
:100DE00000F5D87303EB0113DB681C0C547400F599
:100DF000D87303EB0113DB681B0E937421B9C3682E
:100E000043F02003C36003E0036943F02003036160
:100E100010BD10B502460020936803F08063B3F163
:100E2000806F00D110E0936803F00063B3F1006FAE
:100E300001D1012008E0936803F08053B3F1805F93
:100E400001D1022000E00420042874D002F5C07310
:100E500003EB00131B6803F0010402F5C07303EBFE
:100E600000131C600B7A7BB94B7A0C8843EA44531D
:100E700002F5C07404EB00142468234302F5C07427
:100E800004EB0014236010E00B7A4C6843EAC403BF
:100E90004C7A234302F5C07404EB00142468234306
:100EA00002F5C07404EB001423608B7A03F00F0387
:100EB0008B7202F5C07303EB00135B6823F00F0421
:100EC00002F5C07303EB00135C6002F5C07303EB23
:100ED00000135B688C7A234302F5C07404EB0014A2
:100EE00063608B7B1C064B7B44EA03440B7B44EA28
:100EF0000323CC7A234302F5C07404EB0014A360EF
:100F00008B7C1C064B7C44EA03440B7C44EA0323A1
:100F1000CC7B234302F5C07404EB0014E36002F5BC
:100F2000C07303EB00131B6843F0010402F5C073A8
:100F300003EB00131C6010BD70B504460D46D4F8D9
:100F4000A00050F82500C0F307464FF0FF30D4F85A
:100F5000A41021F81500012104F1B4008155314697
:100F60002046D4F8B020904770BD2DE9FF4FDDE951
:100F70000D456CE0A5EB020A4FFA8AF3002B04DD65
:100F800091F800A00AFA03FA05E091F800A0C3F175
:100F9000000B4AFA0BFA0AF0FF0C002B02DDC5F138
:100FA000080A01E0C2F1080A0AF0FF08804501DDE5
:100FB000824600E0C246564605EB060B4FF0FF0A9C
:100FC0000AFA0BFAC5F1080E4FF0FF0B4BFA0EFBB5
:100FD0004AEA0B0A0AF0FF072CEA070994F800A076
:100FE0000AEA070A84F800A094F800A04AEA090A6D
:100FF00084F800A002EB060A0AF0FF0A5246BAF192
:10100000070F0BDD0022DDF80CA0BAF1000F02D0B3
:101010004FF0FF3A01E04FF0010A514405EB060A98
:101020000AF0FF0A5546BAF1070F0BDD0025DDF87F
:101030003CA0BAF1000F02D04FF0FF3A01E04FF0B0
:10104000010A5444A0EB060A0AF0FF0000BF002882
:1010500090DCBDE8FF8F000010B5044600BF802182
:10106000044800F0F2FF0028F9D02146014801F0C1
:10107000BEF810BD00380140704700000146481C12
:1010800080B10A48B0F90000814205D107480088C4
:10109000401E00B2054A1080002001EB4102044BC3
:1010A00003F832004FF0FF30704700008C00002042
:1010B000D43000202DE9F041024600250026002012
:1010C00000230024002791F803C00CF00F0591F8CD
:1010D00003C00CF0100CBCF1000F03D091F802C05B
:1010E0004CEA050591F800C0BCF1000F31D014683E
:1010F00000202BE04FF0010C0CFA00F3B1F800C017
:101100000CEA03069E4220D183004FF00F0C0CFA2C
:1011100003F7BC4305FA03FC4CEA040491F803C04E
:10112000BCF1280F06D14FF0010C0CFA00FCC2F8FC
:1011300014C00AE091F803C0BCF1480F05D14FF08C
:10114000010C0CFA00FCC2F810C0401C0828D1D3D6
:101150001460B1F800C0BCF1FF0F34DD546800200A
:101160002EE000F1080C4FF0010808FA0CF3B1F87A
:1011700000C00CEA03069E4221D183004FF00F0C01
:101180000CFA03F7BC4305FA03FC4CEA040491F89B
:1011900003C0BCF1280F05D100F1080C08FA0CF8C7
:1011A000C2F8148091F803C0BCF1480F07D100F1D8
:1011B000080C4FF0010808FA0CF8C2F81080401C27
:1011C0000828CED35460BDE8F0810000F0B50A468F
:1011D000002300240021002500F00046B6F1004F56
:1011E00002D11D4EF16901E01B4E7168C0F3034549
:1011F00083B200F44016B6F5401F08D121F07061AB
:10120000154E766826F07066134F7E6012E000F48B
:101210008016B6F5801F06D1032606FA05F4A14311
:1012200041F0706106E0460D360103FA06F6B1435F
:1012300041F0706122B1460D360103FA06F63143E2
:1012400000F00046B6F1004F02D1034EF16101E01B
:10125000014E7160F0BD0000000001404161704727
:101260000161704770B504460E46D4F83C01008811
:1012700060B3002527E004F1B400405D0F2820D0C2
:1012800020680078A8421CD004F5A270405D0028B8
:101290000BDCD4F8380120B129462046D4F8382197
:1012A0009047012104F1B400415504F5A270405D5E
:1012B000401EC1B204F5A27041552946204601F0F6
:1012C000B4FD681CC5B2802DD5DB05E0B4F934014E
:1012D000FFF7D4FEA4F8340170BD00BFFEE70000A4
:1012E00008B50121102000F085F94FF40050ADF849
:1012F000000010208DF8030003208DF802006946DD
:101300000448FFF7D7FE4FF400510248FFF7A6FF4D
:1013100008BD00000010014000BFFEE7704700005C
:1013200070B5002100230F22C47804B3154C246843
:1013300004F4E064C4F5E064210AC1F10403CA4086
:10134000447804FA03F184781440214309010E4CD7
:101350000678A155047804F01F050124AC400578F7
:101360006D11AD0005F1E025C5F8004109E00478F4
:1013700004F01F050124AC40044D0678761145F8B1
:10138000264070BD0CED00E000E400E080E100E0EC
:1013900002490143024A1160704700000000FA054B
:1013A0000CED00E0024A0A400243024B1A6070470B
:1013B00080FFFF1F08ED00E070B504460D4616469D
:1013C000204605F0B9FC002070BD0000F8B50446C9
:1013D0000E461746A834B4F90400FFF74FFEA0806C
:1013E00054F8A809008878B1D4F8A80005886421C9
:1013F00005FB01F00023054A19460090204600F045
:10140000BFFAA4F8AC0000BF0020F8BD8D1500089D
:1014100070B504460D461646204601F073FD204681
:1014200001F02CFD002070BD30B503460C46D3F80A
:101430000C02007860B9002106E00020D3F81052B9
:1014400045F82100481CC1B293F809028842F4DC37
:10145000002030BD70B505460C464FF0FF3004EB60
:10146000C402A96801EB42014880002004EBC402D9
:10147000A96801EB4201C880E1B2284605F092F963
:1014800070BD70B505460C464FF0FF3004EBC4024A
:10149000A96801EB4201888004EBC401A86810F838
:1014A000110020F0010004EBC402A96801F8120049
:1014B000E1B2284605F076F970BD00002DE9F84349
:1014C00004464FF4C05760690589A069B0F80880E8
:1014D000BDB114E06A4639462046D4F8E831984751
:1014E0000646009830B90A493068C1623068C16365
:1014F0003068C165781C87B2681C85B200BF45455D
:10150000E8DD0021204600F03EFFBDE8F883000042
:10151000ED1D00082DE9F0410446002560690689AB
:10152000A069078986B32DE005EBC502A16801EB30
:101530004201B1F90200FFF7A1FD05EBC502A16868
:1015400001EB4201488005EBC502A16801EB4201B5
:10155000B1F90400FFF792FD05EBC502A16801EBAC
:1015600042018880002005EBC502A16801F8120045
:1015700005EBC502A16801EB4201C880681CC5B239
:10158000701C86B2BE42CFDDBDE8F081FEB50446D8
:101590000E46D4F8A8000088A8B12068007800F5AD
:1015A000E065ADF8005001208DF8030000208DF8B3
:1015B000020094F87C008DF804006946D4F8E40138
:1015C00001F018F905E0B4F9AC00FFF757FDA4F8F5
:1015D000AC00FEBD29B1064AD2690243044BDA6170
:1015E00004E0034AD2698243014BDA61704700008C
:1015F0000010024029B1064A92690243044B9A61E5
:1016000004E0034A92698243014B9A6170470000EB
:101610000010024030B500210022002400232D4D8F
:101620006D6805F00C0121B1042905D0082923D1EA
:1016300005E0294D056022E0274D05601FE0254D9E
:101640006D6805F47012234D6D6805F48034022531
:1016500005EB92421CB9214D554305600BE01D4D31
:101660006D6805F400351DB11C4D5543056002E061
:10167000194D5543056002E0174D056000BF00BFDE
:10168000144D6D6805F0F0010909154D6B5C056896
:10169000DD4045600F4D6D6805F4E061090A104DAD
:1016A0006B5C4568DD4085600A4D6D6805F46051EE
:1016B000C90A0B4D6B5C4568DD40C560054D6D6822
:1016C00005F44041890B074D6B5CC568B5FBF3F52C
:1016D000056130BD0010024000127A0000093D0093
:1016E00014000020240000202DE9F8430546884618
:1016F00014461E466A4641462846D5F8E8319847C2
:101700000746009830B93879A04203DD386800EB0D
:101710000410C6600098BDE8F88300002DE9FC4184
:1017200004460D466069468866B1C5EBC50000EB0E
:10173000400104F1280010F821003044A1694988D3
:10174000884201DDBDE8FC81C5EBC50000EB40022D
:1017500004F1280010F822003044616851F830008C
:10176000806B07784FF0FF31C5EBC50000EB4002FE
:1017700004F1280000EB8200A0F84C108521C5EB95
:10178000C50000EB400204F1280000EB82008170EC
:101790002D49C5EBC50000EB400204F1280000EB29
:1017A0008200807ACDE90001C5EBC50000EB400C5A
:1017B00004F1280000EB8C000389C5EBC50000EBA9
:1017C000400C04F1280010F82C20C5EBC50000EBFC
:1017D000400C04F1280000EB8C004178204605F015
:1017E000F4F81949C5EBC50000EB400204F12800EC
:1017F00000EB82004160C5EBC50000EB400104F145
:10180000280000EB8100006D58B1C5EBC50000EB6E
:10181000400104F1280000EB81003946026D2046AA
:101820009047C5EBC50000EB400104F1280000EB38
:10183000810040680449884203D1E9B2204604F09F
:1018400080FF00BF7EE70000000004052DE9FF4196
:1018500004460D46C5EBC50000EB400104F128002D
:1018600000EB8100C06888B9C5EBC50000EB400102
:1018700004F1280000EB81000169C5EBC50000EB15
:10188000400204F1280000EB8200C160C5EBC500F6
:1018900000EB400104F1280000EB8100C0680390D8
:1018A000012003AACDE900200290C5EBC50000EBA2
:1018B000400704F1280000EB870000F11403C5EB9A
:1018C000C50000EB400704F1280000EB8700827A96
:1018D000C5EBC50000EB400704F1280000EB8700D2
:1018E0000189204600F01CFE06461EB1304604B0B9
:1018F000BDE8F0810020FAE7F0B504461546C1EBDB
:10190000C10000EB400704F1280000EB87000069EC
:101910002844202801D9FF20F0BDC1EBC10000EB15
:10192000400704F1280000EB8700066900220FE061
:101930009F5CC1EBC10000EB400C04F1280000EB00
:101940008C00143006EB020C00F80C70501CC2B274
:10195000AA42EDD3C1EBC10000EB400704F128001F
:1019600000EB870000694719C1EBC10000EB400C98
:1019700004F1280000EB8C0007610020CCE7000098
:101980002DE9F05F82468B46914698460026274C0B
:1019900040E0B9F1000F3AD02078B8BB2448B0F944
:1019A0000000401C864205D121480088401C00B23E
:1019B0001F49088000F0E0FF054647464FF6FF70DC
:1019C000874201D2384601E04FF6FF7007461948BA
:1019D0000068A8420AD917480068401BB84205D9D8
:1019E000E81914490860384605F086F9C4F80890EB
:1019F000C4F804A0C4F80CB008EB050020610A98F4
:101A00006061012020703046BDE8F09FFFE7701C48
:101A100006B218340648B0F90000401C864201DCCA
:101A2000082EB6DB4FF0FF30EEE70000D430002088
:101A30008C0000208800002010B500F001F810BDD7
:101A40000CB50020019000903348006840F48030CD
:101A50003149086000BF3048006800F40030009051
:101A60000198401C0190009818B90198B0F5A06F3A
:101A7000F1D12948006800F4003010B10120009035
:101A800001E0002000900098012843D1234800681D
:101A900040F01000214908600846006820F003006B
:101AA00008600846006840F0020008601A48406874
:101AB000194948600846406848600846406840F454
:101AC000806048600846406820F47C104860084602
:101AD000406840F4E81048600846006840F08070B4
:101AE000086000BF0C48006800F000700028F9D0C2
:101AF0000948406820F003000749486008464068EC
:101B000040F00200486000BF0348406800F00C004D
:101B10000828F9D10CBD000000100240002002404E
:101B200030B504460B46B3F5B05F36D017DC41F252
:101B30001805A3EB0500AB4229D009DCB3F5805FA3
:101B40001FD06FF480501844E8B1162831D11CE042
:101B5000B0F5F47F1DD0B0F57A7F2AD11BE0B3F544
:101B6000005F20D006DCB3F5C05F18D0B3F5D05FBE
:101B70001FD116E06FF400501844B0B1012818D1FD
:101B800015E0002119E0012117E0022115E00321F1
:101B900013E0042111E005210FE006210DE00721EB
:101BA0000BE0082109E0092107E00A2105E00B21EB
:101BB00003E005481060002030BD00BF0020106029
:101BC000024800EBC100F7E700000206A87C00080D
:101BD00002469F2A04D1087808B10348704700BF25
:101BE00000BF0020FAE700003000090670B5044687
:101BF0000D46204604F012FF70BD10B500214FF0D5
:101C00000060FFF7CFFB4FF44070FFF7C1FB10BD42
:101C100010B500BF5F2080F31188BFF34F8FBFF373
:101C20006F8F00BF05F0ACFE18B14FF08050044933
:101C3000086000BF002080F3118800BF10BD0000C5
:101C400004ED00E010B51348006840F001001149B0
:101C5000086008464068104908400E494860084638
:101C600000680E4908400B4908600846006820F4E7
:101C7000802008600846406820F4FE0048604FF469
:101C80001F008860FFF7D8FE4FF00060044908602D
:101C900010BD0000001002400000FFF8FFFFF6FE3C
:101CA00008ED00E010B50121880700F01DF828B10B
:101CB0000121880700F006F800F08AF810BDCA4339
:101CC00002827047CA430282704721B1028842F003
:101CD0000102028004E002884FF6FE731A4002807F
:101CE00070470146888C704730B5024600200023BB
:101CF0000024158A05EA0103958905EA010413B158
:101D00000CB1012000E0002030BD1AB183890B43E3
:101D1000838102E083898B438381704710B5FEF78E
:101D2000A5FD10BD8185704781847047002202881F
:101D30001D4B98420ED01D4B98420BD0B0F1804FF6
:101D400008D01B4B984205D01A4B984202D01A4B30
:101D5000984204D14FF68F731A404B881A43174BA1
:101D6000984207D0164B984204D04FF6FF431A40D2
:101D7000CB881A4302808B8883850B8803850A4BA6
:101D800098420BD0094B984208D00E4B984205D090
:101D90000D4B984202D00D4B984201D10B7A03862D
:101DA0000123838270470000002C01400034014071
:101DB0000004004000080040000C004000100040FB
:101DC0000014004000400140004401400048014030
:101DD00010B50020034908600349086000F050F87E
:101DE00010BD0000A0000020A40000202DE9F0415B
:101DF00004460E4617468220005DE0B3022F04D051
:101E0000032F03D0052F37D101E000BF00BF616968
:101E10000989606800EBC108A6EB0800C0F3C7059C
:101E200005EBC502A16801EB4201B1F90200FFF721
:101E300025F905EBC502A16801EB4201488005EBDD
:101E4000C502A16801EB4201B1F90400FFF716F9E0
:101E500005EBC502A16801EB42018880002005EB7B
:101E6000C502A16801F8120029462046FFF7F2FAE0
:101E70000020BDE8F08101E000BF00BF0020F8E7CE
:101E80002DE9F0414FF6FF7600F076FD0746294830
:101E9000006800EB07080025274C25E0207800F0BB
:101EA0000100F0B12069404513D8606910B90220E3
:101EB000207016E06069B7FBF0F100FB11706169FA
:101EC000081A2061032020702069B04209D22669D7
:101ED00007E02069A0EB080020612069B04200D231
:101EE0002669681C05B218341448B0F90000854210
:101EF000D4DD10480660304604F0FEFE00250E4C8E
:101F000010E0207800F0020048B1207820F00200B4
:101F10002070A06818B1D4E9022160689047681C5D
:101F200005B218340548B0F900008542E9DDBDE886
:101F3000F081000088000020D43000208C000020B8
:101F400000B587B001210420FFF754FB012188036D
:101F5000FFF750FB4FF40070ADF8180003208DF828
:101F60001A0018208DF81B0006A92048FFF7A2F8D8
:101F70004FF48060ADF8180004208DF81B0006A90E
:101F80001A48FFF797F825208DF804000A208DF8ED
:101F9000050000208DF8060001208DF8070001A83B
:101FA000FFF7BEF94FF4E13002900020ADF80C00CD
:101FB000ADF80E00ADF81000ADF814000C20ADF82F
:101FC000120002A90A4800F09DF86021084800F0BC
:101FD00027F8012240F22551054800F06DF8012153
:101FE000034800F026F807B000BD000000080140DB
:101FF0000038014010B540F22551074800F032F892
:1020000048B1054800F0EEF8044908700846017828
:10201000014800F0ECF810BD0038014094000020A9
:1020200001F40072B2F5007F00D100BFCA43028004
:10203000704721B1828942F40052828104E0828992
:102040004DF6FF731A408281704702460020B1F5B9
:10205000007F00D100BF13880B400BB1012000E0CE
:102060000020704770B502460024002300250020A0
:1020700040F66A16B14200D100BFC1F3421501F02B
:102080001F03012606FA03F3012D02D1968933407E
:1020900006E0022D02D1168A334001E0968A3340D1
:1020A0000C12012606FA04F41688344013B10CB160
:1020B000012000E0002070BDF0B50346002400269A
:1020C0000025002040F66A17B94200D100BF18462B
:1020D000C1F3421401F01F06012707FA06F5012C8F
:1020E00001D10C3004E0022C01D1103000E014309A
:1020F0001AB107682F43076002E00768AF43076023
:10210000F0BD00002DE9F04786B005460E460024DC
:10211000A24600BFA1460027B08900B100BF2F46EC
:102120002C8A4CF6FF700440F08804432C82AC8962
:102130004EF6F3100440B088318908437189084392
:102140000443AC81AC8A4FF6FF400440B08904439D
:10215000AC8201A8FFF75EFA1F48874202D1DDF882
:1021600010A001E0DDF80CA0A88900F4004040B107
:102170000AEBCA0000EB0A1031684900B0FBF1F825
:1021800007E00AEBCA0000EB0A1031688900B0FBD7
:10219000F1F86420B8FBF0F004012009642101FB90
:1021A0001089A88900F4004040B1322000EBC9003A
:1021B000B0FBF1F000F00700044308E0322000EB30
:1021C00009106421B0FBF1F000F00F0004432C81F2
:1021D00006B0BDE8F08700000038014010B5FFF7F9
:1021E000AFFE10BD01468888C0F308007047C1F3F8
:1021F000080282807047000010B5044A002104489C
:10220000FEF78FFD0148FEF775FB10BD94310020ED
:102210000064004000BFFEE770470000014A024929
:1022200000F0A0B869290008EC05002002E008C809
:10223000121F08C1002AFAD170477047002001E040
:1022400001C1121F002AFBD1704700002DE9FC5F7D
:1022500081468A4614469846DDE90C6B01AA514630
:102260004846D9F8E83198470546019810B10198D9
:10227000BDE8FC9F2879A04209DC2C4800231A46BF
:1022800021460090504600F0EBF92848F0E70E9800
:1022900080B1286800EB0410007800F0010048B11C
:1022A000234800231A4621460090504600F0D8F9F2
:1022B0001F48DDE7B8F1000F02D14FF00060D7E70B
:1022C000286800EB041040683168884206D9286805
:1022D00000EB0410406830601648C9E7286800EB3E
:1022E000041040788BF80000286800EB0410476861
:1022F000286800EB04103A4681684046FDF780FFED
:102300009BF80000092801D037600DE0286800EB39
:10231000041040683168884205D2002008F80700A0
:10232000781C306000E037600020A1E7110009064A
:1023300001000106050004057047704770477047AB
:1023400070477047704710B5029C10BD704710B5BC
:102350000446206A007820B981220021204600F03E
:1023600077FD10BD2DE9F04116460F4604460025C5
:1023700003E03946B047641C6D1C20780028F8D172
:102380002846BDE8F0812DE9FE4F04460F460025A2
:1023900000264FF003096069B0F808806069B0F862
:1023A0000AA0A069B0F808B08220005D10B9002032
:1023B000BDE8FE8FB8F1000F73D0002000900190AF
:1023C0000290A6E0B9F1030F06D0B9F1050F6AD06B
:1023D000B9F10B0F68D18CE0606850F83800806963
:1023E000006800F0004010B14FF00B0990E0606809
:1023F00050F83800866A4FB33078012826DB3078F1
:10240000F02823DC05EBC501A06810F81100401C82
:10241000C0B205EBC502A16801F81200317888420C
:1024200014D1002005EBC502A16801F8120000904C
:10243000019002906A462946204600F016F910B134
:102440004FF00B0964E04FF0050949E057B33078CD
:10245000FC282AD105EBC501A06800EB4100821DD4
:102460002946204600F001F960B105EBC501A068DE
:1024700010F8110020F0010005EBC502A16801F879
:1024800012000BE005EBC501A06810F8110040F048
:10249000010005EBC502A16801F812004FF00B091D
:1024A00036E03AE001E01CE030E00FB1307870B186
:1024B000A7B93078FF2802D03078FE280ED105EB7E
:1024C000C501A06810F8110000F0010030B92946DC
:1024D000204604F067F94FF00B0901E04FF00B09BB
:1024E00016E06A462946204604F008FA4FF00B0928
:1024F0000EE0681CC5B208F101001FFA80F80AF16D
:1025000001001FFA80FA4FF0030901E0FF204FE7B6
:1025100000BFD8457FF756AF00BF002048E7000056
:102520002DE9FF4F83B080468B461546109C02AACA
:1025300059464046D8F8E83198470646029818B1FF
:10254000029807B0BDE8F08F3079A84209DC3F4817
:102550000090002229465846236800F081F83B4845
:10256000EFE7119878B1306800EB05100078022889
:1025700009D137480090002229465846236800F0C8
:102580006FF83348DDE7306800EB051090F80190F4
:10259000306800EB05104768306800EB0510D0F894
:1025A0000CA0206810B12068B84243D8D8F8242085
:1025B0004846069990470290029848B102980090C8
:1025C0003A4629465846236800F04AF80298B8E788
:1025D000316801EB0511886822680699FDF710FE45
:1025E000B9F1090F09D12068B84206D2002031683C
:1025F00001EB05118968226888542760BAF1000F41
:1026000008D02A4631464046D0470290029808B189
:10261000029896E7306800EB0510007800F004009F
:1026200030B12A4659464046D8F8EC31984788E7F9
:10263000002086E72760074800903A46294658461A
:10264000236800F00DF803487BE70000110009063D
:10265000020001061000070670470346002070477D
:1026600030B50546039C002030BD2DE9F04F8DB0FC
:1026700004468846154661690989606800EBC10017
:1026800000EBC8000C9061694989606800EBC100EB
:1026900000EBC80B4FF000090026DBF80000806853
:1026A0000B900C98006880690088C0F30A002880AD
:1026B0000020A87000BF00200890099009F10100D7
:1026C000DBF8001001EB0010D0F808A0DAF80000E9
:1026D000000C07909AF800707FB3F01940282CD8AE
:1026E000781E012101EBD0000690BAF80000C0F37B
:1026F00007200590012000210AAA06ABCDE900328F
:10270000CDE9021008AB2046059A0799FFF79EFD18
:1027100018B1FF200DB0BDE8F08F002206F00700D1
:10272000291D01EBD601CDE901020091F8B2134653
:1027300008A9FEF71AFC3E4400BF09F1010000F0B1
:10274000FF090B9800784845B5DC701E012101EBAC
:10275000D000E8700020DDE770B504460D462E88F5
:10276000F0110F2843D2DFE800F03A08191A1B1CB9
:102770001D1E1F2021292A423200802E06D18020D2
:10278000005D50B1204603F039FC06E07F20005D7B
:1027900018B12946204600F005FC28E000BF00BF24
:1027A00000BF00BF00BF00BF00BF00BF8220005DB0
:1027B00018B12946204600F00FFD18E000BF7E202A
:1027C000005D18B12946204600F074FE0FE081201C
:1027D000005D18B12946204600F072FC07E0206A2F
:1027E000007818B12946204600F0F9FB00BF00BF71
:1027F00070BD0000F8B506460C4600200090208809
:1028000020490860A07810B10220487202E0002040
:102810001C49487200201B490872E0788872002524
:1028200006E0201D415D17480B304155681CC5B2BC
:10283000E078A842F5DC00BFEFF31480A8B90023CC
:102840006A4610491048006804F008FF012801D0CA
:10285000FF20F8BD009898B14FF080500B490860F8
:10286000BFF34F8FBFF36F8F0AE000236422054947
:102870000548006804F032FE012801D0FF20E8E797
:102880000020E6E7DC3100209800002004ED00E0A5
:1028900010B50446054B002241F203012046FEF725
:1028A00023FF0020D4F80C12087010BD2914000872
:1028B00070472DE9FE4F04460F4615469946DDE95F
:1028C0000CA802AB2A463946204600F094F806468A
:1028D00036B9012D04D19DF80810204603F031FFD0
:1028E0009EBB022D31D19DF80810C1EBC10101EB57
:1028F000410204F1280101EB8201B1F94C00FEF71D
:10290000BDFB9DF80810C1EBC10101EB410204F1D0
:10291000280101EB8201A1F84C0085219DF80800F7
:10292000C0EBC00000EB400204F1280000EB820085
:1029300081709DF80800C0EBC00000EB400104F17D
:10294000280000EB8100C0F804804B463A46294637
:102950002046CDE900A804F038F8064616B1FF205D
:10296000BDE8FE8F0020FBE770B504460D46E0B2DF
:10297000FEF772FB204670BD70B54FF08040FFF748
:10298000B0F9044607480068844202D24FF6FF704F
:10299000044404480068201A034909684518284679
:1029A00070BD0000A0000020A400002001460868BF
:1029B0000078704730B503460C46002117E0C1EBA4
:1029C000C10000EB400503F1280000EB8500807892
:1029D00058B91170C1EBC10000EB400503F12800AC
:1029E00000EB85004470002030BD481CC1B20129B5
:1029F000E5DBFF20F8E770B504460D4600212FE027
:102A0000C1EBC10000EB400604F1280000EB86009A
:102A1000807818B3C1EBC10000EB400604F1280038
:102A200000EB86008078852818D0C1EBC10000EB50
:102A3000400604F1280010F82600A8420ED1C1EB90
:102A4000C10000EB400604F1280000EB860040784E
:102A5000904203D103B11970002070BD481CC1B26F
:102A60000129CDDBFF20F8E730B50346C1EBC100FB
:102A700000EB400403F1280000EB8400C06810B9AB
:102A80000020106013E0C1EBC10000EB400403F133
:102A9000280000EB8400C468C1EBC10000EB4005D6
:102AA00003F1280000EB85000069201A1060002067
:102AB00030BD014691F87C0070470000F8B504462F
:102AC0001E4B002241F217012046FEF70DFE0020AA
:102AD00084F8E001002515E0D4F8A00030F82500C6
:102AE00086B26EB100200090642006FB00F3144A09
:102AF00029462046FEF744FFD4F8A41021F815001B
:102B0000681CC5B2D4F89C000078A842E4DCD4F874
:102B1000A800008880B1D4F8A8000688642106FBCC
:102B200001F006FB01F3074A002100902046FEF762
:102B300027FFA4F8AC0000BFF8BD0000CD130008CB
:102B4000390F00088D15000870B5044600250BE00C
:102B5000D4F8A41031F91500FEF790FAD4F8A410B7
:102B600021F81500681CC5B2D4F89C000078A84272
:102B7000EEDCB4F9AC00FEF781FAA4F8AC0070BD4D
:102B80002DE9F84304460D4617469846DDE90896B8
:102B9000022E05D0032E03D0042E01D0052E12D113
:102BA0000020664B664A294600902046FEF7E8FE64
:102BB000C5EBC50101EB410204F1280101EB8201E3
:102BC000A1F84C0015E0C5EBC50101EB410204F191
:102BD000280101EB8201B1F94C00FEF74FFAC5EB79
:102BE000C50101EB410204F1280101EB8201A1F8CA
:102BF0004C00C5EBC50000EB400104F1280000F8D3
:102C00002170C5EBC50000EB400104F1280000EB8A
:102C10008100A0F80880C5EBC50000EB400104F17D
:102C2000280000EB810080F80A90C5EBC50000EB9E
:102C3000400104F1280000EB810086700021C5EB03
:102C4000C50000EB400204F1280000EB8200C170D7
:102C5000C5EBC50000EB400204F1280000EB820048
:102C6000C160C5EBC50000EB400204F1280000EB99
:102C700082000161C5EBC50000EB400204F12800B1
:102C800000EB820080F83410C5EBC50000EB400279
:102C900004F1280000EB820080F83510C5EBC50078
:102CA00000EB400204F1280000EB820080F83610AF
:102CB000C5EBC50000EB400204F1280000EB8200E8
:102CC0008163C5EBC50000EB400204F1280000EB76
:102CD0008200C163C5EBC50000EB400204F128008F
:102CE00000EB820080F84010C5EBC50000EB40020D
:102CF00004F1280000EB820080F84110C5EBC5000C
:102D000000EB400204F1280000EB820080F8421042
:102D1000C5EBC50000EB400204F1280000EB820087
:102D200080F84B10C5EBC50000EB400204F1280011
:102D300000EB820001650020BDE8F883E093040009
:102D40001D17000810B504462046FFF7B7FE2046C1
:102D500000F094F810BD10B504462046FFF7F4FECD
:102D6000204600F0CFF810BDF0B504461D46C1EB7B
:102D7000C10000EB400704F1280000EB8700006968
:102D80001044202801D9FF20F0BDC1EBC10000EBA9
:102D9000400704F1280000EB870000698718C1EBA9
:102DA000C10000EB400C04F1280000EB8C00C0686F
:102DB000874201D9FF20E7E7C1EBC10000EB4007E4
:102DC00004F1280000EB8700066900230DE0C1EB49
:102DD000C10000EB400704F1280000EB870014302D
:102DE000F718C05DE854581CC3B29342EFD3C1EB4F
:102DF000C10000EB400704F1280000EB87000069E8
:102E00008718C1EBC10000EB400C04F1280000EB77
:102E10008C0007610020B7E710B5FEF7EEFEFDF766
:102E2000FDFB04F0E9F9002010BDFEB504460D4697
:102E300045F4E066ADF8006001208DF80200002046
:102E40008DF803006946D4F8E401FFF7D3FCFEBD1A
:102E5000FEB504460D4616460020ADF800008DF87C
:102E6000020002208DF803008DF804608DF80550F3
:102E70006946D4F8E401FFF7BDFCFEBDF8B5044691
:102E80001E4B002241F20C012046FEF72DFC1B4B8D
:102E9000002241F20D012046FEF726FCD4F83C0149
:102EA000008848B3D4F84001007828B3D4F83C0136
:102EB0000688642106FB01F006FB01F3104A00219D
:102EC00000902046FEF75CFDA4F83401002510E0D8
:102ED00004F1B400405D0F2809D020680078A842B2
:102EE00005D0D4F84001017804F5A2704155681C62
:102EF000C5B2802DECDB00BFF8BD00001114000846
:102F00006512000810B50446B4F93401FEF7B6F8AE
:102F1000A4F8340110BDF0B587B004460D4620205A
:102F20000690012005AA06ABCDE90120009303908D
:102F3000C5EBC50000EB400704F1280000EB87005B
:102F400000F11403C5EBC50000EB400704F12800B5
:102F500000EB8700827AC5EBC50000EB400704F167
:102F6000280000EB870001892046FFF76FF906462D
:102F700016B1304607B0F0BDC5EBC50000EB40020E
:102F800004F1280000EB82000699C1600021C5EB26
:102F9000C50000EB400204F1280000EB8200016153
:102FA0000020E7E72DE9F84305460C46E0780828BD
:102FB00001D0BDE8F883207800F07F0621796079A0
:102FC00041EA002794F80680E01D009043463A4607
:102FD00031462846D5F83CC2E04700BFE9E770B566
:102FE00004460D4694F87C007F2807D094F87C00B6
:102FF000052803D094F87C0004285FD1687920B1BB
:10300000687921680978884258D12879802824D0A5
:1030100004DC012807D002284FD111E0812829D0F3
:1030200082284AD132E094F87C007F2803D094F8BB
:103030007C00042803D10521204603F0F7FD3CE085
:1030400094F87C007F2803D094F87C00052803D1F5
:103050000421204603F0EAFD2FE094F87C000528C7
:1030600003D094F87C00042803D17F21204603F08C
:10307000DDFD22E0D4F8940018B12046D4F8941075
:1030800088470021204603F0D1FD16E02046FFF7D7
:103090008DFC0646D4F8980018B12046D4F8981054
:1030A0008847FF20216808703146204603F0D4FC91
:1030B0000021204603F0BAFD00BF00BF70BD000034
:1030C0002DE9FE4F04460F46387800F07F05B878AA
:1030D000012829D120680078A84278D1206800789A
:1030E00000F5E066ADF8006001208DF803000020D7
:1030F0008DF8020094F87C008DF8040094F8E0014B
:1031000048B19DF8040040F080008DF804000020D4
:1031100084F8E00102E0012084F8E0016946D4F877
:10312000E401FFF767FB52E0387900F07F08D4F83C
:103130004001017804F5A27041559038405D40454A
:1031400009D0424629462046D4F8DC31984704F19C
:10315000B40000F8058004F1B400405D20B92946B0
:103160002046D4F8D821904704F1B400405D0F28E0
:103170002CD0002624E0D4F8A00050F82600C0F39C
:1031800007494D451AD1D4F8A00030F826001FFA9F
:1031900080FAD4F8A41031F91600FDF76FFF002073
:1031A000009064200AFB00F30A4A31462046FEF7ED
:1031B000E7FBD4F8A41021F8160000BF701CC6B2BB
:1031C000D4F89C000078B042D5DC00BF00BFBDE859
:1031D000FE8F0000390F00082DE9F04F8DB0044636
:1031E0000F4600200B90824683460A9002200990E9
:1031F0004FF00008002500200C90B87800287DD101
:1032000060698688A06980880790002E77D0ABE03F
:103210000998022802D004280CD113E0606850F805
:10322000360080690A900A9800683988884202D17D
:103230000420099097E0681CC5B2701C86B2022079
:10324000099090E06069C688A069C08807906068AE
:1032500000EBC60050F8350080680B9000200C9001
:103260005CE0002005900690606800EBC60050F816
:1032700035100C98401C01EB0010D0F808A0BAF1F2
:10328000000F03D1FF200DB0BDE8F08F9AF8009039
:10329000B9F1000F3DD008EB0900F978B0EBC10F90
:1032A00037DC002005AACDE90020CDE902084FEA6D
:1032B000E87008EB5070C010A8EBC000C2B2381D17
:1032C00000EBE80100234846FDF74FFEA9F101009D
:1032D000012101EBE00004900120002104AACDE9C6
:1032E00000210290BAF80000C0F30722DAF80000CB
:1032F000010C05AB2046FFF713F901E039E0BFE010
:103300000890089808B1FF20BDE708EB090000F01D
:10331000FF080C98401CC0B20C9000BF0B980178BD
:103320000C9881429DDCE068D8B1606850F83600A6
:10333000806D00880690069890B1E16831F915001B
:10334000FDF79CFE002000906421069800FB01F32D
:10335000294620462269FEF713FBE16821F8150093
:1033600000BF00208FE700BF079886427FF750AF6D
:103370009DE0B8780128FBD1099060690689A069B1
:1033800000890790002E7BD08DE00998012804D099
:10339000042816D005280CD175E0606850F8360076
:1033A00080690A900A9800683988884202D104200E
:1033B000099077E0681CC5B2701C86B201200990A4
:1033C00070E0606850F83600D0F828B09BF8000034
:1033D000FD2802D10520099064E09BF80000FC283C
:1033E00016D105EBC501A06810F8110000F001002E
:1033F00058B105EBC503A26802EB4302911DD4F856
:10340000E401FFF7F7F900203DE70520099049E0C6
:103410009BF80000FF2803D09BF80000FE2830D165
:1034200005EBC502A16801EB4201B1F90200FDF70D
:1034300025FE05EBC502A16801EB4201488005EBC2
:10344000C502A16801EB4201B1F90400FDF716FEC7
:1034500005EBC502A16801EB4201888005EBC501BF
:10346000A06810F8110020F0010005EBC502A1686A
:1034700001F8120029462046FDF7ECFF002002E784
:1034800015E0FF20FFE604AA29462046FFF7EDF8E5
:1034900008B1FF20F7E604A9D4F8E401FFF7AAF980
:1034A0000020F0E600BF079886427FF76EAF00204D
:1034B000E9E6000003B599B00020169014900320AF
:1034C00012900020099003201290199840690088FA
:1034D0000890199880690088079000200A90089841
:1034E00050B324E019984168089801EBC0000079B6
:1034F000012802DCFF201BB000BD19984168089824
:1035000051F8300080690990099801681A9800887C
:10351000814204D1012012900A9813900BE00A987E
:10352000401CC0B20A900898401C80B20890DDE9A7
:1035300007108842D6DD00BF129803283DD11998A4
:103540004069408808901998806940880790002059
:103550000A90089888B32BE019984168089801EB05
:10356000C0000079032801DCFF20C4E719984168F6
:10357000089851F83000806A0990099801681A98F3
:10358000008881420CD1022012900A981390199859
:103590004168089851F83000806B007814900BE077
:1035A0000A98401CC0B20A900898401C80B208904B
:1035B000DDE907108842CFDD00BF1298032801D152
:1035C000FF2098E71A98C07808280CD04FF00061C7
:1035D00000200346CDE90001DDE912211998FFF72B
:1035E00068F9FF2087E716ABDDE912211998FFF78C
:1035F00002FA1890FF201790189828BB12980128FB
:103600000CD19DF85800C0EBC00000EB40011998A8
:10361000283000EB8100807804280FD0129802280F
:1036200015D19DF85800C0EBC00000EB400119987F
:10363000283000EB81008078052808D11A9800799D
:10364000802802D10420179001E0062017901798D7
:10365000FF2803D11A98007940111790179807286E
:1036600082F09684DFE810F007006C02D204C606F0
:103670004009AE09B10E129801287DD1189880B981
:103680009DF85800C0EBC00000EB400119982830AD
:1036900000EB81008078022801D0012000E00020AA
:1036A0001890189858B1FE4800210B46CDE900103B
:1036B000DDE912211998FFF7FCF8FF201BE79DF8C0
:1036C0005800C0EBC00000EB40011998283000EB17
:1036D0008100B0F94C00401C88B39DF85800C0EB45
:1036E000C00000EB40011998283000EB8100B0F9D0
:1036F0004C000290FDF7C2FC01469DF85800C0EB5B
:10370000C00000EB40021998283000EB8200A0F8BE
:103710004C100020E34BE44A00909DF85810199893
:10372000FEF72EF901469DF85800C0EBC00000EBF3
:1037300040021998283000EB8200A0F84C109DF848
:103740005800C0EBC00000EB40011998283000EB96
:10375000810000890E909DF85800C0EBC00000EB7E
:1037600040011998283000EB8100807A0D909DF877
:103770005800C0EBC00000E097E000EB4001199852
:10378000283000EB8100C1781A980079C0F300104E
:1037900081420BD0C5490D98CDE900010E9BDDE9B2
:1037A00012211998FFF785F8FF20A4E61A980079EE
:1037B000C0F34200C0F1070015901A98431D9DF810
:1037C0005810159A1998FEF797F81890189860B144
:1037D0004FF000610D98CDE900010E9BDDE912214B
:1037E0001998FFF766F8FF2085E69DF85800C0EBB2
:1037F000C00000EB40011998283000EB8100C07830
:10380000202141EA0010C0B28DF83C0001200B904D
:1038100006E000210FAA0B9811540B98401C0B9046
:103820000B980828F5D30FABDDE91212199803F0B5
:103830007BF89DF85800C0EBC00000EB40011998E0
:10384000283000EB8100C07808B9012000E000209A
:1038500000F001019DF85800C0EBC00000EB4002F1
:103860001998283000EB8200C1701A98007900F096
:103870000100002818D09DF858101998FDF7E6FFB0
:103880001190119858B111990D98CDE900010E9B36
:10389000DDE912211998FFF70CF8FF202BE69DF8BF
:1038A0005810199802F04DFF48E1189880B99DF81A
:1038B0005800C0EBC00000EB40011998283000EB25
:1038C00081008078032801D0012000E000201890BA
:1038D000189858B1724900200346CDE90001DDE98E
:1038E00012211998FEF7E5FFFF2004E69DF8580025
:1038F000C0EBC00000EB40011998283000EB8100BC
:10390000B0F94C00401C88B39DF85800C0EBC000D3
:1039100000EB40011998283000EB8100B0F94C0011
:103920000290FDF7ABFB01469DF85800C0EBC000CC
:1039300000EB40021998283000EB8200A0F84C10F0
:103940000020584B584A00909DF858101998FEF7DF
:1039500017F801469DF85800C0EBC00000EB40028C
:103960001998283000EB8200A0F84C109DF8580000
:10397000C0EBC00000EB40011998283000EB81003B
:1039800000890E909DF85800C0EBC00000EB40018C
:103990001998283000EB8100807A0D909DF858002E
:1039A000C0EBC00000EB40011998283000EB81000B
:1039B000C1781A980079C0F3001081420BD03B49BE
:1039C0000D98CDE900010E9BDDE912211998FEF753
:1039D00070FFFF208FE51A980079C0F34200C0F114
:1039E000070015901A98431D9DF85810159A1998BC
:1039F000FDF782FF1890189860B14FF000610D98A4
:103A0000CDE900010E9BDDE912211998FEF751FF67
:103A1000FF2070E59DF85800C0EBC00000EB4001AE
:103A20001998283000EB8100C07808B9012000E027
:103A3000002000F001019DF85800C0EBC00000EB31
:103A400040021998283000EB8200C1701A98007962
:103A500000F0010060B39DF85800C0EBC00000EB1F
:103A600040011998283000EB8100B0F94C00029019
:103A7000FDF704FB01469DF85800C0EBC00000EBC9
:103A800040021998283000EB8200A0F84C10012168
:103A90009DF85800C0EBC00000EB4002199808E008
:103AA00021000008E09304001D1700080000030532
:103AB00020E0283000EB820081709DF85800C0EBB8
:103AC000C00000EB40011998283000EB8100006D28
:103AD000A0B39DF85800C0EBC00000EB400119985E
:103AE000283000EB8100006D0290029A1499199819
:103AF000904723E09DF85800C0EBC00000EB400168
:103B00001998283000EB8100C078602141EA00104C
:103B1000C0B28DF83C0001200B9006E000210FAAF6
:103B20000B9811540B98401C0B900B980828F5D358
:103B30000FABDDE91212199802F0F6FE02F057BA47
:103B40001298012878D11A984179807941EA0020A9
:103B50000E901A98C0790D90189858B9F7490D9899
:103B6000CDE900010E9BDDE912211998FEF7A1FEB7
:103B7000FF20C0E416AA12991998FEF71BFF1890AF
:103B8000189858B1ED490D98CDE900010E9BDDE97B
:103B900012211998FEF78DFEFF20ACE402210D984A
:103BA000CDE900019DF858100E9B139A1998FEF765
:103BB000E7FF1A980079C0F34000E0B31A98007943
:103BC000C0F38100C0F1040015909DF85800C0EBCF
:103BD000C00000EB40021998283000EB82001599D4
:103BE000C1601A9800F108039DF85810159A1998A9
:103BF000FDF782FE1890189860B14FF000610D98A3
:103C0000CDE900010E9BDDE912211998FEF751FE66
:103C1000FF2070E49DF858101998FDF717FE1190D9
:103C2000119870B111990D98CDE900010E9BDDE955
:103C30001221199801E00AE054E0FEF73AFEFF2055
:103C400059E49DF85810199802F07BFD28E01A9865
:103C5000007900F0010018B31A98017A407A01EB5C
:103C600000211A98807A01EB00411A98C07A01EB82
:103C7000006015909DF85810159A199802F0C4FF2D
:103C80001890189860B14FF000610D98CDE90001CF
:103C90000E9BDDE912211998FEF70BFEFF202AE4A6
:103CA00060208DF83C000E98C0B28DF83D000E9853
:103CB000000A8DF83E000D988DF83F0004200B900F
:103CC00006E000210FAA0B9811540B98401C0B9092
:103CD0000B980828F5D30FABDDE91212199802F002
:103CE00023FE92E1189880B99DF85800C0EBC000FF
:103CF00000EB40011998283000EB81008078022801
:103D000001D0012000E000201890189858B18B498C
:103D100000200346CDE90001DDE912211998FEF7E4
:103D2000C8FDFF2021E49DF85800C0EBC00000EB67
:103D300040011998283000EB8100B0F94C00401C7C
:103D400088B39DF85800C0EBC00000EB4001199803
:103D5000283000EB8100B0F94C000290FDF78EF99D
:103D600001469DF85800C0EBC00000EB40021998D6
:103D7000283000EB8200A0F84C100020704B714AF4
:103D800000909DF858101998FDF7FAFD01469DF82E
:103D90005800C0EBC00000EB40021998283000EB3F
:103DA0008200A0F84C109DF85800C0EBC00000EB5A
:103DB00040011998283000EB810000890E909DF891
:103DC0005800C0EBC00000EB40011998283000EB10
:103DD0008100807A0D909DF85800C0EBC00000EB88
:103DE00040011998283000EB8100C1781A980079B9
:103DF000C0F3001081420BD053490D98CDE900016A
:103E00000E9BDDE912211998FEF753FDFF2055E4C2
:103E100015AA9DF858101998FEF726FE1598E0BBD4
:103E20009DF85800C0EBC00000EB40011998283005
:103E300000EB8100B0F94C000290FDF71FF901463C
:103E40009DF85800C0EBC00000EB400219982830E4
:103E500000EB8200A0F84C1001219DF85800C0EB47
:103E6000C00000EB40021998283000EB82008170FE
:103E70009DF85800C0EBC00000EB400119982830B5
:103E800000EB8100006D88B19DF85800C0EBC000C8
:103E900000EB40011998283000E009E000EB8100B8
:103EA000006D0290029A149919989047002005E439
:103EB000159807284AD99DF85800C0EBC00000EBC0
:103EC00040011998283000EB8100C07808B9012022
:103ED00000E0002000F001019DF85800C0EBC00098
:103EE00000EB40021998283000EB8200C1709DF869
:103EF0005800C0EBC00000EB40011998283000EBDF
:103F00008100C0780007000E8DF83C000DF13D03E4
:103F100007229DF858101998FEF726FF1890189858
:103F2000F0B34FF000610D98CDE900010E9BDDE983
:103F300012211998FEF7BDFCFF2036E4210000088D
:103F4000E09304001D170008000003059DF85800C9
:103F5000C0EBC00000EB40011998283000EB810055
:103F6000C07808B9012000E0002000F001019DF8B0
:103F70005800C0EBC00000EB40021998283000EB5D
:103F80008200C1709DF85800C0EBC00000EB4001FA
:103F90001998283000EB8100C0780101159800E0E5
:103FA0002DE0C0F1070041EA4000401CC0B28DF88E
:103FB0003C000DF13D039DF85810159A1998FEF735
:103FC000D3FE1890189860B14FF000610D98CDE9BC
:103FD00000010E9BDDE912211998FEF76AFCFF2013
:103FE0005CE41598401C0B9006E000210FAA0B988A
:103FF00011540B98401C0B900B980828F5D30FAB6D
:10400000DDE91212199802F08FFC97E51298012849
:1040100077D11A984179807941EA00200E901A9858
:10402000C0790D90189858B9FC490D98CDE9000158
:104030000E9BDDE912211998FEF73BFCFF202DE4D1
:1040400016AA12991998FEF7B5FC1890189858B14D
:10405000F2490D98CDE900010E9BDDE91221199876
:10406000FEF727FCFF2019E403210D98CDE900019C
:104070009DF858100E9B139A1998FEF781FD9DF834
:1040800058101998FEF747FF1190119858B11199DF
:104090000D98CDE900010E9BDDE912211998FEF77C
:1040A00008FCFF2021E415AA9DF858101998FEF786
:1040B000DBFC1598042825D941208DF83C000E988A
:1040C000C0B28DF83D000E98000A8DF83E000D98A4
:1040D0008DF83F001598C0B28DF840001598000A81
:1040E0008DF841001598000C8DF842001598000ECF
:1040F0008DF843000FABDDE91212199802F014FCA1
:1041000077E145E01598C0F10400402141EA8000C4
:10411000C01CC0B28DF83C000E98C0B28DF83D00B6
:104120000E98000A8DF83E000D988DF83F0010ABF8
:104130009DF85810159A1998FEF716FE18901898C1
:1041400060B14FF000610D98CDE900010E9BDDE9F3
:1041500012211998FEF7ADFBFF203BE41598001DD6
:104160000B9006E000210FAA0B9811540B98401CED
:104170000B900B980828F5D30FABDDE912121998B4
:1041800002F0D2FB9DF85810199802F0DAFA30E1EB
:10419000189880B99DF85800C0EBC00000EB4001B2
:1041A0001998283000EB81008078032801D0012085
:1041B00000E000201890189858B1984800210B464C
:1041C000CDE90010DDE912211998FEF772FBFF20FE
:1041D0001FE49DF85800C0EBC00000EB40011998A7
:1041E000283000EB8100B0F94C00401C88B39DF8EA
:1041F0005800C0EBC00000EB40011998283000EBDC
:104200008100B0F94C000290FCF738FF01469DF8A0
:104210005800C0EBC00000EB40021998283000EBBA
:104220008200A0F84C1000207D4B7E4A00909DF843
:1042300058101998FDF7A4FB01469DF85800C0EBF3
:10424000C00000EB40021998283000EB8200A0F873
:104250004C109DF85800C0EBC00000EB40011998CD
:10426000283000EB810000890E909DF85800C0EBCB
:10427000C00000EB40011998283000EB8100807AE3
:104280000D901A980079C0F34000E0B31A980079B5
:10429000C0F38100C0F1040015901A9800F10803E2
:1042A0009DF85810159A1998FDF726FB1890189844
:1042B00060B14FF000610D98CDE900010E9BDDE982
:1042C00012211998FEF7F5FAFF2052E49DF85800E4
:1042D000C0EBC00000EB40011998283000EB8100D2
:1042E000B0F94C000290FCF7C9FE01469DF8580059
:1042F000C0EBC00000EB40021998283000EB8200B0
:10430000A0F84C1000E035E09DF85800C0EBC0006C
:1043100000EB40021998283000EB82001599C1602B
:1043200001219DF85800C0EBC00000EB4002199835
:10433000283000EB820081709DF85800C0EBC0006F
:1043400000EB40011998283000EB8100006D78B136
:104350009DF85800C0EBC00000EB400119982830D0
:1043600000EB8100006D0290029A14991998904711
:10437000002012E41A98007900F0010018B31A988E
:10438000017A407A01EB00211A98807A01EB004112
:104390001A98C07A01EB006015909DF85810159A94
:1043A000199802F031FC1890189860B14FF0006134
:1043B0000D98CDE900010E9BDDE912211998FEF759
:1043C00078FAFF2025E460208DF83C0001200B9056
:1043D00006E000210FAA0B9811540B98401C0B907B
:1043E0000B980828F5D30FABDDE91212199802F0EB
:1043F0009BFA0AE6129801287ED11898B0B99DF868
:104400005800C0EBC00000EB40011998283000EBC9
:1044100081008078032807D0012006E021000008F1
:10442000E09304001D17000800201890189858B158
:10443000FE4900200346CDE90001DDE9122119986B
:10444000FEF737FAFF202AE49DF85800C0EBC000C1
:1044500000EB40011998283000EB8100B0F94C00C6
:10446000401C88B39DF85800C0EBC00000EB400131
:104470001998283000EB8100B0F94C000290FCF74D
:10448000FDFD01469DF85800C0EBC00000EB400266
:104490001998283000EB8200A0F84C100020E44B63
:1044A000E44A00909DF858101998FDF769FA014602
:1044B0009DF85800C0EBC00000EB4002199828306E
:1044C00000EB8200A0F84C109DF85800C0EBC00033
:1044D00000EB40011998283000EB810000890E9014
:1044E0009DF85800C0EBC00000EB4001199828303F
:1044F00000EB8100807A00E0B7E00D909DF8580055
:10450000C0EBC00000EB40011998283000EB81009F
:10451000C1781A980079C0F3001081420BD0C649C7
:104520000D98CDE900010E9BDDE912211998FEF7E7
:10453000C0F9FF206BE415AA9DF858101998FEF7F2
:1045400093FA1598072849D99DF85800C0EBC00088
:1045500000EB40011998283000EB8100C07800077B
:10456000000E8DF83C000DF13D0307229DF8581018
:104570001998FEF7F9FB1890189860B14FF0006198
:104580000D98CDE900010E9BDDE912211998FEF787
:1045900090F9FF203BE49DF85800C0EBC00000EB11
:1045A00040011998283000EB8100C07808B901203B
:1045B00000E0002000F001019DF85800C0EBC000B1
:1045C00000EB40021998283000EB8200C1700FAB5D
:1045D000DDE91212199802F0A7F984E19DF858005C
:1045E000C0EBC00000EB40011998283000EB8100BF
:1045F000C07800011599C1F1070140EA4100401C53
:10460000C0B28DF83C000DF13D039DF85810159A8D
:104610001998FEF7A9FB1890189860B14FF0006147
:104620000D98CDE900010E9BDDE912211998FEF7E6
:1046300040F9FF203BE41598401C0B9006E0002257
:104640000FA90B980A540B98401C0B900B98082844
:10465000F5D30FABDDE91212199802F065F99DF858
:104660005810199802F06DF83DE1189880B99DF83E
:104670005800C0EBC00000EB40011998283000EB57
:1046800081008078022801D0012000E000201890ED
:10469000189858B1654800210B46CDE90010DDE9B6
:1046A00012211998FEF705F9FF2046E49DF85800FD
:1046B000C0EBC00000EB40011998283000EB8100EE
:1046C000B0F94C00401C88B39DF85800C0EBC00006
:1046D00000EB40011998283000EB8100B0F94C0044
:1046E0000290FCF7CBFC01469DF85800C0EBC000DF
:1046F00000EB40021998283000EB8200A0F84C1023
:1047000000204B4B4B4A00909DF858101998FDF72C
:1047100037F901469DF85800C0EBC00000EB40029D
:104720001998283000EB8200A0F84C109DF8580032
:10473000C0EBC00000EB40011998283000EB81006D
:1047400000890E909DF85800C0EBC00000EB4001BE
:104750001998283000EB8100807A0D9015AA9DF8F9
:1047600058101998FEF780F91598E0BB9DF858008D
:10477000C0EBC00000EB40011998283000EB81002D
:10478000B0F94C000290FCF779FC01469DF8580006
:10479000C0EBC00000EB40021998283000EB82000B
:1047A000A0F84C1001219DF85800C0EBC00000EBB0
:1047B00040021998283000EB820081709DF8580063
:1047C000C0EBC00000EB40011998283000EB8100DD
:1047D000006D88B19DF85800C0EBC00000EB4001AF
:1047E0001998283000E009E000EB8100006D02908C
:1047F000029A149919989047002020E415980728E8
:104800002FD99DF85800C0EBC00000EB400119986B
:10481000283000EB8100C0780007000E8DF83C00C6
:104820000DF13D0307229DF8581007E02100000814
:10483000E09304001D170008000003051998FEF717
:1048400093FA18901898C8B34FF000610D98CDE90D
:1048500000010E9BDDE912211998FEF72AF8FF20CE
:1048600020E49DF85800C0EBC00000EB400119980F
:10487000283000EB8100C07801011598C0F10700D5
:1048800041EA4000401CC0B28DF83C000DF13D03F0
:104890009DF85810159A1998FEF766FA189018980E
:1048A00068B14FF000610D98CDE900010E9BDDE984
:1048B00012211998FDF7FDFFFF204EE40DE0159839
:1048C000401C0B9006E000210FAA0B9811540B9886
:1048D000401C0B900B980828F5D30FABDDE91212A2
:1048E000199802F021F884E51A98017A407A41EA91
:1048F00000211A98807A41EA00411A98C07A41EA68
:1049000000600C901298012807D11898F0BB9DF810
:104910005810199801F015FF53E01898B0BB9DF896
:104920005800C0EBC00000EB40011998283000EBA4
:104930008100B0F94C000290FCF7A0FB01469DF805
:104940005800C0EBC00000EB40021998283000EB83
:104950008200A0F84C1080219DF85800C0EBC000E8
:1049600000EB40021998283000EB820081709DF81E
:104970005800C0EBC00000EB40021998283000EB53
:1049800082000C9941609DF8580000E019E0C0EBEE
:10499000C00000EB40011998283000EB8100006D49
:1049A00078B19DF85800C0EBC00000EB40011998A9
:1049B000283000EB8100006D0290029A149919983A
:1049C000904716E51A98007900F0030006901298B7
:1049D00001287AD10698D0BB1A984179807941EAAA
:1049E00000200E901A98C0790D90189858B9FE4979
:1049F0000D98CDE900010E9BDDE912211998FDF714
:104A000058FFFF2061E41A98007A7F280BDDF749F0
:104A10000D98CDE900010E9BDDE912211998FDF7F3
:104A200048FFFF2051E416AA12991998FDF7C2FF1A
:104A30001890189860B1EC490D98CDE900010E9BD3
:104A4000DDE912211998FDF734FFFF203DE474E001
:104A500005210D98CDE900019DF858100E9B139A81
:104A60001998FEF78DF81A980079C0F380019DF827
:104A70005800C0EBC00000EB40021998283000EB52
:104A8000820080F834101A98017A9DF85800C0EB23
:104A9000C00000EB40021998283000EB820080F83B
:104AA00035109DF858101998FEF735FA11901198A5
:104AB00060B111990D98CDE900010E9BDDE912213D
:104AC0001998FDF7F6FEFF2053E424E215AA9DF89D
:104AD00058101998FDF7C8FF9DF85800C0EBC000AA
:104AE00000EB40021998283000EB82001599816391
:104AF000C2208DF83C000E98C0B28DF83D000E9893
:104B0000000A8DF83E000D988DF83F001598C0B250
:104B10008DF840001598000A8DF841001598000C9A
:104B20008DF842001598000E8DF843000FABDDE9BB
:104B30001212199801F0F8FEE6E30698012826D132
:104B4000189880B99DF85800C0EBC00000EB4001F8
:104B50001998283000EB81008078052801D00120C9
:104B600000E000201890189858B19F4800210B468B
:104B7000CDE90010DDE912211998FDF79AFEFF201A
:104B800020E49DF85810199801F0DBFDBCE306986D
:104B9000022802D006980328CED1189880B99DF833
:104BA0005800C0EBC00000EB40011998283000EB22
:104BB00081008078052801D0012000E000201890B5
:104BC000189858B1884900200346CDE90001DDE975
:104BD00012211998FDF76DFEFF2034E49DF858006E
:104BE000C0EBC00000EB40011998283000EB8100B9
:104BF000B0F94C00401C88B39DF85800C0EBC000D1
:104C000000EB40011998283000EB8100B0F94C000E
:104C10000290FCF733FA01469DF85800C0EBC00043
:104C200000EB40021998283000EB8200A0F84C10ED
:104C300000206F4B6F4A00909DF858101998FCF7B0
:104C40009FFE01469DF85800C0EBC00000EB4002FB
:104C50001998283000EB8200A0F84C109DF85800FD
:104C6000C0EBC00000EB40011998283000EB810038
:104C700000890E909DF85800C0EBC00000EB400189
:104C80001998283000EB8100807A0D900698022850
:104C90007ED11A9881799DF85800C0EBC00000EBD6
:104CA00040021998283000EB820080F835101A98DD
:104CB000407900F07F00049015AA9DF858101998CB
:104CC000FDF7D2FE1598A8BB9DF85800C0EBC000B8
:104CD00000EB40011998283000EB810090F840105B
:104CE0000498814227D19DF85800C0EBC00000EB2A
:104CF00040011998283000EB810090F84110C02045
:104D000040EA8100401CC0B28DF83C0001200B90AD
:104D100006E000210FAA0B9811540B98401C0B9031
:104D20000B980828F5D30FABDDE91212199801F0A2
:104D3000FBFDD8E5FFE79DF85800C0EBC00000EB95
:104D400040011998283000EB8100C16B07220498BC
:104D500002FB00119DF85800C0EBC00000EB4002C0
:104D60001998283000EB820001619DF85800C0EBD3
:104D7000C00000EB40011998283000EB8100016968
:104D80009DF85800C0EBC00000EB4002199800E00D
:104D900011E0283000EB8200C06881420BD9124834
:104DA00000210B46CDE90010DDE912211998FDF72D
:104DB00080FDFF203EE49DF85800C0EBC00000EBF2
:104DC00040011998283000EB810001699DF85800D6
:104DD000C0EBC00000EB40021998283000EB8200C5
:104DE000C1630120059085E0210000080200040550
:104DF000E09304001D1700089DF85800C0EBC000A8
:104E000000EB40021998283000EB8200059980F8E9
:104E1000401015AA9DF858101998FDF725FE159811
:104E2000072821D905988DF83C000DF13D03072294
:104E30009DF858101998FDF797FF1890189860B1D1
:104E40004FF000610D98CDE900010E9BDDE91221C4
:104E50001998FDF72EFDFF2027E40FABDDE91212B4
:104E6000199801F061FD41E0059840F080008DF84F
:104E70003C000DF13D039DF85810159A1998FDF767
:104E800073FF1890189860B14FF000610D98CDE94C
:104E900000010E9BDDE912211998FDF70AFDFF20A4
:104EA000ABE41598401C0B9006E000210FAA0B986C
:104EB00011540B98401C0B900B980828F5D30FAB9E
:104EC000DDE91212199801F02FFD1598C0F10700C5
:104ED000C1B29DF85800C0EBC00000EB4002199829
:104EE000283000EB820080F8411013E00598401C48
:104EF000C0B205909DF85800C0EBC00000EB400127
:104F00001998283000EB810090F8351005988142FF
:104F1000BFF672AF58E2069810B1069802287DD10C
:104F2000189880B99DF85800C0EBC00000EB400114
:104F30001998283000EB81008078042801D00120E6
:104F400000E000201890189858B1FE4800210B4648
:104F5000CDE90010DDE912211998FDF7AAFCFF2028
:104F60004BE49DF85800C0EBC00000EB40011998DD
:104F7000283000EB810000890E909DF85800C0EBAE
:104F8000C00000EB40011998283000EB8100807AC6
:104F90000D909DF85800C0EBC00000EB400119983F
:104FA000283000EB8100B0F94C00401C88B39DF81C
:104FB0005800C0EBC00000EB40011998283000EB0E
:104FC0008100B0F94C000290FCF758F801469DF8BA
:104FD0005800C0EBC00000EB40021998283000EBED
:104FE0008200A0F84C100020D74BD84A00909DF8C2
:104FF00058101998FCF7C4FC01469DF85800C0EB06
:10500000C00000EB40021998283000EB8200A0F8A5
:105010004C10069880BB1A98007A00E075E17F2852
:105020000BDDCB490D98CDE900010E9BDDE9122186
:105030001998FDF73EFCFF2012E41A980079C0F39E
:1050400080019DF85800C0EBC00000EB40021998A9
:10505000283000EB820080F834101A98017A9DF80D
:105060005800C0EBC00000EB40021998283000EB5C
:10507000820080F83510A0E0FFE71A9880797F2839
:105080000BDDB3490D98CDE900010E9BDDE912213E
:105090001998FDF70EFCFF200FE41A9881799DF80E
:1050A0005800C0EBC00000EB40021998283000EB1C
:1050B000820080F835101A98407900F07F00049043
:1050C00015AA9DF858101998FDF7CEFC1598A8BBA5
:1050D0009DF85800C0EBC00000EB40011998283043
:1050E00000EB810090F840100498814227D19DF890
:1050F0005800C0EBC00000EB40011998283000EBCD
:10510000810090F84100C02141EA8000401CC0B2FB
:105110008DF83C0001200B9006E000210FAA0B98AF
:1051200011540B98401C0B900B980828F5D30FAB2B
:10513000DDE91212199801F0F7FB42E4FFE79DF850
:105140005800C0EBC00000EB40011998283000EB7C
:105150008100C16B0722049802FB00119DF85800E2
:10516000C0EBC00000EB40021998283000EB820031
:1051700001619DF85800C0EBC00000EB4001199898
:10518000283000EB810001699DF85800C0EBC00099
:1051900000EB40021998283000EB8200C068814281
:1051A0000BD968490D98CDE900010E9BDDE912216C
:1051B0001998FDF77EFBFF2024E49DF85800C0EB12
:1051C000C00000EB40011998283000EB8100016914
:1051D0009DF85800C0EBC00000EB40021998283041
:1051E00000EB8200C163012005907DE09DF858002E
:1051F000C0EBC00000EB40021998283000EB8200A1
:10520000059980F8401015AA9DF858101998FDF7D7
:105210002BFC1598072821D905988DF83C000DF135
:105220003D0307229DF858101998FDF79DFD189031
:10523000189860B14FF000610D98CDE900010E9B08
:10524000DDE912211998FDF734FBFF203CE40FAB98
:10525000DDE91212199801F067FB41E0059840F072
:1052600080008DF83C000DF13D039DF85810159A13
:105270001998FDF779FD1890189860B14FF000610A
:105280000D98CDE900010E9BDDE912211998FDF77B
:1052900010FBFF2018E41598401C0B9006E000213D
:1052A0000FAA0B9811540B98401C0B900B980828D0
:1052B000F5D30FABDDE91212199801F035FB159803
:1052C000C0F10700C1B29DF85800C0EBC00000EB70
:1052D00040021998283000EB820080F8411013E05A
:1052E0000598401CC0B205909DF85800C0EBC00066
:1052F00000EB40011998283000EB810090F8351040
:1053000005988142BFF672AF5EE0069801284FD142
:105310009DF85800C0EBC00000EB40011998283000
:1053200000EB8100B0F94C000290FBF7A7FE0146AC
:105330009DF85800C0EBC00000EB400219982830DF
:1053400008E0000021000008E09304001D17000899
:105350000200040500EB8200A0F84C1001219DF82A
:105360005800C0EBC00000EB40021998283000EB59
:10537000820081709DF85800C0EBC00000EB400136
:105380001998283000EB8100006D78B19DF8580025
:10539000C0EBC00000EB40011998283000EB810001
:1053A000006D0290029A149919989047002014E415
:1053B000F84800210B46CDE90010DDE912211998CB
:1053C000FDF777FAFF2008E4B3E4129801287DD1B5
:1053D000189878B31A98007900F0010006900698A2
:1053E00058B1EC4800210B46CDE90010DDE912214F
:1053F0001998FDF75EFAFF20DCE41A98417980796C
:1054000041EA00200E901A98C0790D9016AA1299C0
:105410001998FDF7CFFA1890189860B1DD490D98EA
:10542000CDE900010E9BDDE912211998FDF741FA43
:10543000FF20BFE465E004210D98CDE900019DF84F
:1054400058100E9B139A1998FDF79AFB01219DF8AD
:105450005800C0EBC00000EB40021998283000EB68
:10546000820080F842101A980079C0F380019DF8FC
:105470005800C0EBC00000EB40021998283000EB48
:10548000820080F834101A98007900F00200B8B158
:105490001A98017A407A01EB00211A98807A01EB80
:1054A00000411A98C07A01EB00619DF85800C0EBEA
:1054B000C00000EB40021998283000EB82008163A5
:1054C000A0208DF83C000E98C0B200E096E28DF866
:1054D0003D000E9800128DF83E000D988DF83F00AB
:1054E00010208DF8400000208DF843008DF8420018
:1054F0008DF841000FABDDE91212199801F014FA92
:105500007BE29DF85800C0EBC00000EB4001199809
:10551000283000EB810090F8420001287ED19DF8F0
:105520005800C0EBC00000EB40011998283000EB98
:105530008100B0F94C00401C88B39DF85800C0EBC6
:10554000C00000EB40011998283000EB8100B0F951
:105550004C000290FBF792FD01469DF85800C0EB0D
:10556000C00000EB40021998283000EB8200A0F840
:105570004C100020884B894A00909DF858101998CB
:10558000FCF7FEF901469DF85800C0EBC00000EBA7
:1055900040021998283000EB8200A0F84C101A98AD
:1055A000007900F07F0005901A98007900F08000E3
:1055B000A8B39DF85800C0EBC00000EB400119985B
:1055C000283000EB810090F84000401C059988428B
:1055D0002CD102219DF85800C0EBC00000EB400226
:1055E0001998283000EB820080F842109DF858008E
:1055F000C0EBC00000EB40021998283000EB82009D
:10560000059980F840109DF85800C0EBC00000EBF1
:1056100040011998283000EB810101E0C0E038E03A
:105620001A98426841F8432F80684860A2208DF89C
:105630003C009DF85800C0EBC00000EB40011998F9
:10564000283000EB810090F840008DF83D001020DC
:105650008DF83E0000208DF843008DF842008DF853
:1056600041008DF840008DF83F000FABDDE91212CC
:10567000199801F059F900219DF85800C0EBC000BD
:1056800000EB40021998283000EB820080F84010AF
:10569000B3E19DF85800C0EBC00000EB4001199841
:1056A000283000EB810090F84000401C05998842AA
:1056B0003AD19DF85800C0EBC00000EB40021998A9
:1056C000283000EB8200059980F840101A98431D9D
:1056D00007229DF858101998FCF70EF918901898A1
:1056E00010B34FF000619DF85800C0EBC00000EB14
:1056F00040021998283000EB8200807ACDE9000141
:105700009DF85800C0EBC00000EB4001199828300C
:1057100000EB8100008903460290DDE9122119980F
:10572000FDF7C7F8FF201BE405981028B0D1A22090
:105730008DF83C009DF85800C0EBC00000EB400124
:105740001998283000EB810090F840008DF83D005A
:1057500010208DF83E0000208DF843008DF84200A7
:105760008DF841008DF840008DF83F000FABDDE96A
:105770001212199801F0D8F800219DF85800C0EBDA
:10578000C00000EB40021998283000EB820080F83E
:105790004010FCE321000008E09304001D170008FE
:1057A0009DF85800C0EBC00000EB4001199828306C
:1057B00000EB810090F842000228EAD11A980079A3
:1057C00000F0010058B9FE4800210B46CDE9001059
:1057D000DDE912211998FDF76CF8FF202CE49DF803
:1057E0005800C0EBC00000EB40011998283000EBD6
:1057F0008100B0F94C00401C88B39DF85800C0EB04
:10580000C00000EB40011998283000EB8100B0F98E
:105810004C000290FBF732FC01469DF85800C0EBAB
:10582000C00000EB40021998283000EB8200A0F87D
:105830004C100020E34BE44A00909DF85810199852
:10584000FCF79EF801469DF85800C0EBC00000EB45
:1058500040021998283000EB8200A0F84C101A98EA
:105860000079C0F3820003909DF85800C0EBC0009F
:1058700000EB40011998283000EB81004430029081
:105880000398C0F10700019002469DF85810029B52
:105890001998FCF731F81890189810B34FF0006180
:1058A0009DF85800C0EBC00000EB4002199828306A
:1058B00000EB8200807ACDE900019DF85800C0EB32
:1058C000C00000EB40011998283000EB81000089EE
:1058D00003460290DDE912211998FCF7EAFFFF2048
:1058E0006AE49DF85800C0EBC00000EB4001199835
:1058F000283000EB8100806BC8B39DF85800C0EBE6
:10590000C00000EB40011998283000EB8100816B4A
:105910009DF85800C0EBC00000EB400219982830F9
:1059200000EB82000069814222D0A5499DF8580011
:10593000C0EBC00000EB40021998283000EB820059
:10594000807ACDE900019DF85800C0EBC00000EB63
:1059500040011998283000EB81000089034602902D
:10596000DDE912211998FCF7A4FFFF2024E4FFE7EA
:10597000A1208DF83C0001200B9006E000210FAA29
:105980000B9811540B98401C0B900B980828F5D3DA
:105990000FABDDE91212199800F0C6FF9DF8581000
:1059A0001998FBF753FF1190119808B39DF8580010
:1059B000C0EBC00000EB40021998283000EB8200D9
:1059C000807A1199CDE900019DF85800C0EBC00024
:1059D00000EB40011998283000EB81000089034654
:1059E0000290DDE912211998FCF763FFFF202DE4F6
:1059F0009DF85810199800F0A4FEC8E2189858B104
:105A00006F4800210B46CDE90010DDE912211998FD
:105A1000FCF74FFFFF2019E49DF85800C0EBC000D1
:105A200000EB40011998283000EB8100B0F94C00E0
:105A3000401C88B39DF85800C0EBC00000EB40014B
:105A40001998283000EB8100B0F94C000290FBF768
:105A500015FB01469DF85800C0EBC00000EB40026A
:105A60001998283000EB8200A0F84C100020554B0C
:105A7000554A00909DF858101998FBF781FF014690
:105A80009DF85800C0EBC00000EB40021998283088
:105A900000EB8200A0F84C109DF85800C0EBC0004D
:105AA00000EB40011998283000EB810090F842008B
:105AB000E8BB1A98007900F0010000289DD101216F
:105AC0009DF85800C0EBC00000EB40021998283048
:105AD00000EB820080F842101A980079C0F3800130
:105AE0009DF85800C0EBC00000EB40021998283028
:105AF00000EB820080F834101A98007900F0020060
:105B0000C8B11A98017A407A01EB00211A98807A7C
:105B100001EB00411A98C07A01EB00629DF8580031
:105B2000C0EBC00000EB40011998283000E019E0FC
:105B300000EB81008263A3208DF83C0001200B90D4
:105B400006E000210FAA0B9811540B98401C0B90F3
:105B50000B980828F5D30FABDDE91212199800F065
:105B6000E3FE14E29DF85800C0EBC00000EB4001DA
:105B70001998283000EB810090F8420001287DD16F
:105B80001A98007900F07F0005901A98007900F0CB
:105B90008000E8B39DF85800C0EBC00000EB400166
:105BA0001998283000EB810090F84000401C0599BE
:105BB000884232D102229DF85800C0EBC00005E0B7
:105BC00021000008E09304001D17000800EB4001CD
:105BD0001998283000EB810080F842209DF8580089
:105BE000C0EBC00000EB40021998283000EB8200A7
:105BF000059980F840109DF85800C0EBC00000EBFC
:105C000040011998283000EB81011A98426800E0A1
:105C100038E041F8432F80684860A2208DF83C00AE
:105C20009DF85800C0EBC00000EB400119982830E7
:105C300000EB810090F840008DF83D0010208DF8B9
:105C40003E0000208DF843008DF842008DF84100A1
:105C50008DF840008DF83F000FABDDE91212199866
:105C600000F062FE00219DF85800C0EBC00000EB80
:105C700040021998283000EB820000E083E080F8B1
:105C8000401084E19DF85800C0EBC00000EB4001DB
:105C90001998283000EB810090F84000401C0599CD
:105CA00088423AD19DF85800C0EBC00000EB40029A
:105CB0001998283000EB8200059980F840101A9856
:105CC000431D07229DF858101998FBF715FE1890F0
:105CD000189810B34FF000619DF85800C0EBC00059
:105CE00000EB40021998283000EB8200807ACDE961
:105CF00000019DF85800C0EBC00000EB400119986E
:105D0000283000EB8100008903460290DDE9122172
:105D10001998FCF7CEFDFF2005E50598102831D134
:105D2000A2208DF83C009DF85800C0EBC00000EBAD
:105D300040011998283000EB810090F840008DF860
:105D40003D0010208DF83E0000208DF843008DF8B6
:105D500042008DF841008DF840008DF83F000FABF8
:105D6000DDE91212199800F0DFFD00229DF85800BD
:105D7000C0EBC00000EB40011998283000EB810017
:105D800080F8402003E19DF85800C0EBC00000EB14
:105D900040011998283000EB810090F84200022859
:105DA0007ED11A98007900F0010058B9914800217D
:105DB0000B46CDE90010DDE912211998FCF779FDB9
:105DC000FF20B0E41A980079C0F3820003909DF898
:105DD0005800C0EBC00000EB40011998283000EBE0
:105DE0008100443002900398C0F107000190024600
:105DF0009DF85810029B1998FBF77EFD1890189893
:105E000010B34FF000619DF85800C0EBC00000EBEC
:105E100040021998283000EB8200807ACDE9000119
:105E20009DF85800C0EBC00000EB400119982830E5
:105E300000EB8100008903460290DDE912211998E8
:105E4000FCF737FDFF206EE49DF85800C0EBC00062
:105E500000EB40011998283000EB8100806BD8B32B
:105E60009DF85800C0EBC00000EB400119982830A5
:105E700000EB8100816B9DF85800C0EBC00000EB87
:105E800040021998283000EB82000069814224D03A
:105E900058499DF85800C0EBC00000EB400200E0FC
:105EA00075E01998283000EB8200807ACDE9000176
:105EB0009DF85800C0EBC00000EB40011998283055
:105EC00000EB8100008903460290DDE91221199858
:105ED000FCF7EFFCFF2026E4FFE7A1208DF83C0053
:105EE00001200B9006E000210FAA0B9811540B988B
:105EF000401C0B900B980828F5D30FABDDE912126C
:105F0000199800F011FD9DF85800C0EBC00000EB9F
:105F100040011998283000EB8100B0F94C00029044
:105F2000FBF7ACF801469DF85800C0EBC00000EB51
:105F300040021998283000EB8200A0F84C10012292
:105F40009DF85800C0EBC00000EB400119982830C4
:105F500000EB810082709DF85800C0EBC00000EBA0
:105F600040011998283000EB8100006D78B19DF850
:105F70005800C0EBC00000EB40011998283000EB3E
:105F80008100006D0290029A1499199890472EE0B2
:105F9000189800BB18499DF85800C0EBC00000EBF2
:105FA00040021998283000EB8200807ACDE9000188
:105FB0009DF85800C0EBC00000EB40011998283054
:105FC00000EB8100008903460290DDE91221199857
:105FD000FCF76FFC09E0084800210B46CDE90010F2
:105FE000DDE912211998FCF764FCFF2078E400BF7A
:105FF000002075E4210000080100040570B5044686
:106000002046D4F8D01188478220005D08B90020CE
:1060100070BD01212046FCF7B6F905462046D4F8AC
:10602000D41188472846F3E72DE9F04105460E468E
:106030001C4807681C480068001D00F05CFF50B950
:106040001948006890F82C10012088401749096809
:10605000814316480160681C38B936B1124801689E
:10606000091D134800F085FF1AE07C190E480068EE
:106070004460BC4207D20C480168091D0D48006805
:1060800000F05DFF0CE008480168091D0A4800683F
:1060900000F055FF09480068844201D207480460B7
:1060A000BDE8F081600000204C000020640000206A
:1060B000C030002054000020500000207C00002050
:1060C00010B5044600F062FF23480068401C2249D6
:1060D00008602248006840B920480460084600680B
:1060E00001280DD100F072F90AE01D48006838B9A6
:1060F0001A480068C06AE16A884201D817480460FB
:1061000018480068401C1749086094F82C100120BA
:10611000884015490968084313490860E16A01EBA2
:106120008101124A02EB8100211D00F022FF00F0E4
:1061300057FF0B48006868B108480068C06AE16A08
:10614000884207D24FF0805009490860BFF34F8F53
:10615000BFF36F8F10BD00005C0000204C000020DA
:10616000680000207800002064000020F02D00204E
:1061700004ED00E010B516E000F008FF0C48C06820
:10618000C468201D00F0B7FE0A480068401E094997
:10619000086009480068401E0749086000F020FFB9
:1061A000204600F055F8044800680028E4D110BDEE
:1061B000AC3000205C0000205800002070B5044680
:1061C0000D46206C70B1216CE0680144E160D4E9B7
:1061D0000210884201D32168E1602846226CE16800
:1061E000FAF70EF870BD2DE9F04104460F4615464A
:1061F0004FF00008A66B206C28B37DB93946226C9D
:106200006068F9F7FDFF216C606808446060D4E9BC
:106210000101884217D32068606014E03946226C7F
:10622000E068F9F7EDFF216CE068411AE160216850
:10623000E068884203D2216CA068411AE160022D17
:1062400001D106B1761E701CA0634046BDE8F08106
:1062500010B50446206B00F0E1FE204600F0DEFEA3
:1062600010BD000030B54FF42053174800F007046C
:106270002CB1C01D20F00700134C041B1B1B024651
:10628000124C22600024114D6C60D018083820F0A8
:1062900007000F4C206000240D4D2D686C600C4DE4
:1062A0002D682C601146441A4C60094C24680C601F
:1062B000084D4C682C60084D4C682C604FF0004431
:1062C000064D2C6030BD0000F005002028000020A5
:1062D0003000002038000020340000203C00002066
:1062E00000BFFFF747FFFCE72DE9F04106460D46EA
:1062F00017469846069C0DB9246000E02760E663C7
:1063000025640121204601F09DF8BDE8F0812DE9CA
:10631000FF5F81460E469246DDE90E7B109C56B922
:1063200000BF5F2080F31188BFF34F8FBFF36F8FE3
:1063300000BF00BFFEE7AAF10100216B01EB80085E
:1063400028F0070808F0070008B9012000E0002045
:1063500050B900BF5F2080F31188BFF34F8FBFF3A8
:106360006F8F00BF00BFFEE7002507E0715D04F1FD
:1063700034004155705D00B902E06D1C202DF5D34D
:1063800000BF002153200155202F00D31F27E762B3
:10639000201D00F0D1FD04F1180000F0CDFD2461B6
:1063A000C7F12000A06164620020606584F8580095
:1063B00049464046039A00F0A5F92060BBF1000F62
:1063C00001D0CBF80040BDE8FF9F000010B50024CD
:1063D00007E004EB84010F4A02EB810000F09FFD0F
:1063E000641C202CF5D30C4800F099FD0B4800F0FC
:1063F00096FD0B4800F093FD0A4800F090FD0A4816
:1064000000F08DFD04480949086004480849086007
:1064100010BD0000F02D00207030002084300020DE
:1064200098300020AC300020C03000205000002008
:106430005400002010B50146164800E000680368CB
:106440008B42FBD30246436813448B4204D143681A
:106450004C682344436001460A464B681344046871
:10646000A34211D10C4C03682468A34208D04B68A6
:106470000468646823444B6003681B680B6005E094
:10648000054B1B680B6001E003680B60884200D07D
:10649000016010BD280000203000002070B50546C6
:1064A00000F074FDA86B08B9012400E0002400F09E
:1064B00097FD204670BD70B5054600F067FDA86BDE
:1064C000E96B884201D1012400E0002400F088FD3E
:1064D000204670BD0A490968096809B9012100E030
:1064E000002121B14FF0FF31064A116006E0044956
:1064F0000968C968C868034A4168116070470000AC
:10650000500000207C0000200E480068401C08B9A4
:10651000012000E0002050B900BF5F2080F3118807
:10652000BFF34F8FBFF36F8F00BF00BFFEE700BF09
:106530005F2080F31188BFF34F8FBFF36F8F00BFD1
:1065400000BFFEE74000002070B5044600F01EFDCD
:1065500094F9455010E0606A08B9012000E000207D
:1065600038B904F1240001F0AFFA18B100F022FEAE
:1065700000E003E0681E45B2002DECDC00BFFF2008
:1065800084F8450000F02CFD00F000FD94F9445023
:1065900010E0206908B9012000E0002048B904F1AA
:1065A000100001F091FA08B100F004FE681E45B237
:1065B00000E001E0002DECDC00BFFF2084F8440087
:1065C00000F00EFD70BD00002DE9F04104464FF0D3
:1065D000000800F055FE4648006808B9FFF742FE83
:1065E00044480068204000286BD1D4B1083404F03E
:1065F0000700B0B104F00700C0F10800044404F043
:10660000070008B9012000E0002050B900BF5F205A
:1066100080F31188BFF34F8FBFF36F8F00BF00BFB0
:10662000FEE7002C4DD034480068844249D8334EF0
:106630003046056801E02E462D686868A04202D207
:1066400028680028F7D12A480068854239D0306888
:1066500000F10808286830606868001B102819D904
:106660002F1907F0070008B9012000E0002050B9F9
:1066700000BF5F2080F31188BFF34F8FBFF36F8F90
:1066800000BF00BFFEE76868001B78606C6038469A
:10669000FFF7D0FE184968680968081A16490860AB
:1066A0000846006816490968884203D21248006803
:1066B000134908600F49686809680843686000204A
:1066C000286001F04DFA08F0070008B9012000E049
:1066D000002050B900BF5F2080F31188BFF34F8FB7
:1066E000BFF36F8F00BF00BFFEE74046BDE8F081FB
:1066F000300000203C000020340000202800002052
:1067000038000020001F4FF080730360001F21F04D
:1067100001030360001F034B03601438026020383C
:10672000704700000965000870B50546002405E0C3
:106730002146284600F005F8601CC4B2012CF7DBA6
:1067400070BD7CB504460D4600200090034602460D
:10675000294601902046FCF713FA00260BE00021A1
:10676000C5EBC50000EB400204F1280000EB8200FD
:1067700014308155761C202EF1D30021C5EBC500C5
:1067800000EB400204F1280000EB82004170C5EBF1
:10679000C50000EB400204F1280000EB82004160DC
:1067A0007CBD00002DE9FF4704460D468220005DB8
:1067B00038B105EBC501A06810F8110000F0010028
:1067C00018B1002004B0BDE8F08760690089284452
:1067D00086B2606850F836008069006800F00040BA
:1067E00008B10020EEE7002001900290039001AA7A
:1067F00029462046FBF739FF08B10020E2E705EB08
:10680000C501A06800EB4100C088BDF804108842B3
:1068100017D105EBC501A06800EB4100407A9DF857
:10682000071088420DD105EBC502A16801EB4201BA
:1068300001F10A00082202A9F9F7F4FC08B90020C6
:10684000C0E7606850F83600806D0788606850F8CF
:106850003600806BB0F80080C7B105EBC502A168B7
:1068600001EB4201B1F90200FAF708FC00200090A8
:10687000642007FB00F31F4A29462046FBF780F8F7
:1068800005EBC502A16801EB42014880B8F1000F99
:1068900028D005EBC502A16801EB4201B1F9040063
:1068A000FAF7ECFB642008FB00F00A21B0FBF1F9D9
:1068B00000204B46104A294600902046FBF760F81E
:1068C00005EBC502A16801EB4201888005EBC5011B
:1068D000A06810F8110040F0010005EBC502A168A6
:1068E00001F8120001AA2946204600F007F800BF6F
:1068F000012067E7551400088314000870B50446AA
:106900000E46154606EBC601A06800EB410029685B
:1069100040F8061F69684160A96881602946D4F87B
:10692000E401FBF767FF70BD2DE9FE43044688468E
:106930001646994694F87C00052806D094F87C0009
:106940007F2802D0FF20BDE8FE83B8F1010F13D1EC
:106950006069058825B1A819A1690988884201DD07
:10696000FF20F0E7A919606850F83100806A0088BC
:1069700080B2ADF8000012E06069458825B1A81921
:10698000A1694988884201DDFF20DCE7A919606818
:1069900050F831008069008880B2ADF80000002016
:1069A0008DF8020008208DF80300002705E019F893
:1069B000071001A8C155781CC7B2082FF7DB69463C
:1069C000D4F8E401FBF716FFBDE72DE9FC470646C6
:1069D0000F4690461D46DDE90A9480208DF80000A0
:1069E000E8B28DF80100280A8DF802008DF80390B6
:1069F000E0B28DF80400200A8DF80500200C8DF817
:106A00000600200E8DF807006B4642463946304698
:106A1000FFF78AFF82465046BDE8FC8770B5044602
:106A2000204600F006F805462046FFF7E7FA28461C
:106A300070BD3EB50446D4F8C801008880B2ADF8F8
:106A4000000000208DF802008DF803006946D4F89C
:106A5000E401FBF7CFFE3EBD2DE9FF430A46436943
:106A60001988002A01DD7F2A01DDBDE8FF8359B3C3
:106A7000436853F831309B691C6803681B7803F541
:106A8000C0639C4203D003681B78FF2B06D102F53C
:106A9000C063446854F83140A4692360436853F8E4
:106AA00031309B6A1C6803681B7803F5B0639C4215
:106AB00003D003681B78FF2B06D102F5B06344684E
:106AC00054F83140A46A236000234769B988876974
:106AD000BE88DFF83091D9E901C8D9F80070D9F83B
:106AE0000C90CDE901C8CDF80C90009779B32AE05D
:106AF000476857F83170BF693F6827F060454768BD
:106B000057F83170BF693F6807F060445DF8237043
:106B1000D0F800C09CF800C06744AF4203D00768BB
:106B20003F78FF2F0BD15DF8237017442743D0F82F
:106B300004C05CF831C0DCF818C0CCF800705F1CF1
:106B4000FBB24F1CB9B2B14201DC042BD0DB0023F5
:106B50004769398987693E89DFF8A89009F11009EA
:106B6000D9E901C8D9F80070D9F80C90CDE901C86D
:106B7000CDF80C90009700BF79B32AE0476857F82A
:106B80003170BF693F6827F06044476857F831703B
:106B9000BF693F6807F060455DF82370D0F800C01A
:106BA0009CF800C06744A74203D007683F78FF2FD6
:106BB0000BD15DF8237017442F43D0F804C05CF864
:106BC00031C0DCF818C0CCF800705F1CFBB24F1C61
:106BD000B9B2B14201DC042BD0DBD0F818321C680A
:106BE00003681B7880339C4203D003681B78FF2B1B
:106BF00004D102F18003D0F81842236003681A70B0
:106C000000BF32E7847C000810B50346202A01D972
:106C1000FF2010BDC1EBC10000EB400403F12800D0
:106C200000EB8400C2600020F3E700007CB504465E
:106C30000D4694F87C00A84259D035B1042D3CD0C3
:106C4000052D23D07F2D4FD10FE02A4903C9CDE96F
:106C50000001002084F87C006946204600F0BDF861
:106C60002046D4F88410884700BF2249083103C960
:106C7000CDE900017F2084F87C006946204600F0C1
:106C8000ACF82046D4F8881088472FE094F87C00B0
:106C900008B9FF207CBD1749103103C9CDE90001B7
:106CA000052084F87C0005256946204600F095F80B
:106CB0002046D4F88C10884718E094F87C0008B976
:106CC000FF20E7E70B49183103C9CDE90001042093
:106CD00084F87C0004256946204600F07EF82046B2
:106CE000D4F89010884701E0FF20D3E700BF94F864
:106CF0007C00CFE7647C000810B50446A1B24FF0D9
:106D00008040FBF70FF810BD3EB5044621680978B6
:106D100041F4E060ADF8000000208DF80200012091
:106D20008DF8030000208DF804006946D4F8E401D2
:106D3000FBF760FD3EBD0000F8B50446B4F9C401A0
:106D4000401C10B1204600F031F8164B002241F2F1
:106D500005012046FAF7C8FC124B002241F2060159
:106D60002046FAF7C1FCD4F8C801006800F0804062
:106D7000B8B1D4F8CC01006898B1D4F8CC0100685F
:106D80000A21B0FBF1F5D4F8CC010068B0FBF1F6B4
:106D90003346054A002120460095FAF7F1FDA4F894
:106DA000C401F8BDB9130008ED1B000810B5044676
:106DB00000231A4641F205012046FAF795FC00230C
:106DC0001A4641F206012046FAF78EFCB4F9C401D6
:106DD000FAF754F9A4F8C40110BD70B504460D4685
:106DE000687830B17E20005D18B901217E20015500
:106DF0000BE0687848B97E20005D012805D10021AC
:106E00007E2001552046FFF78FFCE87848B18020AE
:106E1000005D30B90121802001552046FFF78CFF2D
:106E20000BE0E87848B98020005D012805D10021F9
:106E3000802001552046FFF7B9FF287948B181200D
:106E4000005D30B90121812001552046FBF77AFF12
:106E50000BE0287948B98120005D012805D1002187
:106E6000812001552046FBF776FFA87848B17F20A6
:106E7000005D30B901217F2001552046FBF708FD58
:106E80000BE0A87848B97F20005D012805D10021DA
:106E90007F2001552046FBF70BFD687948B1822021
:106EA000005D30B90121822001552046FAF706FB2A
:106EB0000BE0687948B98220005D012805D10021E6
:106EC000822001552046FAF725FB287830B194F846
:106ED0007D0018B9012084F87D000BE0287848B9BE
:106EE00094F87D00012805D1002084F87D0020461B
:106EF000FFF70AFF70BD01460A69D1E901309860C9
:106F0000D1E9010358605068884201D18868506017
:106F1000002008611068401E10601068704700F182
:106F2000080141604FF0FF31816000F10801C1604C
:106F3000016100210160704700210161704710B5B7
:106F400002460B685C1C0CB9106907E002F10800EE
:106F500000E04068446824689C42FAD944684C6068
:106F60004C68A160886041600A611468641C146008
:106F700010BD42684A6093688B6093685960916065
:106F8000086103685B1C03607047000000BF5F205E
:106F900080F31188BFF34F8FBFF36F8F00BF0E4890
:106FA0000068401C0C49086008460068012812D19E
:106FB0000A480068C0B208B9012000E0002050B9BA
:106FC00000BF5F2080F31188BFF34F8FBFF36F8F37
:106FD00000BF00BFFEE770474000002004ED00E066
:106FE0000D48006850B900BF5F2080F31188BFF3DF
:106FF0004F8FBFF36F8F00BF00BFFEE706480068EA
:10700000401E054908600846006820B9002080F34A
:10701000118800BF00BF70474000002070B50646D1
:107020003546002E3FD0083D2C461F496068096850
:10703000084008B1012000E0002050B900BF5F20E7
:1070400080F31188BFF34F8FBFF36F8F00BF00BF76
:10705000FEE7206808B9012000E0002050B900BF19
:107060005F2080F31188BFF34F8FBFF36F8F00BF96
:1070700000BFFEE70C4960680968084098B12068C5
:1070800088B90949606809688843606000F0F8F8C9
:107090000649606809680844044908602046FFF70B
:1070A000C9F900F05DFD70BD3C00002034000020F7
:1070B00000204FF0E0210861886102484861072004
:1070C000086170473F19010070B5F9F783F804466D
:1070D000102C16D304F1E02090F8F05315480078F6
:1070E000854201DB012000E0002050B900BF5F2095
:1070F00080F31188BFF34F8FBFF36F8F00BF00BFC6
:10710000FEE70D48006800F4E0600C490968884219
:1071100001D8012000E0002050B900BF5F2080F3BB
:107120001188BFF34F8FBFF36F8F00BF00BFFEE723
:1071300070BD0000440000200CED00E0480000207D
:1071400070B504460025D4B11248006808B9012082
:1071500000E0002050B900BF5F2080F31188BFF32A
:107160004F8FBFF36F8F00BF00BFFEE700F088F8BE
:1071700000212046FEF758FF00F0F2FC05463DB91D
:107180004FF0805004490860BFF34F8FBFF36F8FFB
:1071900070BD00008400002004ED00E00349096890
:1071A00001600349096841607047000074000020D5
:1071B0006000002001200149086070477000002035
:1071C00070B504460D4654B900BF5F2080F31188A6
:1071D000BFF34F8FBFF36F8F00BF00BFFEE70548BF
:1071E000016818312046FFF7AAFE01212846FEF764
:1071F0001BFF70BD4C0000201CB51A4800210B4637
:107200004022CDE9001018A1194800F089FB04467E
:10721000012C15D100BF5F2080F31188BFF34F8F81
:10722000BFF36F8F00BF4FF0FF301249086001209D
:107230001149086000201149086000F06FF810E063
:10724000601C08B1012000E0002050B900BF5F20A1
:1072500080F31188BFF34F8FBFF36F8F00BF00BF64
:10726000FEE71CBD8000002049444C4500000000A2
:10727000E16200087C00002068000020600000201F
:1072800002480068401C01490860704784000020E3
:107290001D48006818B101201C49086032E0002038
:1072A0001A4908601A480068B0FA80F0C0F11F015E
:1072B00001EB8100174A52F8200008B1012000E0DC
:1072C000002050B900BF5F2080F31188BFF34F8FBB
:1072D000BFF36F8F00BF00BFFEE701EB81020D4BD4
:1072E00003EB820042685268426000F10802436882
:1072F000934202D14268526842604268D268064BAB
:107300001A6000BF70470000840000207000002059
:1073100064000020F02D00204C0000201CB52D49F9
:10732000084600780190FF200A4610700846007851
:1073300000909DF800009DF80020904201D10120AE
:1073400000E0002050B900BF5F2080F31188BFF338
:107350004F8FBFF36F8F00BF00BFFEE79DF80000A7
:1073600000F05F001C4A107007201C4A106009E002
:107370001A480068401E194A10609DF80000400637
:10738000000E00909DF8000000F080008028EFD0F3
:10739000124800680002114A10601046008800F48C
:1073A000E06010600B4A019810700D48006840F4CE
:1073B0007F000B4908600846006840F07F40086085
:1073C000FFF776FE002007490860F8F7CDFE0020A1
:1073D0001CBD000000E400E0440000204800002044
:1073E00020ED00E0400000202DE9F84305460E4660
:1073F00090460DB1012000E0002050B900BF5F2091
:1074000080F31188BFF34F8FBFF36F8F00BF00BFB2
:10741000FEE70EB9002701E005FB06F707F148007B
:10742000FFF7D2F804464CB1A14609F1480943469A
:107430004A46314628460094FEF756FF2046BDE8EE
:10744000F883000070B505460E462C4654B900BFBF
:107450005F2080F31188BFF34F8FBFF36F8F00BFA2
:1074600000BFFEE7FFF792FDD4E90F12206801FB91
:107470000200A0600020A06320686060E06B401EF6
:10748000226C216800FB0211E160FF2084F84400B7
:1074900084F845009EB9206908B9012000E0002069
:1074A000A8B904F1100000F00FFB80B14FF080503C
:1074B00009490860BFF34F8FBFF36F8F07E004F1F6
:1074C0001000FFF72CFD04F12400FFF728FDFFF763
:1074D00087FD012070BD000004ED00E02DE9FF43B1
:1074E00083B0064688461D464FF00009344654B91D
:1074F00000BF5F2080F31188BFF34F8FBFF36F8F02
:1075000000BF00BFFEE7B8F1000F01D1206C08B941
:10751000012000E0002050B900BF5F2080F31188F7
:10752000BFF34F8FBFF36F8F00BF00BFFEE7022D89
:1075300002D1E06B012801D1012000E0002050B908
:1075400000BF5F2080F31188BFF34F8FBFF36F8FB1
:1075500000BF00BFFEE700BFFFF718FDA06BE16BA7
:10756000884201D3022D28D12A4641462046FEF703
:107570003AFE0746606A08B9012000E0002068B9B9
:1075800004F1240000F0A0FA88B14FF08050324995
:107590000860BFF34F8FBFF36F8F08E03FB14FF02C
:1075A00080502D490860BFF34F8FBFF36F8FFFF7F7
:1075B00017FD012007B0BDE8F083059818B9FFF763
:1075C0000FFD0020F6E7B9F1000F04D101A8FFF785
:1075D000E5FD4FF00109FFF703FDFFF751FEFFF74F
:1075E000D5FC94F94400401C10B9002084F84400F4
:1075F00094F94500401C10B9002084F84500FFF7BD
:10760000EFFC05A901A800F045F9F0B92046FEF706
:1076100052FFA0B104F110000599FFF7D1FD2046FB
:10762000FEF792FF00F09CFA002895D14FF08050B1
:1076300009490860BFF34F8FBFF36F8F8CE7204677
:10764000FEF782FF00F08CFA86E72046FEF77CFF0B
:1076500000F086FA0020ADE704ED00E02DE9F05FD0
:1076600007468A4690461E463C4654B900BF5F20F6
:1076700080F31188BFF34F8FBFF36F8F00BF00BF40
:10768000FEE7BAF1000F01D1206C08B9012000E03B
:10769000002050B900BF5F2080F31188BFF34F8FE7
:1076A000BFF36F8F00BF00BFFEE7022E02D1E06B79
:1076B000012801D1012000E0002050B900BF5F2067
:1076C00080F31188BFF34F8FBFF36F8F00BF00BFF0
:1076D000FEE7FFF7F9FC00BF5F21EFF3118081F3B4
:1076E0001188BFF34F8FBFF36F8F00BF0546A06BAC
:1076F000E16B884201D3022E23D194F945B0324682
:1077000051462046FEF76FFD0BF1010088B9606A13
:1077100008B9012000E0002080B904F1240000F045
:10772000D3F958B1B8F1000F08D00120C8F8000013
:1077300004E00BF1010040B284F845004FF001096C
:1077400001E04FF0000900BF85F3118800BF4846F3
:10775000BDE8F09F2DE9F74183B005460E464FF096
:1077600000082C4654B900BF5F2080F31188BFF396
:107770004F8FBFF36F8F00BF00BFFEE70EB9206CC5
:1077800008B9012000E0002050B900BF5F2080F35D
:107790001188BFF34F8FBFF36F8F00BF00BFFEE7AD
:1077A00000BFFFF7F3FBA76BF7B131462046FEF7AA
:1077B00005FD781EA063206908B9012000E00020C3
:1077C00060B904F1100000F07FF938B14FF080503B
:1077D0002F490860BFF34F8FBFF36F8FFFF700FC97
:1077E000012006B0BDE8F081059818B9FFF7F8FB55
:1077F0000020F6E7B8F1000F04D101A8FFF7CEFC96
:107800004FF00108FFF7ECFBFFF73AFDFFF7BEFB77
:1078100094F94400401C10B9002084F8440094F905
:107820004500401C10B9002084F84500FFF7D8FB44
:1078300005A901A800F02EF8F0B92046FEF72EFEAB
:10784000A0B104F124000599FFF7BAFC2046FEF729
:107850007BFE00F085F90028A3D14FF080500C4941
:107860000860BFF34F8FBFF36F8F9AE72046FEF794
:107870006BFE00F075F994E72046FEF765FE00F018
:107880006FF92046FEF70AFE00288AD00020A8E7FC
:1078900004ED00E070B505460C4655B900BF5F2009
:1078A00080F31188BFF34F8FBFF36F8F00BF00BF0E
:1078B000FEE754B900BF5F2080F31188BFF34F8FFC
:1078C000BFF36F8F00BF00BFFEE7FFF75FFB1248FB
:1078D00002686868131A2068401C08B9002617E07F
:1078E0000E4928680968884204D06868904201D827
:1078F00001260DE02068984207D92068C01A206050
:107900002846FFF74BFC002602E0002020600126FD
:10791000FFF766FB304670BD600000207400002059
:107920002DE9FF4F85B0804689461746DDE912AB49
:10793000B800FEF749FE064656B15C20FEF744FE4D
:1079400004460CB1266304E03046FFF767FB00E015
:1079500000247CB10020CDE900ABCDE902403A46DD
:1079600049464046089BFEF7D2FC2046FEF7A8FB9E
:10797000012501E04FF0FF35284609B0BDE8F08F42
:107980002DE9F0414FF0000844480068002877D105
:1079900043480068451C4248056015BB41480068E3
:1079A000006808B9012000E0002050B900BF5F2046
:1079B00080F31188BFF34F8FBFF36F8F00BF00BFFD
:1079C000FEE7384807683848006836490860364896
:1079D000076036480068401C34490860FEF77AFDAD
:1079E00000BF3348006885423CD300BF2D48006883
:1079F000006808B9012000E0002020B14FF0FF30FE
:107A00002B4908602DE027480068C068C468666894
:107A1000B54202D22648066023E0201DFFF76BFA2C
:107A2000A06A18B104F11800FFF765FA94F82C1059
:107A3000012088401F49096808431E490860E16A1F
:107A400001EB81011C4A02EB8100211DFFF791FA35
:107A50001A49E06A0968C96A8842C7D34FF0010829
:107A6000C4E700BF15480068C06A00EB80001249F7
:107A700051F82000012801D94FF0010805E0FFE787
:107A80000F480068401C0E4908600E48006808B1A5
:107A90004FF001084046BDE8F0810000840000205E
:107AA00060000020500000205400002074000020DE
:107AB0007C00002064000020F02D00204C000020FD
:107AC0006C0000207000002070B50646F068C468A5
:107AD00054B900BF5F2080F31188BFF34F8FBFF30D
:107AE0006F8F00BF00BFFEE704F11800FFF703FA35
:107AF00015480068A8B9201DFFF7FDF994F82C106F
:107B00000120884011490968084310490860E16A6A
:107B100001EB81010E4A02EB8100211DFFF729FADA
:107B200004E004F118010B48FFF723FA0A49E06A60
:107B30000968C96A884204D90125012007490860FB
:107B400000E00025284670BD84000020640000206D
:107B5000F02D0020983000204C0000207000002004
:107B600070B5002400263648006850B900BF5F2079
:107B700080F31188BFF34F8FBFF36F8F00BF00BF3B
:107B8000FEE7FFF703FA2E480068401E2C49086004
:107B90000846006800284FD12A48006800284BD0CA
:107BA00024E02948C068C46804F11800FFF7A3F96D
:107BB000201DFFF7A0F994F82C10012088402349DC
:107BC0000968084321490860E16A01EB8101204A04
:107BD00002EB8100211DFFF7CCF91E49E06A09681C
:107BE000C96A884202D301201B4908601648006810
:107BF00008B9012000E000200028D2D00CB1FEF727
:107C000069FC1648056865B100BFFFF7B9FE10B101
:107C10000120114908606D1E002DF6D100200F498A
:107C200008600D48006838B1012630070C4908602B
:107C3000BFF34F8FBFF36F8FFFF7D2F9304670BDA0
:107C4000840000205C0000209830002064000020A8
:107C5000F02D00204C000020700000206C0000205F
:107C600004ED00E00100000000000000000101013F
:107C700001000100000101010101000000000000FD
:107C800001000100000200000003000000040000E9
:107C90000005000080010000800200008003000059
:107CA0008004000001000000BC0000200100001062
:107CB000D000002001000110240100200100171055
:107CC0004801002005001810A40100200300001244
:107CD000E8010020070000146002002002000016E6
:107CE00094020020070000180C0300200200001A74
:107CF0003003002002000020540300200200012075
:107D000078030020020002200400000005000600A5
:107D10000700080004000000050006000700080036
:107D20000C000000447D000800000020F005000069
:107D300098050008CC7E0008F00500200034000003
:107D40003C2200081184A24A0468090102030406C7
:107D50000708090C69100518020406081AAA01018F
:107D6000444BFFFF04012C23020729BD22B87A20CF
:107D7000141A05BC319ACC14514A9F185AE018695C
:107D80003CEAE42831B2802AF4351A0630314B201F
:107D9000012C2938F98C59785A34246960DA381062
:107DA000DA3C10DA40106A4410311A01781A81580E
:107DB000695CDA982CDA9C105AA0101937112A81C4
:107DC000310911A05AD4241159346AD81059206AA3
:107DD000DC1059F4DADE20DAE020DAE2205AE4108E
:107DE000290C6D0801012018CB5802785A5C103913
:107DF000AC29490911ACDA80346A841059206A88A8
:107E000010598CDA8A20DA8C20DA8E205A901029C8
:107E10000C2A20B85918CB0403785A0810291C6979
:107E20009C6A2C244A08241AAC43E9246A50245939
:107E3000100A11B024DA74245AB124211AFF01E186
:107E40001AB21C13A87C5B08983413192214080872
:107E50007D1B0814041A20041AA41C2BD11B9201A8
:107E60004A6984720F133B231B084F041A3F048B8B
:107E700059266C1318011B201C041AB4A41A2008DC
:107E800029381A39240A270F0101561AFF011A3D11
:107E9000881A10941A1204018023FFFF1A08881A06
:107EA0000C041A4D981A45041A41041A430481130C
:107EB000211B8C085B2610021001191122E01B20E7
:0C7EC000E4041ACC040A2114D85A4760CC
:0400000508000131BD
:00000001FF
