Component: ARM Compiler 5.06 update 6 (build 750) Tool: armlink [4d35ed]

==============================================================================

Section Cross References

    main.o(i.main) refers to system_stm32f10x.o(i.SystemInit) for SystemInit
    main.o(i.main) refers to misc.o(i.NVIC_PriorityGroupConfig) for NVIC_PriorityGroupConfig
    main.o(i.main) refers to stm32f10x_rcc.o(i.RCC_AHBPeriphClockCmd) for RCC_AHBPeriphClockCmd
    main.o(i.main) refers to bsp.o(i.BSP_Init) for BSP_Init
    main.o(i.main) refers to canopen_drv.o(i.CANOpen_Driver_Init) for CANOpen_Driver_Init
    main.o(i.main) refers to gui_core.o(i.GUI_Init) for GUI_Init
    main.o(i.main) refers to wm_setcreateflags.o(i.WM_SetCreateFlags) for WM_SetCreateFlags
    main.o(i.main) refers to softwarewindowdlg.o(i.CreateWindow) for CreateWindow
    main.o(i.main) refers to gui_touch_driveranalog.o(i.GUI_TOUCH_Exec) for GUI_TOUCH_Exec
    main.o(i.main) refers to gui_time.o(i.GUI_Delay) for GUI_Delay
    main.o(i.main) refers to canopen_app.o(i.CANOpen_App_Task) for CANOpen_App_Task
    main.o(i.main) refers to softwarewindowdlg.o(i.WinMain_DateUpdate) for WinMain_DateUpdate
    main.o(i.main) refers to main.o(.data) for hWinWindow
    main.o(i.main) refers to bsp_timer.o(.data) for OS_TimeMS
    canopen_app.o(i.CANOpen_App_Task) refers to sdo.o(i.writeNetworkDict) for writeNetworkDict
    canopen_app.o(i.CANOpen_App_Task) refers to sdo.o(i.closeSDOtransfer) for closeSDOtransfer
    canopen_app.o(i.CANOpen_App_Task) refers to canopen_app.o(.data) for Config_table
    canopen_app.o(i.CANOpen_App_Task) refers to master.o(.data) for Master_Data
==============================================================================

Removing Unused input sections from the image.

    Removing canopen_app.o(i.heartbeatError), (12 bytes).
    Removing bsp_usart.o(i.DEBUG_SendByte), (32 bytes).
    Removing bsp_usart.o(i.DEBUG_SendNByte), (28 bytes).
    Removing bsp_usart.o(i.fgetc), (32 bytes).
    Removing bsp_usart.o(i.fputc), (16 bytes).
    Removing dcf.o(i.CheckSDOAndContinue), (278 bytes).
    Removing dcf.o(i.SaveNode), (60 bytes).
    Removing dcf.o(i.check_and_start_node), (86 bytes).
    Removing dcf.o(i.get_next_DCF_data), (156 bytes).
    Removing dcf.o(i.init_consise_dcf), (94 bytes).
    Removing dcf.o(i.read_consise_dcf_next_entry), (64 bytes).
    Removing dcf.o(i.start_and_seek_node), (64 bytes).
    Removing dcf.o(i.start_node), (26 bytes).
    Removing dcf.o(i.write_consise_dcf_next_entry), (76 bytes).
    Removing emcy.o(i.EMCY_errorRecovered), (152 bytes).
    Removing emcy.o(i.EMCY_setError), (294 bytes).
    Removing emcy.o(i.sendEMCY), (88 bytes).
    Removing lifegrd.o(i.getNodeState), (16 bytes).
==============================================================================

Image Symbol Table

    Local Symbols

    Symbol Name                              Value     Ov Type        Size  Object(Section)

    ../clib/angel/boardlib.s                 0x00000000   Number         0  boardinit2.o ABSOLUTE
    ../clib/angel/boardlib.s                 0x00000000   Number         0  boardshut.o ABSOLUTE
    ../clib/angel/boardlib.s                 0x00000000   Number         0  boardinit3.o ABSOLUTE
    ../clib/angel/boardlib.s                 0x00000000   Number         0  boardinit1.o ABSOLUTE
    ../clib/angel/dczerorl2.s                0x00000000   Number         0  __dczerorl2.o ABSOLUTE
    ../clib/angel/handlers.s                 0x00000000   Number         0  __scatter_zi.o ABSOLUTE
    ../clib/angel/kernel.s                   0x00000000   Number         0  rtexit2.o ABSOLUTE
    ../clib/angel/kernel.s                   0x00000000   Number         0  __rtentry.o ABSOLUTE
    ../clib/angel/kernel.s                   0x00000000   Number         0  rtexit.o ABSOLUTE
    ../clib/angel/kernel.s                   0x00000000   Number         0  __rtentry4.o ABSOLUTE
    ../clib/angel/kernel.s                   0x00000000   Number         0  __rtentry2.o ABSOLUTE
    ../clib/angel/rt.s                       0x00000000   Number         0  rt_locale.o ABSOLUTE
    ../clib/angel/rt.s                       0x00000000   Number         0  rt_locale_intlibspace.o ABSOLUTE
    ../clib/angel/rt.s                       0x00000000   Number         0  rt_raise.o ABSOLUTE
    ../clib/angel/scatter.s                  0x00000000   Number         0  __scatter.o ABSOLUTE
    ../clib/angel/startup.s                  0x00000000   Number         0  __main.o ABSOLUTE
    ../clib/angel/sys.s                      0x00000000   Number         0  sys_stackheap_outer.o ABSOLUTE
    ../clib/angel/sys.s                      0x00000000   Number         0  use_no_semi.o ABSOLUTE
    ../clib/angel/sys.s                      0x00000000   Number         0  indicate_semi.o ABSOLUTE
    ../clib/angel/sys.s                      0x00000000   Number         0  libspace.o ABSOLUTE
    ../clib/angel/sysapp.c                   0x00000000   Number         0  sys_command.o ABSOLUTE
    ../clib/angel/sysapp.c                   0x00000000   Number         0  sys_wrch.o ABSOLUTE
    ../clib/angel/sysapp.c                   0x00000000   Number         0  sys_exit.o ABSOLUTE
    ../clib/armsys.c                         0x00000000   Number         0  no_argv.o ABSOLUTE
    ../clib/armsys.c                         0x00000000   Number         0  argv_veneer.o ABSOLUTE
    ../clib/armsys.c                         0x00000000   Number         0  argv_veneer.o ABSOLUTE
    ../clib/armsys.c                         0x00000000   Number         0  _get_argv_nomalloc.o ABSOLUTE
    ../clib/bigflt.c                         0x00000000   Number         0  bigflt0.o ABSOLUTE
    ../clib/btod.s                           0x00000000   Number         0  btod.o ABSOLUTE
    ../clib/heapalloc.c                      0x00000000   Number         0  hrguard.o ABSOLUTE
    ../clib/heapaux.c                        0x00000000   Number         0  heapauxi.o ABSOLUTE
    ../clib/libinit.s                        0x00000000   Number         0  libinit.o ABSOLUTE
    ../clib/libinit.s                        0x00000000   Number         0  libshutdown2.o ABSOLUTE
    ../clib/libinit.s                        0x00000000   Number         0  libshutdown.o ABSOLUTE
    ../clib/libinit.s                        0x00000000   Number         0  libinit2.o ABSOLUTE
    ../clib/locale.s                         0x00000000   Number         0  lc_numeric_c.o ABSOLUTE
    ../clib/longlong.s                       0x00000000   Number         0  lludiv10.o ABSOLUTE
    ../clib/memcpset.s                       0x00000000   Number         0  rt_memcpy_v6.o ABSOLUTE
    ../clib/memcpset.s                       0x00000000   Number         0  rt_memmove_v6.o ABSOLUTE
    ../clib/memcpset.s                       0x00000000   Number         0  strcmpv7m.o ABSOLUTE
    ../clib/memcpset.s                       0x00000000   Number         0  rt_memclr.o ABSOLUTE
    ../clib/memcpset.s                       0x00000000   Number         0  rt_memmove_w.o ABSOLUTE
    ../clib/memcpset.s                       0x00000000   Number         0  rt_memcpy_w.o ABSOLUTE
    ../clib/memcpset.s                       0x00000000   Number         0  aeabi_memset.o ABSOLUTE
    ../clib/memcpset.s                       0x00000000   Number         0  rt_memclr_w.o ABSOLUTE
    ../clib/misc.s                           0x00000000   Number         0  printf_stubs.o ABSOLUTE
    ../clib/printf.c                         0x00000000   Number         0  __printf.o ABSOLUTE
    ../clib/printf.c                         0x00000000   Number         0  __2sprintf.o ABSOLUTE
    ../clib/printf.c                         0x00000000   Number         0  noretval__2sprintf.o ABSOLUTE
    ../clib/printf.c                         0x00000000   Number         0  _printf_pad.o ABSOLUTE
    ../clib/printf.c                         0x00000000   Number         0  __printf_nopercent.o ABSOLUTE
    ../clib/printf.c                         0x00000000   Number         0  __printf_flags.o ABSOLUTE
    ../clib/printf.c                         0x00000000   Number         0  _printf_fp_infnan.o ABSOLUTE
    ../clib/printf.c                         0x00000000   Number         0  _printf_fp_dec.o ABSOLUTE
    ../clib/printf.c                         0x00000000   Number         0  __printf_ss.o ABSOLUTE
    ../clib/printf.c                         0x00000000   Number         0  __printf_flags_ss.o ABSOLUTE
    ../clib/printf.c                         0x00000000   Number         0  __printf_wp.o ABSOLUTE
    ../clib/printf.c                         0x00000000   Number         0  __printf_flags_wp.o ABSOLUTE
    ../clib/printf.c                         0x00000000   Number         0  __printf_ss_wp.o ABSOLUTE
    ../clib/printf.c                         0x00000000   Number         0  _printf_char_common.o ABSOLUTE
    ../clib/printf.c                         0x00000000   Number         0  _sputc.o ABSOLUTE
    ../clib/printf.c                         0x00000000   Number         0  __printf_flags_ss_wp.o ABSOLUTE
    ../clib/printf_percent.s                 0x00000000   Number         0  _printf_percent_end.o ABSOLUTE
    ../clib/printf_percent.s                 0x00000000   Number         0  _printf_percent.o ABSOLUTE
    ../clib/printf_percent.s                 0x00000000   Number         0  _printf_f.o ABSOLUTE
    ../clib/signal.c                         0x00000000   Number         0  defsig_fpe_inner.o ABSOLUTE
    ../clib/signal.c                         0x00000000   Number         0  defsig_rtmem_formal.o ABSOLUTE
    ../clib/signal.c                         0x00000000   Number         0  defsig_general.o ABSOLUTE
    ../clib/signal.c                         0x00000000   Number         0  defsig_rtmem_outer.o ABSOLUTE
    ../clib/signal.c                         0x00000000   Number         0  defsig_segv_inner.o ABSOLUTE
    ../clib/signal.c                         0x00000000   Number         0  defsig_rtmem_inner.o ABSOLUTE
    ../clib/signal.c                         0x00000000   Number         0  __raise.o ABSOLUTE
    ../clib/signal.c                         0x00000000   Number         0  defsig_exit.o ABSOLUTE
    ../clib/signal.c                         0x00000000   Number         0  defsig_other.o ABSOLUTE
    ../clib/signal.c                         0x00000000   Number         0  defsig_cppl_inner.o ABSOLUTE
    ../clib/signal.c                         0x00000000   Number         0  defsig_pvfn_inner.o ABSOLUTE
    ../clib/signal.c                         0x00000000   Number         0  defsig_stak_inner.o ABSOLUTE
    ../clib/signal.c                         0x00000000   Number         0  defsig_rtred_inner.o ABSOLUTE
    ../clib/signal.c                         0x00000000   Number         0  defsig_abrt_inner.o ABSOLUTE
    ../clib/signal.s                         0x00000000   Number         0  defsig.o ABSOLUTE
    ../clib/stdlib.c                         0x00000000   Number         0  exit.o ABSOLUTE
    ../clib/string.c                         0x00000000   Number         0  memcmp.o ABSOLUTE
    ../clib/string.c                         0x00000000   Number         0  strcpy.o ABSOLUTE
    ../clib/string.c                         0x00000000   Number         0  strlen.o ABSOLUTE
    ../fplib/daddsub.s                       0x00000000   Number         0  daddsub_clz.o ABSOLUTE
    ../fplib/dfix.s                          0x00000000   Number         0  dfix.o ABSOLUTE
    ../fplib/dnaninf.s                       0x00000000   Number         0  dnaninf.o ABSOLUTE
    ../fplib/dretinf.s                       0x00000000   Number         0  dretinf.o ABSOLUTE
    ../fplib/f2d.s                           0x00000000   Number         0  f2d.o ABSOLUTE
    ../fplib/faddsub.s                       0x00000000   Number         0  faddsub_clz.o ABSOLUTE
    ../fplib/fdiv.s                          0x00000000   Number         0  fdiv.o ABSOLUTE
    ../fplib/ffix.s                          0x00000000   Number         0  ffix.o ABSOLUTE
    ../fplib/fflt.s                          0x00000000   Number         0  fflt_clz.o ABSOLUTE
    ../fplib/fmul.s                          0x00000000   Number         0  fmul.o ABSOLUTE
    ../fplib/fnaninf.s                       0x00000000   Number         0  fnaninf.o ABSOLUTE
    ../fplib/fpinit.s                        0x00000000   Number         0  fpinit.o ABSOLUTE
    ../fplib/fretinf.s                       0x00000000   Number         0  fretinf.o ABSOLUTE
    ../fplib/istatus.s                       0x00000000   Number         0  istatus.o ABSOLUTE
    ../fplib/printf1.s                       0x00000000   Number         0  printf1.o ABSOLUTE
    ../fplib/usenofp.s                       0x00000000   Number         0  usenofp.o ABSOLUTE
    ../mathlib/fpclassify.c                  0x00000000   Number         0  fpclassify.o ABSOLUTE
    ..\..\..\Utilities\Third_Party\STemWin532_20160205\GUI\Core\GUICC_0.c 0x00000000   Number         0  guicc_0.o ABSOLUTE
    ..\..\..\Utilities\Third_Party\STemWin532_20160205\GUI\Core\GUICC_8888.c 0x00000000   Number         0  guicc_8888.o ABSOLUTE
    ..\..\..\Utilities\Third_Party\STemWin532_20160205\GUI\Core\GUICC_8888_Index2Color.c 0x00000000   Number         0  guicc_8888_index2color.o ABSOLUTE
    ..\..\..\Utilities\Third_Party\STemWin532_20160205\GUI\Core\GUICC_888_Index2Color.c 0x00000000   Number         0  guicc_888_index2color.o ABSOLUTE
    ..\..\..\Utilities\Third_Party\STemWin532_20160205\GUI\Core\GUICC_M555_Index2Color.c 0x00000000   Number         0  guicc_m555_index2color.o ABSOLUTE
    ..\..\..\Utilities\Third_Party\STemWin532_20160205\GUI\Core\GUICC_M565.c 0x00000000   Number         0  guicc_m565.o ABSOLUTE
    ..\..\..\Utilities\Third_Party\STemWin532_20160205\GUI\Core\GUI_2DLib.c 0x00000000   Number         0  gui_2dlib.o ABSOLUTE
    ..\..\..\Utilities\Third_Party\STemWin532_20160205\GUI\Core\GUI_ALLOC_AllocZero.c 0x00000000   Number         0  gui_alloc_alloczero.o ABSOLUTE
    ..\..\..\Utilities\Third_Party\STemWin532_20160205\GUI\Core\GUI_Alloc.c 0x00000000   Number         0  gui_alloc.o ABSOLUTE
    ..\..\..\Utilities\Third_Party\STemWin532_20160205\GUI\Core\GUI_BMP.c 0x00000000   Number         0  gui_bmp.o ABSOLUTE
    ..\..\..\Utilities\Third_Party\STemWin532_20160205\GUI\Core\GUI_CalcColorDist.c 0x00000000   Number         0  gui_calccolordist.o ABSOLUTE
    ..\..\..\Utilities\Third_Party\STemWin532_20160205\GUI\Core\GUI_Char.c 0x00000000   Number         0  gui_char.o ABSOLUTE
    ..\..\..\Utilities\Third_Party\STemWin532_20160205\GUI\Core\GUI_CharLine.c 0x00000000   Number         0  gui_charline.o ABSOLUTE
    ..\..\..\Utilities\Third_Party\STemWin532_20160205\GUI\Core\GUI_CharM.c 0x00000000   Number         0  gui_charm.o ABSOLUTE
    ..\..\..\Utilities\Third_Party\STemWin532_20160205\GUI\Core\GUI_CharP.c 0x00000000   Number         0  gui_charp.o ABSOLUTE
    ..\..\..\Utilities\Third_Party\STemWin532_20160205\GUI\Core\GUI_Core.c 0x00000000   Number         0  gui_core.o ABSOLUTE
    ..\..\..\Utilities\Third_Party\STemWin532_20160205\GUI\Core\GUI_Curs1.c 0x00000000   Number         0  gui_curs1.o ABSOLUTE
    ..\..\..\Utilities\Third_Party\STemWin532_20160205\GUI\Core\GUI_CursorArrowM.c 0x00000000   Number         0  gui_cursorarrowm.o ABSOLUTE
    ..\..\..\Utilities\Third_Party\STemWin532_20160205\GUI\Core\GUI_CursorArrowMPx.c 0x00000000   Number         0  gui_cursorarrowmpx.o ABSOLUTE
    ..\..\..\Utilities\Third_Party\STemWin532_20160205\GUI\Core\GUI_CursorPal.c 0x00000000   Number         0  gui_cursorpal.o ABSOLUTE
    ..\..\..\Utilities\Third_Party\STemWin532_20160205\GUI\Core\GUI_Device.c 0x00000000   Number         0  gui_device.o ABSOLUTE
    ..\..\..\Utilities\Third_Party\STemWin532_20160205\GUI\Core\GUI_DispStringInRect.c 0x00000000   Number         0  gui_dispstringinrect.o ABSOLUTE
    ..\..\..\Utilities\Third_Party\STemWin532_20160205\GUI\Core\GUI_DispStringInRectWrap.c 0x00000000   Number         0  gui_dispstringinrectwrap.o ABSOLUTE
    ..\..\..\Utilities\Third_Party\STemWin532_20160205\GUI\Core\GUI_DrawBitmap.c 0x00000000   Number         0  gui_drawbitmap.o ABSOLUTE
    ..\..\..\Utilities\Third_Party\STemWin532_20160205\GUI\Core\GUI_DrawFocusRect.c 0x00000000   Number         0  gui_drawfocusrect.o ABSOLUTE
    ..\..\..\Utilities\Third_Party\STemWin532_20160205\GUI\Core\GUI_DrawGradient.c 0x00000000   Number         0  gui_drawgradient.o ABSOLUTE
    ..\..\..\Utilities\Third_Party\STemWin532_20160205\GUI\Core\GUI_DrawHLine.c 0x00000000   Number         0  gui_drawhline.o ABSOLUTE
    ..\..\..\Utilities\Third_Party\STemWin532_20160205\GUI\Core\GUI_DrawVLine.c 0x00000000   Number         0  gui_drawvline.o ABSOLUTE
    ..\..\..\Utilities\Third_Party\STemWin532_20160205\GUI\Core\GUI_Exec.c 0x00000000   Number         0  gui_exec.o ABSOLUTE
    ..\..\..\Utilities\Third_Party\STemWin532_20160205\GUI\Core\GUI_FillRect.c 0x00000000   Number         0  gui_fillrect.o ABSOLUTE
    ..\..\..\Utilities\Third_Party\STemWin532_20160205\GUI\Core\GUI_FillRectEx.c 0x00000000   Number         0  gui_fillrectex.o ABSOLUTE
    ..\..\..\Utilities\Third_Party\STemWin532_20160205\GUI\Core\GUI_GetBitmapPixelIndex.c 0x00000000   Number         0  gui_getbitmappixelindex.o ABSOLUTE
    ..\..\..\Utilities\Third_Party\STemWin532_20160205\GUI\Core\GUI_GetClientRect.c 0x00000000   Number         0  gui_getclientrect.o ABSOLUTE
    ..\..\..\Utilities\Third_Party\STemWin532_20160205\GUI\Core\GUI_GetColor.c 0x00000000   Number         0  gui_getcolor.o ABSOLUTE
    ..\..\..\Utilities\Third_Party\STemWin532_20160205\GUI\Core\GUI_GetOrg.c 0x00000000   Number         0  gui_getorg.o ABSOLUTE
    ..\..\..\Utilities\Third_Party\STemWin532_20160205\GUI\Core\GUI_Goto.c 0x00000000   Number         0  gui_goto.o ABSOLUTE
    ..\..\..\Utilities\Third_Party\STemWin532_20160205\GUI\Core\GUI_MergeRect.c 0x00000000   Number         0  gui_mergerect.o ABSOLUTE
    ..\..\..\Utilities\Third_Party\STemWin532_20160205\GUI\Core\GUI_MoveRect.c 0x00000000   Number         0  gui_moverect.o ABSOLUTE
    ..\..\..\Utilities\Third_Party\STemWin532_20160205\GUI\Core\GUI_OnKey.c 0x00000000   Number         0  gui_onkey.o ABSOLUTE
    ..\..\..\Utilities\Third_Party\STemWin532_20160205\GUI\Core\GUI_PID.c 0x00000000   Number         0  gui_pid.o ABSOLUTE
    ..\..\..\Utilities\Third_Party\STemWin532_20160205\GUI\Core\GUI_Pen.c 0x00000000   Number         0  gui_pen.o ABSOLUTE
    ..\..\..\Utilities\Third_Party\STemWin532_20160205\GUI\Core\GUI_RectsIntersect.c 0x00000000   Number         0  gui_rectsintersect.o ABSOLUTE
    ..\..\..\Utilities\Third_Party\STemWin532_20160205\GUI\Core\GUI_SPRITE.c 0x00000000   Number         0  gui_sprite.o ABSOLUTE
    ..\..\..\Utilities\Third_Party\STemWin532_20160205\GUI\Core\GUI_SaveContext.c 0x00000000   Number         0  gui_savecontext.o ABSOLUTE
    ..\..\..\Utilities\Third_Party\STemWin532_20160205\GUI\Core\GUI_SelectLCD.c 0x00000000   Number         0  gui_selectlcd.o ABSOLUTE
    ..\..\..\Utilities\Third_Party\STemWin532_20160205\GUI\Core\GUI_SelectLayer.c 0x00000000   Number         0  gui_selectlayer.o ABSOLUTE
    ..\..\..\Utilities\Third_Party\STemWin532_20160205\GUI\Core\GUI_SetAlpha.c 0x00000000   Number         0  gui_setalpha.o ABSOLUTE
    ..\..\..\Utilities\Third_Party\STemWin532_20160205\GUI\Core\GUI_SetColor.c 0x00000000   Number         0  gui_setcolor.o ABSOLUTE
    ..\..\..\Utilities\Third_Party\STemWin532_20160205\GUI\Core\GUI_SetDefault.c 0x00000000   Number         0  gui_setdefault.o ABSOLUTE
    ..\..\..\Utilities\Third_Party\STemWin532_20160205\GUI\Core\GUI_SetDrawMode.c 0x00000000   Number         0  gui_setdrawmode.o ABSOLUTE
    ..\..\..\Utilities\Third_Party\STemWin532_20160205\GUI\Core\GUI_SetFont.c 0x00000000   Number         0  gui_setfont.o ABSOLUTE
    ..\..\..\Utilities\Third_Party\STemWin532_20160205\GUI\Core\GUI_SetLineStyle.c 0x00000000   Number         0  gui_setlinestyle.o ABSOLUTE
    ..\..\..\Utilities\Third_Party\STemWin532_20160205\GUI\Core\GUI_SetOrg.c 0x00000000   Number         0  gui_setorg.o ABSOLUTE
    ..\..\..\Utilities\Third_Party\STemWin532_20160205\GUI\Core\GUI_SetTextAlign.c 0x00000000   Number         0  gui_settextalign.o ABSOLUTE
    ..\..\..\Utilities\Third_Party\STemWin532_20160205\GUI\Core\GUI_SetTextMode.c 0x00000000   Number         0  gui_settextmode.o ABSOLUTE
    ..\..\..\Utilities\Third_Party\STemWin532_20160205\GUI\Core\GUI_TOUCH.c 0x00000000   Number         0  gui_touch.o ABSOLUTE
    ..\..\..\Utilities\Third_Party\STemWin532_20160205\GUI\Core\GUI_TOUCH_Calibrate.c 0x00000000   Number         0  gui_touch_calibrate.o ABSOLUTE
    ..\..\..\Utilities\Third_Party\STemWin532_20160205\GUI\Core\GUI_TOUCH_DriverAnalog.c 0x00000000   Number         0  gui_touch_driveranalog.o ABSOLUTE
    ..\..\..\Utilities\Third_Party\STemWin532_20160205\GUI\Core\GUI_TOUCH_StoreState.c 0x00000000   Number         0  gui_touch_storestate.o ABSOLUTE
    ..\..\..\Utilities\Third_Party\STemWin532_20160205\GUI\Core\GUI_Time.c 0x00000000   Number         0  gui_time.o ABSOLUTE
    ..\..\..\Utilities\Third_Party\STemWin532_20160205\GUI\Core\GUI_Timer.c 0x00000000   Number         0  gui_timer.o ABSOLUTE
    ..\..\..\Utilities\Third_Party\STemWin532_20160205\GUI\Core\GUI_UC.c 0x00000000   Number         0  gui_uc.o ABSOLUTE
    ..\..\..\Utilities\Third_Party\STemWin532_20160205\GUI\Core\GUI_UC_EncodeNone.c 0x00000000   Number         0  gui_uc_encodenone.o ABSOLUTE
    ..\..\..\Utilities\Third_Party\STemWin532_20160205\GUI\Core\GUI_WaitEvent.c 0x00000000   Number         0  gui_waitevent.o ABSOLUTE
    ..\..\..\Utilities\Third_Party\STemWin532_20160205\GUI\Core\GUI__Alpha.c 0x00000000   Number         0  gui__alpha.o ABSOLUTE
    ..\..\..\Utilities\Third_Party\STemWin532_20160205\GUI\Core\GUI__CompactPixelIndices.c 0x00000000   Number         0  gui__compactpixelindices.o ABSOLUTE
    ..\..\..\Utilities\Third_Party\STemWin532_20160205\GUI\Core\GUI__DivTbl_255_31.c 0x00000000   Number         0  gui__divtbl_255_31.o ABSOLUTE
    ..\..\..\Utilities\Third_Party\STemWin532_20160205\GUI\Core\GUI__DivTbl_255_63.c 0x00000000   Number         0  gui__divtbl_255_63.o ABSOLUTE
    ..\..\..\Utilities\Third_Party\STemWin532_20160205\GUI\Core\GUI__DivTbl_31_255.c 0x00000000   Number         0  gui__divtbl_31_255.o ABSOLUTE
    ..\..\..\Utilities\Third_Party\STemWin532_20160205\GUI\Core\GUI__DivTbl_63_255.c 0x00000000   Number         0  gui__divtbl_63_255.o ABSOLUTE
    ..\..\..\Utilities\Third_Party\STemWin532_20160205\GUI\Core\GUI__DrawTwinArc.c 0x00000000   Number         0  gui__drawtwinarc.o ABSOLUTE
    ..\..\..\Utilities\Third_Party\STemWin532_20160205\GUI\Core\GUI__ExpandPixelIndices.c 0x00000000   Number         0  gui__expandpixelindices.o ABSOLUTE
    ..\..\..\Utilities\Third_Party\STemWin532_20160205\GUI\Core\GUI__HandleEOLine.c 0x00000000   Number         0  gui__handleeoline.o ABSOLUTE
    ..\..\..\Utilities\Third_Party\STemWin532_20160205\GUI\Core\GUI__IntersectRect.c 0x00000000   Number         0  gui__intersectrect.o ABSOLUTE
    ..\..\..\Utilities\Third_Party\STemWin532_20160205\GUI\Core\GUI__IntersectRects.c 0x00000000   Number         0  gui__intersectrects.o ABSOLUTE
    ..\..\..\Utilities\Third_Party\STemWin532_20160205\GUI\Core\GUI__ManageCache.c 0x00000000   Number         0  gui__managecache.o ABSOLUTE
    ..\..\..\Utilities\Third_Party\STemWin532_20160205\GUI\Core\GUI__Read.c 0x00000000   Number         0  gui__read.o ABSOLUTE
    ..\..\..\Utilities\Third_Party\STemWin532_20160205\GUI\Core\GUI__ReduceRect.c 0x00000000   Number         0  gui__reducerect.o ABSOLUTE
    ..\..\..\Utilities\Third_Party\STemWin532_20160205\GUI\Core\GUI__SetText.c 0x00000000   Number         0  gui__settext.o ABSOLUTE
    ..\..\..\Utilities\Third_Party\STemWin532_20160205\GUI\Core\GUI__Wrap.c 0x00000000   Number         0  gui__wrap.o ABSOLUTE
    ..\..\..\Utilities\Third_Party\STemWin532_20160205\GUI\Core\GUI__memset.c 0x00000000   Number         0  gui__memset.o ABSOLUTE
    ..\..\..\Utilities\Third_Party\STemWin532_20160205\GUI\Core\GUI__memset16.c 0x00000000   Number         0  gui__memset16.o ABSOLUTE
    ..\..\..\Utilities\Third_Party\STemWin532_20160205\GUI\Core\GUI__sqrt32.c 0x00000000   Number         0  gui__sqrt32.o ABSOLUTE
    ..\..\..\Utilities\Third_Party\STemWin532_20160205\GUI\Core\GUI__strcmp.c 0x00000000   Number         0  gui__strcmp.o ABSOLUTE
    ..\..\..\Utilities\Third_Party\STemWin532_20160205\GUI\Core\GUI__strlen.c 0x00000000   Number         0  gui__strlen.o ABSOLUTE
    ..\..\..\Utilities\Third_Party\STemWin532_20160205\GUI\Core\LCD.c 0x00000000   Number         0  lcd.o ABSOLUTE
    ..\..\..\Utilities\Third_Party\STemWin532_20160205\GUI\Core\LCD_AA.c 0x00000000   Number         0  lcd_aa.o ABSOLUTE
    ..\..\..\Utilities\Third_Party\STemWin532_20160205\GUI\Core\LCD_Color.c 0x00000000   Number         0  lcd_color.o ABSOLUTE
    ..\..\..\Utilities\Third_Party\STemWin532_20160205\GUI\Core\LCD_GetColorIndex.c 0x00000000   Number         0  lcd_getcolorindex.o ABSOLUTE
    ..\..\..\Utilities\Third_Party\STemWin532_20160205\GUI\Core\LCD_GetEx.c 0x00000000   Number         0  lcd_getex.o ABSOLUTE
    ..\..\..\Utilities\Third_Party\STemWin532_20160205\GUI\Core\LCD_GetNumDisplays.c 0x00000000   Number         0  lcd_getnumdisplays.o ABSOLUTE
    ..\..\..\Utilities\Third_Party\STemWin532_20160205\GUI\Core\LCD_GetP.c 0x00000000   Number         0  lcd_getp.o ABSOLUTE
    ..\..\..\Utilities\Third_Party\STemWin532_20160205\GUI\Core\LCD_GetPixelColor.c 0x00000000   Number         0  lcd_getpixelcolor.o ABSOLUTE
    ..\..\..\Utilities\Third_Party\STemWin532_20160205\GUI\Core\LCD_Mirror.c 0x00000000   Number         0  lcd_mirror.o ABSOLUTE
    ..\..\..\Utilities\Third_Party\STemWin532_20160205\GUI\Core\LCD_ReadRect.c 0x00000000   Number         0  lcd_readrect.o ABSOLUTE
    ..\..\..\Utilities\Third_Party\STemWin532_20160205\GUI\Core\LCD_SelectLCD.c 0x00000000   Number         0  lcd_selectlcd.o ABSOLUTE
    ..\..\..\Utilities\Third_Party\STemWin532_20160205\GUI\Core\LCD_Set.c 0x00000000   Number         0  lcd_set.o ABSOLUTE
    ..\..\..\Utilities\Third_Party\STemWin532_20160205\GUI\Core\LCD_SetClipRectEx.c 0x00000000   Number         0  lcd_setcliprectex.o ABSOLUTE
    ..\..\..\Utilities\Third_Party\STemWin532_20160205\GUI\Core\LCD_UpdateColorIndices.c 0x00000000   Number         0  lcd_updatecolorindices.o ABSOLUTE
    ..\..\..\Utilities\Third_Party\STemWin532_20160205\GUI\Font\F13_1.c 0x00000000   Number         0  f13_1.o ABSOLUTE
    ..\..\..\Utilities\Third_Party\STemWin532_20160205\GUI\Font\F13_ASCII.c 0x00000000   Number         0  f13_ascii.o ABSOLUTE
    ..\..\..\Utilities\Third_Party\STemWin532_20160205\GUI\Font\F24_ASCII.c 0x00000000   Number         0  f24_ascii.o ABSOLUTE
    ..\..\..\Utilities\Third_Party\STemWin532_20160205\GUI\Font\F32B_1.c 0x00000000   Number         0  f32b_1.o ABSOLUTE
    ..\..\..\Utilities\Third_Party\STemWin532_20160205\GUI\Font\F32B_ASCII.c 0x00000000   Number         0  f32b_ascii.o ABSOLUTE
    ..\..\..\Utilities\Third_Party\STemWin532_20160205\GUI\Font\F32_ASCII.c 0x00000000   Number         0  f32_ascii.o ABSOLUTE
    ..\..\..\Utilities\Third_Party\STemWin532_20160205\GUI\Font\F6x8.c 0x00000000   Number         0  f6x8.o ABSOLUTE
    ..\..\..\Utilities\Third_Party\STemWin532_20160205\GUI\Font\F8x16.c 0x00000000   Number         0  f8x16.o ABSOLUTE
    ..\..\..\Utilities\Third_Party\STemWin532_20160205\GUI\MemDev\GUIDEV.c 0x00000000   Number         0  guidev.o ABSOLUTE
    ..\..\..\Utilities\Third_Party\STemWin532_20160205\GUI\MemDev\GUIDEV_16.c 0x00000000   Number         0  guidev_16.o ABSOLUTE
    ..\..\..\Utilities\Third_Party\STemWin532_20160205\GUI\MemDev\GUIDEV_32.c 0x00000000   Number         0  guidev_32.o ABSOLUTE
    ..\..\..\Utilities\Third_Party\STemWin532_20160205\GUI\MemDev\GUIDEV_Banding.c 0x00000000   Number         0  guidev_banding.o ABSOLUTE
    ..\..\..\Utilities\Third_Party\STemWin532_20160205\GUI\MemDev\GUIDEV_Clear.c 0x00000000   Number         0  guidev_clear.o ABSOLUTE
    ..\..\..\Utilities\Third_Party\STemWin532_20160205\GUI\MemDev\GUIDEV_CreateFixed.c 0x00000000   Number         0  guidev_createfixed.o ABSOLUTE
    ..\..\..\Utilities\Third_Party\STemWin532_20160205\GUI\MemDev\GUIDEV_GetDataPtr.c 0x00000000   Number         0  guidev_getdataptr.o ABSOLUTE
    ..\..\..\Utilities\Third_Party\STemWin532_20160205\GUI\MemDev\GUIDEV_GetPos.c 0x00000000   Number         0  guidev_getpos.o ABSOLUTE
    ..\..\..\Utilities\Third_Party\STemWin532_20160205\GUI\MemDev\GUIDEV_GetXSize.c 0x00000000   Number         0  guidev_getxsize.o ABSOLUTE
    ..\..\..\Utilities\Third_Party\STemWin532_20160205\GUI\MemDev\GUIDEV_GetYSize.c 0x00000000   Number         0  guidev_getysize.o ABSOLUTE
    ..\..\..\Utilities\Third_Party\STemWin532_20160205\GUI\MemDev\GUIDEV_ReduceYSize.c 0x00000000   Number         0  guidev_reduceysize.o ABSOLUTE
    ..\..\..\Utilities\Third_Party\STemWin532_20160205\GUI\MemDev\GUIDEV_SetOrg.c 0x00000000   Number         0  guidev_setorg.o ABSOLUTE
    ..\..\..\Utilities\Third_Party\STemWin532_20160205\GUI\MemDev\GUIDEV_StaticDevices.c 0x00000000   Number         0  guidev_staticdevices.o ABSOLUTE
    ..\..\..\Utilities\Third_Party\STemWin532_20160205\GUI\MemDev\GUIDEV_Usage.c 0x00000000   Number         0  guidev_usage.o ABSOLUTE
    ..\..\..\Utilities\Third_Party\STemWin532_20160205\GUI\MemDev\GUIDEV_UsageBM.c 0x00000000   Number         0  guidev_usagebm.o ABSOLUTE
    ..\..\..\Utilities\Third_Party\STemWin532_20160205\GUI\MemDev\GUIDEV_Write.c 0x00000000   Number         0  guidev_write.o ABSOLUTE
    ..\..\..\Utilities\Third_Party\STemWin532_20160205\GUI\MemDev\GUIDEV_WriteToActiveAlpha.c 0x00000000   Number         0  guidev_writetoactivealpha.o ABSOLUTE
    ..\..\..\Utilities\Third_Party\STemWin532_20160205\GUI\MemDev\GUIDEV_WriteToActiveOpaque.c 0x00000000   Number         0  guidev_writetoactiveopaque.o ABSOLUTE
    ..\..\..\Utilities\Third_Party\STemWin532_20160205\GUI\WM\WM.c 0x00000000   Number         0  wm.o ABSOLUTE
    ..\..\..\Utilities\Third_Party\STemWin532_20160205\GUI\WM\WM_BringToBottom.c 0x00000000   Number         0  wm_bringtobottom.o ABSOLUTE
    ..\..\..\Utilities\Third_Party\STemWin532_20160205\GUI\WM\WM_BringToTop.c 0x00000000   Number         0  wm_bringtotop.o ABSOLUTE
    ..\..\..\Utilities\Third_Party\STemWin532_20160205\GUI\WM\WM_CriticalHandle.c 0x00000000   Number         0  wm_criticalhandle.o ABSOLUTE
    ..\..\..\Utilities\Third_Party\STemWin532_20160205\GUI\WM\WM_ForEachDesc.c 0x00000000   Number         0  wm_foreachdesc.o ABSOLUTE
    ..\..\..\Utilities\Third_Party\STemWin532_20160205\GUI\WM\WM_GetBkColor.c 0x00000000   Number         0  wm_getbkcolor.o ABSOLUTE
    ..\..\..\Utilities\Third_Party\STemWin532_20160205\GUI\WM\WM_GetClientRect.c 0x00000000   Number         0  wm_getclientrect.o ABSOLUTE
    ..\..\..\Utilities\Third_Party\STemWin532_20160205\GUI\WM\WM_GetClientWindow.c 0x00000000   Number         0  wm_getclientwindow.o ABSOLUTE
    ..\..\..\Utilities\Third_Party\STemWin532_20160205\GUI\WM\WM_GetDesktopWindow.c 0x00000000   Number         0  wm_getdesktopwindow.o ABSOLUTE
    ..\..\..\Utilities\Third_Party\STemWin532_20160205\GUI\WM\WM_GetDesktopWindowEx.c 0x00000000   Number         0  wm_getdesktopwindowex.o ABSOLUTE
    ..\..\..\Utilities\Third_Party\STemWin532_20160205\GUI\WM\WM_GetDialogItem.c 0x00000000   Number         0  wm_getdialogitem.o ABSOLUTE
    ..\..\..\Utilities\Third_Party\STemWin532_20160205\GUI\WM\WM_GetFirstChild.c 0x00000000   Number         0  wm_getfirstchild.o ABSOLUTE
    ..\..\..\Utilities\Third_Party\STemWin532_20160205\GUI\WM\WM_GetFocussedWindow.c 0x00000000   Number         0  wm_getfocussedwindow.o ABSOLUTE
    ..\..\..\Utilities\Third_Party\STemWin532_20160205\GUI\WM\WM_GetId.c 0x00000000   Number         0  wm_getid.o ABSOLUTE
    ..\..\..\Utilities\Third_Party\STemWin532_20160205\GUI\WM\WM_GetOrg.c 0x00000000   Number         0  wm_getorg.o ABSOLUTE
    ..\..\..\Utilities\Third_Party\STemWin532_20160205\GUI\WM\WM_GetParent.c 0x00000000   Number         0  wm_getparent.o ABSOLUTE
    ..\..\..\Utilities\Third_Party\STemWin532_20160205\GUI\WM\WM_GetWindowRect.c 0x00000000   Number         0  wm_getwindowrect.o ABSOLUTE
    ..\..\..\Utilities\Third_Party\STemWin532_20160205\GUI\WM\WM_GetWindowSize.c 0x00000000   Number         0  wm_getwindowsize.o ABSOLUTE
    ..\..\..\Utilities\Third_Party\STemWin532_20160205\GUI\WM\WM_HasFocus.c 0x00000000   Number         0  wm_hasfocus.o ABSOLUTE
    ..\..\..\Utilities\Third_Party\STemWin532_20160205\GUI\WM\WM_IsFocussable.c 0x00000000   Number         0  wm_isfocussable.o ABSOLUTE
    ..\..\..\Utilities\Third_Party\STemWin532_20160205\GUI\WM\WM_IsWindow.c 0x00000000   Number         0  wm_iswindow.o ABSOLUTE
    ..\..\..\Utilities\Third_Party\STemWin532_20160205\GUI\WM\WM_Move.c 0x00000000   Number         0  wm_move.o ABSOLUTE
    ..\..\..\Utilities\Third_Party\STemWin532_20160205\GUI\WM\WM_NotifyParent.c 0x00000000   Number         0  wm_notifyparent.o ABSOLUTE
    ..\..\..\Utilities\Third_Party\STemWin532_20160205\GUI\WM\WM_OnKey.c 0x00000000   Number         0  wm_onkey.o ABSOLUTE
    ..\..\..\Utilities\Third_Party\STemWin532_20160205\GUI\WM\WM_PID__GetPrevState.c 0x00000000   Number         0  wm_pid__getprevstate.o ABSOLUTE
    ..\..\..\Utilities\Third_Party\STemWin532_20160205\GUI\WM\WM_ResizeWindow.c 0x00000000   Number         0  wm_resizewindow.o ABSOLUTE
    ..\..\..\Utilities\Third_Party\STemWin532_20160205\GUI\WM\WM_Screen2Win.c 0x00000000   Number         0  wm_screen2win.o ABSOLUTE
    ..\..\..\Utilities\Third_Party\STemWin532_20160205\GUI\WM\WM_SendMessageNoPara.c 0x00000000   Number         0  wm_sendmessagenopara.o ABSOLUTE
    ..\..\..\Utilities\Third_Party\STemWin532_20160205\GUI\WM\WM_SendToParent.c 0x00000000   Number         0  wm_sendtoparent.o ABSOLUTE
    ..\..\..\Utilities\Third_Party\STemWin532_20160205\GUI\WM\WM_SetCapture.c 0x00000000   Number         0  wm_setcapture.o ABSOLUTE
    ..\..\..\Utilities\Third_Party\STemWin532_20160205\GUI\WM\WM_SetCreateFlags.c 0x00000000   Number         0  wm_setcreateflags.o ABSOLUTE
    ..\..\..\Utilities\Third_Party\STemWin532_20160205\GUI\WM\WM_SetFocus.c 0x00000000   Number         0  wm_setfocus.o ABSOLUTE
    ..\..\..\Utilities\Third_Party\STemWin532_20160205\GUI\WM\WM_SetFocusOnNextChild.c 0x00000000   Number         0  wm_setfocusonnextchild.o ABSOLUTE
    ..\..\..\Utilities\Third_Party\STemWin532_20160205\GUI\WM\WM_SetFocusOnPrevChild.c 0x00000000   Number         0  wm_setfocusonprevchild.o ABSOLUTE
    ..\..\..\Utilities\Third_Party\STemWin532_20160205\GUI\WM\WM_SetScrollState.c 0x00000000   Number         0  wm_setscrollstate.o ABSOLUTE
    ..\..\..\Utilities\Third_Party\STemWin532_20160205\GUI\WM\WM_SetSize.c 0x00000000   Number         0  wm_setsize.o ABSOLUTE
    ..\..\..\Utilities\Third_Party\STemWin532_20160205\GUI\WM\WM_SetTrans.c 0x00000000   Number         0  wm_settrans.o ABSOLUTE
    ..\..\..\Utilities\Third_Party\STemWin532_20160205\GUI\WM\WM_SetUserClipRect.c 0x00000000   Number         0  wm_setusercliprect.o ABSOLUTE
    ..\..\..\Utilities\Third_Party\STemWin532_20160205\GUI\WM\WM_Show.c 0x00000000   Number         0  wm_show.o ABSOLUTE
    ..\..\..\Utilities\Third_Party\STemWin532_20160205\GUI\WM\WM_Timer.c 0x00000000   Number         0  wm_timer.o ABSOLUTE
    ..\..\..\Utilities\Third_Party\STemWin532_20160205\GUI\WM\WM_Touch.c 0x00000000   Number         0  wm_touch.o ABSOLUTE
    ..\..\..\Utilities\Third_Party\STemWin532_20160205\GUI\WM\WM_UserData.c 0x00000000   Number         0  wm_userdata.o ABSOLUTE
    ..\..\..\Utilities\Third_Party\STemWin532_20160205\GUI\WM\WM_ValidateWindow.c 0x00000000   Number         0  wm_validatewindow.o ABSOLUTE
    ..\..\..\Utilities\Third_Party\STemWin532_20160205\GUI\WM\WM__ForEachDesc.c 0x00000000   Number         0  wm__foreachdesc.o ABSOLUTE
    ..\..\..\Utilities\Third_Party\STemWin532_20160205\GUI\WM\WM__GetFirstSibling.c 0x00000000   Number         0  wm__getfirstsibling.o ABSOLUTE
    ..\..\..\Utilities\Third_Party\STemWin532_20160205\GUI\WM\WM__GetFocussedChild.c 0x00000000   Number         0  wm__getfocussedchild.o ABSOLUTE
    ..\..\..\Utilities\Third_Party\STemWin532_20160205\GUI\WM\WM__GetLastSibling.c 0x00000000   Number         0  wm__getlastsibling.o ABSOLUTE
    ..\..\..\Utilities\Third_Party\STemWin532_20160205\GUI\WM\WM__GetPrevSibling.c 0x00000000   Number         0  wm__getprevsibling.o ABSOLUTE
    ..\..\..\Utilities\Third_Party\STemWin532_20160205\GUI\WM\WM__IsAncestor.c 0x00000000   Number         0  wm__isancestor.o ABSOLUTE
    ..\..\..\Utilities\Third_Party\STemWin532_20160205\GUI\WM\WM__IsChild.c 0x00000000   Number         0  wm__ischild.o ABSOLUTE
    ..\..\..\Utilities\Third_Party\STemWin532_20160205\GUI\WM\WM__IsEnabled.c 0x00000000   Number         0  wm__isenabled.o ABSOLUTE
    ..\..\..\Utilities\Third_Party\STemWin532_20160205\GUI\WM\WM__Screen2Client.c 0x00000000   Number         0  wm__screen2client.o ABSOLUTE
    ..\..\..\Utilities\Third_Party\STemWin532_20160205\GUI\WM\WM__SendMessage.c 0x00000000   Number         0  wm__sendmessage.o ABSOLUTE
    ..\..\..\Utilities\Third_Party\STemWin532_20160205\GUI\WM\WM__SendMessageIfEnabled.c 0x00000000   Number         0  wm__sendmessageifenabled.o ABSOLUTE
    ..\..\..\Utilities\Third_Party\STemWin532_20160205\GUI\WM\WM__SendMessageNoPara.c 0x00000000   Number         0  wm__sendmessagenopara.o ABSOLUTE
    ..\..\..\Utilities\Third_Party\STemWin532_20160205\GUI\WM\WM__UpdateChildPositions.c 0x00000000   Number         0  wm__updatechildpositions.o ABSOLUTE
    ..\..\..\Utilities\Third_Party\STemWin532_20160205\GUI\Widget\BUTTON.c 0x00000000   Number         0  button.o ABSOLUTE
    ..\..\..\Utilities\Third_Party\STemWin532_20160205\GUI\Widget\BUTTON_CreateIndirect.c 0x00000000   Number         0  button_createindirect.o ABSOLUTE
    ..\..\..\Utilities\Third_Party\STemWin532_20160205\GUI\Widget\BUTTON_Skin.c 0x00000000   Number         0  button_skin.o ABSOLUTE
    ..\..\..\Utilities\Third_Party\STemWin532_20160205\GUI\Widget\BUTTON_SkinFlex.c 0x00000000   Number         0  button_skinflex.o ABSOLUTE
    ..\..\..\Utilities\Third_Party\STemWin532_20160205\GUI\Widget\DIALOG.c 0x00000000   Number         0  dialog.o ABSOLUTE
    ..\..\..\Utilities\Third_Party\STemWin532_20160205\GUI\Widget\GUI_DRAW.c 0x00000000   Number         0  gui_draw.o ABSOLUTE
    ..\..\..\Utilities\Third_Party\STemWin532_20160205\GUI\Widget\IMAGE.c 0x00000000   Number         0  image.o ABSOLUTE
    ..\..\..\Utilities\Third_Party\STemWin532_20160205\GUI\Widget\IMAGE_BMP.c 0x00000000   Number         0  image_bmp.o ABSOLUTE
    ..\..\..\Utilities\Third_Party\STemWin532_20160205\GUI\Widget\TEXT.c 0x00000000   Number         0  text.o ABSOLUTE
    ..\..\..\Utilities\Third_Party\STemWin532_20160205\GUI\Widget\TEXT_CreateIndirect.c 0x00000000   Number         0  text_createindirect.o ABSOLUTE
    ..\..\..\Utilities\Third_Party\STemWin532_20160205\GUI\Widget\TEXT_SetFont.c 0x00000000   Number         0  text_setfont.o ABSOLUTE
    ..\..\..\Utilities\Third_Party\STemWin532_20160205\GUI\Widget\TEXT_SetText.c 0x00000000   Number         0  text_settext.o ABSOLUTE
    ..\..\..\Utilities\Third_Party\STemWin532_20160205\GUI\Widget\TEXT_SetTextAlign.c 0x00000000   Number         0  text_settextalign.o ABSOLUTE
    ..\..\..\Utilities\Third_Party\STemWin532_20160205\GUI\Widget\TEXT_SetTextColor.c 0x00000000   Number         0  text_settextcolor.o ABSOLUTE
    ..\..\..\Utilities\Third_Party\STemWin532_20160205\GUI\Widget\WIDGET.c 0x00000000   Number         0  widget.o ABSOLUTE
    ..\..\..\Utilities\Third_Party\STemWin532_20160205\GUI\Widget\WIDGET_Effect_Simple.c 0x00000000   Number         0  widget_effect_simple.o ABSOLUTE
    ..\..\..\Utilities\Third_Party\STemWin532_20160205\GUI\Widget\WINDOW.c 0x00000000   Number         0  window.o ABSOLUTE
    ..\Bsp\bsp.c                             0x00000000   Number         0  bsp.o ABSOLUTE
    ..\Bsp\bsp_can.c                         0x00000000   Number         0  bsp_can.o ABSOLUTE
    ..\Bsp\bsp_timer.c                       0x00000000   Number         0  bsp_timer.o ABSOLUTE
    ..\Bsp\bsp_usart.c                       0x00000000   Number         0  bsp_usart.o ABSOLUTE
    ..\CANOpen\src\dcf.c                     0x00000000   Number         0  dcf.o ABSOLUTE
    ..\CANOpen\src\emcy.c                    0x00000000   Number         0  emcy.o ABSOLUTE
    ..\CANOpen\src\lifegrd.c                 0x00000000   Number         0  lifegrd.o ABSOLUTE
    ..\CANOpen\src\lss.c                     0x00000000   Number         0  lss.o ABSOLUTE
    ..\CANOpen\src\nmtMaster.c               0x00000000   Number         0  nmtmaster.o ABSOLUTE
    ..\CANOpen\src\nmtSlave.c                0x00000000   Number         0  nmtslave.o ABSOLUTE
    ..\CANOpen\src\objacces.c                0x00000000   Number         0  objacces.o ABSOLUTE
    ..\CANOpen\src\pdo.c                     0x00000000   Number         0  pdo.o ABSOLUTE
    ..\CANOpen\src\sdo.c                     0x00000000   Number         0  sdo.o ABSOLUTE
    ..\CANOpen\src\states.c                  0x00000000   Number         0  states.o ABSOLUTE
    ..\CANOpen\src\sync.c                    0x00000000   Number         0  sync.o ABSOLUTE
    ..\CANOpen\src\timer.c                   0x00000000   Number         0  timer.o ABSOLUTE
    ..\Libraries\CMSIS\CM3\CoreSupport\core_cm3.c 0x00000000   Number         0  core_cm3.o ABSOLUTE
    ..\Libraries\CMSIS\CM3\DeviceSupport\ST\STM32F10x\startup\arm\startup_stm32f10x_hd.s 0x00000000   Number         0  startup_stm32f10x_hd.o ABSOLUTE
    ..\Libraries\CMSIS\CM3\DeviceSupport\ST\STM32F10x\system_stm32f10x.c 0x00000000   Number         0  system_stm32f10x.o ABSOLUTE
    ..\Libraries\STM32F10x_StdPeriph_Driver\src\misc.c 0x00000000   Number         0  misc.o ABSOLUTE
    ..\Libraries\STM32F10x_StdPeriph_Driver\src\stm32f10x_can.c 0x00000000   Number         0  stm32f10x_can.o ABSOLUTE
    ..\Libraries\STM32F10x_StdPeriph_Driver\src\stm32f10x_dma.c 0x00000000   Number         0  stm32f10x_dma.o ABSOLUTE
    ..\Libraries\STM32F10x_StdPeriph_Driver\src\stm32f10x_exti.c 0x00000000   Number         0  stm32f10x_exti.o ABSOLUTE
    ..\Libraries\STM32F10x_StdPeriph_Driver\src\stm32f10x_fsmc.c 0x00000000   Number         0  stm32f10x_fsmc.o ABSOLUTE
    ..\Libraries\STM32F10x_StdPeriph_Driver\src\stm32f10x_gpio.c 0x00000000   Number         0  stm32f10x_gpio.o ABSOLUTE
    ..\Libraries\STM32F10x_StdPeriph_Driver\src\stm32f10x_rcc.c 0x00000000   Number         0  stm32f10x_rcc.o ABSOLUTE
    ..\Libraries\STM32F10x_StdPeriph_Driver\src\stm32f10x_sdio.c 0x00000000   Number         0  stm32f10x_sdio.o ABSOLUTE
    ..\Libraries\STM32F10x_StdPeriph_Driver\src\stm32f10x_tim.c 0x00000000   Number         0  stm32f10x_tim.o ABSOLUTE
    ..\Libraries\STM32F10x_StdPeriph_Driver\src\stm32f10x_usart.c 0x00000000   Number         0  stm32f10x_usart.o ABSOLUTE
    ..\Libraries\stm32f10x_it.c              0x00000000   Number         0  stm32f10x_it.o ABSOLUTE
    ..\STemWinLibrary532\Config\GUIConf.c    0x00000000   Number         0  guiconf.o ABSOLUTE
    ..\STemWinLibrary532\Config\GUIDRV_Template.c 0x00000000   Number         0  guidrv_template.o ABSOLUTE
    ..\STemWinLibrary532\Config\GUI_X_Touch_Anlaog.c 0x00000000   Number         0  gui_x_touch_anlaog.o ABSOLUTE
    ..\STemWinLibrary532\Config\LCDConf_FlexColor_Template.c 0x00000000   Number         0  lcdconf_flexcolor_template.o ABSOLUTE
    ..\STemWinLibrary532\OS\GUI_X.c          0x00000000   Number         0  gui_x.o ABSOLUTE
    ..\STemWinLibrary532\Software\SoftwareWindowDLG.c 0x00000000   Number         0  softwarewindowdlg.o ABSOLUTE
    ..\\Libraries\\CMSIS\\CM3\\CoreSupport\\core_cm3.c 0x00000000   Number         0  core_cm3.o ABSOLUTE
    ..\\drivers\\SDIO\\sdio_sdcard.c         0x00000000   Number         0  sdio_sdcard.o ABSOLUTE
    ..\application\canopen\Master.c          0x00000000   Number         0  master.o ABSOLUTE
    ..\application\canopen\canopen_app.c     0x00000000   Number         0  canopen_app.o ABSOLUTE
    ..\application\canopen\canopen_drv.c     0x00000000   Number         0  canopen_drv.o ABSOLUTE
    ..\application\src\main.c                0x00000000   Number         0  main.o ABSOLUTE
    ..\drivers\LCD\LCDhard.c                 0x00000000   Number         0  lcdhard.o ABSOLUTE
    ..\drivers\LCD\Touch.c                   0x00000000   Number         0  touch.o ABSOLUTE
    ..\drivers\SDIO\sdio_sdcard.c            0x00000000   Number         0  sdio_sdcard.o ABSOLUTE
    ..\drivers\SRAM\sram.c                   0x00000000   Number         0  sram.o ABSOLUTE
    ..\drivers\at24c02\at24c02.c             0x00000000   Number         0  at24c02.o ABSOLUTE
    ..\drivers\at24c02\i2c.c                 0x00000000   Number         0  i2c.o ABSOLUTE
    ..\drivers\delay\delay.c                 0x00000000   Number         0  delay.o ABSOLUTE
    dc.s                                     0x00000000   Number         0  dc.o ABSOLUTE
    RESET                                    0x08000000   Section      304  startup_stm32f10x_hd.o(RESET)
    !!!main                                  0x08000130   Section        8  __main.o(!!!main)
    !!!scatter                               0x08000138   Section       52  __scatter.o(!!!scatter)
    !!dczerorl2                              0x0800016c   Section       90  __dczerorl2.o(!!dczerorl2)
    !!handler_zi                             0x080001c8   Section       28  __scatter_zi.o(!!handler_zi)
    .ARM.Collect$$_printf_percent$$00000000  0x080001e4   Section        0  _printf_percent.o(.ARM.Collect$$_printf_percent$$00000000)
    .ARM.Collect$$_printf_percent$$00000003  0x080001e4   Section        6  _printf_f.o(.ARM.Collect$$_printf_percent$$00000003)
    .ARM.Collect$$_printf_percent$$00000017  0x080001ea   Section        4  _printf_percent_end.o(.ARM.Collect$$_printf_percent$$00000017)
    .ARM.Collect$$libinit$$00000000          0x080001ee   Section        2  libinit.o(.ARM.Collect$$libinit$$00000000)
    .ARM.Collect$$libinit$$00000002          0x080001f0   Section        0  libinit2.o(.ARM.Collect$$libinit$$00000002)
    .ARM.Collect$$libinit$$00000004          0x080001f0   Section        0  libinit2.o(.ARM.Collect$$libinit$$00000004)
    .ARM.Collect$$libinit$$0000000A          0x080001f0   Section        0  libinit2.o(.ARM.Collect$$libinit$$0000000A)
    .ARM.Collect$$libinit$$0000000C          0x080001f0   Section        0  libinit2.o(.ARM.Collect$$libinit$$0000000C)
    .ARM.Collect$$libinit$$0000000E          0x080001f0   Section        0  libinit2.o(.ARM.Collect$$libinit$$0000000E)
    .ARM.Collect$$libinit$$0000000F          0x080001f0   Section        6  libinit2.o(.ARM.Collect$$libinit$$0000000F)
    .ARM.Collect$$libinit$$00000011          0x080001f6   Section        0  libinit2.o(.ARM.Collect$$libinit$$00000011)
    .ARM.Collect$$libinit$$00000013          0x080001f6   Section        0  libinit2.o(.ARM.Collect$$libinit$$00000013)
    .ARM.Collect$$libinit$$00000015          0x080001f6   Section        0  libinit2.o(.ARM.Collect$$libinit$$00000015)
    .ARM.Collect$$libinit$$00000016          0x080001f6   Section       10  libinit2.o(.ARM.Collect$$libinit$$00000016)
    .ARM.Collect$$libinit$$00000017          0x08000200   Section        0  libinit2.o(.ARM.Collect$$libinit$$00000017)
    .ARM.Collect$$libinit$$00000019          0x08000200   Section        0  libinit2.o(.ARM.Collect$$libinit$$00000019)
    .ARM.Collect$$libinit$$0000001B          0x08000200   Section        0  libinit2.o(.ARM.Collect$$libinit$$0000001B)
    .ARM.Collect$$libinit$$0000001D          0x08000200   Section        0  libinit2.o(.ARM.Collect$$libinit$$0000001D)
    .ARM.Collect$$libinit$$0000001F          0x08000200   Section        0  libinit2.o(.ARM.Collect$$libinit$$0000001F)
    .ARM.Collect$$libinit$$00000021          0x08000200   Section        0  libinit2.o(.ARM.Collect$$libinit$$00000021)
    .ARM.Collect$$libinit$$00000023          0x08000200   Section        0  libinit2.o(.ARM.Collect$$libinit$$00000023)
    .ARM.Collect$$libinit$$00000025          0x08000200   Section        0  libinit2.o(.ARM.Collect$$libinit$$00000025)
    .ARM.Collect$$libinit$$0000002C          0x08000200   Section        0  libinit2.o(.ARM.Collect$$libinit$$0000002C)
    .ARM.Collect$$libinit$$0000002E          0x08000200   Section        0  libinit2.o(.ARM.Collect$$libinit$$0000002E)
    .ARM.Collect$$libinit$$00000030          0x08000200   Section        0  libinit2.o(.ARM.Collect$$libinit$$00000030)
    .ARM.Collect$$libinit$$00000032          0x08000200   Section        0  libinit2.o(.ARM.Collect$$libinit$$00000032)
    .ARM.Collect$$libinit$$00000033          0x08000200   Section        2  libinit2.o(.ARM.Collect$$libinit$$00000033)
    .ARM.Collect$$libshutdown$$00000000      0x08000202   Section        2  libshutdown.o(.ARM.Collect$$libshutdown$$00000000)
    .ARM.Collect$$libshutdown$$00000002      0x08000204   Section        0  libshutdown2.o(.ARM.Collect$$libshutdown$$00000002)
    .ARM.Collect$$libshutdown$$00000004      0x08000204   Section        0  libshutdown2.o(.ARM.Collect$$libshutdown$$00000004)
    .ARM.Collect$$libshutdown$$00000007      0x08000204   Section        0  libshutdown2.o(.ARM.Collect$$libshutdown$$00000007)
    .ARM.Collect$$libshutdown$$0000000A      0x08000204   Section        0  libshutdown2.o(.ARM.Collect$$libshutdown$$0000000A)
    .ARM.Collect$$libshutdown$$0000000C      0x08000204   Section        0  libshutdown2.o(.ARM.Collect$$libshutdown$$0000000C)
    .ARM.Collect$$libshutdown$$0000000F      0x08000204   Section        0  libshutdown2.o(.ARM.Collect$$libshutdown$$0000000F)
    .ARM.Collect$$libshutdown$$00000010      0x08000204   Section        2  libshutdown2.o(.ARM.Collect$$libshutdown$$00000010)
    .ARM.Collect$$rtentry$$00000000          0x08000206   Section        0  __rtentry.o(.ARM.Collect$$rtentry$$00000000)
    .ARM.Collect$$rtentry$$00000002          0x08000206   Section        0  __rtentry2.o(.ARM.Collect$$rtentry$$00000002)
    .ARM.Collect$$rtentry$$00000004          0x08000206   Section        6  __rtentry4.o(.ARM.Collect$$rtentry$$00000004)
    .ARM.Collect$$rtentry$$00000009          0x0800020c   Section        0  __rtentry2.o(.ARM.Collect$$rtentry$$00000009)
    .ARM.Collect$$rtentry$$0000000A          0x0800020c   Section        4  __rtentry2.o(.ARM.Collect$$rtentry$$0000000A)
    .ARM.Collect$$rtentry$$0000000C          0x08000210   Section        0  __rtentry2.o(.ARM.Collect$$rtentry$$0000000C)
    .ARM.Collect$$rtentry$$0000000D          0x08000210   Section        8  __rtentry2.o(.ARM.Collect$$rtentry$$0000000D)
    .ARM.Collect$$rtexit$$00000000           0x08000218   Section        2  rtexit.o(.ARM.Collect$$rtexit$$00000000)
    .ARM.Collect$$rtexit$$00000002           0x0800021a   Section        0  rtexit2.o(.ARM.Collect$$rtexit$$00000002)
    .ARM.Collect$$rtexit$$00000003           0x0800021a   Section        4  rtexit2.o(.ARM.Collect$$rtexit$$00000003)
    .ARM.Collect$$rtexit$$00000004           0x0800021e   Section        6  rtexit2.o(.ARM.Collect$$rtexit$$00000004)
    .text                                    0x08000224   Section       64  startup_stm32f10x_hd.o(.text)
    .text                                    0x08000264   Section        0  noretval__2sprintf.o(.text)
    .text                                    0x0800028c   Section        0  _printf_pad.o(.text)
    .text                                    0x080002da   Section        0  __printf_wp.o(.text)
    .text                                    0x080003e8   Section        0  memcmp.o(.text)
    .text                                    0x08000440   Section        0  strcpy.o(.text)
    .text                                    0x08000488   Section        0  strlen.o(.text)
    .text                                    0x080004c6   Section      138  rt_memcpy_v6.o(.text)
    .text                                    0x08000550   Section      132  rt_memmove_v6.o(.text)
    .text                                    0x080005d4   Section      100  rt_memcpy_w.o(.text)
    .text                                    0x08000638   Section       16  aeabi_memset.o(.text)
    .text                                    0x08000648   Section       78  rt_memclr_w.o(.text)
    .text                                    0x08000696   Section        0  heapauxi.o(.text)
    .text                                    0x0800069c   Section        0  _printf_fp_dec.o(.text)
    _fp_digits                               0x0800069f   Thumb Code   432  _printf_fp_dec.o(.text)
    .text                                    0x08000abc   Section        0  _printf_char_common.o(.text)
    _printf_input_char                       0x08000abd   Thumb Code    10  _printf_char_common.o(.text)
    .text                                    0x08000aec   Section        0  _sputc.o(.text)
    .text                                    0x08000af6   Section      122  rt_memmove_w.o(.text)
    .text                                    0x08000b70   Section       68  rt_memclr.o(.text)
    .text                                    0x08000bb4   Section        8  rt_locale_intlibspace.o(.text)
    .text                                    0x08000bbc   Section      138  lludiv10.o(.text)
    .text                                    0x08000c48   Section        0  _printf_fp_infnan.o(.text)
    .text                                    0x08000cc8   Section        0  bigflt0.o(.text)
    .text                                    0x08000dac   Section        8  libspace.o(.text)
    .text                                    0x08000db4   Section       74  sys_stackheap_outer.o(.text)
    .text                                    0x08000dfe   Section        0  exit.o(.text)
    .text                                    0x08000e10   Section      128  strcmpv7m.o(.text)
    .text                                    0x08000e90   Section        0  sys_exit.o(.text)
    .text                                    0x08000e9c   Section        2  use_no_semi.o(.text)
    .text                                    0x08000e9e   Section        0  indicate_semi.o(.text)
    CL$$btod_d2e                             0x08000e9e   Section       62  btod.o(CL$$btod_d2e)
    CL$$btod_d2e_denorm_low                  0x08000edc   Section       70  btod.o(CL$$btod_d2e_denorm_low)
    CL$$btod_d2e_norm_op1                    0x08000f22   Section       96  btod.o(CL$$btod_d2e_norm_op1)
    CL$$btod_div_common                      0x08000f82   Section      824  btod.o(CL$$btod_div_common)
    CL$$btod_e2e                             0x080012ba   Section      220  btod.o(CL$$btod_e2e)
    CL$$btod_ediv                            0x08001396   Section       42  btod.o(CL$$btod_ediv)
    CL$$btod_emul                            0x080013c0   Section       42  btod.o(CL$$btod_emul)
    CL$$btod_mult_common                     0x080013ea   Section      580  btod.o(CL$$btod_mult_common)
    i.BSP_Init                               0x0800162e   Section        0  bsp.o(i.BSP_Init)
    i.BUTTON_Callback                        0x08001648   Section        0  button.o(i.BUTTON_Callback)
    i.BUTTON_CreateIndirect                  0x08001724   Section        0  button_createindirect.o(i.BUTTON_CreateIndirect)
    i.BUTTON_CreateUser                      0x08001768   Section        0  button.o(i.BUTTON_CreateUser)
    i.BUTTON_DrawSkinFlex                    0x080017d0   Section        0  button_skinflex.o(i.BUTTON_DrawSkinFlex)
    i.BUTTON_SetFont                         0x08001a08   Section        0  button.o(i.BUTTON_SetFont)
    i.BUTTON_SetPressed                      0x08001a26   Section        0  button.o(i.BUTTON_SetPressed)
    i.BUTTON_SetText                         0x08001a38   Section        0  button.o(i.BUTTON_SetText)
    i.BlockWrite                             0x08001a88   Section        0  lcdhard.o(i.BlockWrite)
    i.BusFault_Handler                       0x08001ada   Section        0  stm32f10x_it.o(i.BusFault_Handler)
    i.CANOpen_App_Task                       0x08001ae0   Section        0  canopen_app.o(i.CANOpen_App_Task)
    i.CANOpen_Driver_Init                    0x08001b2c   Section        0  canopen_drv.o(i.CANOpen_Driver_Init)
    i.CANOpen_Node_Init                      0x08001b3c   Section        0  canopen_app.o(i.CANOpen_Node_Init)
    i.CANOpen_TIM_Configuration              0x08001c88   Section        0  bsp_timer.o(i.CANOpen_TIM_Configuration)
    i.CANRcv_DateFromISR                     0x08001d10   Section        0  canopen_drv.o(i.CANRcv_DateFromISR)
    i.CANSend_Date                           0x08001d74   Section        0  canopen_drv.o(i.CANSend_Date)
    i.CAN_Configuration                      0x08001d8c   Section        0  bsp_can.o(i.CAN_Configuration)
    i.CAN_FilterInit                         0x08001e38   Section        0  stm32f10x_can.o(i.CAN_FilterInit)
    i.CAN_GPIO_Configuration                 0x08001f40   Section        0  bsp_can.o(i.CAN_GPIO_Configuration)
    i.CAN_ITConfig                           0x08001fd8   Section        0  stm32f10x_can.o(i.CAN_ITConfig)
    i.CAN_Init                               0x08001fea   Section        0  stm32f10x_can.o(i.CAN_Init)
    i.CAN_Initializes                        0x080020fe   Section        0  bsp_can.o(i.CAN_Initializes)
    i.CAN_Receive                            0x0800210a   Section        0  stm32f10x_can.o(i.CAN_Receive)
    i.CAN_Transmit                           0x080021fa   Section        0  stm32f10x_can.o(i.CAN_Transmit)
    i.CmdResp1Error                          0x08002320   Section        0  sdio_sdcard.o(i.CmdResp1Error)
    i.ConsumerHeartbeatAlarm                 0x08002380   Section        0  lifegrd.o(i.ConsumerHeartbeatAlarm)
    i.CopyBits                               0x080023b2   Section        0  pdo.o(i.CopyBits)
    i.CreateWindow                           0x080024a0   Section        0  softwarewindowdlg.o(i.CreateWindow)
    i.DebugMon_Handler                       0x080024c8   Section        0  stm32f10x_it.o(i.DebugMon_Handler)
    i.DelAlarm                               0x080024cc   Section        0  timer.o(i.DelAlarm)
    i.DrawPixel                              0x08002504   Section        0  lcdhard.o(i.DrawPixel)
    i.FSMC_NORSRAMCmd                        0x08002524   Section        0  stm32f10x_fsmc.o(i.FSMC_NORSRAMCmd)
    i.FSMC_NORSRAMInit                       0x08002558   Section        0  stm32f10x_fsmc.o(i.FSMC_NORSRAMInit)
    i.FSMC_NORSRAMStructInit                 0x0800263e   Section        0  stm32f10x_fsmc.o(i.FSMC_NORSRAMStructInit)
    i.FT6336G_RD_Reg                         0x080026b0   Section        0  touch.o(i.FT6336G_RD_Reg)
    i.FT6336G_WR_Reg                         0x0800271c   Section        0  touch.o(i.FT6336G_WR_Reg)
    i.GL_SetDefault                          0x0800277c   Section        0  gui_setdefault.o(i.GL_SetDefault)
    i.GPIO_Init                              0x080027bc   Section        0  stm32f10x_gpio.o(i.GPIO_Init)
    i.GPIO_PinRemapConfig                    0x080028d4   Section        0  stm32f10x_gpio.o(i.GPIO_PinRemapConfig)
    i.GPIO_ReadInputDataBit                  0x08002964   Section        0  stm32f10x_gpio.o(i.GPIO_ReadInputDataBit)
    i.GPIO_ResetBits                         0x08002976   Section        0  stm32f10x_gpio.o(i.GPIO_ResetBits)
    i.GPIO_SetBits                           0x0800297a   Section        0  stm32f10x_gpio.o(i.GPIO_SetBits)
    i.GUIMONO_DispChar                       0x08002980   Section        0  gui_charm.o(i.GUIMONO_DispChar)
    i.GUIMONO_GetCharDistX                   0x08002ab4   Section        0  gui_charm.o(i.GUIMONO_GetCharDistX)
    i.GUIMONO_GetFontInfo                    0x08002acc   Section        0  gui_charm.o(i.GUIMONO_GetFontInfo)
    i.GUIMONO_IsInFont                       0x08002ad2   Section        0  gui_charm.o(i.GUIMONO_IsInFont)
    i.GUIPROP_DispChar                       0x08002b0c   Section        0  gui_charp.o(i.GUIPROP_DispChar)
    i.GUIPROP_GetCharDistX                   0x08002bd4   Section        0  gui_charp.o(i.GUIPROP_GetCharDistX)
    i.GUIPROP_GetFontInfo                    0x08002c14   Section        0  gui_charp.o(i.GUIPROP_GetFontInfo)
    i.GUIPROP_IsInFont                       0x08002c1a   Section        0  gui_charp.o(i.GUIPROP_IsInFont)
    i.GUIPROP__FindChar                      0x08002c2a   Section        0  gui_charp.o(i.GUIPROP__FindChar)
    i.GUI_ALLOC_AllocNoInit                  0x08002c40   Section        0  gui_alloc.o(i.GUI_ALLOC_AllocNoInit)
    i.GUI_ALLOC_AllocZero                    0x08002c4a   Section        0  gui_alloc_alloczero.o(i.GUI_ALLOC_AllocZero)
    i.GUI_ALLOC_AssignMemory                 0x08002c70   Section        0  gui_alloc.o(i.GUI_ALLOC_AssignMemory)
    i.GUI_ALLOC_Free                         0x08002c80   Section        0  gui_alloc.o(i.GUI_ALLOC_Free)
    i.GUI_ALLOC_FreeFixedBlock               0x08002cb8   Section        0  gui_alloc.o(i.GUI_ALLOC_FreeFixedBlock)
    i.GUI_ALLOC_FreePtr                      0x08002cd0   Section        0  gui_alloc.o(i.GUI_ALLOC_FreePtr)
    i.GUI_ALLOC_FreePtrArray                 0x08002ce0   Section        0  gui_alloc.o(i.GUI_ALLOC_FreePtrArray)
    i.GUI_ALLOC_GetFixedBlock                0x08002cfc   Section        0  gui_alloc.o(i.GUI_ALLOC_GetFixedBlock)
    i.GUI_ALLOC_GetMaxSize                   0x08002dac   Section        0  gui_alloc.o(i.GUI_ALLOC_GetMaxSize)
    i.GUI_ALLOC_GetSize                      0x08002dec   Section        0  gui_alloc.o(i.GUI_ALLOC_GetSize)
    i.GUI_ALLOC_LockH                        0x08002e08   Section        0  gui_alloc.o(i.GUI_ALLOC_LockH)
    i.GUI_ALLOC_RequestSize                  0x08002e24   Section        0  gui_alloc.o(i.GUI_ALLOC_RequestSize)
    i.GUI_ALLOC_UnlockH                      0x08002e4c   Section        0  gui_alloc.o(i.GUI_ALLOC_UnlockH)
    i.GUI_ALLOC_h2p                          0x08002e7c   Section        0  gui_alloc.o(i.GUI_ALLOC_h2p)
    i.GUI_BMP_Draw                           0x08002e94   Section        0  gui_bmp.o(i.GUI_BMP_Draw)
    i.GUI_BMP_DrawEx                         0x08002eac   Section        0  gui_bmp.o(i.GUI_BMP_DrawEx)
    i.GUI_BMP_GetXSize                       0x08002ec0   Section        0  gui_bmp.o(i.GUI_BMP_GetXSize)
    i.GUI_BMP_GetXSizeEx                     0x08002ed4   Section        0  gui_bmp.o(i.GUI_BMP_GetXSizeEx)
    i.GUI_BMP_GetYSize                       0x08002efc   Section        0  gui_bmp.o(i.GUI_BMP_GetYSize)
    i.GUI_BMP_GetYSizeEx                     0x08002f10   Section        0  gui_bmp.o(i.GUI_BMP_GetYSizeEx)
    i.GUI_BMP__GetData                       0x08002f3e   Section        0  gui_bmp.o(i.GUI_BMP__GetData)
    i.GUI_BMP__Init                          0x08002f48   Section        0  gui_bmp.o(i.GUI_BMP__Init)
    i.GUI_BMP__ReadData                      0x0800300c   Section        0  gui_bmp.o(i.GUI_BMP__ReadData)
    i.GUI_BMP__ReadPalette                   0x0800303c   Section        0  gui_bmp.o(i.GUI_BMP__ReadPalette)
    i.GUI_CURSOR_SetPositionEx               0x08003084   Section        0  gui_curs1.o(i.GUI_CURSOR_SetPositionEx)
    i.GUI_CalcColorDist                      0x080030f4   Section        0  gui_calccolordist.o(i.GUI_CalcColorDist)
    i.GUI_Clear                              0x08003130   Section        0  gui_core.o(i.GUI_Clear)
    i.GUI_ClearRect                          0x0800314c   Section        0  gui_core.o(i.GUI_ClearRect)
    i.GUI_CreateDialogBox                    0x080031ac   Section        0  dialog.o(i.GUI_CreateDialogBox)
    i.GUI_DEVICE_Create                      0x08003250   Section        0  gui_device.o(i.GUI_DEVICE_Create)
    i.GUI_DEVICE_CreateAndLink               0x080032a0   Section        0  gui_device.o(i.GUI_DEVICE_CreateAndLink)
    i.GUI_DEVICE_Delete                      0x080032c8   Section        0  gui_device.o(i.GUI_DEVICE_Delete)
    i.GUI_DEVICE_Link                        0x080032cc   Section        0  gui_device.o(i.GUI_DEVICE_Link)
    i.GUI_DEVICE_Unlink                      0x08003354   Section        0  gui_device.o(i.GUI_DEVICE_Unlink)
    i.GUI_DEVICE__GetpDriver                 0x08003384   Section        0  gui_device.o(i.GUI_DEVICE__GetpDriver)
    i.GUI_DRAW__Draw                         0x080033a8   Section        0  gui_draw.o(i.GUI_DRAW__Draw)
    i.GUI_Delay                              0x080033d4   Section        0  gui_time.o(i.GUI_Delay)
    i.GUI_DispStringInRect                   0x080033fe   Section        0  gui_dispstringinrect.o(i.GUI_DispStringInRect)
    i.GUI_DispStringInRectMax                0x08003406   Section        0  gui_dispstringinrect.o(i.GUI_DispStringInRectMax)
    i.GUI_DispStringInRectWrap               0x0800344a   Section        0  gui_dispstringinrectwrap.o(i.GUI_DispStringInRectWrap)
    i.GUI_DrawGradientV                      0x0800355c   Section        0  gui_drawgradient.o(i.GUI_DrawGradientV)
    i.GUI_DrawHLine                          0x080035c4   Section        0  gui_drawhline.o(i.GUI_DrawHLine)
    i.GUI_DrawRect                           0x08003610   Section        0  gui_2dlib.o(i.GUI_DrawRect)
    i.GUI_DrawVLine                          0x0800368c   Section        0  gui_drawvline.o(i.GUI_DrawVLine)
    i.GUI_Exec                               0x080036cc   Section        0  gui_exec.o(i.GUI_Exec)
    i.GUI_Exec1                              0x080036e0   Section        0  gui_exec.o(i.GUI_Exec1)
    i.GUI_FillRect                           0x08003710   Section        0  gui_fillrect.o(i.GUI_FillRect)
    i.GUI_GetBitmapPixelIndex                0x08003758   Section        0  gui_getbitmappixelindex.o(i.GUI_GetBitmapPixelIndex)
    i.GUI_GetBitmapPixelIndexEx              0x0800376e   Section        0  gui_getbitmappixelindex.o(i.GUI_GetBitmapPixelIndexEx)
    i.GUI_GetBitsPerPixelEx                  0x080037f8   Section        0  lcd_getex.o(i.GUI_GetBitsPerPixelEx)
    i.GUI_GetBkColor                         0x0800380c   Section        0  gui_getcolor.o(i.GUI_GetBkColor)
    i.GUI_GetCharDistX                       0x0800381c   Section        0  gui_char.o(i.GUI_GetCharDistX)
    i.GUI_GetCharDistXEx                     0x0800382c   Section        0  gui_char.o(i.GUI_GetCharDistXEx)
    i.GUI_GetClientRect                      0x0800383c   Section        0  gui_getclientrect.o(i.GUI_GetClientRect)
    i.GUI_GetColor                           0x08003846   Section        0  gui_getcolor.o(i.GUI_GetColor)
    i.GUI_GetCursorLayer                     0x08003854   Section        0  gui_selectlayer.o(i.GUI_GetCursorLayer)
    i.GUI_GetFontDistY                       0x08003868   Section        0  gui_char.o(i.GUI_GetFontDistY)
    i.GUI_GetLayerPosEx                      0x08003878   Section        0  gui_selectlayer.o(i.GUI_GetLayerPosEx)
    i.GUI_GetOrg                             0x0800388e   Section        0  gui_getorg.o(i.GUI_GetOrg)
    i.GUI_GetpfColor2IndexEx                 0x08003894   Section        0  lcd_getex.o(i.GUI_GetpfColor2IndexEx)
    i.GUI_GetpfIndex2ColorEx                 0x080038a4   Section        0  lcd_getex.o(i.GUI_GetpfIndex2ColorEx)
    i.GUI_GotoXY                             0x080038b4   Section        0  gui_goto.o(i.GUI_GotoXY)
    i.GUI_Init                               0x080038c8   Section        0  gui_core.o(i.GUI_Init)
    i.GUI_MEMDEV_Clear                       0x0800394c   Section        0  guidev_clear.o(i.GUI_MEMDEV_Clear)
    i.GUI_MEMDEV_CopyToLCD                   0x08003988   Section        0  guidev.o(i.GUI_MEMDEV_CopyToLCD)
    i.GUI_MEMDEV_CopyToLCDAt                 0x08003994   Section        0  guidev.o(i.GUI_MEMDEV_CopyToLCDAt)
    i.GUI_MEMDEV_Create                      0x08003a34   Section        0  guidev.o(i.GUI_MEMDEV_Create)
    i.GUI_MEMDEV_CreateEx                    0x08003a40   Section        0  guidev.o(i.GUI_MEMDEV_CreateEx)
    i.GUI_MEMDEV_CreateFixed                 0x08003abc   Section        0  guidev_createfixed.o(i.GUI_MEMDEV_CreateFixed)
    i.GUI_MEMDEV_Delete                      0x08003adc   Section        0  guidev.o(i.GUI_MEMDEV_Delete)
    i.GUI_MEMDEV_Draw                        0x08003b1c   Section        0  guidev_banding.o(i.GUI_MEMDEV_Draw)
    i.GUI_MEMDEV_GetBitsPerPixel             0x08003c68   Section        0  guidev.o(i.GUI_MEMDEV_GetBitsPerPixel)
    i.GUI_MEMDEV_GetDataPtr                  0x08003c8c   Section        0  guidev_getdataptr.o(i.GUI_MEMDEV_GetDataPtr)
    i.GUI_MEMDEV_GetXPos                     0x08003ca8   Section        0  guidev_getpos.o(i.GUI_MEMDEV_GetXPos)
    i.GUI_MEMDEV_GetYPos                     0x08003cd0   Section        0  guidev_getpos.o(i.GUI_MEMDEV_GetYPos)
    i.GUI_MEMDEV_GetYSize                    0x08003cf8   Section        0  guidev_getysize.o(i.GUI_MEMDEV_GetYSize)
    i.GUI_MEMDEV_Paint1Static                0x08003d20   Section        0  guidev_staticdevices.o(i.GUI_MEMDEV_Paint1Static)
    i.GUI_MEMDEV_ReduceYSize                 0x08003d40   Section        0  guidev_reduceysize.o(i.GUI_MEMDEV_ReduceYSize)
    i.GUI_MEMDEV_Select                      0x08003d6c   Section        0  guidev.o(i.GUI_MEMDEV_Select)
    i.GUI_MEMDEV_SetOrg                      0x08003db0   Section        0  guidev_setorg.o(i.GUI_MEMDEV_SetOrg)
    i.GUI_MEMDEV_Write                       0x08003e08   Section        0  guidev_write.o(i.GUI_MEMDEV_Write)
    i.GUI_MEMDEV_WriteAt                     0x08003e14   Section        0  guidev_write.o(i.GUI_MEMDEV_WriteAt)
    i.GUI_MEMDEV__CreateFixed                0x08003e74   Section        0  guidev.o(i.GUI_MEMDEV__CreateFixed)
    i.GUI_MEMDEV__WriteToActiveAlpha         0x08003f68   Section        0  guidev_writetoactivealpha.o(i.GUI_MEMDEV__WriteToActiveAlpha)
    i.GUI_MEMDEV__WriteToActiveAt            0x080040f8   Section        0  guidev.o(i.GUI_MEMDEV__WriteToActiveAt)
    i.GUI_MEMDEV__WriteToActiveOpaque        0x08004128   Section        0  guidev_writetoactiveopaque.o(i.GUI_MEMDEV__WriteToActiveOpaque)
    i.GUI_MergeRect                          0x08004166   Section        0  gui_mergerect.o(i.GUI_MergeRect)
    i.GUI_MoveRect                           0x080041be   Section        0  gui_moverect.o(i.GUI_MoveRect)
    i.GUI_PID_GetState                       0x080041dc   Section        0  gui_pid.o(i.GUI_PID_GetState)
    i.GUI_PID_IsEmpty                        0x08004220   Section        0  gui_pid.o(i.GUI_PID_IsEmpty)
    i.GUI_PID_StoreState                     0x08004238   Section        0  gui_pid.o(i.GUI_PID_StoreState)
    i.GUI_PollKeyMsg                         0x08004254   Section        0  gui_onkey.o(i.GUI_PollKeyMsg)
    i.GUI_ReadRectEx                         0x08004280   Section        0  lcd_readrect.o(i.GUI_ReadRectEx)
    i.GUI_RectsIntersect                     0x080042e0   Section        0  gui_rectsintersect.o(i.GUI_RectsIntersect)
    i.GUI_RestoreContext                     0x08004318   Section        0  gui_savecontext.o(i.GUI_RestoreContext)
    i.GUI_SPRITE_SetPosition                 0x08004328   Section        0  gui_sprite.o(i.GUI_SPRITE_SetPosition)
    i.GUI_SaveContext_W                      0x08004334   Section        0  gui_savecontext.o(i.GUI_SaveContext_W)
    i.GUI_SelectLCD                          0x08004344   Section        0  gui_selectlcd.o(i.GUI_SelectLCD)
    i.GUI_SelectLayer                        0x08004358   Section        0  gui_selectlayer.o(i.GUI_SelectLayer)
    i.GUI_SetBkColor                         0x08004388   Section        0  gui_setcolor.o(i.GUI_SetBkColor)
    i.GUI_SetColor                           0x0800438c   Section        0  gui_setcolor.o(i.GUI_SetColor)
    i.GUI_SetDefaultFont                     0x08004390   Section        0  gui_core.o(i.GUI_SetDefaultFont)
    i.GUI_SetDrawMode                        0x0800439c   Section        0  gui_setdrawmode.o(i.GUI_SetDrawMode)
    i.GUI_SetFont                            0x080043a0   Section        0  gui_setfont.o(i.GUI_SetFont)
    i.GUI_SetLayerPosEx                      0x080043b4   Section        0  gui_selectlayer.o(i.GUI_SetLayerPosEx)
    i.GUI_SetLineStyle                       0x080043b8   Section        0  gui_setlinestyle.o(i.GUI_SetLineStyle)
    i.GUI_SetOrg                             0x080043c8   Section        0  gui_setorg.o(i.GUI_SetOrg)
    i.GUI_SetPenSize                         0x08004400   Section        0  gui_pen.o(i.GUI_SetPenSize)
    i.GUI_SetTextAlign                       0x08004410   Section        0  gui_settextalign.o(i.GUI_SetTextAlign)
    i.GUI_SetTextMode                        0x08004424   Section        0  gui_settextmode.o(i.GUI_SetTextMode)
    i.GUI_SignalEvent                        0x08004438   Section        0  gui_waitevent.o(i.GUI_SignalEvent)
    i.GUI_StoreKey                           0x08004448   Section        0  gui_onkey.o(i.GUI_StoreKey)
    i.GUI_TIMER_Delete                       0x08004458   Section        0  gui_timer.o(i.GUI_TIMER_Delete)
    i.GUI_TIMER_GetFlag                      0x08004474   Section        0  gui_timer.o(i.GUI_TIMER_GetFlag)
    i.GUI_TIMER__GetFirstTimer               0x0800449c   Section        0  gui_timer.o(i.GUI_TIMER__GetFirstTimer)
    i.GUI_TIMER__GetNextTimerLin             0x080044c4   Section        0  gui_timer.o(i.GUI_TIMER__GetNextTimerLin)
    i.GUI_TOUCH_CalcCoefficients             0x080044fc   Section        0  gui_touch_calibrate.o(i.GUI_TOUCH_CalcCoefficients)
    i.GUI_TOUCH_Calibrate                    0x080049b0   Section        0  gui_touch_driveranalog.o(i.GUI_TOUCH_Calibrate)
    i.GUI_TOUCH_CalibratePoint               0x08004a78   Section        0  gui_touch_calibrate.o(i.GUI_TOUCH_CalibratePoint)
    i.GUI_TOUCH_Exec                         0x08004adc   Section        0  gui_touch_driveranalog.o(i.GUI_TOUCH_Exec)
    i.GUI_TOUCH_GetLayer                     0x08004b78   Section        0  gui_touch_storestate.o(i.GUI_TOUCH_GetLayer)
    i.GUI_TOUCH_StoreStateEx                 0x08004b84   Section        0  gui_touch.o(i.GUI_TOUCH_StoreStateEx)
    i.GUI_TOUCH_TransformPoint               0x08004bcc   Section        0  gui_touch_calibrate.o(i.GUI_TOUCH_TransformPoint)
    i.GUI_TOUCH_X_ActivateX                  0x08004c68   Section        0  gui_x_touch_anlaog.o(i.GUI_TOUCH_X_ActivateX)
    i.GUI_TOUCH_X_ActivateY                  0x08004c6a   Section        0  gui_x_touch_anlaog.o(i.GUI_TOUCH_X_ActivateY)
    i.GUI_TOUCH_X_MeasureX                   0x08004c6c   Section        0  gui_x_touch_anlaog.o(i.GUI_TOUCH_X_MeasureX)
    i.GUI_TOUCH_X_MeasureY                   0x08004c74   Section        0  gui_x_touch_anlaog.o(i.GUI_TOUCH_X_MeasureY)
    i.GUI_UC__GetCharCodeInc                 0x08004c7c   Section        0  gui_uc.o(i.GUI_UC__GetCharCodeInc)
    i.GUI_UC__NumChars2NumBytes              0x08004ca8   Section        0  gui_uc.o(i.GUI_UC__NumChars2NumBytes)
    i.GUI_USAGE_AddRect                      0x08004cd0   Section        0  guidev_usage.o(i.GUI_USAGE_AddRect)
    i.GUI_USAGE_BM_AddHLine                  0x08004cf8   Section        0  guidev_usagebm.o(i.GUI_USAGE_BM_AddHLine)
    GUI_USAGE_BM_AddHLine                    0x08004cf9   Thumb Code   116  guidev_usagebm.o(i.GUI_USAGE_BM_AddHLine)
    i.GUI_USAGE_BM_AddPixel                  0x08004d6c   Section        0  guidev_usagebm.o(i.GUI_USAGE_BM_AddPixel)
    GUI_USAGE_BM_AddPixel                    0x08004d6d   Thumb Code    44  guidev_usagebm.o(i.GUI_USAGE_BM_AddPixel)
    i.GUI_USAGE_BM_Clear                     0x08004d98   Section        0  guidev_usagebm.o(i.GUI_USAGE_BM_Clear)
    GUI_USAGE_BM_Clear                       0x08004d99   Thumb Code    14  guidev_usagebm.o(i.GUI_USAGE_BM_Clear)
    i.GUI_USAGE_BM_Create                    0x08004da8   Section        0  guidev_usagebm.o(i.GUI_USAGE_BM_Create)
    i.GUI_USAGE_BM_GetNextDirty              0x08004dfc   Section        0  guidev_usagebm.o(i.GUI_USAGE_BM_GetNextDirty)
    GUI_USAGE_BM_GetNextDirty                0x08004dfd   Thumb Code   154  guidev_usagebm.o(i.GUI_USAGE_BM_GetNextDirty)
    i.GUI_USAGE_DecUseCnt                    0x08004e96   Section        0  guidev_usage.o(i.GUI_USAGE_DecUseCnt)
    i.GUI_WrapGetNumLines                    0x08004eba   Section        0  gui_dispstringinrectwrap.o(i.GUI_WrapGetNumLines)
    i.GUI_X_Config                           0x08004ee0   Section        0  guiconf.o(i.GUI_X_Config)
    i.GUI_X_Delay                            0x08004efc   Section        0  gui_x.o(i.GUI_X_Delay)
    i.GUI_X_ExecIdle                         0x08004f14   Section        0  gui_x.o(i.GUI_X_ExecIdle)
    i.GUI_X_GetTime                          0x08004f18   Section        0  gui_x.o(i.GUI_X_GetTime)
    i.GUI_X_Init                             0x08004f24   Section        0  gui_x.o(i.GUI_X_Init)
    i.GUI__AllocAlphaBuffer                  0x08004f26   Section        0  gui__alpha.o(i.GUI__AllocAlphaBuffer)
    i.GUI__AlphaPreserveTrans                0x08004f3c   Section        0  gui_setalpha.o(i.GUI__AlphaPreserveTrans)
    i.GUI__CompactPixelIndices               0x08004f60   Section        0  gui__compactpixelindices.o(i.GUI__CompactPixelIndices)
    i.GUI__CompactPixelIndicesEx             0x08005084   Section        0  gui__compactpixelindices.o(i.GUI__CompactPixelIndicesEx)
    i.GUI__Config                            0x08005090   Section        0  gui_core.o(i.GUI__Config)
    i.GUI__ConvertColor2Index                0x080050c4   Section        0  gui__compactpixelindices.o(i.GUI__ConvertColor2Index)
    i.GUI__DispLine                          0x0800522c   Section        0  gui_charline.o(i.GUI__DispLine)
    i.GUI__DispStringInRect                  0x080052dc   Section        0  gui_dispstringinrect.o(i.GUI__DispStringInRect)
    i.GUI__DoAlphaBlending                   0x08005420   Section        0  gui__alpha.o(i.GUI__DoAlphaBlending)
    i.GUI__DrawTwinArc4                      0x080055f0   Section        0  gui__drawtwinarc.o(i.GUI__DrawTwinArc4)
    i.GUI__ExpandPixelIndicesEx              0x0800564c   Section        0  gui__expandpixelindices.o(i.GUI__ExpandPixelIndicesEx)
    i.GUI__GetAlphaBuffer                    0x08005790   Section        0  gui__alpha.o(i.GUI__GetAlphaBuffer)
    i.GUI__GetLineDistX                      0x0800582c   Section        0  gui_charline.o(i.GUI__GetLineDistX)
    i.GUI__GetLineNumChars                   0x08005880   Section        0  gui_charline.o(i.GUI__GetLineNumChars)
    i.GUI__GetOrg                            0x080058b8   Section        0  gui_getorg.o(i.GUI__GetOrg)
    i.GUI__GetOverlap                        0x080058d4   Section        0  gui_charline.o(i.GUI__GetOverlap)
    i.GUI__HandleEOLine                      0x080058ec   Section        0  gui__handleeoline.o(i.GUI__HandleEOLine)
    i.GUI__IntersectRect                     0x08005904   Section        0  gui__intersectrect.o(i.GUI__IntersectRect)
    i.GUI__IntersectRects                    0x0800593e   Section        0  gui__intersectrects.o(i.GUI__IntersectRects)
    i.GUI__ManageCache                       0x08005990   Section        0  gui__managecache.o(i.GUI__ManageCache)
    i.GUI__ManageCacheEx                     0x080059a0   Section        0  gui__managecache.o(i.GUI__ManageCacheEx)
    i.GUI__MixColors                         0x08005a74   Section        0  gui__alpha.o(i.GUI__MixColors)
    i.GUI__MixColorsBulk                     0x08005ad4   Section        0  gui__alpha.o(i.GUI__MixColorsBulk)
    i.GUI__Read16                            0x08005b22   Section        0  gui__read.o(i.GUI__Read16)
    i.GUI__Read32                            0x08005b36   Section        0  gui__read.o(i.GUI__Read32)
    i.GUI__ReduceRect                        0x08005b5a   Section        0  gui__reducerect.o(i.GUI__ReduceRect)
    i.GUI__RegisterExit                      0x08005b74   Section        0  gui_core.o(i.GUI__RegisterExit)
    i.GUI__SetText                           0x08005b84   Section        0  gui__settext.o(i.GUI__SetText)
    i.GUI__WrapGetNumBytesToNextLine         0x08005bf0   Section        0  gui__wrap.o(i.GUI__WrapGetNumBytesToNextLine)
    i.GUI__WrapGetNumCharsDisp               0x08005c04   Section        0  gui__wrap.o(i.GUI__WrapGetNumCharsDisp)
    i.GUI__WrapGetNumCharsToNextLine         0x08005c0a   Section        0  gui__wrap.o(i.GUI__WrapGetNumCharsToNextLine)
    i.GUI__memset                            0x08005c66   Section        0  gui__memset.o(i.GUI__memset)
    i.GUI__memset16                          0x08005cb2   Section        0  gui__memset16.o(i.GUI__memset16)
    i.GUI__sqrt32                            0x08005cee   Section        0  gui__sqrt32.o(i.GUI__sqrt32)
    i.GUI__strcmp                            0x08005d08   Section        0  gui__strcmp.o(i.GUI__strcmp)
    i.GUI__strcmp_hp                         0x08005d2c   Section        0  gui__strcmp.o(i.GUI__strcmp_hp)
    i.GUI__strlen                            0x08005d4c   Section        0  gui__strlen.o(i.GUI__strlen)
    i.GetPoint                               0x08005d64   Section        0  lcdhard.o(i.GetPoint)
    i.GetSDOClientFromNodeId                 0x08005de0   Section        0  sdo.o(i.GetSDOClientFromNodeId)
    i.Get_TOUCH_X_MeasureX                   0x08005e34   Section        0  touch.o(i.Get_TOUCH_X_MeasureX)
    i.Get_TOUCH_X_MeasureY                   0x08005ea0   Section        0  touch.o(i.Get_TOUCH_X_MeasureY)
    i.GuardTimeAlarm                         0x08005f0c   Section        0  lifegrd.o(i.GuardTimeAlarm)
    i.HardFault_Handler                      0x08005f82   Section        0  stm32f10x_it.o(i.HardFault_Handler)
    i.IMAGE_Callback                         0x08005f88   Section        0  image.o(i.IMAGE_Callback)
    i.IMAGE_CreateIndirect                   0x0800612c   Section        0  image.o(i.IMAGE_CreateIndirect)
    i.IMAGE_CreateUser                       0x08006164   Section        0  image.o(i.IMAGE_CreateUser)
    i.IMAGE_SetBMP                           0x08006204   Section        0  image_bmp.o(i.IMAGE_SetBMP)
    i.IMAGE__FreeAttached                    0x0800624c   Section        0  image.o(i.IMAGE__FreeAttached)
    i.IMAGE__SetWindowSize                   0x0800627c   Section        0  image.o(i.IMAGE__SetWindowSize)
    i.LCD_AA_SetAndMask                      0x080062ac   Section        0  lcd_aa.o(i.LCD_AA_SetAndMask)
    i.LCD_Color2Index                        0x080062bc   Section        0  lcd.o(i.LCD_Color2Index)
    i.LCD_DrawBitmap                         0x080062d8   Section        0  lcd.o(i.LCD_DrawBitmap)
    i.LCD_DrawHLine                          0x080064dc   Section        0  lcd.o(i.LCD_DrawHLine)
    i.LCD_DrawPixel                          0x08006534   Section        0  lcd.o(i.LCD_DrawPixel)
    i.LCD_DrawVLine                          0x0800659c   Section        0  lcd.o(i.LCD_DrawVLine)
    i.LCD_FSMC_Config                        0x080065f0   Section        0  lcdhard.o(i.LCD_FSMC_Config)
    LCD_FSMC_Config                          0x080065f1   Thumb Code   110  lcdhard.o(i.LCD_FSMC_Config)
    i.LCD_FillRect                           0x08006660   Section        0  lcd.o(i.LCD_FillRect)
    i.LCD_GPIO_Config                        0x080066b8   Section        0  lcdhard.o(i.LCD_GPIO_Config)
    LCD_GPIO_Config                          0x080066b9   Thumb Code   200  lcdhard.o(i.LCD_GPIO_Config)
    i.LCD_GetBitsPerPixelEx                  0x0800678c   Section        0  lcd_getex.o(i.LCD_GetBitsPerPixelEx)
    i.LCD_GetBkColorIndex                    0x08006794   Section        0  lcd_getcolorindex.o(i.LCD_GetBkColorIndex)
    i.LCD_GetColorIndex                      0x080067a4   Section        0  lcd_getcolorindex.o(i.LCD_GetColorIndex)
    i.LCD_GetNumColors                       0x080067b4   Section        0  lcd_getex.o(i.LCD_GetNumColors)
    i.LCD_GetNumColorsEx                     0x080067c4   Section        0  lcd_getex.o(i.LCD_GetNumColorsEx)
    i.LCD_GetNumLayers                       0x080067ca   Section        0  lcd_getnumdisplays.o(i.LCD_GetNumLayers)
    i.LCD_GetPalette                         0x080067e4   Section        0  lcd_getex.o(i.LCD_GetPalette)
    i.LCD_GetPaletteEx                       0x080067f4   Section        0  lcd_getex.o(i.LCD_GetPaletteEx)
    i.LCD_GetPosEx                           0x0800680c   Section        0  lcd_set.o(i.LCD_GetPosEx)
    i.LCD_GetVXSizeEx                        0x08006838   Section        0  lcd_getex.o(i.LCD_GetVXSizeEx)
    i.LCD_GetVXSizeMax                       0x0800683e   Section        0  lcd_getex.o(i.LCD_GetVXSizeMax)
    i.LCD_GetVYSizeEx                        0x08006844   Section        0  lcd_getex.o(i.LCD_GetVYSizeEx)
    i.LCD_GetXSize                           0x0800684c   Section        0  lcd_getex.o(i.LCD_GetXSize)
    i.LCD_GetXSizeDisplay                    0x0800685c   Section        0  lcd_getex.o(i.LCD_GetXSizeDisplay)
    i.LCD_GetXSizeEx                         0x08006868   Section        0  lcd_getex.o(i.LCD_GetXSizeEx)
    i.LCD_GetXSizeMax                        0x0800686e   Section        0  lcd_getex.o(i.LCD_GetXSizeMax)
    i.LCD_GetYSize                           0x08006874   Section        0  lcd_getex.o(i.LCD_GetYSize)
    i.LCD_GetYSizeDisplay                    0x08006884   Section        0  lcd_getex.o(i.LCD_GetYSizeDisplay)
    i.LCD_GetYSizeEx                         0x08006890   Section        0  lcd_getex.o(i.LCD_GetYSizeEx)
    i.LCD_GetYSizeMax                        0x08006896   Section        0  lcd_getex.o(i.LCD_GetYSizeMax)
    i.LCD_GetpPalConvTableBM                 0x0800689c   Section        0  lcd_color.o(i.LCD_GetpPalConvTableBM)
    i.LCD_GetpPalConvTableUncached           0x080068a0   Section        0  lcd_color.o(i.LCD_GetpPalConvTableUncached)
    i.LCD_GetpfColor2IndexEx                 0x080068e8   Section        0  lcd_getex.o(i.LCD_GetpfColor2IndexEx)
    i.LCD_Index2Color                        0x080068f8   Section        0  lcd.o(i.LCD_Index2Color)
    i.LCD_Index2Color_888                    0x08006914   Section        0  guicc_888_index2color.o(i.LCD_Index2Color_888)
    i.LCD_Index2Color_8888                   0x08006916   Section        0  guicc_8888_index2color.o(i.LCD_Index2Color_8888)
    i.LCD_Index2Color_M555                   0x08006918   Section        0  guicc_m555_index2color.o(i.LCD_Index2Color_M555)
    i.LCD_Index2Color_M565                   0x0800693c   Section        0  guicc_m565.o(i.LCD_Index2Color_M565)
    i.LCD_InitColors                         0x08006968   Section        0  lcd_color.o(i.LCD_InitColors)
    i.LCD_InitLUT                            0x0800699c   Section        0  lcd_color.o(i.LCD_InitLUT)
    i.LCD_ReadRectEx                         0x08006a18   Section        0  lcd_readrect.o(i.LCD_ReadRectEx)
    LCD_ReadRectEx                           0x08006a19   Thumb Code   404  lcd_readrect.o(i.LCD_ReadRectEx)
    i.LCD_Rst                                0x08006bb0   Section        0  lcdhard.o(i.LCD_Rst)
    LCD_Rst                                  0x08006bb1   Thumb Code    36  lcdhard.o(i.LCD_Rst)
    i.LCD_SelectLCD                          0x08006bd8   Section        0  lcd_selectlcd.o(i.LCD_SelectLCD)
    i.LCD_SetBkColor                         0x08006c18   Section        0  lcd.o(i.LCD_SetBkColor)
    i.LCD_SetBkColorIndex                    0x08006c24   Section        0  lcd.o(i.LCD_SetBkColorIndex)
    i.LCD_SetClipRectEx                      0x08006c3c   Section        0  lcd_setcliprectex.o(i.LCD_SetClipRectEx)
    i.LCD_SetClipRectMax                     0x08006c6c   Section        0  lcd.o(i.LCD_SetClipRectMax)
    i.LCD_SetColor                           0x08006c88   Section        0  lcd.o(i.LCD_SetColor)
    i.LCD_SetColorIndex                      0x08006c94   Section        0  lcd.o(i.LCD_SetColorIndex)
    i.LCD_SetDisplaySize                     0x08006cac   Section        0  lcd_getex.o(i.LCD_SetDisplaySize)
    i.LCD_SetDrawMode                        0x08006cb8   Section        0  lcd.o(i.LCD_SetDrawMode)
    i.LCD_SetLUTEntryEx                      0x08006cc4   Section        0  lcd_set.o(i.LCD_SetLUTEntryEx)
    i.LCD_SetPosEx                           0x08006cf0   Section        0  lcd_set.o(i.LCD_SetPosEx)
    i.LCD_SetSizeEx                          0x08006d1c   Section        0  lcd_set.o(i.LCD_SetSizeEx)
    i.LCD_SetVSizeEx                         0x08006d48   Section        0  lcd_set.o(i.LCD_SetVSizeEx)
    i.LCD_UpdateColorIndices                 0x08006d74   Section        0  lcd_updatecolorindices.o(i.LCD_UpdateColorIndices)
    i.LCD_X_Config                           0x08006d98   Section        0  lcdconf_flexcolor_template.o(i.LCD_X_Config)
    i.LCD_X_DisplayDriver                    0x08006df0   Section        0  lcdconf_flexcolor_template.o(i.LCD_X_DisplayDriver)
    i.LCD__DrawBitmap_1bpp                   0x08006e0c   Section        0  lcd.o(i.LCD__DrawBitmap_1bpp)
    i.LCD__GetBPP                            0x08006fc0   Section        0  lcd_getex.o(i.LCD__GetBPP)
    i.LCD__GetBPPDevice                      0x0800701c   Section        0  lcd_getex.o(i.LCD__GetBPPDevice)
    i.LCD_delay                              0x0800704e   Section        0  lcdhard.o(i.LCD_delay)
    i.LED_Initializes                        0x08007078   Section        0  bsp.o(i.LED_Initializes)
    i.Lcd_Initialize                         0x080070c4   Section        0  lcdhard.o(i.Lcd_Initialize)
    i.Master_scanIndexOD                     0x0800741c   Section        0  master.o(i.Master_scanIndexOD)
    i.Master_valueRangeTest                  0x08007684   Section        0  master.o(i.Master_valueRangeTest)
    i.MemManage_Handler                      0x080076a0   Section        0  stm32f10x_it.o(i.MemManage_Handler)
    i.NMI_Handler                            0x080076a4   Section        0  stm32f10x_it.o(i.NMI_Handler)
    i.NVIC_Init                              0x080076a8   Section        0  misc.o(i.NVIC_Init)
    i.NVIC_PriorityGroupConfig               0x08007718   Section        0  misc.o(i.NVIC_PriorityGroupConfig)
    i.OnCOB_ID_SyncUpdate                    0x0800772c   Section        0  sync.o(i.OnCOB_ID_SyncUpdate)
    i.OnHeartbeatProducerUpdate              0x08007740   Section        0  lifegrd.o(i.OnHeartbeatProducerUpdate)
    i.OnNodeGuardUpdate                      0x08007784   Section        0  lifegrd.o(i.OnNodeGuardUpdate)
    i.OnNumberOfErrorsUpdate                 0x0800779c   Section        0  emcy.o(i.OnNumberOfErrorsUpdate)
    i.PDOEventTimerAlarm                     0x080077c8   Section        0  pdo.o(i.PDOEventTimerAlarm)
    i.PDOInhibitTimerAlarm                   0x080077f6   Section        0  pdo.o(i.PDOInhibitTimerAlarm)
    i.PDOInit                                0x08007830   Section        0  pdo.o(i.PDOInit)
    i.PDOStop                                0x08007888   Section        0  pdo.o(i.PDOStop)
    i.PendSV_Handler                         0x08007900   Section        0  stm32f10x_it.o(i.PendSV_Handler)
    i.ProducerHeartbeatAlarm                 0x08007902   Section        0  lifegrd.o(i.ProducerHeartbeatAlarm)
    i.RCC_AHBPeriphClockCmd                  0x0800794c   Section        0  stm32f10x_rcc.o(i.RCC_AHBPeriphClockCmd)
    i.RCC_APB1PeriphClockCmd                 0x0800796c   Section        0  stm32f10x_rcc.o(i.RCC_APB1PeriphClockCmd)
    i.RCC_APB2PeriphClockCmd                 0x0800798c   Section        0  stm32f10x_rcc.o(i.RCC_APB2PeriphClockCmd)
    i.RCC_GetClocksFreq                      0x080079ac   Section        0  stm32f10x_rcc.o(i.RCC_GetClocksFreq)
    i.RegisterSetODentryCallBack             0x08007a84   Section        0  objacces.o(i.RegisterSetODentryCallBack)
    i.SDA_Input_Mode                         0x08007ab8   Section        0  touch.o(i.SDA_Input_Mode)
    i.SDA_Output_Mode                        0x08007adc   Section        0  touch.o(i.SDA_Output_Mode)
    i.SDIO_ClearFlag                         0x08007b00   Section        0  stm32f10x_sdio.o(i.SDIO_ClearFlag)
    i.SDIO_GetFlagStatus                     0x08007b0c   Section        0  stm32f10x_sdio.o(i.SDIO_GetFlagStatus)
    i.SDIO_IRQHandler                        0x08007b24   Section        0  sdio_sdcard.o(i.SDIO_IRQHandler)
    i.SDIO_SendCommand                       0x08007b2c   Section        0  stm32f10x_sdio.o(i.SDIO_SendCommand)
    i.SDOTimeoutAlarm                        0x08007b58   Section        0  sdo.o(i.SDOTimeoutAlarm)
    i.SDOlineToObjdict                       0x08007c88   Section        0  sdo.o(i.SDOlineToObjdict)
    i.SDOtoLine                              0x08007d34   Section        0  sdo.o(i.SDOtoLine)
    i.SD_ProcessIRQSrc                       0x08007dbc   Section        0  sdio_sdcard.o(i.SD_ProcessIRQSrc)
    i.SVC_Handler                            0x08007ef8   Section        0  stm32f10x_it.o(i.SVC_Handler)
    i.SetAlarm                               0x08007efc   Section        0  timer.o(i.SetAlarm)
    i.SetSysClock                            0x08007fb4   Section        0  system_stm32f10x.o(i.SetSysClock)
    SetSysClock                              0x08007fb5   Thumb Code     8  system_stm32f10x.o(i.SetSysClock)
    i.SetSysClockTo72                        0x08007fbc   Section        0  system_stm32f10x.o(i.SetSysClockTo72)
    SetSysClockTo72                          0x08007fbd   Thumb Code   214  system_stm32f10x.o(i.SetSysClockTo72)
    i.SyncAlarm                              0x0800809c   Section        0  sync.o(i.SyncAlarm)
    i.SysTick_CLKSourceConfig                0x080080aa   Section        0  misc.o(i.SysTick_CLKSourceConfig)
    i.SysTick_Handler                        0x080080d2   Section        0  stm32f10x_it.o(i.SysTick_Handler)
    i.SystemInit                             0x080080d4   Section        0  system_stm32f10x.o(i.SystemInit)
    i.TEXT_Callback                          0x08008134   Section        0  text.o(i.TEXT_Callback)
    i.TEXT_CreateIndirect                    0x0800819a   Section        0  text_createindirect.o(i.TEXT_CreateIndirect)
    i.TEXT_CreateUser                        0x080081d8   Section        0  text.o(i.TEXT_CreateUser)
    i.TEXT_SetFont                           0x0800826c   Section        0  text_setfont.o(i.TEXT_SetFont)
    i.TEXT_SetText                           0x08008290   Section        0  text_settext.o(i.TEXT_SetText)
    i.TEXT_SetTextAlign                      0x080082da   Section        0  text_settextalign.o(i.TEXT_SetTextAlign)
    i.TEXT_SetTextColor                      0x080082fa   Section        0  text_settextcolor.o(i.TEXT_SetTextColor)
    i.TIM2_IRQHandler                        0x0800831e   Section        0  stm32f10x_it.o(i.TIM2_IRQHandler)
    i.TIM3_IRQHandler                        0x08008338   Section        0  bsp_timer.o(i.TIM3_IRQHandler)
    i.TIM3_Int_Init                          0x08008360   Section        0  bsp_timer.o(i.TIM3_Int_Init)
    TIM3_Int_Init                            0x08008361   Thumb Code    90  bsp_timer.o(i.TIM3_Int_Init)
    i.TIM_ClearFlag                          0x080083c0   Section        0  stm32f10x_tim.o(i.TIM_ClearFlag)
    i.TIM_ClearITPendingBit                  0x080083c6   Section        0  stm32f10x_tim.o(i.TIM_ClearITPendingBit)
    i.TIM_Cmd                                0x080083cc   Section        0  stm32f10x_tim.o(i.TIM_Cmd)
    i.TIM_GetCounter                         0x080083e4   Section        0  stm32f10x_tim.o(i.TIM_GetCounter)
    i.TIM_GetITStatus                        0x080083ea   Section        0  stm32f10x_tim.o(i.TIM_GetITStatus)
    i.TIM_ITConfig                           0x0800840c   Section        0  stm32f10x_tim.o(i.TIM_ITConfig)
    i.TIM_Initializes                        0x0800841e   Section        0  bsp_timer.o(i.TIM_Initializes)
    i.TIM_SetAutoreload                      0x0800842a   Section        0  stm32f10x_tim.o(i.TIM_SetAutoreload)
    i.TIM_SetCounter                         0x0800842e   Section        0  stm32f10x_tim.o(i.TIM_SetCounter)
    i.TIM_TimeBaseInit                       0x08008434   Section        0  stm32f10x_tim.o(i.TIM_TimeBaseInit)
    i.TIMx_DispatchFromISR                   0x080084d8   Section        0  canopen_drv.o(i.TIMx_DispatchFromISR)
    i.TPDO_Communication_Parameter_Callback  0x080084f4   Section        0  pdo.o(i.TPDO_Communication_Parameter_Callback)
    i.TimeDispatch                           0x08008588   Section        0  timer.o(i.TimeDispatch)
    i.Timestamp_TIM_Configuration            0x08008648   Section        0  bsp_timer.o(i.Timestamp_TIM_Configuration)
    i.Touch_IIC_Ack                          0x08008668   Section        0  touch.o(i.Touch_IIC_Ack)
    i.Touch_IIC_NAck                         0x080086a8   Section        0  touch.o(i.Touch_IIC_NAck)
    i.Touch_IIC_Read_Byte                    0x080086e8   Section        0  touch.o(i.Touch_IIC_Read_Byte)
    i.Touch_IIC_Send_Byte                    0x08008748   Section        0  touch.o(i.Touch_IIC_Send_Byte)
    i.Touch_IIC_Start                        0x080087b0   Section        0  touch.o(i.Touch_IIC_Start)
    i.Touch_IIC_Stop                         0x080087f0   Section        0  touch.o(i.Touch_IIC_Stop)
    i.Touch_IIC_Wait_Ack                     0x08008830   Section        0  touch.o(i.Touch_IIC_Wait_Ack)
    i.Touch_Init                             0x08008880   Section        0  touch.o(i.Touch_Init)
    i.UART_DEBUG_Configuration               0x08008914   Section        0  bsp_usart.o(i.UART_DEBUG_Configuration)
    i.USART1_IRQHandler                      0x080089c8   Section        0  stm32f10x_it.o(i.USART1_IRQHandler)
    i.USART_ClearFlag                        0x080089f4   Section        0  stm32f10x_usart.o(i.USART_ClearFlag)
    i.USART_Cmd                              0x08008a06   Section        0  stm32f10x_usart.o(i.USART_Cmd)
    i.USART_GetITStatus                      0x08008a1e   Section        0  stm32f10x_usart.o(i.USART_GetITStatus)
    i.USART_ITConfig                         0x08008a72   Section        0  stm32f10x_usart.o(i.USART_ITConfig)
    i.USART_Init                             0x08008abc   Section        0  stm32f10x_usart.o(i.USART_Init)
    i.USART_Initializes                      0x08008b94   Section        0  bsp_usart.o(i.USART_Initializes)
    i.USART_ReceiveData                      0x08008b9c   Section        0  stm32f10x_usart.o(i.USART_ReceiveData)
    i.USART_SendData                         0x08008ba6   Section        0  stm32f10x_usart.o(i.USART_SendData)
    i.USB_LP_CAN1_RX0_IRQHandler             0x08008bb0   Section        0  stm32f10x_it.o(i.USB_LP_CAN1_RX0_IRQHandler)
    i.UsageFault_Handler                     0x08008bcc   Section        0  stm32f10x_it.o(i.UsageFault_Handler)
    i.WIDGET_AndState                        0x08008bd0   Section        0  widget.o(i.WIDGET_AndState)
    i.WIDGET_HandleActive                    0x08008bf8   Section        0  widget.o(i.WIDGET_HandleActive)
    i.WIDGET_OrState                         0x08008d18   Section        0  widget.o(i.WIDGET_OrState)
    i.WIDGET_SetState                        0x08008d40   Section        0  widget.o(i.WIDGET_SetState)
    i.WIDGET__GetInsideRect                  0x08008d62   Section        0  widget.o(i.WIDGET__GetInsideRect)
    i.WIDGET__Init                           0x08008d7c   Section        0  widget.o(i.WIDGET__Init)
    i.WINDOW_Callback                        0x08008d8c   Section        0  window.o(i.WINDOW_Callback)
    i.WINDOW_CreateIndirect                  0x08008e9a   Section        0  window.o(i.WINDOW_CreateIndirect)
    i.WINDOW_CreateUser                      0x08008ed8   Section        0  window.o(i.WINDOW_CreateUser)
    i.WINDOW_SetBkColor                      0x08008f30   Section        0  window.o(i.WINDOW_SetBkColor)
    i.WM_Activate                            0x08008f4c   Section        0  wm.o(i.WM_Activate)
    i.WM_BringToBottom                       0x08008f5c   Section        0  wm_bringtobottom.o(i.WM_BringToBottom)
    i.WM_BringToTop                          0x08008fda   Section        0  wm_bringtotop.o(i.WM_BringToTop)
    i.WM_CreateWindowAsChild                 0x08008fe0   Section        0  wm.o(i.WM_CreateWindowAsChild)
    i.WM_Deactivate                          0x08009128   Section        0  wm.o(i.WM_Deactivate)
    i.WM_DefaultProc                         0x0800913c   Section        0  wm.o(i.WM_DefaultProc)
    i.WM_DeleteTimer                         0x08009182   Section        0  wm_timer.o(i.WM_DeleteTimer)
    i.WM_DeleteWindow                        0x080091a4   Section        0  wm.o(i.WM_DeleteWindow)
    i.WM_Exec                                0x0800928c   Section        0  wm.o(i.WM_Exec)
    i.WM_ForEachDesc                         0x08009304   Section        0  wm_foreachdesc.o(i.WM_ForEachDesc)
    i.WM_GetActiveWindow                     0x08009308   Section        0  wm.o(i.WM_GetActiveWindow)
    i.WM_GetClientRect                       0x08009314   Section        0  wm_getclientrect.o(i.WM_GetClientRect)
    i.WM_GetClientRectEx                     0x08009330   Section        0  wm_getclientrect.o(i.WM_GetClientRectEx)
    i.WM_GetClientWindow                     0x08009334   Section        0  wm_getclientwindow.o(i.WM_GetClientWindow)
    i.WM_GetDesktopWindow                    0x0800934c   Section        0  wm_getdesktopwindow.o(i.WM_GetDesktopWindow)
    i.WM_GetDesktopWindowEx                  0x08009364   Section        0  wm_getdesktopwindowex.o(i.WM_GetDesktopWindowEx)
    i.WM_GetDialogItem                       0x08009378   Section        0  wm_getdialogitem.o(i.WM_GetDialogItem)
    i.WM_GetFirstChild                       0x08009388   Section        0  wm_getfirstchild.o(i.WM_GetFirstChild)
    i.WM_GetFocussedWindow                   0x08009398   Section        0  wm_getfocussedwindow.o(i.WM_GetFocussedWindow)
    i.WM_GetHasTrans                         0x080093ac   Section        0  wm_settrans.o(i.WM_GetHasTrans)
    i.WM_GetId                               0x080093c6   Section        0  wm_getid.o(i.WM_GetId)
    i.WM_GetParent                           0x080093e0   Section        0  wm_getparent.o(i.WM_GetParent)
    i.WM_GetWindowOrgX                       0x080093ee   Section        0  wm_getorg.o(i.WM_GetWindowOrgX)
    i.WM_GetWindowSizeX                      0x08009404   Section        0  wm_getwindowsize.o(i.WM_GetWindowSizeX)
    i.WM_GetWindowSizeY                      0x08009426   Section        0  wm_getwindowsize.o(i.WM_GetWindowSizeY)
    i.WM_HandlePID                           0x08009448   Section        0  wm_touch.o(i.WM_HandlePID)
    i.WM_HasFocus                            0x080097b8   Section        0  wm_hasfocus.o(i.WM_HasFocus)
    i.WM_Init                                0x080097d8   Section        0  wm.o(i.WM_Init)
    i.WM_InvalidateRect                      0x080098ac   Section        0  wm.o(i.WM_InvalidateRect)
    i.WM_InvalidateWindow                    0x08009922   Section        0  wm.o(i.WM_InvalidateWindow)
    i.WM_InvalidateWindowAndDescs            0x08009928   Section        0  wm_show.o(i.WM_InvalidateWindowAndDescs)
    i.WM_InvalidateWindowAndDescsEx          0x08009950   Section        0  wm.o(i.WM_InvalidateWindowAndDescsEx)
    i.WM_IsFocussable                        0x080099ae   Section        0  wm_isfocussable.o(i.WM_IsFocussable)
    i.WM_IsWindow                            0x080099de   Section        0  wm_iswindow.o(i.WM_IsWindow)
    i.WM_MoveWindow                          0x080099e2   Section        0  wm_move.o(i.WM_MoveWindow)
    i.WM_NotifyParent                        0x080099e6   Section        0  wm_notifyparent.o(i.WM_NotifyParent)
    i.WM_OnKey                               0x080099f8   Section        0  wm_onkey.o(i.WM_OnKey)
    i.WM_PID__SetPrevState                   0x08009a30   Section        0  wm_pid__getprevstate.o(i.WM_PID__SetPrevState)
    i.WM_ReleaseCapture                      0x08009a48   Section        0  wm_setcapture.o(i.WM_ReleaseCapture)
    i.WM_ResizeWindow                        0x08009a4c   Section        0  wm_resizewindow.o(i.WM_ResizeWindow)
    i.WM_Screen2hWin                         0x08009b38   Section        0  wm_screen2win.o(i.WM_Screen2hWin)
    i.WM_SelectWindow                        0x08009b44   Section        0  wm.o(i.WM_SelectWindow)
    i.WM_SendMessage                         0x08009b80   Section        0  wm.o(i.WM_SendMessage)
    i.WM_SendMessageNoPara                   0x08009b8a   Section        0  wm_sendmessagenopara.o(i.WM_SendMessageNoPara)
    i.WM_SendToParent                        0x08009b8e   Section        0  wm_sendtoparent.o(i.WM_SendToParent)
    i.WM_SetCreateFlags                      0x08009bac   Section        0  wm_setcreateflags.o(i.WM_SetCreateFlags)
    i.WM_SetDefault                          0x08009bbc   Section        0  wm.o(i.WM_SetDefault)
    i.WM_SetFocus                            0x08009bd0   Section        0  wm_setfocus.o(i.WM_SetFocus)
    i.WM_SetFocusOnNextChild                 0x08009c6c   Section        0  wm_setfocusonnextchild.o(i.WM_SetFocusOnNextChild)
    i.WM_SetFocusOnPrevChild                 0x08009c7c   Section        0  wm_setfocusonprevchild.o(i.WM_SetFocusOnPrevChild)
    i.WM_SetHasTrans                         0x08009cbc   Section        0  wm_settrans.o(i.WM_SetHasTrans)
    i.WM_SetSize                             0x08009cfc   Section        0  wm_setsize.o(i.WM_SetSize)
    i.WM_SetUserClipRect                     0x08009d3c   Section        0  wm_setusercliprect.o(i.WM_SetUserClipRect)
    i.WM_ShowWindow                          0x08009d54   Section        0  wm_show.o(i.WM_ShowWindow)
    i.WM_ValidateWindow                      0x08009d7c   Section        0  wm_validatewindow.o(i.WM_ValidateWindow)
    i.WM__ActivateClipRect                   0x08009da8   Section        0  wm.o(i.WM__ActivateClipRect)
    i.WM__AddCriticalHandle                  0x08009df0   Section        0  wm_criticalhandle.o(i.WM__AddCriticalHandle)
    i.WM__Client2Screen                      0x08009e00   Section        0  wm.o(i.WM__Client2Screen)
    i.WM__ClipAtParentBorders                0x08009e10   Section        0  wm.o(i.WM__ClipAtParentBorders)
    i.WM__DeleteAssocTimer                   0x08009e5e   Section        0  wm_timer.o(i.WM__DeleteAssocTimer)
    i.WM__DetachWindow                       0x08009ea8   Section        0  wm.o(i.WM__DetachWindow)
    i.WM__ForEachDesc                        0x08009ed0   Section        0  wm__foreachdesc.o(i.WM__ForEachDesc)
    i.WM__GetClientRectEx                    0x08009efc   Section        0  wm_getclientrect.o(i.WM__GetClientRectEx)
    i.WM__GetClientRectWin                   0x08009f1c   Section        0  wm.o(i.WM__GetClientRectWin)
    i.WM__GetFirstSibling                    0x08009f34   Section        0  wm__getfirstsibling.o(i.WM__GetFirstSibling)
    i.WM__GetFocussedChild                   0x08009f48   Section        0  wm__getfocussedchild.o(i.WM__GetFocussedChild)
    i.WM__GetLastSibling                     0x08009f70   Section        0  wm__getlastsibling.o(i.WM__GetLastSibling)
    i.WM__GetNextIVR                         0x08009f88   Section        0  wm.o(i.WM__GetNextIVR)
    i.WM__GetPrevSibling                     0x08009fc8   Section        0  wm__getprevsibling.o(i.WM__GetPrevSibling)
    i.WM__GetTopLevelLayer                   0x08009fec   Section        0  wm.o(i.WM__GetTopLevelLayer)
    i.WM__GetWindowSizeX                     0x0800a004   Section        0  wm_getwindowsize.o(i.WM__GetWindowSizeX)
    i.WM__GetWindowSizeY                     0x0800a012   Section        0  wm_getwindowsize.o(i.WM__GetWindowSizeY)
    i.WM__InitIVRSearch                      0x0800a020   Section        0  wm.o(i.WM__InitIVRSearch)
    i.WM__InsertWindowIntoList               0x0800a110   Section        0  wm.o(i.WM__InsertWindowIntoList)
    i.WM__Invalidate1Abs                     0x0800a1b4   Section        0  wm.o(i.WM__Invalidate1Abs)
    i.WM__InvalidateDrawAndDescs             0x0800a1bc   Section        0  wm.o(i.WM__InvalidateDrawAndDescs)
    i.WM__InvalidateParent                   0x0800a210   Section        0  wm.o(i.WM__InvalidateParent)
    i.WM__InvalidateRect                     0x0800a23a   Section        0  wm.o(i.WM__InvalidateRect)
    i.WM__InvalidateRectEx                   0x0800a2b0   Section        0  wm.o(i.WM__InvalidateRectEx)
    i.WM__IsAncestor                         0x0800a2b8   Section        0  wm__isancestor.o(i.WM__IsAncestor)
    i.WM__IsAncestorOrSelf                   0x0800a2da   Section        0  wm__isancestor.o(i.WM__IsAncestorOrSelf)
    i.WM__IsChild                            0x0800a2e6   Section        0  wm__ischild.o(i.WM__IsChild)
    i.WM__IsEnabled                          0x0800a308   Section        0  wm__isenabled.o(i.WM__IsEnabled)
    i.WM__IsInModalArea                      0x0800a320   Section        0  wm_touch.o(i.WM__IsInModalArea)
    i.WM__IsInWindow                         0x0800a388   Section        0  wm_screen2win.o(i.WM__IsInWindow)
    i.WM__IsWindow                           0x0800a3b8   Section        0  wm.o(i.WM__IsWindow)
    i.WM__MoveWindow                         0x0800a3dc   Section        0  wm_move.o(i.WM__MoveWindow)
    i.WM__Paint                              0x0800a478   Section        0  wm.o(i.WM__Paint)
    i.WM__Paint1                             0x0800a518   Section        0  wm.o(i.WM__Paint1)
    i.WM__PaintWinAndOverlays                0x0800a5a4   Section        0  wm.o(i.WM__PaintWinAndOverlays)
    WM__PaintWinAndOverlays                  0x0800a5a5   Thumb Code   116  wm.o(i.WM__PaintWinAndOverlays)
    i.WM__RectIsNZ                           0x0800a61c   Section        0  wm.o(i.WM__RectIsNZ)
    i.WM__ReleaseCapture                     0x0800a63c   Section        0  wm_setcapture.o(i.WM__ReleaseCapture)
    WM__ReleaseCapture                       0x0800a63d   Thumb Code    36  wm_setcapture.o(i.WM__ReleaseCapture)
    i.WM__RemoveCriticalHandle               0x0800a668   Section        0  wm_criticalhandle.o(i.WM__RemoveCriticalHandle)
    i.WM__RemoveWindowFromList               0x0800a694   Section        0  wm.o(i.WM__RemoveWindowFromList)
    i.WM__SelectTopLevelLayer                0x0800a6d4   Section        0  wm.o(i.WM__SelectTopLevelLayer)
    i.WM__SendMessage                        0x0800a6e8   Section        0  wm__sendmessage.o(i.WM__SendMessage)
    i.WM__SendMessageIfEnabled               0x0800a724   Section        0  wm__sendmessageifenabled.o(i.WM__SendMessageIfEnabled)
    i.WM__SendMessageNoPara                  0x0800a740   Section        0  wm__sendmessagenopara.o(i.WM__SendMessageNoPara)
    i.WM__SendMsgNoData                      0x0800a766   Section        0  wm.o(i.WM__SendMsgNoData)
    i.WM__SendPIDMessage                     0x0800a774   Section        0  wm_touch.o(i.WM__SendPIDMessage)
    i.WM__SendTouchMessage                   0x0800a7b2   Section        0  wm_touch.o(i.WM__SendTouchMessage)
    i.WM__UpdateChildPositions               0x0800a7e8   Section        0  wm__updatechildpositions.o(i.WM__UpdateChildPositions)
    i.WinMain_DateUpdate                     0x0800a8c4   Section        0  softwarewindowdlg.o(i.WinMain_DateUpdate)
    i.WriteComm                              0x0800aa80   Section        0  lcdhard.o(i.WriteComm)
    i.WriteData                              0x0800aa8c   Section        0  lcdhard.o(i.WriteData)
    i._AddFreeMemory                         0x0800aa98   Section        0  gui_alloc.o(i._AddFreeMemory)
    _AddFreeMemory                           0x0800aa99   Thumb Code   140  gui_alloc.o(i._AddFreeMemory)
    i._Alloc                                 0x0800ab28   Section        0  gui_alloc.o(i._Alloc)
    _Alloc                                   0x0800ab29   Thumb Code   178  gui_alloc.o(i._Alloc)
    i._BringToTop                            0x0800abe0   Section        0  wm_bringtotop.o(i._BringToTop)
    _BringToTop                              0x0800abe1   Thumb Code   106  wm_bringtotop.o(i._BringToTop)
    i._CalcSizeOfChar                        0x0800ac50   Section        0  gui_uc_encodenone.o(i._CalcSizeOfChar)
    _CalcSizeOfChar                          0x0800ac51   Thumb Code     4  gui_uc_encodenone.o(i._CalcSizeOfChar)
    i._Color2IndexBulk                       0x0800ac54   Section        0  guicc_m565.o(i._Color2IndexBulk)
    _Color2IndexBulk                         0x0800ac55   Thumb Code    60  guicc_m565.o(i._Color2IndexBulk)
    i._Color2IndexBulk                       0x0800ac9c   Section        0  guicc_8888.o(i._Color2IndexBulk)
    _Color2IndexBulk                         0x0800ac9d   Thumb Code    14  guicc_8888.o(i._Color2IndexBulk)
    i._Color2Index_0                         0x0800acac   Section        0  guicc_0.o(i._Color2Index_0)
    _Color2Index_0                           0x0800acad   Thumb Code    84  guicc_0.o(i._Color2Index_0)
    i._Color2Index_8888                      0x0800ad00   Section        0  guicc_8888.o(i._Color2Index_8888)
    _Color2Index_8888                        0x0800ad01   Thumb Code     2  guicc_8888.o(i._Color2Index_8888)
    i._Color2Index_M565                      0x0800ad04   Section        0  guicc_m565.o(i._Color2Index_M565)
    _Color2Index_M565                        0x0800ad05   Thumb Code    32  guicc_m565.o(i._Color2Index_M565)
    i._Convert16                             0x0800ad2c   Section        0  guidev_writetoactiveopaque.o(i._Convert16)
    _Convert16                               0x0800ad2d   Thumb Code    62  guidev_writetoactiveopaque.o(i._Convert16)
    i._Convert8                              0x0800ad6a   Section        0  guidev_writetoactiveopaque.o(i._Convert8)
    _Convert8                                0x0800ad6b   Thumb Code    62  guidev_writetoactiveopaque.o(i._Convert8)
    i._Create                                0x0800ada8   Section        0  button_skin.o(i._Create)
    _Create                                  0x0800ada9   Thumb Code    48  button_skin.o(i._Create)
    i._CreateBuffer                          0x0800add8   Section        0  gui_sprite.o(i._CreateBuffer)
    _CreateBuffer                            0x0800add9   Thumb Code   162  gui_sprite.o(i._CreateBuffer)
    i._CreateStaticDevice                    0x0800ae7c   Section        0  guidev_staticdevices.o(i._CreateStaticDevice)
    _CreateStaticDevice                      0x0800ae7d   Thumb Code   308  guidev_staticdevices.o(i._CreateStaticDevice)
    i._DecPointer                            0x0800afc4   Section        0  gui_pid.o(i._DecPointer)
    _DecPointer                              0x0800afc5   Thumb Code    16  gui_pid.o(i._DecPointer)
    i._DeleteAllChildren                     0x0800afd8   Section        0  wm.o(i._DeleteAllChildren)
    _DeleteAllChildren                       0x0800afd9   Thumb Code    18  wm.o(i._DeleteAllChildren)
    i._DesktopHandle2Index                   0x0800afec   Section        0  wm.o(i._DesktopHandle2Index)
    _DesktopHandle2Index                     0x0800afed   Thumb Code    28  wm.o(i._DesktopHandle2Index)
    i._DispLine                              0x0800b00c   Section        0  gui_charline.o(i._DispLine)
    _DispLine                                0x0800b00d   Thumb Code   104  gui_charline.o(i._DispLine)
    i._Draw                                  0x0800b080   Section        0  gui_bmp.o(i._Draw)
    _Draw                                    0x0800b081   Thumb Code   458  gui_bmp.o(i._Draw)
    i._DrawBitLine16BPP                      0x0800b258   Section        0  guidrv_template.o(i._DrawBitLine16BPP)
    _DrawBitLine16BPP                        0x0800b259   Thumb Code    92  guidrv_template.o(i._DrawBitLine16BPP)
    i._DrawBitLine1BPP                       0x0800b2bc   Section        0  guidrv_template.o(i._DrawBitLine1BPP)
    _DrawBitLine1BPP                         0x0800b2bd   Thumb Code   236  guidrv_template.o(i._DrawBitLine1BPP)
    i._DrawBitLine1BPP                       0x0800b3ac   Section        0  guidev_16.o(i._DrawBitLine1BPP)
    _DrawBitLine1BPP                         0x0800b3ad   Thumb Code   320  guidev_16.o(i._DrawBitLine1BPP)
    i._DrawBitLine1BPP                       0x0800b4f4   Section        0  guidev_32.o(i._DrawBitLine1BPP)
    _DrawBitLine1BPP                         0x0800b4f5   Thumb Code   276  guidev_32.o(i._DrawBitLine1BPP)
    i._DrawBitLine2BPP                       0x0800b610   Section        0  guidrv_template.o(i._DrawBitLine2BPP)
    _DrawBitLine2BPP                         0x0800b611   Thumb Code   358  guidrv_template.o(i._DrawBitLine2BPP)
    i._DrawBitLine2BPP                       0x0800b77c   Section        0  guidev_16.o(i._DrawBitLine2BPP)
    _DrawBitLine2BPP                         0x0800b77d   Thumb Code   220  guidev_16.o(i._DrawBitLine2BPP)
    i._DrawBitLine2BPP                       0x0800b85c   Section        0  guidev_32.o(i._DrawBitLine2BPP)
    _DrawBitLine2BPP                         0x0800b85d   Thumb Code   218  guidev_32.o(i._DrawBitLine2BPP)
    i._DrawBitLine32BPP                      0x0800b93c   Section        0  guidrv_template.o(i._DrawBitLine32BPP)
    _DrawBitLine32BPP                        0x0800b93d   Thumb Code    42  guidrv_template.o(i._DrawBitLine32BPP)
    i._DrawBitLine32BPP_DDB                  0x0800b966   Section        0  guidev_32.o(i._DrawBitLine32BPP_DDB)
    _DrawBitLine32BPP_DDB                    0x0800b967   Thumb Code   160  guidev_32.o(i._DrawBitLine32BPP_DDB)
    i._DrawBitLine4BPP                       0x0800ba08   Section        0  guidrv_template.o(i._DrawBitLine4BPP)
    _DrawBitLine4BPP                         0x0800ba09   Thumb Code   358  guidrv_template.o(i._DrawBitLine4BPP)
    i._DrawBitLine4BPP                       0x0800bb74   Section        0  guidev_16.o(i._DrawBitLine4BPP)
    _DrawBitLine4BPP                         0x0800bb75   Thumb Code   346  guidev_16.o(i._DrawBitLine4BPP)
    i._DrawBitLine4BPP                       0x0800bcd4   Section        0  guidev_32.o(i._DrawBitLine4BPP)
    _DrawBitLine4BPP                         0x0800bcd5   Thumb Code   340  guidev_32.o(i._DrawBitLine4BPP)
    i._DrawBitLine8BPP                       0x0800be2c   Section        0  guidrv_template.o(i._DrawBitLine8BPP)
    _DrawBitLine8BPP                         0x0800be2d   Thumb Code   170  guidrv_template.o(i._DrawBitLine8BPP)
    i._DrawBitmap                            0x0800bedc   Section        0  guidrv_template.o(i._DrawBitmap)
    _DrawBitmap                              0x0800bedd   Thumb Code   250  guidrv_template.o(i._DrawBitmap)
    i._DrawBitmap                            0x0800bfd8   Section        0  guidev_16.o(i._DrawBitmap)
    _DrawBitmap                              0x0800bfd9   Thumb Code   664  guidev_16.o(i._DrawBitmap)
    i._DrawBitmap                            0x0800c278   Section        0  guidev_32.o(i._DrawBitmap)
    _DrawBitmap                              0x0800c279   Thumb Code   666  guidev_32.o(i._DrawBitmap)
    i._DrawBitmap_16bpp                      0x0800c51c   Section        0  gui_bmp.o(i._DrawBitmap_16bpp)
    _DrawBitmap_16bpp                        0x0800c51d   Thumb Code   218  gui_bmp.o(i._DrawBitmap_16bpp)
    i._DrawBitmap_Pal                        0x0800c600   Section        0  gui_bmp.o(i._DrawBitmap_Pal)
    _DrawBitmap_Pal                          0x0800c601   Thumb Code   216  gui_bmp.o(i._DrawBitmap_Pal)
    i._DrawBitmap_RGB                        0x0800c6dc   Section        0  gui_bmp.o(i._DrawBitmap_RGB)
    _DrawBitmap_RGB                          0x0800c6dd   Thumb Code   242  gui_bmp.o(i._DrawBitmap_RGB)
    i._DrawBitmap_RLE                        0x0800c7dc   Section        0  gui_bmp.o(i._DrawBitmap_RLE)
    _DrawBitmap_RLE                          0x0800c7dd   Thumb Code   580  gui_bmp.o(i._DrawBitmap_RLE)
    i._DrawDown                              0x0800ca28   Section        0  widget_effect_simple.o(i._DrawDown)
    _DrawDown                                0x0800ca29   Thumb Code    16  widget_effect_simple.o(i._DrawDown)
    i._DrawDownRect                          0x0800ca38   Section        0  widget_effect_simple.o(i._DrawDownRect)
    _DrawDownRect                            0x0800ca39   Thumb Code    50  widget_effect_simple.o(i._DrawDownRect)
    i._DrawGradient                          0x0800ca70   Section        0  gui_drawgradient.o(i._DrawGradient)
    _DrawGradient                            0x0800ca71   Thumb Code   382  gui_drawgradient.o(i._DrawGradient)
    i._DrawHLine                             0x0800cbee   Section        0  guidrv_template.o(i._DrawHLine)
    _DrawHLine                               0x0800cbef   Thumb Code    26  guidrv_template.o(i._DrawHLine)
    i._DrawHLine                             0x0800cc08   Section        0  guidev_16.o(i._DrawHLine)
    _DrawHLine                               0x0800cc09   Thumb Code    10  guidev_16.o(i._DrawHLine)
    i._DrawHLine                             0x0800cc12   Section        0  guidev_32.o(i._DrawHLine)
    _DrawHLine                               0x0800cc13   Thumb Code    10  guidev_32.o(i._DrawHLine)
    i._DrawImageAt                           0x0800cc1c   Section        0  image_bmp.o(i._DrawImageAt)
    _DrawImageAt                             0x0800cc1d   Thumb Code    32  image_bmp.o(i._DrawImageAt)
    i._DrawLine_RGB                          0x0800cc3c   Section        0  gui_bmp.o(i._DrawLine_RGB)
    _DrawLine_RGB                            0x0800cc3d   Thumb Code   116  gui_bmp.o(i._DrawLine_RGB)
    i._DrawNext                              0x0800ccb0   Section        0  wm.o(i._DrawNext)
    _DrawNext                                0x0800ccb1   Thumb Code    82  wm.o(i._DrawNext)
    i._DrawTwinArc4                          0x0800cd0c   Section        0  gui__drawtwinarc.o(i._DrawTwinArc4)
    _DrawTwinArc4                            0x0800cd0d   Thumb Code   370  gui__drawtwinarc.o(i._DrawTwinArc4)
    i._DrawUp                                0x0800ce7e   Section        0  widget_effect_simple.o(i._DrawUp)
    _DrawUp                                  0x0800ce7f   Thumb Code    16  widget_effect_simple.o(i._DrawUp)
    i._DrawUpRect                            0x0800ce90   Section        0  widget_effect_simple.o(i._DrawUpRect)
    _DrawUpRect                              0x0800ce91   Thumb Code    50  widget_effect_simple.o(i._DrawUpRect)
    i._DrawVLine                             0x0800cec8   Section        0  guidrv_template.o(i._DrawVLine)
    _DrawVLine                               0x0800cec9   Thumb Code    26  guidrv_template.o(i._DrawVLine)
    i._DrawVLine                             0x0800cee4   Section        0  guidev_16.o(i._DrawVLine)
    _DrawVLine                               0x0800cee5   Thumb Code   180  guidev_16.o(i._DrawVLine)
    i._DrawVLine                             0x0800cf9c   Section        0  guidev_32.o(i._DrawVLine)
    _DrawVLine                               0x0800cf9d   Thumb Code   166  guidev_32.o(i._DrawVLine)
    i._Encode                                0x0800d048   Section        0  gui_uc_encodenone.o(i._Encode)
    _Encode                                  0x0800d049   Thumb Code     6  gui_uc_encodenone.o(i._Encode)
    i._EnlargeBlocks                         0x0800d050   Section        0  gui_alloc.o(i._EnlargeBlocks)
    _EnlargeBlocks                           0x0800d051   Thumb Code   146  gui_alloc.o(i._EnlargeBlocks)
    i._Exec1Input                            0x0800d0e8   Section        0  wm.o(i._Exec1Input)
    _Exec1Input                              0x0800d0e9   Thumb Code   100  wm.o(i._Exec1Input)
    i._FillRect                              0x0800d158   Section        0  guidrv_template.o(i._FillRect)
    _FillRect                                0x0800d159   Thumb Code   102  guidrv_template.o(i._FillRect)
    i._FillRect                              0x0800d1c4   Section        0  guidev_16.o(i._FillRect)
    _FillRect                                0x0800d1c5   Thumb Code   166  guidev_16.o(i._FillRect)
    i._FillRect                              0x0800d270   Section        0  guidev_32.o(i._FillRect)
    _FillRect                                0x0800d271   Thumb Code   160  guidev_32.o(i._FillRect)
    i._FindNext_IVR                          0x0800d314   Section        0  wm.o(i._FindNext_IVR)
    _FindNext_IVR                            0x0800d315   Thumb Code   318  wm.o(i._FindNext_IVR)
    i._Findx0                                0x0800d45c   Section        0  wm.o(i._Findx0)
    _Findx0                                  0x0800d45d   Thumb Code   124  wm.o(i._Findx0)
    i._Findx1                                0x0800d4d8   Section        0  wm.o(i._Findx1)
    _Findx1                                  0x0800d4d9   Thumb Code   114  wm.o(i._Findx1)
    i._Findy1                                0x0800d54a   Section        0  wm.o(i._Findy1)
    _Findy1                                  0x0800d54b   Thumb Code   166  wm.o(i._Findy1)
    i._FlushBuffer                           0x0800d5f0   Section        0  gui_sprite.o(i._FlushBuffer)
    _FlushBuffer                             0x0800d5f1   Thumb Code   122  gui_sprite.o(i._FlushBuffer)
    i._GUI_USAGE_BM_Delete                   0x0800d66a   Section        0  guidev_usagebm.o(i._GUI_USAGE_BM_Delete)
    _GUI_USAGE_BM_Delete                     0x0800d66b   Thumb Code     4  guidev_usagebm.o(i._GUI_USAGE_BM_Delete)
    i._GetBitfieldsPara                      0x0800d66e   Section        0  gui_bmp.o(i._GetBitfieldsPara)
    _GetBitfieldsPara                        0x0800d66f   Thumb Code    36  gui_bmp.o(i._GetBitfieldsPara)
    i._GetBkIndex                            0x0800d692   Section        0  gui_sprite.o(i._GetBkIndex)
    _GetBkIndex                              0x0800d693   Thumb Code   108  gui_sprite.o(i._GetBkIndex)
    i._GetBkIndexAlpha                       0x0800d6fe   Section        0  gui_sprite.o(i._GetBkIndexAlpha)
    _GetBkIndexAlpha                         0x0800d6ff   Thumb Code   128  gui_sprite.o(i._GetBkIndexAlpha)
    i._GetCharCode                           0x0800d77e   Section        0  gui_uc_encodenone.o(i._GetCharCode)
    _GetCharCode                             0x0800d77f   Thumb Code     4  gui_uc_encodenone.o(i._GetCharCode)
    i._GetCharSize                           0x0800d782   Section        0  gui_uc_encodenone.o(i._GetCharSize)
    _GetCharSize                             0x0800d783   Thumb Code     4  gui_uc_encodenone.o(i._GetCharSize)
    i._GetCharWrap                           0x0800d786   Section        0  gui__wrap.o(i._GetCharWrap)
    _GetCharWrap                             0x0800d787   Thumb Code    46  gui__wrap.o(i._GetCharWrap)
    i._GetClipParam                          0x0800d7b4   Section        0  gui_bmp.o(i._GetClipParam)
    _GetClipParam                            0x0800d7b5   Thumb Code   204  gui_bmp.o(i._GetClipParam)
    i._GetDefaultWin                         0x0800d884   Section        0  wm_getwindowsize.o(i._GetDefaultWin)
    _GetDefaultWin                           0x0800d885   Thumb Code    10  wm_getwindowsize.o(i._GetDefaultWin)
    i._GetDevData                            0x0800d890   Section        0  guidrv_template.o(i._GetDevData)
    _GetDevData                              0x0800d891   Thumb Code    14  guidrv_template.o(i._GetDevData)
    i._GetDevData                            0x0800d8a4   Section        0  guidev_16.o(i._GetDevData)
    _GetDevData                              0x0800d8a5   Thumb Code    12  guidev_16.o(i._GetDevData)
    i._GetDevData                            0x0800d8b4   Section        0  guidev_32.o(i._GetDevData)
    _GetDevData                              0x0800d8b5   Thumb Code    12  guidev_32.o(i._GetDevData)
    i._GetDevFunc                            0x0800d8c4   Section        0  guidrv_template.o(i._GetDevFunc)
    _GetDevFunc                              0x0800d8c5   Thumb Code    54  guidrv_template.o(i._GetDevFunc)
    i._GetDevFunc                            0x0800d918   Section        0  guidev_16.o(i._GetDevFunc)
    _GetDevFunc                              0x0800d919   Thumb Code    12  guidev_16.o(i._GetDevFunc)
    i._GetDevFunc                            0x0800d928   Section        0  guidev_32.o(i._GetDevFunc)
    _GetDevFunc                              0x0800d929   Thumb Code    12  guidev_32.o(i._GetDevFunc)
    i._GetDevProp                            0x0800d938   Section        0  guidrv_template.o(i._GetDevProp)
    _GetDevProp                              0x0800d939   Thumb Code    80  guidrv_template.o(i._GetDevProp)
    i._GetDevProp                            0x0800d988   Section        0  lcd_getex.o(i._GetDevProp)
    _GetDevProp                              0x0800d989   Thumb Code    30  lcd_getex.o(i._GetDevProp)
    i._GetDevProp                            0x0800d9a6   Section        0  guidev_16.o(i._GetDevProp)
    _GetDevProp                              0x0800d9a7   Thumb Code    16  guidev_16.o(i._GetDevProp)
    i._GetDevProp                            0x0800d9b6   Section        0  guidev_32.o(i._GetDevProp)
    _GetDevProp                              0x0800d9b7   Thumb Code    12  guidev_32.o(i._GetDevProp)
    i._GetDeviceRect                         0x0800d9c4   Section        0  gui_sprite.o(i._GetDeviceRect)
    _GetDeviceRect                           0x0800d9c5   Thumb Code    58  gui_sprite.o(i._GetDeviceRect)
    i._GetDialogItem                         0x0800da04   Section        0  wm_getdialogitem.o(i._GetDialogItem)
    _GetDialogItem                           0x0800da05   Thumb Code    64  wm_getdialogitem.o(i._GetDialogItem)
    i._GetEarlyOut                           0x0800da44   Section        0  gui_bmp.o(i._GetEarlyOut)
    _GetEarlyOut                             0x0800da45   Thumb Code   188  gui_bmp.o(i._GetEarlyOut)
    i._GetImageById                          0x0800db00   Section        0  softwarewindowdlg.o(i._GetImageById)
    _GetImageById                            0x0800db01   Thumb Code    16  softwarewindowdlg.o(i._GetImageById)
    i._GetImageSize                          0x0800db18   Section        0  image_bmp.o(i._GetImageSize)
    _GetImageSize                            0x0800db19   Thumb Code    38  image_bmp.o(i._GetImageSize)
    i._GetIndexMask_0                        0x0800db3e   Section        0  guicc_0.o(i._GetIndexMask_0)
    _GetIndexMask_0                          0x0800db3f   Thumb Code    82  guicc_0.o(i._GetIndexMask_0)
    i._GetIndexMask_8888                     0x0800db90   Section        0  guicc_8888.o(i._GetIndexMask_8888)
    _GetIndexMask_8888                       0x0800db91   Thumb Code     6  guicc_8888.o(i._GetIndexMask_8888)
    i._GetIndexMask_M565                     0x0800db96   Section        0  guicc_m565.o(i._GetIndexMask_M565)
    _GetIndexMask_M565                       0x0800db97   Thumb Code     6  guicc_m565.o(i._GetIndexMask_M565)
    i._GetMaxValue                           0x0800db9c   Section        0  lcd_getex.o(i._GetMaxValue)
    _GetMaxValue                             0x0800db9d   Thumb Code    30  lcd_getex.o(i._GetMaxValue)
    i._GetMinIndex                           0x0800dbbc   Section        0  gui_alloc.o(i._GetMinIndex)
    _GetMinIndex                             0x0800dbbd   Thumb Code    24  gui_alloc.o(i._GetMinIndex)
    i._GetNextChild                          0x0800dbd8   Section        0  wm_setfocusonnextchild.o(i._GetNextChild)
    _GetNextChild                            0x0800dbd9   Thumb Code    34  wm_setfocusonnextchild.o(i._GetNextChild)
    i._GetPixelIndex                         0x0800dbfa   Section        0  guidrv_template.o(i._GetPixelIndex)
    _GetPixelIndex                           0x0800dbfb   Thumb Code    26  guidrv_template.o(i._GetPixelIndex)
    i._GetPixelIndex                         0x0800dc14   Section        0  guidev_16.o(i._GetPixelIndex)
    _GetPixelIndex                           0x0800dc15   Thumb Code    14  guidev_16.o(i._GetPixelIndex)
    i._GetPixelIndex                         0x0800dc22   Section        0  guidev_32.o(i._GetPixelIndex)
    _GetPixelIndex                           0x0800dc23   Thumb Code    14  guidev_32.o(i._GetPixelIndex)
    i._GetPrevChild                          0x0800dc30   Section        0  wm_setfocusonprevchild.o(i._GetPrevChild)
    _GetPrevChild                            0x0800dc31   Thumb Code    26  wm_setfocusonprevchild.o(i._GetPrevChild)
    i._GetRect                               0x0800dc4a   Section        0  guidrv_template.o(i._GetRect)
    _GetRect                                 0x0800dc4b   Thumb Code    26  guidrv_template.o(i._GetRect)
    i._GetRect                               0x0800dc64   Section        0  guidev_16.o(i._GetRect)
    _GetRect                                 0x0800dc65   Thumb Code    48  guidev_16.o(i._GetRect)
    i._GetRect                               0x0800dc94   Section        0  guidev_32.o(i._GetRect)
    _GetRect                                 0x0800dc95   Thumb Code    48  guidev_32.o(i._GetRect)
    i._GetTwinArcPara                        0x0800dcc4   Section        0  gui__drawtwinarc.o(i._GetTwinArcPara)
    _GetTwinArcPara                          0x0800dcc5   Thumb Code    84  gui__drawtwinarc.o(i._GetTwinArcPara)
    i._GetWordWrap                           0x0800dd18   Section        0  gui__wrap.o(i._GetWordWrap)
    _GetWordWrap                             0x0800dd19   Thumb Code   100  gui__wrap.o(i._GetWordWrap)
    i._GotoX                                 0x0800dd7c   Section        0  gui_goto.o(i._GotoX)
    _GotoX                                   0x0800dd7d   Thumb Code    10  gui_goto.o(i._GotoX)
    i._GotoY                                 0x0800dd8c   Section        0  gui_goto.o(i._GotoY)
    _GotoY                                   0x0800dd8d   Thumb Code    10  gui_goto.o(i._GotoY)
    i._IncPointer                            0x0800dd9c   Section        0  gui_onkey.o(i._IncPointer)
    _IncPointer                              0x0800dd9d   Thumb Code    24  gui_onkey.o(i._IncPointer)
    i._IncPointer                            0x0800ddb8   Section        0  gui_pid.o(i._IncPointer)
    _IncPointer                              0x0800ddb9   Thumb Code    16  gui_pid.o(i._IncPointer)
    i._IncReadPointer                        0x0800ddcc   Section        0  gui_onkey.o(i._IncReadPointer)
    _IncReadPointer                          0x0800ddcd   Thumb Code     6  gui_onkey.o(i._IncReadPointer)
    i._Index2ColorBitfields                  0x0800ddd2   Section        0  gui_bmp.o(i._Index2ColorBitfields)
    _Index2ColorBitfields                    0x0800ddd3   Thumb Code   100  gui_bmp.o(i._Index2ColorBitfields)
    i._Index2ColorBulk                       0x0800de38   Section        0  guicc_m565.o(i._Index2ColorBulk)
    _Index2ColorBulk                         0x0800de39   Thumb Code    76  guicc_m565.o(i._Index2ColorBulk)
    i._Index2ColorBulk                       0x0800de90   Section        0  guicc_8888.o(i._Index2ColorBulk)
    _Index2ColorBulk                         0x0800de91   Thumb Code    14  guicc_8888.o(i._Index2ColorBulk)
    i._Index2Color_0                         0x0800de9e   Section        0  guicc_0.o(i._Index2Color_0)
    _Index2Color_0                           0x0800de9f   Thumb Code    32  guicc_0.o(i._Index2Color_0)
    i._Init                                  0x0800debe   Section        0  guidrv_template.o(i._Init)
    _Init                                    0x0800debf   Thumb Code    28  guidrv_template.o(i._Init)
    i._InitContext                           0x0800dedc   Section        0  gui_core.o(i._InitContext)
    _InitContext                             0x0800dedd   Thumb Code    98  gui_core.o(i._InitContext)
    i._InitOnce                              0x0800df4c   Section        0  guidrv_template.o(i._InitOnce)
    _InitOnce                                0x0800df4d   Thumb Code    44  guidrv_template.o(i._InitOnce)
    i._InitOnce                              0x0800df78   Section        0  gui_alloc.o(i._InitOnce)
    _InitOnce                                0x0800df79   Thumb Code   156  gui_alloc.o(i._InitOnce)
    i._Invalidate1Abs                        0x0800e020   Section        0  wm.o(i._Invalidate1Abs)
    _Invalidate1Abs                          0x0800e021   Thumb Code   122  wm.o(i._Invalidate1Abs)
    i._Log2PhysX                             0x0800e0a0   Section        0  gui_touch_calibrate.o(i._Log2PhysX)
    _Log2PhysX                               0x0800e0a1   Thumb Code    78  gui_touch_calibrate.o(i._Log2PhysX)
    i._Log2PhysY                             0x0800e0f4   Section        0  gui_touch_calibrate.o(i._Log2PhysY)
    _Log2PhysY                               0x0800e0f5   Thumb Code    76  gui_touch_calibrate.o(i._Log2PhysY)
    i._Log2VisBuffered                       0x0800e144   Section        0  gui_charline.o(i._Log2VisBuffered)
    _Log2VisBuffered                         0x0800e145   Thumb Code     2  gui_charline.o(i._Log2VisBuffered)
    i._ManageBitfields                       0x0800e148   Section        0  gui_bmp.o(i._ManageBitfields)
    _ManageBitfields                         0x0800e149   Thumb Code   100  gui_bmp.o(i._ManageBitfields)
    i._Min                                   0x0800e1b0   Section        0  guidev_banding.o(i._Min)
    _Min                                     0x0800e1b1   Thumb Code     8  guidev_banding.o(i._Min)
    i._MoveDescendents                       0x0800e1b8   Section        0  wm_move.o(i._MoveDescendents)
    _MoveDescendents                         0x0800e1b9   Thumb Code   110  wm_move.o(i._MoveDescendents)
    i._NextPixel_End                         0x0800e228   Section        0  gui_bmp.o(i._NextPixel_End)
    _NextPixel_End                           0x0800e229   Thumb Code    30  gui_bmp.o(i._NextPixel_End)
    i._NextPixel_FlushBuffer                 0x0800e24c   Section        0  gui_bmp.o(i._NextPixel_FlushBuffer)
    _NextPixel_FlushBuffer                   0x0800e24d   Thumb Code    74  gui_bmp.o(i._NextPixel_FlushBuffer)
    i._NextPixel_NextLine                    0x0800e2a0   Section        0  gui_bmp.o(i._NextPixel_NextLine)
    _NextPixel_NextLine                      0x0800e2a1   Thumb Code    28  gui_bmp.o(i._NextPixel_NextLine)
    i._NextPixel_SetPixel                    0x0800e2c0   Section        0  gui_bmp.o(i._NextPixel_SetPixel)
    _NextPixel_SetPixel                      0x0800e2c1   Thumb Code   178  gui_bmp.o(i._NextPixel_SetPixel)
    i._NextPixel_Start                       0x0800e378   Section        0  gui_bmp.o(i._NextPixel_Start)
    _NextPixel_Start                         0x0800e379   Thumb Code   124  gui_bmp.o(i._NextPixel_Start)
    i._Off                                   0x0800e3fc   Section        0  guidrv_template.o(i._Off)
    _Off                                     0x0800e3fd   Thumb Code    16  guidrv_template.o(i._Off)
    i._On                                    0x0800e40c   Section        0  guidrv_template.o(i._On)
    _On                                      0x0800e40d   Thumb Code    16  guidrv_template.o(i._On)
    i._OnButtonPressed                       0x0800e41c   Section        0  button.o(i._OnButtonPressed)
    _OnButtonPressed                         0x0800e41d   Thumb Code    44  button.o(i._OnButtonPressed)
    i._OnButtonReleased                      0x0800e448   Section        0  button.o(i._OnButtonReleased)
    _OnButtonReleased                        0x0800e449   Thumb Code    58  button.o(i._OnButtonReleased)
    i._OnExit                                0x0800e484   Section        0  gui_alloc.o(i._OnExit)
    _OnExit                                  0x0800e485   Thumb Code    48  gui_alloc.o(i._OnExit)
    i._OnExit                                0x0800e4b8   Section        0  gui_core.o(i._OnExit)
    _OnExit                                  0x0800e4b9   Thumb Code    34  gui_core.o(i._OnExit)
    i._OnExit                                0x0800e4e4   Section        0  wm.o(i._OnExit)
    _OnExit                                  0x0800e4e5   Thumb Code    48  wm.o(i._OnExit)
    i._OnExit                                0x0800e518   Section        0  lcd_color.o(i._OnExit)
    _OnExit                                  0x0800e519   Thumb Code    16  lcd_color.o(i._OnExit)
    i._OnExit                                0x0800e52c   Section        0  gui__alpha.o(i._OnExit)
    _OnExit                                  0x0800e52d   Thumb Code    36  gui__alpha.o(i._OnExit)
    i._OnTouchDefault                        0x0800e554   Section        0  button.o(i._OnTouchDefault)
    _OnTouchDefault                          0x0800e555   Thumb Code    64  button.o(i._OnTouchDefault)
    i._Paint                                 0x0800e594   Section        0  image.o(i._Paint)
    _Paint                                   0x0800e595   Thumb Code    38  image.o(i._Paint)
    i._Paint                                 0x0800e5ba   Section        0  text.o(i._Paint)
    _Paint                                   0x0800e5bb   Thumb Code   106  text.o(i._Paint)
    i._Paint                                 0x0800e624   Section        0  button_skin.o(i._Paint)
    _Paint                                   0x0800e625   Thumb Code   126  button_skin.o(i._Paint)
    i._Paint1                                0x0800e6a4   Section        0  wm.o(i._Paint1)
    _Paint1                                  0x0800e6a5   Thumb Code    28  wm.o(i._Paint1)
    i._Paint1Trans                           0x0800e6c8   Section        0  wm.o(i._Paint1Trans)
    _Paint1Trans                             0x0800e6c9   Thumb Code   130  wm.o(i._Paint1Trans)
    i._PaintTiled                            0x0800e754   Section        0  image.o(i._PaintTiled)
    _PaintTiled                              0x0800e755   Thumb Code   200  image.o(i._PaintTiled)
    i._PaintTransChildren                    0x0800e81c   Section        0  wm.o(i._PaintTransChildren)
    _PaintTransChildren                      0x0800e81d   Thumb Code   154  wm.o(i._PaintTransChildren)
    i._PopFreeBlock                          0x0800e8b8   Section        0  gui_alloc.o(i._PopFreeBlock)
    _PopFreeBlock                            0x0800e8b9   Thumb Code    60  gui_alloc.o(i._PopFreeBlock)
    i._PushFreeBlock                         0x0800e8f8   Section        0  gui_alloc.o(i._PushFreeBlock)
    _PushFreeBlock                           0x0800e8f9   Thumb Code    34  gui_alloc.o(i._PushFreeBlock)
    i._ReleaseBuffer                         0x0800e920   Section        0  gui_sprite.o(i._ReleaseBuffer)
    _ReleaseBuffer                           0x0800e921   Thumb Code    28  gui_sprite.o(i._ReleaseBuffer)
    i._RemoveFreeBlock                       0x0800e93c   Section        0  gui_alloc.o(i._RemoveFreeBlock)
    _RemoveFreeBlock                         0x0800e93d   Thumb Code    48  gui_alloc.o(i._RemoveFreeBlock)
    i._RemoveFromLinList                     0x0800e970   Section        0  gui_timer.o(i._RemoveFromLinList)
    _RemoveFromLinList                       0x0800e971   Thumb Code    86  gui_timer.o(i._RemoveFromLinList)
    i._RemoveHoles                           0x0800e9cc   Section        0  gui_alloc.o(i._RemoveHoles)
    _RemoveHoles                             0x0800e9cd   Thumb Code   156  gui_alloc.o(i._RemoveHoles)
    i._RxPDO_EventTimers_Handler             0x0800ea6c   Section        0  pdo.o(i._RxPDO_EventTimers_Handler)
    i._Screen2hWin                           0x0800ea6e   Section        0  wm_screen2win.o(i._Screen2hWin)
    _Screen2hWin                             0x0800ea6f   Thumb Code    90  wm_screen2win.o(i._Screen2hWin)
    i._Screen2hWinStop                       0x0800eac8   Section        0  wm_screen2win.o(i._Screen2hWinStop)
    _Screen2hWinStop                         0x0800eac9   Thumb Code    30  wm_screen2win.o(i._Screen2hWinStop)
    i._SetBkColor                            0x0800eaec   Section        0  lcd.o(i._SetBkColor)
    _SetBkColor                              0x0800eaed   Thumb Code    28  lcd.o(i._SetBkColor)
    i._SetBkIndexBuffered                    0x0800eb0c   Section        0  gui_sprite.o(i._SetBkIndexBuffered)
    _SetBkIndexBuffered                      0x0800eb0d   Thumb Code    74  gui_sprite.o(i._SetBkIndexBuffered)
    i._SetClipRectUserIntersect              0x0800eb58   Section        0  wm.o(i._SetClipRectUserIntersect)
    _SetClipRectUserIntersect                0x0800eb59   Thumb Code    68  wm.o(i._SetClipRectUserIntersect)
    i._SetColor                              0x0800eba4   Section        0  lcd.o(i._SetColor)
    _SetColor                                0x0800eba5   Thumb Code    28  lcd.o(i._SetColor)
    i._SetDrawMode                           0x0800ebc4   Section        0  lcd.o(i._SetDrawMode)
    _SetDrawMode                             0x0800ebc5   Thumb Code    40  lcd.o(i._SetDrawMode)
    i._SetFocusOnNextChild                   0x0800ebf0   Section        0  wm_setfocusonnextchild.o(i._SetFocusOnNextChild)
    _SetFocusOnNextChild                     0x0800ebf1   Thumb Code    90  wm_setfocusonnextchild.o(i._SetFocusOnNextChild)
    i._SetLUTEntry                           0x0800ec50   Section        0  guidrv_template.o(i._SetLUTEntry)
    _SetLUTEntry                             0x0800ec51   Thumb Code    32  guidrv_template.o(i._SetLUTEntry)
    i._SetOrg                                0x0800ec70   Section        0  guidrv_template.o(i._SetOrg)
    _SetOrg                                  0x0800ec71   Thumb Code    30  guidrv_template.o(i._SetOrg)
    i._SetOrg                                0x0800ec8e   Section        0  guidev_16.o(i._SetOrg)
    _SetOrg                                  0x0800ec8f   Thumb Code    14  guidev_16.o(i._SetOrg)
    i._SetOrg                                0x0800ec9c   Section        0  guidev_32.o(i._SetOrg)
    _SetOrg                                  0x0800ec9d   Thumb Code     8  guidev_32.o(i._SetOrg)
    i._SetPixelIndex                         0x0800eca4   Section        0  guidrv_template.o(i._SetPixelIndex)
    _SetPixelIndex                           0x0800eca5   Thumb Code    26  guidrv_template.o(i._SetPixelIndex)
    i._SetPixelIndex                         0x0800ecc0   Section        0  guidev_16.o(i._SetPixelIndex)
    _SetPixelIndex                           0x0800ecc1   Thumb Code    66  guidev_16.o(i._SetPixelIndex)
    i._SetPixelIndex                         0x0800ed08   Section        0  guidev_32.o(i._SetPixelIndex)
    _SetPixelIndex                           0x0800ed09   Thumb Code    66  guidev_32.o(i._SetPixelIndex)
    i._SetPosition                           0x0800ed50   Section        0  gui_sprite.o(i._SetPosition)
    _SetPosition                             0x0800ed51   Thumb Code  1110  gui_sprite.o(i._SetPosition)
    i._SetSize                               0x0800f1ac   Section        0  guidrv_template.o(i._SetSize)
    _SetSize                                 0x0800f1ad   Thumb Code    62  guidrv_template.o(i._SetSize)
    i._SetVRAMAddr                           0x0800f1ea   Section        0  guidrv_template.o(i._SetVRAMAddr)
    _SetVRAMAddr                             0x0800f1eb   Thumb Code    38  guidrv_template.o(i._SetVRAMAddr)
    i._SetVSize                              0x0800f210   Section        0  guidrv_template.o(i._SetVSize)
    _SetVSize                                0x0800f211   Thumb Code    32  guidrv_template.o(i._SetVSize)
    i._StoreState                            0x0800f230   Section        0  gui_pid.o(i._StoreState)
    _StoreState                              0x0800f231   Thumb Code    98  gui_pid.o(i._StoreState)
    i._TestRAM                               0x0800f298   Section        0  gui_alloc.o(i._TestRAM)
    _TestRAM                                 0x0800f299   Thumb Code   234  gui_alloc.o(i._TestRAM)
    i._Unlink                                0x0800f384   Section        0  gui_timer.o(i._Unlink)
    _Unlink                                  0x0800f385   Thumb Code    74  gui_timer.o(i._Unlink)
    i._WrapGetNumCharsDisp                   0x0800f3d4   Section        0  gui__wrap.o(i._WrapGetNumCharsDisp)
    _WrapGetNumCharsDisp                     0x0800f3d5   Thumb Code    36  gui__wrap.o(i._WrapGetNumCharsDisp)
    i._WriteTagData                          0x0800f3fc   Section        0  gui_alloc.o(i._WriteTagData)
    _WriteTagData                            0x0800f3fd   Thumb Code    14  gui_alloc.o(i._WriteTagData)
    i._WriteToActiveOpaque_8                 0x0800f40c   Section        0  guidev_writetoactiveopaque.o(i._WriteToActiveOpaque_8)
    _WriteToActiveOpaque_8                   0x0800f40d   Thumb Code   824  guidev_writetoactiveopaque.o(i._WriteToActiveOpaque_8)
    i._WriteToActiveOpaque_HT                0x0800f74c   Section        0  guidev_writetoactiveopaque.o(i._WriteToActiveOpaque_HT)
    _WriteToActiveOpaque_HT                  0x0800f74d   Thumb Code   826  guidev_writetoactiveopaque.o(i._WriteToActiveOpaque_HT)
    i._XY2PTR                                0x0800fa90   Section        0  guidev_16.o(i._XY2PTR)
    _XY2PTR                                  0x0800fa91   Thumb Code    56  guidev_16.o(i._XY2PTR)
    i._XY2PTR                                0x0800facc   Section        0  guidev_32.o(i._XY2PTR)
    _XY2PTR                                  0x0800facd   Thumb Code    56  guidev_32.o(i._XY2PTR)
    i._XorPixel                              0x0800fb08   Section        0  guidrv_template.o(i._XorPixel)
    _XorPixel                                0x0800fb09   Thumb Code    48  guidrv_template.o(i._XorPixel)
    i._XorPixel                              0x0800fb38   Section        0  guidev_16.o(i._XorPixel)
    _XorPixel                                0x0800fb39   Thumb Code    78  guidev_16.o(i._XorPixel)
    i._XorPixel                              0x0800fb8c   Section        0  guidev_32.o(i._XorPixel)
    _XorPixel                                0x0800fb8d   Thumb Code    82  guidev_32.o(i._XorPixel)
    i.__ARM_fpclassify                       0x0800fbe4   Section        0  fpclassify.o(i.__ARM_fpclassify)
    i._cbBackWin                             0x0800fc0c   Section        0  wm.o(i._cbBackWin)
    _cbBackWin                               0x0800fc0d   Thumb Code    74  wm.o(i._cbBackWin)
    i._cbDialog                              0x0800fc5c   Section        0  softwarewindowdlg.o(i._cbDialog)
    _cbDialog                                0x0800fc5d   Thumb Code   990  softwarewindowdlg.o(i._cbDialog)
    i._cbInvalidateOne                       0x08010070   Section        0  wm_bringtotop.o(i._cbInvalidateOne)
    _cbInvalidateOne                         0x08010071   Thumb Code     4  wm_bringtotop.o(i._cbInvalidateOne)
    i._cbPaintMemDev                         0x08010074   Section        0  wm.o(i._cbPaintMemDev)
    _cbPaintMemDev                           0x08010075   Thumb Code    64  wm.o(i._cbPaintMemDev)
    i._getODentry                            0x080100b8   Section        0  objacces.o(i._getODentry)
    i._heartbeatError                        0x080101a4   Section        0  lifegrd.o(i._heartbeatError)
    i._initialisation                        0x080101a6   Section        0  states.o(i._initialisation)
    i._is_digit                              0x080101a8   Section        0  __printf_wp.o(i._is_digit)
    i._nodeguardError                        0x080101b6   Section        0  lifegrd.o(i._nodeguardError)
    i._operational                           0x080101b8   Section        0  states.o(i._operational)
    i._post_SlaveBootup                      0x080101ba   Section        0  lifegrd.o(i._post_SlaveBootup)
    i._post_SlaveStateChange                 0x080101bc   Section        0  lifegrd.o(i._post_SlaveStateChange)
    i._post_TPDO                             0x080101be   Section        0  sync.o(i._post_TPDO)
    i._post_emcy                             0x080101c0   Section        0  emcy.o(i._post_emcy)
    i._post_sync                             0x080101c6   Section        0  sync.o(i._post_sync)
    i._preOperational                        0x080101c8   Section        0  states.o(i._preOperational)
    i._sendPDOevent                          0x080101de   Section        0  pdo.o(i._sendPDOevent)
    i._setODentry                            0x08010378   Section        0  objacces.o(i._setODentry)
    i._stopped                               0x080104b0   Section        0  states.o(i._stopped)
    i._storeODSubIndex                       0x080104b2   Section        0  objacces.o(i._storeODSubIndex)
    i._writeNetworkDict                      0x080104b8   Section        0  sdo.o(i._writeNetworkDict)
    i.accessDictionaryError                  0x0801069a   Section        0  objacces.o(i.accessDictionaryError)
    i.buildPDO                               0x080106a4   Section        0  pdo.o(i.buildPDO)
    i.canDispatch                            0x08010792   Section        0  states.o(i.canDispatch)
    i.canSend                                0x0801082c   Section        0  canopen_drv.o(i.canSend)
    i.closeSDOtransfer                       0x08010880   Section        0  sdo.o(i.closeSDOtransfer)
    i.delay_init                             0x080108c0   Section        0  delay.o(i.delay_init)
    i.delay_ms                               0x08010904   Section        0  delay.o(i.delay_ms)
    i.delay_us                               0x08010950   Section        0  delay.o(i.delay_us)
    i.emWin_LCD_Init                         0x0801099c   Section        0  lcd.o(i.emWin_LCD_Init)
    i.emergencyInit                          0x08010a28   Section        0  emcy.o(i.emergencyInit)
    i.emergencyStop                          0x08010a48   Section        0  emcy.o(i.emergencyStop)
    i.failedSDO                              0x08010a4a   Section        0  sdo.o(i.failedSDO)
    i.getElapsedTime                         0x08010b00   Section        0  canopen_drv.o(i.getElapsedTime)
    i.getNodeId                              0x08010b34   Section        0  states.o(i.getNodeId)
    i.getSDOfreeLine                         0x08010b3c   Section        0  sdo.o(i.getSDOfreeLine)
    i.getSDOlineOnUse                        0x08010b7e   Section        0  sdo.o(i.getSDOlineOnUse)
    i.getSDOlineRestBytes                    0x08010bf0   Section        0  sdo.o(i.getSDOlineRestBytes)
    i.getSDOlineToClose                      0x08010c3a   Section        0  sdo.o(i.getSDOlineToClose)
    i.heartbeatInit                          0x08010c98   Section        0  lifegrd.o(i.heartbeatInit)
    i.heartbeatStop                          0x08010d24   Section        0  lifegrd.o(i.heartbeatStop)
    i.initSDOline                            0x08010d5c   Section        0  sdo.o(i.initSDOline)
    i.lifeGuardInit                          0x08010f20   Section        0  lifegrd.o(i.lifeGuardInit)
    i.lifeGuardStop                          0x08010f32   Section        0  lifegrd.o(i.lifeGuardStop)
    i.lineToSDO                              0x08010f44   Section        0  sdo.o(i.lineToSDO)
    i.main                                   0x08010ff4   Section        0  main.o(i.main)
    i.masterSendNMTnodeguard                 0x08011074   Section        0  nmtmaster.o(i.masterSendNMTnodeguard)
    i.masterSendNMTstateChange               0x0801109a   Section        0  nmtmaster.o(i.masterSendNMTstateChange)
    i.nodeguardInit                          0x080110c8   Section        0  lifegrd.o(i.nodeguardInit)
    i.nodeguardStop                          0x08011150   Section        0  lifegrd.o(i.nodeguardStop)
    i.objdictToSDOline                       0x08011162   Section        0  sdo.o(i.objdictToSDOline)
    i.proceedEMCY                            0x080111f0   Section        0  emcy.o(i.proceedEMCY)
    i.proceedNMTstateChange                  0x0801122a   Section        0  nmtslave.o(i.proceedNMTstateChange)
    i.proceedNODE_GUARD                      0x0801130c   Section        0  lifegrd.o(i.proceedNODE_GUARD)
    i.proceedPDO                             0x08011424   Section        0  pdo.o(i.proceedPDO)
    i.proceedSDO                             0x08011700   Section        0  sdo.o(i.proceedSDO)
    i.proceedSYNC                            0x08014248   Section        0  sync.o(i.proceedSYNC)
    i.resetSDO                               0x08014274   Section        0  sdo.o(i.resetSDO)
    i.resetSDOline                           0x0801428e   Section        0  sdo.o(i.resetSDOline)
    i.sendOnePDOevent                        0x080142f0   Section        0  pdo.o(i.sendOnePDOevent)
    i.sendPdo                                0x08014448   Section        0  pdo.o(i.sendPdo)
    sendPdo                                  0x08014449   Thumb Code    44  pdo.o(i.sendPdo)
    i.sendSDO                                0x08014474   Section        0  sdo.o(i.sendSDO)
    i.sendSDOabort                           0x08014516   Section        0  sdo.o(i.sendSDOabort)
    i.sendSYNC                               0x08014568   Section        0  sync.o(i.sendSYNC)
    i.sendSYNCMessage                        0x0801457e   Section        0  sync.o(i.sendSYNCMessage)
    i.setNodeId                              0x080145a4   Section        0  states.o(i.setNodeId)
    i.setSDOlineRestBytes                    0x08014754   Section        0  sdo.o(i.setSDOlineRestBytes)
    i.setState                               0x08014778   Section        0  states.o(i.setState)
    i.setTimer                               0x08014844   Section        0  canopen_drv.o(i.setTimer)
    i.slaveSendBootUp                        0x08014854   Section        0  nmtslave.o(i.slaveSendBootUp)
    i.startSYNC                              0x08014884   Section        0  sync.o(i.startSYNC)
    i.stopSYNC                               0x080148f8   Section        0  sync.o(i.stopSYNC)
    i.switchCommunicationState               0x08014926   Section        0  states.o(i.switchCommunicationState)
    i.writeNetworkDict                       0x08014a42   Section        0  sdo.o(i.writeNetworkDict)
    locale$$code                             0x08014a78   Section       44  lc_numeric_c.o(locale$$code)
    x$fpl$dadd                               0x08014aa4   Section      336  daddsub_clz.o(x$fpl$dadd)
    _dadd1                                   0x08014ab5   Thumb Code     0  daddsub_clz.o(x$fpl$dadd)
    x$fpl$dfix                               0x08014bf4   Section       94  dfix.o(x$fpl$dfix)
    x$fpl$dnaninf                            0x08014c52   Section      156  dnaninf.o(x$fpl$dnaninf)
    x$fpl$dretinf                            0x08014cee   Section       12  dretinf.o(x$fpl$dretinf)
    x$fpl$dsub                               0x08014cfc   Section      468  daddsub_clz.o(x$fpl$dsub)
    _dsub1                                   0x08014d0d   Thumb Code     0  daddsub_clz.o(x$fpl$dsub)
    x$fpl$f2d                                0x08014ed0   Section       86  f2d.o(x$fpl$f2d)
    x$fpl$fadd                               0x08014f28   Section      196  faddsub_clz.o(x$fpl$fadd)
    _fadd1                                   0x08014f37   Thumb Code     0  faddsub_clz.o(x$fpl$fadd)
    x$fpl$fdiv                               0x08014fec   Section      388  fdiv.o(x$fpl$fdiv)
    _fdiv1                                   0x08014fed   Thumb Code     0  fdiv.o(x$fpl$fdiv)
    x$fpl$ffix                               0x08015170   Section       54  ffix.o(x$fpl$ffix)
    x$fpl$fflt                               0x080151a8   Section       48  fflt_clz.o(x$fpl$fflt)
    x$fpl$fmul                               0x080151d8   Section      258  fmul.o(x$fpl$fmul)
    x$fpl$fnaninf                            0x080152da   Section      140  fnaninf.o(x$fpl$fnaninf)
    x$fpl$fretinf                            0x08015366   Section       10  fretinf.o(x$fpl$fretinf)
    x$fpl$fsub                               0x08015370   Section      234  faddsub_clz.o(x$fpl$fsub)
    _fsub1                                   0x0801537f   Thumb Code     0  faddsub_clz.o(x$fpl$fsub)
    x$fpl$printf1                            0x0801545a   Section        4  printf1.o(x$fpl$printf1)
    x$fpl$usenofp                            0x0801545e   Section        0  usenofp.o(x$fpl$usenofp)
    .constdata                               0x08015460   Section      486  master.o(.constdata)
    .constdata                               0x08015648   Section       64  states.o(.constdata)
    .constdata                               0x08015688   Section    77088  softwarewindowdlg.o(.constdata)
    _acImage_0                               0x08015688   Data       76472  softwarewindowdlg.o(.constdata)
    _aDialogCreate                           0x08028140   Data         616  softwarewindowdlg.o(.constdata)
    .constdata                               0x080283a8   Section       52  guidrv_template.o(.constdata)
    .constdata                               0x080283dc   Section        8  gui_core.o(.constdata)
    _HL_APIList                              0x080283dc   Data           8  gui_core.o(.constdata)
    .constdata                               0x080283e4   Section       24  guicc_m565.o(.constdata)
    .constdata                               0x080283fc   Section     2608  f8x16.o(.constdata)
    acFont8x16                               0x080283fc   Data        2608  f8x16.o(.constdata)
    .constdata                               0x08028e2c   Section      448  f8x16.o(.constdata)
    TransList8x16                            0x08028e2c   Data         448  f8x16.o(.constdata)
    .constdata                               0x08028fec   Section        8  f8x16.o(.constdata)
    TransInfo8x16                            0x08028fec   Data           8  f8x16.o(.constdata)
    .constdata                               0x08028ff4   Section       20  f8x16.o(.constdata)
    FontMono8x16                             0x08028ff4   Data          20  f8x16.o(.constdata)
    .constdata                               0x08029008   Section       36  f8x16.o(.constdata)
    .constdata                               0x0802902c   Section       24  f24_ascii.o(.constdata)
    acFont24_ASCII_0020                      0x0802902c   Data          24  f24_ascii.o(.constdata)
    .constdata                               0x08029044   Section       24  f24_ascii.o(.constdata)
    acFont24_ASCII_0021                      0x08029044   Data          24  f24_ascii.o(.constdata)
    .constdata                               0x0802905c   Section       24  f24_ascii.o(.constdata)
    acFont24_ASCII_0022                      0x0802905c   Data          24  f24_ascii.o(.constdata)
    .constdata                               0x08029074   Section       48  f24_ascii.o(.constdata)
    acFont24_ASCII_0023                      0x08029074   Data          48  f24_ascii.o(.constdata)
    .constdata                               0x080290a4   Section       48  f24_ascii.o(.constdata)
    acFont24_ASCII_0024                      0x080290a4   Data          48  f24_ascii.o(.constdata)
    .constdata                               0x080290d4   Section       72  f24_ascii.o(.constdata)
    acFont24_ASCII_0025                      0x080290d4   Data          72  f24_ascii.o(.constdata)
    .constdata                               0x0802911c   Section       48  f24_ascii.o(.constdata)
    acFont24_ASCII_0026                      0x0802911c   Data          48  f24_ascii.o(.constdata)
    .constdata                               0x0802914c   Section       24  f24_ascii.o(.constdata)
    acFont24_ASCII_0027                      0x0802914c   Data          24  f24_ascii.o(.constdata)
    .constdata                               0x08029164   Section       24  f24_ascii.o(.constdata)
    acFont24_ASCII_0028                      0x08029164   Data          24  f24_ascii.o(.constdata)
    .constdata                               0x0802917c   Section       24  f24_ascii.o(.constdata)
    acFont24_ASCII_0029                      0x0802917c   Data          24  f24_ascii.o(.constdata)
    .constdata                               0x08029194   Section       24  f24_ascii.o(.constdata)
    acFont24_ASCII_002A                      0x08029194   Data          24  f24_ascii.o(.constdata)
    .constdata                               0x080291ac   Section       48  f24_ascii.o(.constdata)
    acFont24_ASCII_002B                      0x080291ac   Data          48  f24_ascii.o(.constdata)
    .constdata                               0x080291dc   Section       24  f24_ascii.o(.constdata)
    acFont24_ASCII_002C                      0x080291dc   Data          24  f24_ascii.o(.constdata)
    .constdata                               0x080291f4   Section       24  f24_ascii.o(.constdata)
    acFont24_ASCII_002D                      0x080291f4   Data          24  f24_ascii.o(.constdata)
    .constdata                               0x0802920c   Section       24  f24_ascii.o(.constdata)
    acFont24_ASCII_002E                      0x0802920c   Data          24  f24_ascii.o(.constdata)
    .constdata                               0x08029224   Section       24  f24_ascii.o(.constdata)
    acFont24_ASCII_002F                      0x08029224   Data          24  f24_ascii.o(.constdata)
    .constdata                               0x0802923c   Section       48  f24_ascii.o(.constdata)
    acFont24_ASCII_0030                      0x0802923c   Data          48  f24_ascii.o(.constdata)
    .constdata                               0x0802926c   Section       48  f24_ascii.o(.constdata)
    acFont24_ASCII_0031                      0x0802926c   Data          48  f24_ascii.o(.constdata)
    .constdata                               0x0802929c   Section       48  f24_ascii.o(.constdata)
    acFont24_ASCII_0032                      0x0802929c   Data          48  f24_ascii.o(.constdata)
    .constdata                               0x080292cc   Section       48  f24_ascii.o(.constdata)
    acFont24_ASCII_0033                      0x080292cc   Data          48  f24_ascii.o(.constdata)
    .constdata                               0x080292fc   Section       48  f24_ascii.o(.constdata)
    acFont24_ASCII_0034                      0x080292fc   Data          48  f24_ascii.o(.constdata)
    .constdata                               0x0802932c   Section       48  f24_ascii.o(.constdata)
    acFont24_ASCII_0035                      0x0802932c   Data          48  f24_ascii.o(.constdata)
    .constdata                               0x0802935c   Section       48  f24_ascii.o(.constdata)
    acFont24_ASCII_0036                      0x0802935c   Data          48  f24_ascii.o(.constdata)
    .constdata                               0x0802938c   Section       48  f24_ascii.o(.constdata)
    acFont24_ASCII_0037                      0x0802938c   Data          48  f24_ascii.o(.constdata)
    .constdata                               0x080293bc   Section       48  f24_ascii.o(.constdata)
    acFont24_ASCII_0038                      0x080293bc   Data          48  f24_ascii.o(.constdata)
    .constdata                               0x080293ec   Section       48  f24_ascii.o(.constdata)
    acFont24_ASCII_0039                      0x080293ec   Data          48  f24_ascii.o(.constdata)
    .constdata                               0x0802941c   Section       24  f24_ascii.o(.constdata)
    acFont24_ASCII_003A                      0x0802941c   Data          24  f24_ascii.o(.constdata)
    .constdata                               0x08029434   Section       24  f24_ascii.o(.constdata)
    acFont24_ASCII_003B                      0x08029434   Data          24  f24_ascii.o(.constdata)
    .constdata                               0x0802944c   Section       48  f24_ascii.o(.constdata)
    acFont24_ASCII_003C                      0x0802944c   Data          48  f24_ascii.o(.constdata)
    .constdata                               0x0802947c   Section       48  f24_ascii.o(.constdata)
    acFont24_ASCII_003D                      0x0802947c   Data          48  f24_ascii.o(.constdata)
    .constdata                               0x080294ac   Section       48  f24_ascii.o(.constdata)
    acFont24_ASCII_003E                      0x080294ac   Data          48  f24_ascii.o(.constdata)
    .constdata                               0x080294dc   Section       48  f24_ascii.o(.constdata)
    acFont24_ASCII_003F                      0x080294dc   Data          48  f24_ascii.o(.constdata)
    .constdata                               0x0802950c   Section       72  f24_ascii.o(.constdata)
    acFont24_ASCII_0040                      0x0802950c   Data          72  f24_ascii.o(.constdata)
    .constdata                               0x08029554   Section       48  f24_ascii.o(.constdata)
    acFont24_ASCII_0041                      0x08029554   Data          48  f24_ascii.o(.constdata)
    .constdata                               0x08029584   Section       48  f24_ascii.o(.constdata)
    acFont24_ASCII_0042                      0x08029584   Data          48  f24_ascii.o(.constdata)
    .constdata                               0x080295b4   Section       48  f24_ascii.o(.constdata)
    acFont24_ASCII_0043                      0x080295b4   Data          48  f24_ascii.o(.constdata)
    .constdata                               0x080295e4   Section       48  f24_ascii.o(.constdata)
    acFont24_ASCII_0044                      0x080295e4   Data          48  f24_ascii.o(.constdata)
    .constdata                               0x08029614   Section       48  f24_ascii.o(.constdata)
    acFont24_ASCII_0045                      0x08029614   Data          48  f24_ascii.o(.constdata)
    .constdata                               0x08029644   Section       48  f24_ascii.o(.constdata)
    acFont24_ASCII_0046                      0x08029644   Data          48  f24_ascii.o(.constdata)
    .constdata                               0x08029674   Section       48  f24_ascii.o(.constdata)
    acFont24_ASCII_0047                      0x08029674   Data          48  f24_ascii.o(.constdata)
    .constdata                               0x080296a4   Section       48  f24_ascii.o(.constdata)
    acFont24_ASCII_0048                      0x080296a4   Data          48  f24_ascii.o(.constdata)
    .constdata                               0x080296d4   Section       24  f24_ascii.o(.constdata)
    acFont24_ASCII_0049                      0x080296d4   Data          24  f24_ascii.o(.constdata)
    .constdata                               0x080296ec   Section       48  f24_ascii.o(.constdata)
    acFont24_ASCII_004A                      0x080296ec   Data          48  f24_ascii.o(.constdata)
    .constdata                               0x0802971c   Section       48  f24_ascii.o(.constdata)
    acFont24_ASCII_004B                      0x0802971c   Data          48  f24_ascii.o(.constdata)
    .constdata                               0x0802974c   Section       48  f24_ascii.o(.constdata)
    acFont24_ASCII_004C                      0x0802974c   Data          48  f24_ascii.o(.constdata)
    .constdata                               0x0802977c   Section       72  f24_ascii.o(.constdata)
    acFont24_ASCII_004D                      0x0802977c   Data          72  f24_ascii.o(.constdata)
    .constdata                               0x080297c4   Section       48  f24_ascii.o(.constdata)
    acFont24_ASCII_004E                      0x080297c4   Data          48  f24_ascii.o(.constdata)
    .constdata                               0x080297f4   Section       48  f24_ascii.o(.constdata)
    acFont24_ASCII_004F                      0x080297f4   Data          48  f24_ascii.o(.constdata)
    .constdata                               0x08029824   Section       48  f24_ascii.o(.constdata)
    acFont24_ASCII_0050                      0x08029824   Data          48  f24_ascii.o(.constdata)
    .constdata                               0x08029854   Section       48  f24_ascii.o(.constdata)
    acFont24_ASCII_0051                      0x08029854   Data          48  f24_ascii.o(.constdata)
    .constdata                               0x08029884   Section       48  f24_ascii.o(.constdata)
    acFont24_ASCII_0052                      0x08029884   Data          48  f24_ascii.o(.constdata)
    .constdata                               0x080298b4   Section       48  f24_ascii.o(.constdata)
    acFont24_ASCII_0053                      0x080298b4   Data          48  f24_ascii.o(.constdata)
    .constdata                               0x080298e4   Section       48  f24_ascii.o(.constdata)
    acFont24_ASCII_0054                      0x080298e4   Data          48  f24_ascii.o(.constdata)
    .constdata                               0x08029914   Section       48  f24_ascii.o(.constdata)
    acFont24_ASCII_0055                      0x08029914   Data          48  f24_ascii.o(.constdata)
    .constdata                               0x08029944   Section       48  f24_ascii.o(.constdata)
    acFont24_ASCII_0056                      0x08029944   Data          48  f24_ascii.o(.constdata)
    .constdata                               0x08029974   Section       72  f24_ascii.o(.constdata)
    acFont24_ASCII_0057                      0x08029974   Data          72  f24_ascii.o(.constdata)
    .constdata                               0x080299bc   Section       48  f24_ascii.o(.constdata)
    acFont24_ASCII_0058                      0x080299bc   Data          48  f24_ascii.o(.constdata)
    .constdata                               0x080299ec   Section       48  f24_ascii.o(.constdata)
    acFont24_ASCII_0059                      0x080299ec   Data          48  f24_ascii.o(.constdata)
    .constdata                               0x08029a1c   Section       48  f24_ascii.o(.constdata)
    acFont24_ASCII_005A                      0x08029a1c   Data          48  f24_ascii.o(.constdata)
    .constdata                               0x08029a4c   Section       24  f24_ascii.o(.constdata)
    acFont24_ASCII_005B                      0x08029a4c   Data          24  f24_ascii.o(.constdata)
    .constdata                               0x08029a64   Section       24  f24_ascii.o(.constdata)
    acFont24_ASCII_005C                      0x08029a64   Data          24  f24_ascii.o(.constdata)
    .constdata                               0x08029a7c   Section       24  f24_ascii.o(.constdata)
    acFont24_ASCII_005D                      0x08029a7c   Data          24  f24_ascii.o(.constdata)
    .constdata                               0x08029a94   Section       24  f24_ascii.o(.constdata)
    acFont24_ASCII_005E                      0x08029a94   Data          24  f24_ascii.o(.constdata)
    .constdata                               0x08029aac   Section       48  f24_ascii.o(.constdata)
    acFont24_ASCII_005F                      0x08029aac   Data          48  f24_ascii.o(.constdata)
    .constdata                               0x08029adc   Section       24  f24_ascii.o(.constdata)
    acFont24_ASCII_0060                      0x08029adc   Data          24  f24_ascii.o(.constdata)
    .constdata                               0x08029af4   Section       48  f24_ascii.o(.constdata)
    acFont24_ASCII_0061                      0x08029af4   Data          48  f24_ascii.o(.constdata)
    .constdata                               0x08029b24   Section       48  f24_ascii.o(.constdata)
    acFont24_ASCII_0062                      0x08029b24   Data          48  f24_ascii.o(.constdata)
    .constdata                               0x08029b54   Section       48  f24_ascii.o(.constdata)
    acFont24_ASCII_0063                      0x08029b54   Data          48  f24_ascii.o(.constdata)
    .constdata                               0x08029b84   Section       48  f24_ascii.o(.constdata)
    acFont24_ASCII_0064                      0x08029b84   Data          48  f24_ascii.o(.constdata)
    .constdata                               0x08029bb4   Section       48  f24_ascii.o(.constdata)
    acFont24_ASCII_0065                      0x08029bb4   Data          48  f24_ascii.o(.constdata)
    .constdata                               0x08029be4   Section       24  f24_ascii.o(.constdata)
    acFont24_ASCII_0066                      0x08029be4   Data          24  f24_ascii.o(.constdata)
    .constdata                               0x08029bfc   Section       48  f24_ascii.o(.constdata)
    acFont24_ASCII_0067                      0x08029bfc   Data          48  f24_ascii.o(.constdata)
    .constdata                               0x08029c2c   Section       48  f24_ascii.o(.constdata)
    acFont24_ASCII_0068                      0x08029c2c   Data          48  f24_ascii.o(.constdata)
    .constdata                               0x08029c5c   Section       24  f24_ascii.o(.constdata)
    acFont24_ASCII_0069                      0x08029c5c   Data          24  f24_ascii.o(.constdata)
    .constdata                               0x08029c74   Section       24  f24_ascii.o(.constdata)
    acFont24_ASCII_006A                      0x08029c74   Data          24  f24_ascii.o(.constdata)
    .constdata                               0x08029c8c   Section       48  f24_ascii.o(.constdata)
    acFont24_ASCII_006B                      0x08029c8c   Data          48  f24_ascii.o(.constdata)
    .constdata                               0x08029cbc   Section       24  f24_ascii.o(.constdata)
    acFont24_ASCII_006C                      0x08029cbc   Data          24  f24_ascii.o(.constdata)
    .constdata                               0x08029cd4   Section       48  f24_ascii.o(.constdata)
    acFont24_ASCII_006D                      0x08029cd4   Data          48  f24_ascii.o(.constdata)
    .constdata                               0x08029d04   Section       48  f24_ascii.o(.constdata)
    acFont24_ASCII_006E                      0x08029d04   Data          48  f24_ascii.o(.constdata)
    .constdata                               0x08029d34   Section       48  f24_ascii.o(.constdata)
    acFont24_ASCII_006F                      0x08029d34   Data          48  f24_ascii.o(.constdata)
    .constdata                               0x08029d64   Section       48  f24_ascii.o(.constdata)
    acFont24_ASCII_0070                      0x08029d64   Data          48  f24_ascii.o(.constdata)
    .constdata                               0x08029d94   Section       48  f24_ascii.o(.constdata)
    acFont24_ASCII_0071                      0x08029d94   Data          48  f24_ascii.o(.constdata)
    .constdata                               0x08029dc4   Section       24  f24_ascii.o(.constdata)
    acFont24_ASCII_0072                      0x08029dc4   Data          24  f24_ascii.o(.constdata)
    .constdata                               0x08029ddc   Section       48  f24_ascii.o(.constdata)
    acFont24_ASCII_0073                      0x08029ddc   Data          48  f24_ascii.o(.constdata)
    .constdata                               0x08029e0c   Section       24  f24_ascii.o(.constdata)
    acFont24_ASCII_0074                      0x08029e0c   Data          24  f24_ascii.o(.constdata)
    .constdata                               0x08029e24   Section       48  f24_ascii.o(.constdata)
    acFont24_ASCII_0075                      0x08029e24   Data          48  f24_ascii.o(.constdata)
    .constdata                               0x08029e54   Section       48  f24_ascii.o(.constdata)
    acFont24_ASCII_0076                      0x08029e54   Data          48  f24_ascii.o(.constdata)
    .constdata                               0x08029e84   Section       48  f24_ascii.o(.constdata)
    acFont24_ASCII_0077                      0x08029e84   Data          48  f24_ascii.o(.constdata)
    .constdata                               0x08029eb4   Section       48  f24_ascii.o(.constdata)
    acFont24_ASCII_0078                      0x08029eb4   Data          48  f24_ascii.o(.constdata)
    .constdata                               0x08029ee4   Section       48  f24_ascii.o(.constdata)
    acFont24_ASCII_0079                      0x08029ee4   Data          48  f24_ascii.o(.constdata)
    .constdata                               0x08029f14   Section       48  f24_ascii.o(.constdata)
    acFont24_ASCII_007A                      0x08029f14   Data          48  f24_ascii.o(.constdata)
    .constdata                               0x08029f44   Section       24  f24_ascii.o(.constdata)
    acFont24_ASCII_007B                      0x08029f44   Data          24  f24_ascii.o(.constdata)
    .constdata                               0x08029f5c   Section       24  f24_ascii.o(.constdata)
    acFont24_ASCII_007C                      0x08029f5c   Data          24  f24_ascii.o(.constdata)
    .constdata                               0x08029f74   Section       24  f24_ascii.o(.constdata)
    acFont24_ASCII_007D                      0x08029f74   Data          24  f24_ascii.o(.constdata)
    .constdata                               0x08029f8c   Section       48  f24_ascii.o(.constdata)
    acFont24_ASCII_007E                      0x08029f8c   Data          48  f24_ascii.o(.constdata)
    .constdata                               0x08029fbc   Section      760  f24_ascii.o(.constdata)
    .constdata                               0x0802a2b4   Section       12  f24_ascii.o(.constdata)
    .constdata                               0x0802a2c0   Section       36  f24_ascii.o(.constdata)
    .constdata                               0x0802a2e4   Section       32  f32_ascii.o(.constdata)
    acFont32_ASCII_0020                      0x0802a2e4   Data          32  f32_ascii.o(.constdata)
    .constdata                               0x0802a304   Section       32  f32_ascii.o(.constdata)
    acFont32_ASCII_0021                      0x0802a304   Data          32  f32_ascii.o(.constdata)
    .constdata                               0x0802a324   Section       64  f32_ascii.o(.constdata)
    acFont32_ASCII_0022                      0x0802a324   Data          64  f32_ascii.o(.constdata)
    .constdata                               0x0802a364   Section       64  f32_ascii.o(.constdata)
    acFont32_ASCII_0023                      0x0802a364   Data          64  f32_ascii.o(.constdata)
    .constdata                               0x0802a3a4   Section       64  f32_ascii.o(.constdata)
    acFont32_ASCII_0024                      0x0802a3a4   Data          64  f32_ascii.o(.constdata)
    .constdata                               0x0802a3e4   Section       96  f32_ascii.o(.constdata)
    acFont32_ASCII_0025                      0x0802a3e4   Data          96  f32_ascii.o(.constdata)
    .constdata                               0x0802a444   Section       96  f32_ascii.o(.constdata)
    acFont32_ASCII_0026                      0x0802a444   Data          96  f32_ascii.o(.constdata)
    .constdata                               0x0802a4a4   Section       32  f32_ascii.o(.constdata)
    acFont32_ASCII_0027                      0x0802a4a4   Data          32  f32_ascii.o(.constdata)
    .constdata                               0x0802a4c4   Section       64  f32_ascii.o(.constdata)
    acFont32_ASCII_0028                      0x0802a4c4   Data          64  f32_ascii.o(.constdata)
    .constdata                               0x0802a504   Section       64  f32_ascii.o(.constdata)
    acFont32_ASCII_0029                      0x0802a504   Data          64  f32_ascii.o(.constdata)
    .constdata                               0x0802a544   Section       64  f32_ascii.o(.constdata)
    acFont32_ASCII_002A                      0x0802a544   Data          64  f32_ascii.o(.constdata)
    .constdata                               0x0802a584   Section       64  f32_ascii.o(.constdata)
    acFont32_ASCII_002B                      0x0802a584   Data          64  f32_ascii.o(.constdata)
    .constdata                               0x0802a5c4   Section       32  f32_ascii.o(.constdata)
    acFont32_ASCII_002C                      0x0802a5c4   Data          32  f32_ascii.o(.constdata)
    .constdata                               0x0802a5e4   Section       64  f32_ascii.o(.constdata)
    acFont32_ASCII_002D                      0x0802a5e4   Data          64  f32_ascii.o(.constdata)
    .constdata                               0x0802a624   Section       32  f32_ascii.o(.constdata)
    acFont32_ASCII_002E                      0x0802a624   Data          32  f32_ascii.o(.constdata)
    .constdata                               0x0802a644   Section       32  f32_ascii.o(.constdata)
    acFont32_ASCII_002F                      0x0802a644   Data          32  f32_ascii.o(.constdata)
    .constdata                               0x0802a664   Section       64  f32_ascii.o(.constdata)
    acFont32_ASCII_0030                      0x0802a664   Data          64  f32_ascii.o(.constdata)
    .constdata                               0x0802a6a4   Section       64  f32_ascii.o(.constdata)
    acFont32_ASCII_0031                      0x0802a6a4   Data          64  f32_ascii.o(.constdata)
    .constdata                               0x0802a6e4   Section       64  f32_ascii.o(.constdata)
    acFont32_ASCII_0032                      0x0802a6e4   Data          64  f32_ascii.o(.constdata)
    .constdata                               0x0802a724   Section       64  f32_ascii.o(.constdata)
    acFont32_ASCII_0033                      0x0802a724   Data          64  f32_ascii.o(.constdata)
    .constdata                               0x0802a764   Section       64  f32_ascii.o(.constdata)
    acFont32_ASCII_0034                      0x0802a764   Data          64  f32_ascii.o(.constdata)
    .constdata                               0x0802a7a4   Section       64  f32_ascii.o(.constdata)
    acFont32_ASCII_0035                      0x0802a7a4   Data          64  f32_ascii.o(.constdata)
    .constdata                               0x0802a7e4   Section       64  f32_ascii.o(.constdata)
    acFont32_ASCII_0036                      0x0802a7e4   Data          64  f32_ascii.o(.constdata)
    .constdata                               0x0802a824   Section       64  f32_ascii.o(.constdata)
    acFont32_ASCII_0037                      0x0802a824   Data          64  f32_ascii.o(.constdata)
    .constdata                               0x0802a864   Section       64  f32_ascii.o(.constdata)
    acFont32_ASCII_0038                      0x0802a864   Data          64  f32_ascii.o(.constdata)
    .constdata                               0x0802a8a4   Section       64  f32_ascii.o(.constdata)
    acFont32_ASCII_0039                      0x0802a8a4   Data          64  f32_ascii.o(.constdata)
    .constdata                               0x0802a8e4   Section       32  f32_ascii.o(.constdata)
    acFont32_ASCII_003A                      0x0802a8e4   Data          32  f32_ascii.o(.constdata)
    .constdata                               0x0802a904   Section       32  f32_ascii.o(.constdata)
    acFont32_ASCII_003B                      0x0802a904   Data          32  f32_ascii.o(.constdata)
    .constdata                               0x0802a924   Section       64  f32_ascii.o(.constdata)
    acFont32_ASCII_003C                      0x0802a924   Data          64  f32_ascii.o(.constdata)
    .constdata                               0x0802a964   Section       64  f32_ascii.o(.constdata)
    acFont32_ASCII_003D                      0x0802a964   Data          64  f32_ascii.o(.constdata)
    .constdata                               0x0802a9a4   Section       64  f32_ascii.o(.constdata)
    acFont32_ASCII_003E                      0x0802a9a4   Data          64  f32_ascii.o(.constdata)
    .constdata                               0x0802a9e4   Section       64  f32_ascii.o(.constdata)
    acFont32_ASCII_003F                      0x0802a9e4   Data          64  f32_ascii.o(.constdata)
    .constdata                               0x0802aa24   Section      128  f32_ascii.o(.constdata)
    acFont32_ASCII_0040                      0x0802aa24   Data         128  f32_ascii.o(.constdata)
    .constdata                               0x0802aaa4   Section       96  f32_ascii.o(.constdata)
    acFont32_ASCII_0041                      0x0802aaa4   Data          96  f32_ascii.o(.constdata)
    .constdata                               0x0802ab04   Section       96  f32_ascii.o(.constdata)
    acFont32_ASCII_0042                      0x0802ab04   Data          96  f32_ascii.o(.constdata)
    .constdata                               0x0802ab64   Section       96  f32_ascii.o(.constdata)
    acFont32_ASCII_0043                      0x0802ab64   Data          96  f32_ascii.o(.constdata)
    .constdata                               0x0802abc4   Section       96  f32_ascii.o(.constdata)
    acFont32_ASCII_0044                      0x0802abc4   Data          96  f32_ascii.o(.constdata)
    .constdata                               0x0802ac24   Section       96  f32_ascii.o(.constdata)
    acFont32_ASCII_0045                      0x0802ac24   Data          96  f32_ascii.o(.constdata)
    .constdata                               0x0802ac84   Section       96  f32_ascii.o(.constdata)
    acFont32_ASCII_0046                      0x0802ac84   Data          96  f32_ascii.o(.constdata)
    .constdata                               0x0802ace4   Section       96  f32_ascii.o(.constdata)
    acFont32_ASCII_0047                      0x0802ace4   Data          96  f32_ascii.o(.constdata)
    .constdata                               0x0802ad44   Section       96  f32_ascii.o(.constdata)
    acFont32_ASCII_0048                      0x0802ad44   Data          96  f32_ascii.o(.constdata)
    .constdata                               0x0802ada4   Section       32  f32_ascii.o(.constdata)
    acFont32_ASCII_0049                      0x0802ada4   Data          32  f32_ascii.o(.constdata)
    .constdata                               0x0802adc4   Section       64  f32_ascii.o(.constdata)
    acFont32_ASCII_004A                      0x0802adc4   Data          64  f32_ascii.o(.constdata)
    .constdata                               0x0802ae04   Section       96  f32_ascii.o(.constdata)
    acFont32_ASCII_004B                      0x0802ae04   Data          96  f32_ascii.o(.constdata)
    .constdata                               0x0802ae64   Section       64  f32_ascii.o(.constdata)
    acFont32_ASCII_004C                      0x0802ae64   Data          64  f32_ascii.o(.constdata)
    .constdata                               0x0802aea4   Section       96  f32_ascii.o(.constdata)
    acFont32_ASCII_004D                      0x0802aea4   Data          96  f32_ascii.o(.constdata)
    .constdata                               0x0802af04   Section       96  f32_ascii.o(.constdata)
    acFont32_ASCII_004E                      0x0802af04   Data          96  f32_ascii.o(.constdata)
    .constdata                               0x0802af64   Section       96  f32_ascii.o(.constdata)
    acFont32_ASCII_004F                      0x0802af64   Data          96  f32_ascii.o(.constdata)
    .constdata                               0x0802afc4   Section       96  f32_ascii.o(.constdata)
    acFont32_ASCII_0050                      0x0802afc4   Data          96  f32_ascii.o(.constdata)
    .constdata                               0x0802b024   Section       96  f32_ascii.o(.constdata)
    acFont32_ASCII_0051                      0x0802b024   Data          96  f32_ascii.o(.constdata)
    .constdata                               0x0802b084   Section       96  f32_ascii.o(.constdata)
    acFont32_ASCII_0052                      0x0802b084   Data          96  f32_ascii.o(.constdata)
    .constdata                               0x0802b0e4   Section       96  f32_ascii.o(.constdata)
    acFont32_ASCII_0053                      0x0802b0e4   Data          96  f32_ascii.o(.constdata)
    .constdata                               0x0802b144   Section       64  f32_ascii.o(.constdata)
    acFont32_ASCII_0054                      0x0802b144   Data          64  f32_ascii.o(.constdata)
    .constdata                               0x0802b184   Section       96  f32_ascii.o(.constdata)
    acFont32_ASCII_0055                      0x0802b184   Data          96  f32_ascii.o(.constdata)
    .constdata                               0x0802b1e4   Section       96  f32_ascii.o(.constdata)
    acFont32_ASCII_0056                      0x0802b1e4   Data          96  f32_ascii.o(.constdata)
    .constdata                               0x0802b244   Section      128  f32_ascii.o(.constdata)
    acFont32_ASCII_0057                      0x0802b244   Data         128  f32_ascii.o(.constdata)
    .constdata                               0x0802b2c4   Section       96  f32_ascii.o(.constdata)
    acFont32_ASCII_0058                      0x0802b2c4   Data          96  f32_ascii.o(.constdata)
    .constdata                               0x0802b324   Section       96  f32_ascii.o(.constdata)
    acFont32_ASCII_0059                      0x0802b324   Data          96  f32_ascii.o(.constdata)
    .constdata                               0x0802b384   Section       96  f32_ascii.o(.constdata)
    acFont32_ASCII_005A                      0x0802b384   Data          96  f32_ascii.o(.constdata)
    .constdata                               0x0802b3e4   Section       32  f32_ascii.o(.constdata)
    acFont32_ASCII_005B                      0x0802b3e4   Data          32  f32_ascii.o(.constdata)
    .constdata                               0x0802b404   Section       32  f32_ascii.o(.constdata)
    acFont32_ASCII_005C                      0x0802b404   Data          32  f32_ascii.o(.constdata)
    .constdata                               0x0802b424   Section       32  f32_ascii.o(.constdata)
    acFont32_ASCII_005D                      0x0802b424   Data          32  f32_ascii.o(.constdata)
    .constdata                               0x0802b444   Section       64  f32_ascii.o(.constdata)
    acFont32_ASCII_005E                      0x0802b444   Data          64  f32_ascii.o(.constdata)
    .constdata                               0x0802b484   Section       64  f32_ascii.o(.constdata)
    acFont32_ASCII_005F                      0x0802b484   Data          64  f32_ascii.o(.constdata)
    .constdata                               0x0802b4c4   Section       64  f32_ascii.o(.constdata)
    acFont32_ASCII_0060                      0x0802b4c4   Data          64  f32_ascii.o(.constdata)
    .constdata                               0x0802b504   Section       64  f32_ascii.o(.constdata)
    acFont32_ASCII_0061                      0x0802b504   Data          64  f32_ascii.o(.constdata)
    .constdata                               0x0802b544   Section       64  f32_ascii.o(.constdata)
    acFont32_ASCII_0062                      0x0802b544   Data          64  f32_ascii.o(.constdata)
    .constdata                               0x0802b584   Section       64  f32_ascii.o(.constdata)
    acFont32_ASCII_0063                      0x0802b584   Data          64  f32_ascii.o(.constdata)
    .constdata                               0x0802b5c4   Section       64  f32_ascii.o(.constdata)
    acFont32_ASCII_0064                      0x0802b5c4   Data          64  f32_ascii.o(.constdata)
    .constdata                               0x0802b604   Section       64  f32_ascii.o(.constdata)
    acFont32_ASCII_0065                      0x0802b604   Data          64  f32_ascii.o(.constdata)
    .constdata                               0x0802b644   Section       32  f32_ascii.o(.constdata)
    acFont32_ASCII_0066                      0x0802b644   Data          32  f32_ascii.o(.constdata)
    .constdata                               0x0802b664   Section       64  f32_ascii.o(.constdata)
    acFont32_ASCII_0067                      0x0802b664   Data          64  f32_ascii.o(.constdata)
    .constdata                               0x0802b6a4   Section       64  f32_ascii.o(.constdata)
    acFont32_ASCII_0068                      0x0802b6a4   Data          64  f32_ascii.o(.constdata)
    .constdata                               0x0802b6e4   Section       32  f32_ascii.o(.constdata)
    acFont32_ASCII_0069                      0x0802b6e4   Data          32  f32_ascii.o(.constdata)
    .constdata                               0x0802b704   Section       32  f32_ascii.o(.constdata)
    acFont32_ASCII_006A                      0x0802b704   Data          32  f32_ascii.o(.constdata)
    .constdata                               0x0802b724   Section       64  f32_ascii.o(.constdata)
    acFont32_ASCII_006B                      0x0802b724   Data          64  f32_ascii.o(.constdata)
    .constdata                               0x0802b764   Section       32  f32_ascii.o(.constdata)
    acFont32_ASCII_006C                      0x0802b764   Data          32  f32_ascii.o(.constdata)
    .constdata                               0x0802b784   Section       96  f32_ascii.o(.constdata)
    acFont32_ASCII_006D                      0x0802b784   Data          96  f32_ascii.o(.constdata)
    .constdata                               0x0802b7e4   Section       64  f32_ascii.o(.constdata)
    acFont32_ASCII_006E                      0x0802b7e4   Data          64  f32_ascii.o(.constdata)
    .constdata                               0x0802b824   Section       64  f32_ascii.o(.constdata)
    acFont32_ASCII_006F                      0x0802b824   Data          64  f32_ascii.o(.constdata)
    .constdata                               0x0802b864   Section       64  f32_ascii.o(.constdata)
    acFont32_ASCII_0070                      0x0802b864   Data          64  f32_ascii.o(.constdata)
    .constdata                               0x0802b8a4   Section       64  f32_ascii.o(.constdata)
    acFont32_ASCII_0071                      0x0802b8a4   Data          64  f32_ascii.o(.constdata)
    .constdata                               0x0802b8e4   Section       64  f32_ascii.o(.constdata)
    acFont32_ASCII_0072                      0x0802b8e4   Data          64  f32_ascii.o(.constdata)
    .constdata                               0x0802b924   Section       64  f32_ascii.o(.constdata)
    acFont32_ASCII_0073                      0x0802b924   Data          64  f32_ascii.o(.constdata)
    .constdata                               0x0802b964   Section       32  f32_ascii.o(.constdata)
    acFont32_ASCII_0074                      0x0802b964   Data          32  f32_ascii.o(.constdata)
    .constdata                               0x0802b984   Section       64  f32_ascii.o(.constdata)
    acFont32_ASCII_0075                      0x0802b984   Data          64  f32_ascii.o(.constdata)
    .constdata                               0x0802b9c4   Section       64  f32_ascii.o(.constdata)
    acFont32_ASCII_0076                      0x0802b9c4   Data          64  f32_ascii.o(.constdata)
    .constdata                               0x0802ba04   Section       96  f32_ascii.o(.constdata)
    acFont32_ASCII_0077                      0x0802ba04   Data          96  f32_ascii.o(.constdata)
    .constdata                               0x0802ba64   Section       64  f32_ascii.o(.constdata)
