Component: ARM Compiler 5.06 update 6 (build 750) Tool: armlink [4d35ed]

==============================================================================

Section Cross References

    system_stm32f10x.o(i.SetSysClock) refers to system_stm32f10x.o(i.SetSysClockTo72) for SetSysClockTo72
    system_stm32f10x.o(i.SystemCoreClockUpdate) refers to system_stm32f10x.o(.data) for SystemCoreClock
    system_stm32f10x.o(i.SystemInit) refers to system_stm32f10x.o(i.SetSysClock) for SetSysClock
    startup_stm32f10x_hd.o(RESET) refers to startup_stm32f10x_hd.o(STACK) for __initial_sp
    startup_stm32f10x_hd.o(RESET) refers to startup_stm32f10x_hd.o(.text) for Reset_Handler
    startup_stm32f10x_hd.o(RESET) refers to stm32f10x_it.o(i.NMI_Handler) for NMI_Handler
    startup_stm32f10x_hd.o(RESET) refers to stm32f10x_it.o(i.HardFault_Handler) for HardFault_Handler
    startup_stm32f10x_hd.o(RESET) refers to stm32f10x_it.o(i.MemManage_Handler) for MemManage_Handler
    startup_stm32f10x_hd.o(RESET) refers to stm32f10x_it.o(i.BusFault_Handler) for BusFault_Handler
    startup_stm32f10x_hd.o(RESET) refers to stm32f10x_it.o(i.UsageFault_Handler) for UsageFault_Handler
    startup_stm32f10x_hd.o(RESET) refers to port.o(.emb_text) for SVC_Handler
    startup_stm32f10x_hd.o(RESET) refers to stm32f10x_it.o(i.DebugMon_Handler) for DebugMon_Handler
    startup_stm32f10x_hd.o(RESET) refers to port.o(i.SysTick_Handler) for SysTick_Handler
    startup_stm32f10x_hd.o(RESET) refers to stm32f10x_it.o(i.USB_LP_CAN1_RX0_IRQHandler) for USB_LP_CAN1_RX0_IRQHandler
    startup_stm32f10x_hd.o(RESET) refers to stm32f10x_it.o(i.TIM2_IRQHandler) for TIM2_IRQHandler
    startup_stm32f10x_hd.o(RESET) refers to stm32f10x_it.o(i.USART1_IRQHandler) for USART1_IRQHandler
    startup_stm32f10x_hd.o(.text) refers to system_stm32f10x.o(i.SystemInit) for SystemInit
    startup_stm32f10x_hd.o(.text) refers to entry.o(.ARM.Collect$$$$00000000) for __main
==============================================================================

Removing Unused input sections from the image.

    Removing system_stm32f10x.o(i.SystemCoreClockUpdate), (164 bytes).
    Removing startup_stm32f10x_hd.o(HEAP), (512 bytes).
    Removing misc.o(i.NVIC_SystemLPConfig), (32 bytes).
    Removing misc.o(i.SysTick_CLKSourceConfig), (40 bytes).
    Removing stm32f10x_can.o(i.CAN_CancelTransmit), (48 bytes).
    Removing stm32f10x_can.o(i.CAN_ClearFlag), (56 bytes).
    Removing stm32f10x_can.o(i.CAN_ClearITPendingBit), (168 bytes).
    Removing stm32f10x_can.o(i.CAN_DBGFreeze), (22 bytes).
    Removing stm32f10x_can.o(i.CAN_DeInit), (56 bytes).
    Removing stm32f10x_can.o(i.CAN_FIFORelease), (22 bytes).
    Removing stm32f10x_can.o(i.CAN_GetFlagStatus), (120 bytes).
    Removing stm32f10x_can.o(i.CAN_GetITStatus), (288 bytes).
    Removing stm32f10x_can.o(i.CAN_GetLSBTransmitErrorCounter), (12 bytes).
    Removing stm32f10x_can.o(i.CAN_GetLastErrorCode), (12 bytes).
    Removing stm32f10x_can.o(i.CAN_GetReceiveErrorCounter), (10 bytes).
    Removing stm32f10x_can.o(i.CAN_MessagePending), (30 bytes).
    Removing stm32f10x_can.o(i.CAN_OperatingModeRequest), (162 bytes).
    Removing stm32f10x_can.o(i.CAN_SlaveStartBank), (52 bytes).
==============================================================================

Image Symbol Table

    Local Symbols

    Symbol Name                              Value     Ov Type        Size  Object(Section)

    ../clib/../cmprslib/zerorunl2.c          0x00000000   Number         0  __dczerorl2.o ABSOLUTE
    ../clib/microlib/division.c              0x00000000   Number         0  uldiv.o ABSOLUTE
    ../clib/microlib/division.c              0x00000000   Number         0  uidiv.o ABSOLUTE
    ../clib/microlib/init/entry.s            0x00000000   Number         0  entry11a.o ABSOLUTE
    ../clib/microlib/init/entry.s            0x00000000   Number         0  entry10b.o ABSOLUTE
    ../clib/microlib/init/entry.s            0x00000000   Number         0  entry10a.o ABSOLUTE
    ../clib/microlib/init/entry.s            0x00000000   Number         0  entry9b.o ABSOLUTE
    ../clib/microlib/init/entry.s            0x00000000   Number         0  entry.o ABSOLUTE
    ../clib/microlib/init/entry.s            0x00000000   Number         0  entry9a.o ABSOLUTE
    ../clib/microlib/init/entry.s            0x00000000   Number         0  entry8b.o ABSOLUTE
    ../clib/microlib/init/entry.s            0x00000000   Number         0  entry8a.o ABSOLUTE
    ../clib/microlib/init/entry.s            0x00000000   Number         0  entry2.o ABSOLUTE
    ../clib/microlib/init/entry.s            0x00000000   Number         0  entry7a.o ABSOLUTE
    ../clib/microlib/init/entry.s            0x00000000   Number         0  entry5.o ABSOLUTE
    ../clib/microlib/init/entry.s            0x00000000   Number         0  entry7b.o ABSOLUTE
    ../clib/microlib/init/entry.s            0x00000000   Number         0  entry11b.o ABSOLUTE
    ../clib/microlib/longlong.c              0x00000000   Number         0  llsshr.o ABSOLUTE
    ../clib/microlib/longlong.c              0x00000000   Number         0  llshl.o ABSOLUTE
    ../clib/microlib/longlong.c              0x00000000   Number         0  llushr.o ABSOLUTE
    ../clib/microlib/printf/printf.c         0x00000000   Number         0  printf2.o ABSOLUTE
    ../clib/microlib/printf/printf.c         0x00000000   Number         0  printf3.o ABSOLUTE
    ../clib/microlib/printf/printf.c         0x00000000   Number         0  printf4.o ABSOLUTE
    ../clib/microlib/printf/printf.c         0x00000000   Number         0  printf5.o ABSOLUTE
    ../clib/microlib/printf/printf.c         0x00000000   Number         0  printf6.o ABSOLUTE
    ../clib/microlib/printf/printf.c         0x00000000   Number         0  printf7.o ABSOLUTE
    ../clib/microlib/printf/printf.c         0x00000000   Number         0  printf8.o ABSOLUTE
    ../clib/microlib/printf/printf.c         0x00000000   Number         0  printfa.o ABSOLUTE
    ../clib/microlib/printf/printf.c         0x00000000   Number         0  printfb.o ABSOLUTE
    ../clib/microlib/printf/printf.c         0x00000000   Number         0  printf0.o ABSOLUTE
    ../clib/microlib/printf/printf.c         0x00000000   Number         0  printf1.o ABSOLUTE
    ../clib/microlib/stdio/streams.c         0x00000000   Number         0  stdout.o ABSOLUTE
    ../clib/microlib/string/memcmp.c         0x00000000   Number         0  memcmp.o ABSOLUTE
    ../clib/microlib/string/memcpy.c         0x00000000   Number         0  memcpyb.o ABSOLUTE
    ../clib/microlib/string/memcpy.c         0x00000000   Number         0  memcpya.o ABSOLUTE
    ../clib/microlib/stubs.s                 0x00000000   Number         0  iusefp.o ABSOLUTE
    ../fplib/microlib/d2f.c                  0x00000000   Number         0  d2f.o ABSOLUTE
    ../fplib/microlib/f2d.c                  0x00000000   Number         0  f2d.o ABSOLUTE
    ../fplib/microlib/fpadd.c                0x00000000   Number         0  dadd.o ABSOLUTE
    ../fplib/microlib/fpdiv.c                0x00000000   Number         0  ddiv.o ABSOLUTE
    ../fplib/microlib/fpepilogue.c           0x00000000   Number         0  depilogue.o ABSOLUTE
    ../fplib/microlib/fpepilogue.c           0x00000000   Number         0  fepilogue.o ABSOLUTE
    ../fplib/microlib/fpfix.c                0x00000000   Number         0  dfixul.o ABSOLUTE
    ../fplib/microlib/fpmul.c                0x00000000   Number         0  dmul.o ABSOLUTE
    ..\App\app.c                             0x00000000   Number         0  app.o ABSOLUTE
    ..\App\canopen\Slave.c                   0x00000000   Number         0  slave.o ABSOLUTE
    ..\App\canopen\canopen_app.c             0x00000000   Number         0  canopen_app.o ABSOLUTE
    ..\App\canopen\canopen_drv.c             0x00000000   Number         0  canopen_drv.o ABSOLUTE
    ..\App\main.c                            0x00000000   Number         0  main.o ABSOLUTE
    ..\App\stm32f10x_it.c                    0x00000000   Number         0  stm32f10x_it.o ABSOLUTE
    ..\Bsp\bsp.c                             0x00000000   Number         0  bsp.o ABSOLUTE
    ..\Bsp\bsp_can.c                         0x00000000   Number         0  bsp_can.o ABSOLUTE
    ..\Bsp\bsp_timer.c                       0x00000000   Number         0  bsp_timer.o ABSOLUTE
    ..\Bsp\bsp_usart.c                       0x00000000   Number         0  bsp_usart.o ABSOLUTE
    ..\CANOpen\src\dcf.c                     0x00000000   Number         0  dcf.o ABSOLUTE
    ..\CANOpen\src\emcy.c                    0x00000000   Number         0  emcy.o ABSOLUTE
    ..\CANOpen\src\lifegrd.c                 0x00000000   Number         0  lifegrd.o ABSOLUTE
    ..\CANOpen\src\lss.c                     0x00000000   Number         0  lss.o ABSOLUTE
    ..\CANOpen\src\nmtMaster.c               0x00000000   Number         0  nmtmaster.o ABSOLUTE
    ..\CANOpen\src\nmtSlave.c                0x00000000   Number         0  nmtslave.o ABSOLUTE
    ..\CANOpen\src\objacces.c                0x00000000   Number         0  objacces.o ABSOLUTE
    ..\CANOpen\src\pdo.c                     0x00000000   Number         0  pdo.o ABSOLUTE
    ..\CANOpen\src\sdo.c                     0x00000000   Number         0  sdo.o ABSOLUTE
    ..\CANOpen\src\states.c                  0x00000000   Number         0  states.o ABSOLUTE
    ..\CANOpen\src\sync.c                    0x00000000   Number         0  sync.o ABSOLUTE
    ..\CANOpen\src\timer.c                   0x00000000   Number         0  timer.o ABSOLUTE
    ..\FreeRTOS\croutine.c                   0x00000000   Number         0  croutine.o ABSOLUTE
    ..\FreeRTOS\event_groups.c               0x00000000   Number         0  event_groups.o ABSOLUTE
    ..\FreeRTOS\list.c                       0x00000000   Number         0  list.o ABSOLUTE
    ..\FreeRTOS\portable\MemMang\heap_4.c    0x00000000   Number         0  heap_4.o ABSOLUTE
    ..\FreeRTOS\portable\RVDS\ARM_CM3\port.c 0x00000000   Number         0  port.o ABSOLUTE
    ..\FreeRTOS\queue.c                      0x00000000   Number         0  queue.o ABSOLUTE
    ..\FreeRTOS\tasks.c                      0x00000000   Number         0  tasks.o ABSOLUTE
    ..\FreeRTOS\timers.c                     0x00000000   Number         0  timers.o ABSOLUTE
    ..\Libraries\CMSIS\DeviceSupport\startup\startup_stm32f10x_hd.s 0x00000000   Number         0  startup_stm32f10x_hd.o ABSOLUTE
    ..\Libraries\CMSIS\DeviceSupport\system_stm32f10x.c 0x00000000   Number         0  system_stm32f10x.o ABSOLUTE
    ..\Libraries\STM32F10x_StdPeriph_Driver\src\misc.c 0x00000000   Number         0  misc.o ABSOLUTE
    ..\Libraries\STM32F10x_StdPeriph_Driver\src\stm32f10x_can.c 0x00000000   Number         0  stm32f10x_can.o ABSOLUTE
    ..\Libraries\STM32F10x_StdPeriph_Driver\src\stm32f10x_gpio.c 0x00000000   Number         0  stm32f10x_gpio.o ABSOLUTE
    ..\Libraries\STM32F10x_StdPeriph_Driver\src\stm32f10x_rcc.c 0x00000000   Number         0  stm32f10x_rcc.o ABSOLUTE
    ..\Libraries\STM32F10x_StdPeriph_Driver\src\stm32f10x_tim.c 0x00000000   Number         0  stm32f10x_tim.o ABSOLUTE
    ..\Libraries\STM32F10x_StdPeriph_Driver\src\stm32f10x_usart.c 0x00000000   Number         0  stm32f10x_usart.o ABSOLUTE
    ..\\FreeRTOS\\portable\\RVDS\\ARM_CM3\\port.c 0x00000000   Number         0  port.o ABSOLUTE
    cdrcmple.s                               0x00000000   Number         0  cdrcmple.o ABSOLUTE
    dc.s                                     0x00000000   Number         0  dc.o ABSOLUTE
    handlers.s                               0x00000000   Number         0  handlers.o ABSOLUTE
    init.s                                   0x00000000   Number         0  init.o ABSOLUTE
    RESET                                    0x08000000   Section      304  startup_stm32f10x_hd.o(RESET)
    .ARM.Collect$$$$00000000                 0x08000130   Section        0  entry.o(.ARM.Collect$$$$00000000)
    .ARM.Collect$$$$00000001                 0x08000130   Section        4  entry2.o(.ARM.Collect$$$$00000001)
    .ARM.Collect$$$$00000004                 0x08000134   Section        4  entry5.o(.ARM.Collect$$$$00000004)
    .ARM.Collect$$$$00000008                 0x08000138   Section        0  entry7b.o(.ARM.Collect$$$$00000008)
    .ARM.Collect$$$$0000000A                 0x08000138   Section        0  entry8b.o(.ARM.Collect$$$$0000000A)
    .ARM.Collect$$$$0000000B                 0x08000138   Section        8  entry9a.o(.ARM.Collect$$$$0000000B)
    .ARM.Collect$$$$0000000D                 0x08000140   Section        0  entry10a.o(.ARM.Collect$$$$0000000D)
    .ARM.Collect$$$$0000000F                 0x08000140   Section        0  entry11a.o(.ARM.Collect$$$$0000000F)
    .ARM.Collect$$$$00002712                 0x08000140   Section        4  entry2.o(.ARM.Collect$$$$00002712)
    __lit__00000000                          0x08000140   Data           4  entry2.o(.ARM.Collect$$$$00002712)
    .emb_text                                0x08000144   Section      150  port.o(.emb_text)
    .text                                    0x080001dc   Section       36  startup_stm32f10x_hd.o(.text)
    .text                                    0x08000200   Section        0  memcpya.o(.text)
    .text                                    0x08000224   Section        0  memcmp.o(.text)
    .text                                    0x0800023e   Section        0  dadd.o(.text)
    .text                                    0x0800038c   Section        0  f2d.o(.text)
    .text                                    0x080003b2   Section        0  d2f.o(.text)
    .text                                    0x080003ea   Section        0  llshl.o(.text)
    .text                                    0x08000408   Section        0  llsshr.o(.text)
    .text                                    0x0800042c   Section        0  iusefp.o(.text)
    .text                                    0x0800042c   Section        0  fepilogue.o(.text)
    .text                                    0x0800049a   Section        0  depilogue.o(.text)
    .text                                    0x08000554   Section       36  init.o(.text)
    .text                                    0x08000578   Section        0  llushr.o(.text)
    .text                                    0x08000598   Section        0  __dczerorl2.o(.text)
    i.APP_Init                               0x080005ee   Section        0  app.o(i.APP_Init)
    APP_Init                                 0x080005ef   Thumb Code     8  app.o(i.APP_Init)
    i.APP_Task                               0x080005f8   Section        0  app.o(i.APP_Task)
    APP_Task                                 0x080005f9   Thumb Code    30  app.o(i.APP_Task)
    i.AppTaskCreate                          0x0800061c   Section        0  app.o(i.AppTaskCreate)
    i.BSP_Init                               0x0800066c   Section        0  bsp.o(i.BSP_Init)
    i.BusFault_Handler                       0x08000680   Section        0  stm32f10x_it.o(i.BusFault_Handler)
    i.CANOpen_App_Init                       0x08000684   Section        0  canopen_app.o(i.CANOpen_App_Init)
    i.CANOpen_App_Task                       0x080006c4   Section        0  canopen_app.o(i.CANOpen_App_Task)
    CANOpen_App_Task                         0x080006c5   Thumb Code    98  canopen_app.o(i.CANOpen_App_Task)
    i.CANOpen_Driver_Init                    0x0800073c   Section        0  canopen_drv.o(i.CANOpen_Driver_Init)
    i.CANOpen_TIM_Configuration              0x0800086c   Section        0  bsp_timer.o(i.CANOpen_TIM_Configuration)
    i.CANRcv_DateFromISR                     0x080008f4   Section        0  canopen_drv.o(i.CANRcv_DateFromISR)
    i.CANRcv_Task                            0x08000930   Section        0  canopen_drv.o(i.CANRcv_Task)
    CANRcv_Task                              0x08000931   Thumb Code   114  canopen_drv.o(i.CANRcv_Task)
    i.CANSend_Task                           0x080009b4   Section        0  canopen_drv.o(i.CANSend_Task)
    CANSend_Task                             0x080009b5   Thumb Code    46  canopen_drv.o(i.CANSend_Task)
    i.CAN_Configuration                      0x080009f0   Section        0  bsp_can.o(i.CAN_Configuration)
    i.CAN_FilterInit                         0x08000a9c   Section        0  stm32f10x_can.o(i.CAN_FilterInit)
    i.CAN_GPIO_Configuration                 0x08000ba4   Section        0  bsp_can.o(i.CAN_GPIO_Configuration)
    i.CAN_ITConfig                           0x08000bf0   Section        0  stm32f10x_can.o(i.CAN_ITConfig)
    i.CAN_Init                               0x08000c02   Section        0  stm32f10x_can.o(i.CAN_Init)
    i.CAN_Initializes                        0x08000d16   Section        0  bsp_can.o(i.CAN_Initializes)
    i.CAN_Receive                            0x08000d22   Section        0  stm32f10x_can.o(i.CAN_Receive)
    i.CAN_Transmit                           0x08000e12   Section        0  stm32f10x_can.o(i.CAN_Transmit)
    i.ConsumerHeartbeatAlarm                 0x08000f38   Section        0  lifegrd.o(i.ConsumerHeartbeatAlarm)
    i.CopyBits                               0x08000f6a   Section        0  pdo.o(i.CopyBits)
    i.DEBUG_SendByte                         0x08001058   Section        0  bsp_usart.o(i.DEBUG_SendByte)
    i.DebugMon_Handler                       0x08001078   Section        0  stm32f10x_it.o(i.DebugMon_Handler)
    i.DelAlarm                               0x0800107c   Section        0  timer.o(i.DelAlarm)
    i.GPIO_Init                              0x080010b4   Section        0  stm32f10x_gpio.o(i.GPIO_Init)
    i.GPIO_PinRemapConfig                    0x080011cc   Section        0  stm32f10x_gpio.o(i.GPIO_PinRemapConfig)
    i.GPIO_ResetBits                         0x0800125c   Section        0  stm32f10x_gpio.o(i.GPIO_ResetBits)
    i.GPIO_SetBits                           0x08001260   Section        0  stm32f10x_gpio.o(i.GPIO_SetBits)
    i.GuardTimeAlarm                         0x08001264   Section        0  lifegrd.o(i.GuardTimeAlarm)
    i.HardFault_Handler                      0x080012da   Section        0  stm32f10x_it.o(i.HardFault_Handler)
    i.LED_Initializes                        0x080012e0   Section        0  bsp.o(i.LED_Initializes)
    i.MemManage_Handler                      0x08001318   Section        0  stm32f10x_it.o(i.MemManage_Handler)
    i.NMI_Handler                            0x0800131c   Section        0  stm32f10x_it.o(i.NMI_Handler)
    i.NVIC_Init                              0x08001320   Section        0  misc.o(i.NVIC_Init)
    i.NVIC_PriorityGroupConfig               0x08001390   Section        0  misc.o(i.NVIC_PriorityGroupConfig)
    i.NVIC_SetVectorTable                    0x080013a4   Section        0  misc.o(i.NVIC_SetVectorTable)
    i.OnCOB_ID_SyncUpdate                    0x080013b8   Section        0  sync.o(i.OnCOB_ID_SyncUpdate)
    i.OnHeartbeatProducerUpdate              0x080013cc   Section        0  lifegrd.o(i.OnHeartbeatProducerUpdate)
    i.OnNodeGuardUpdate                      0x08001410   Section        0  lifegrd.o(i.OnNodeGuardUpdate)
    i.OnNumberOfErrorsUpdate                 0x08001428   Section        0  emcy.o(i.OnNumberOfErrorsUpdate)
    i.PDOEventTimerAlarm                     0x08001454   Section        0  pdo.o(i.PDOEventTimerAlarm)
    i.PDOInhibitTimerAlarm                   0x08001482   Section        0  pdo.o(i.PDOInhibitTimerAlarm)
    i.PDOInit                                0x080014bc   Section        0  pdo.o(i.PDOInit)
    i.PDOStop                                0x08001514   Section        0  pdo.o(i.PDOStop)
    i.ProducerHeartbeatAlarm                 0x0800158c   Section        0  lifegrd.o(i.ProducerHeartbeatAlarm)
    i.RCC_APB1PeriphClockCmd                 0x080015d4   Section        0  stm32f10x_rcc.o(i.RCC_APB1PeriphClockCmd)
    i.RCC_APB2PeriphClockCmd                 0x080015f4   Section        0  stm32f10x_rcc.o(i.RCC_APB2PeriphClockCmd)
    i.RCC_GetClocksFreq                      0x08001614   Section        0  stm32f10x_rcc.o(i.RCC_GetClocksFreq)
    i.RegisterSetODentryCallBack             0x080016e8   Section        0  objacces.o(i.RegisterSetODentryCallBack)
    i.SDOTimeoutAlarm                        0x0800171c   Section        0  sdo.o(i.SDOTimeoutAlarm)
    i.SDOlineToObjdict                       0x0800184c   Section        0  sdo.o(i.SDOlineToObjdict)
    i.SDOtoLine                              0x080018f8   Section        0  sdo.o(i.SDOtoLine)
    i.SetAlarm                               0x08001980   Section        0  timer.o(i.SetAlarm)
    i.SetSysClock                            0x08001a38   Section        0  system_stm32f10x.o(i.SetSysClock)
    SetSysClock                              0x08001a39   Thumb Code     8  system_stm32f10x.o(i.SetSysClock)
    i.SetSysClockTo72                        0x08001a40   Section        0  system_stm32f10x.o(i.SetSysClockTo72)
    SetSysClockTo72                          0x08001a41   Thumb Code   214  system_stm32f10x.o(i.SetSysClockTo72)
    i.Slave_scanIndexOD                      0x08001b20   Section        0  slave.o(i.Slave_scanIndexOD)
    i.Slave_valueRangeTest                   0x08001bd0   Section        0  slave.o(i.Slave_valueRangeTest)
    i.SyncAlarm                              0x08001bec   Section        0  sync.o(i.SyncAlarm)
    i.SysInit                                0x08001bfa   Section        0  main.o(i.SysInit)
    i.SysTick_Handler                        0x08001c10   Section        0  port.o(i.SysTick_Handler)
    i.SystemInit                             0x08001c44   Section        0  system_stm32f10x.o(i.SystemInit)
    i.TIM2_IRQHandler                        0x08001ca4   Section        0  stm32f10x_it.o(i.TIM2_IRQHandler)
    i.TIM_ClearFlag                          0x08001cbe   Section        0  stm32f10x_tim.o(i.TIM_ClearFlag)
    i.TIM_ClearITPendingBit                  0x08001cc4   Section        0  stm32f10x_tim.o(i.TIM_ClearITPendingBit)
    i.TIM_Cmd                                0x08001cca   Section        0  stm32f10x_tim.o(i.TIM_Cmd)
    i.TIM_GetCounter                         0x08001ce2   Section        0  stm32f10x_tim.o(i.TIM_GetCounter)
    i.TIM_GetITStatus                        0x08001ce8   Section        0  stm32f10x_tim.o(i.TIM_GetITStatus)
    i.TIM_ITConfig                           0x08001d0a   Section        0  stm32f10x_tim.o(i.TIM_ITConfig)
    i.TIM_Initializes                        0x08001d1c   Section        0  bsp_timer.o(i.TIM_Initializes)
    i.TIM_SetAutoreload                      0x08001d24   Section        0  stm32f10x_tim.o(i.TIM_SetAutoreload)
    i.TIM_SetCounter                         0x08001d28   Section        0  stm32f10x_tim.o(i.TIM_SetCounter)
    i.TIM_TimeBaseInit                       0x08001d2c   Section        0  stm32f10x_tim.o(i.TIM_TimeBaseInit)
    i.TIMx_DispatchFromISR                   0x08001dd0   Section        0  canopen_drv.o(i.TIMx_DispatchFromISR)
    i.TPDO_Communication_Parameter_Callback  0x08001dec   Section        0  pdo.o(i.TPDO_Communication_Parameter_Callback)
    i.TimeDispatch                           0x08001e80   Section        0  timer.o(i.TimeDispatch)
    i.UART_DEBUG_Configuration               0x08001f40   Section        0  bsp_usart.o(i.UART_DEBUG_Configuration)
    i.USART1_IRQHandler                      0x08001ff4   Section        0  stm32f10x_it.o(i.USART1_IRQHandler)
    i.USART_ClearFlag                        0x08002020   Section        0  stm32f10x_usart.o(i.USART_ClearFlag)
    i.USART_Cmd                              0x08002032   Section        0  stm32f10x_usart.o(i.USART_Cmd)
    i.USART_GetFlagStatus                    0x0800204a   Section        0  stm32f10x_usart.o(i.USART_GetFlagStatus)
    i.USART_GetITStatus                      0x08002064   Section        0  stm32f10x_usart.o(i.USART_GetITStatus)
    i.USART_ITConfig                         0x080020b8   Section        0  stm32f10x_usart.o(i.USART_ITConfig)
    i.USART_Init                             0x08002104   Section        0  stm32f10x_usart.o(i.USART_Init)
    i.USART_Initializes                      0x080021dc   Section        0  bsp_usart.o(i.USART_Initializes)
    i.USART_ReceiveData                      0x080021e4   Section        0  stm32f10x_usart.o(i.USART_ReceiveData)
    i.USART_SendData                         0x080021ee   Section        0  stm32f10x_usart.o(i.USART_SendData)
    i.USB_LP_CAN1_RX0_IRQHandler             0x080021f8   Section        0  stm32f10x_it.o(i.USB_LP_CAN1_RX0_IRQHandler)
    i.UsageFault_Handler                     0x08002214   Section        0  stm32f10x_it.o(i.UsageFault_Handler)
    i._RxPDO_EventTimers_Handler             0x08002218   Section        0  pdo.o(i._RxPDO_EventTimers_Handler)
    i.__0printf$bare                         0x0800221c   Section        0  printfb.o(i.__0printf$bare)
    i.__scatterload_copy                     0x0800222c   Section       14  handlers.o(i.__scatterload_copy)
    i.__scatterload_null                     0x0800223a   Section        2  handlers.o(i.__scatterload_null)
    i.__scatterload_zeroinit                 0x0800223c   Section       14  handlers.o(i.__scatterload_zeroinit)
    i._getODentry                            0x0800224c   Section        0  objacces.o(i._getODentry)
    i._heartbeatError                        0x08002338   Section        0  lifegrd.o(i._heartbeatError)
    i._initialisation                        0x0800233a   Section        0  states.o(i._initialisation)
    i._nodeguardError                        0x0800233c   Section        0  lifegrd.o(i._nodeguardError)
    i._operational                           0x0800233e   Section        0  states.o(i._operational)
    i._post_SlaveBootup                      0x08002340   Section        0  lifegrd.o(i._post_SlaveBootup)
    i._post_SlaveStateChange                 0x08002342   Section        0  lifegrd.o(i._post_SlaveStateChange)
    i._post_TPDO                             0x08002344   Section        0  sync.o(i._post_TPDO)
    i._post_emcy                             0x08002346   Section        0  emcy.o(i._post_emcy)
    i._post_sync                             0x0800234c   Section        0  sync.o(i._post_sync)
    i._preOperational                        0x0800234e   Section        0  states.o(i._preOperational)
    i._printf_core                           0x08002364   Section        0  printfb.o(i._printf_core)
    _printf_core                             0x08002365   Thumb Code    34  printfb.o(i._printf_core)
    i._sendPDOevent                          0x08002386   Section        0  pdo.o(i._sendPDOevent)
    i._setODentry                            0x08002520   Section        0  objacces.o(i._setODentry)
    i._stopped                               0x08002658   Section        0  states.o(i._stopped)
    i._storeODSubIndex                       0x0800265a   Section        0  objacces.o(i._storeODSubIndex)
    i.accessDictionaryError                  0x08002660   Section        0  objacces.o(i.accessDictionaryError)
    i.buildPDO                               0x0800266a   Section        0  pdo.o(i.buildPDO)
    i.canDispatch                            0x08002758   Section        0  states.o(i.canDispatch)
    i.canSend                                0x080027f4   Section        0  canopen_drv.o(i.canSend)
    i.emergencyInit                          0x08002890   Section        0  emcy.o(i.emergencyInit)
    i.emergencyStop                          0x080028b0   Section        0  emcy.o(i.emergencyStop)
    i.failedSDO                              0x080028b2   Section        0  sdo.o(i.failedSDO)
    i.fputc                                  0x08002968   Section        0  bsp_usart.o(i.fputc)
    i.getElapsedTime                         0x08002978   Section        0  canopen_drv.o(i.getElapsedTime)
    i.getNodeId                              0x080029ac   Section        0  states.o(i.getNodeId)
    i.getSDOfreeLine                         0x080029b4   Section        0  sdo.o(i.getSDOfreeLine)
    i.getSDOlineOnUse                        0x080029f6   Section        0  sdo.o(i.getSDOlineOnUse)
    i.getSDOlineRestBytes                    0x08002a68   Section        0  sdo.o(i.getSDOlineRestBytes)
    i.getState                               0x08002ab2   Section        0  states.o(i.getState)
    i.heartbeatInit                          0x08002abc   Section        0  lifegrd.o(i.heartbeatInit)
    i.heartbeatStop                          0x08002b48   Section        0  lifegrd.o(i.heartbeatStop)
    i.initSDOline                            0x08002b80   Section        0  sdo.o(i.initSDOline)
    i.lifeGuardInit                          0x08002d44   Section        0  lifegrd.o(i.lifeGuardInit)
    i.lifeGuardStop                          0x08002d56   Section        0  lifegrd.o(i.lifeGuardStop)
    i.lineToSDO                              0x08002d68   Section        0  sdo.o(i.lineToSDO)
    i.main                                   0x08002e18   Section        0  main.o(i.main)
    i.masterSendNMTnodeguard                 0x08002e2a   Section        0  nmtmaster.o(i.masterSendNMTnodeguard)
    i.masterSendNMTstateChange               0x08002e50   Section        0  nmtmaster.o(i.masterSendNMTstateChange)
    i.nodeguardInit                          0x08002e7c   Section        0  lifegrd.o(i.nodeguardInit)
    i.nodeguardStop                          0x08002f04   Section        0  lifegrd.o(i.nodeguardStop)
    i.objdictToSDOline                       0x08002f16   Section        0  sdo.o(i.objdictToSDOline)
    i.proceedEMCY                            0x08002fa4   Section        0  emcy.o(i.proceedEMCY)
    i.proceedNMTstateChange                  0x08002fde   Section        0  nmtslave.o(i.proceedNMTstateChange)
    i.proceedNODE_GUARD                      0x080030c0   Section        0  lifegrd.o(i.proceedNODE_GUARD)
    i.proceedPDO                             0x080031d8   Section        0  pdo.o(i.proceedPDO)
    i.proceedSDO                             0x080034b4   Section        0  sdo.o(i.proceedSDO)
    i.proceedSYNC                            0x08005ffc   Section        0  sync.o(i.proceedSYNC)
    i.prvAddCurrentTaskToDelayedList         0x08006028   Section        0  tasks.o(i.prvAddCurrentTaskToDelayedList)
    prvAddCurrentTaskToDelayedList           0x08006029   Thumb Code   124  tasks.o(i.prvAddCurrentTaskToDelayedList)
    i.prvAddNewTaskToReadyList               0x080060c0   Section        0  tasks.o(i.prvAddNewTaskToReadyList)
    prvAddNewTaskToReadyList                 0x080060c1   Thumb Code   150  tasks.o(i.prvAddNewTaskToReadyList)
    i.prvCheckTasksWaitingTermination        0x08006174   Section        0  tasks.o(i.prvCheckTasksWaitingTermination)
    prvCheckTasksWaitingTermination          0x08006175   Thumb Code    60  tasks.o(i.prvCheckTasksWaitingTermination)
    i.prvCopyDataFromQueue                   0x080061bc   Section        0  queue.o(i.prvCopyDataFromQueue)
    prvCopyDataFromQueue                     0x080061bd   Thumb Code    42  queue.o(i.prvCopyDataFromQueue)
    i.prvCopyDataToQueue                     0x080061e6   Section        0  queue.o(i.prvCopyDataToQueue)
    prvCopyDataToQueue                       0x080061e7   Thumb Code   106  queue.o(i.prvCopyDataToQueue)
    i.prvDeleteTCB                           0x08006250   Section        0  tasks.o(i.prvDeleteTCB)
    prvDeleteTCB                             0x08006251   Thumb Code    18  tasks.o(i.prvDeleteTCB)
    i.prvHeapInit                            0x08006264   Section        0  heap_4.o(i.prvHeapInit)
    prvHeapInit                              0x08006265   Thumb Code    98  heap_4.o(i.prvHeapInit)
    i.prvIdleTask                            0x080062e0   Section        0  tasks.o(i.prvIdleTask)
    prvIdleTask                              0x080062e1   Thumb Code     8  tasks.o(i.prvIdleTask)
    i.prvInitialiseNewQueue                  0x080062e8   Section        0  queue.o(i.prvInitialiseNewQueue)
    prvInitialiseNewQueue                    0x080062e9   Thumb Code    38  queue.o(i.prvInitialiseNewQueue)
    i.prvInitialiseNewTask                   0x0800630e   Section        0  tasks.o(i.prvInitialiseNewTask)
    prvInitialiseNewTask                     0x0800630f   Thumb Code   188  tasks.o(i.prvInitialiseNewTask)
    i.prvInitialiseTaskLists                 0x080063cc   Section        0  tasks.o(i.prvInitialiseTaskLists)
    prvInitialiseTaskLists                   0x080063cd   Thumb Code    70  tasks.o(i.prvInitialiseTaskLists)
    i.prvInsertBlockIntoFreeList             0x08006434   Section        0  heap_4.o(i.prvInsertBlockIntoFreeList)
    prvInsertBlockIntoFreeList               0x08006435   Thumb Code    96  heap_4.o(i.prvInsertBlockIntoFreeList)
    i.prvIsQueueEmpty                        0x0800649c   Section        0  queue.o(i.prvIsQueueEmpty)
    prvIsQueueEmpty                          0x0800649d   Thumb Code    26  queue.o(i.prvIsQueueEmpty)
    i.prvIsQueueFull                         0x080064b6   Section        0  queue.o(i.prvIsQueueFull)
    prvIsQueueFull                           0x080064b7   Thumb Code    30  queue.o(i.prvIsQueueFull)
    i.prvResetNextTaskUnblockTime            0x080064d4   Section        0  tasks.o(i.prvResetNextTaskUnblockTime)
    prvResetNextTaskUnblockTime              0x080064d5   Thumb Code    42  tasks.o(i.prvResetNextTaskUnblockTime)
    i.prvTaskExitError                       0x08006508   Section        0  port.o(i.prvTaskExitError)
    prvTaskExitError                         0x08006509   Thumb Code    60  port.o(i.prvTaskExitError)
    i.prvUnlockQueue                         0x08006548   Section        0  queue.o(i.prvUnlockQueue)
    prvUnlockQueue                           0x08006549   Thumb Code   126  queue.o(i.prvUnlockQueue)
    i.pvPortMalloc                           0x080065c8   Section        0  heap_4.o(i.pvPortMalloc)
    i.pxPortInitialiseStack                  0x08006704   Section        0  port.o(i.pxPortInitialiseStack)
    i.resetSDO                               0x08006728   Section        0  sdo.o(i.resetSDO)
    i.resetSDOline                           0x08006742   Section        0  sdo.o(i.resetSDOline)
    i.sendOnePDOevent                        0x080067a4   Section        0  pdo.o(i.sendOnePDOevent)
    i.sendPdo                                0x080068fc   Section        0  pdo.o(i.sendPdo)
    sendPdo                                  0x080068fd   Thumb Code    44  pdo.o(i.sendPdo)
    i.sendSDO                                0x08006928   Section        0  sdo.o(i.sendSDO)
    i.sendSDOabort                           0x080069ca   Section        0  sdo.o(i.sendSDOabort)
    i.sendSYNC                               0x08006a1c   Section        0  sync.o(i.sendSYNC)
    i.sendSYNCMessage                        0x08006a32   Section        0  sync.o(i.sendSYNCMessage)
    i.setNodeId                              0x08006a58   Section        0  states.o(i.setNodeId)
    i.setSDOlineRestBytes                    0x08006c08   Section        0  sdo.o(i.setSDOlineRestBytes)
    i.setState                               0x08006c2c   Section        0  states.o(i.setState)
    i.setTimer                               0x08006cf8   Section        0  canopen_drv.o(i.setTimer)
    i.slaveSendBootUp                        0x08006d08   Section        0  nmtslave.o(i.slaveSendBootUp)
    i.startSYNC                              0x08006d38   Section        0  sync.o(i.startSYNC)
    i.stopSYNC                               0x08006dac   Section        0  sync.o(i.stopSYNC)
    i.switchCommunicationState               0x08006dda   Section        0  states.o(i.switchCommunicationState)
    i.uxListRemove                           0x08006ef6   Section        0  list.o(i.uxListRemove)
    i.vListInitialise                        0x08006f1e   Section        0  list.o(i.vListInitialise)
    i.vListInitialiseItem                    0x08006f38   Section        0  list.o(i.vListInitialiseItem)
    i.vListInsert                            0x08006f3e   Section        0  list.o(i.vListInsert)
    i.vListInsertEnd                         0x08006f72   Section        0  list.o(i.vListInsertEnd)
    i.vPortEnterCritical                     0x08006f8c   Section        0  port.o(i.vPortEnterCritical)
    i.vPortExitCritical                      0x08006fe0   Section        0  port.o(i.vPortExitCritical)
    i.vPortFree                              0x0800701c   Section        0  heap_4.o(i.vPortFree)
    i.vPortSetupTimerInterrupt               0x080070b0   Section        0  port.o(i.vPortSetupTimerInterrupt)
    i.vPortValidateInterruptPriority         0x080070c8   Section        0  port.o(i.vPortValidateInterruptPriority)
    i.vTaskDelay                             0x08007140   Section        0  tasks.o(i.vTaskDelay)
    i.vTaskInternalSetTimeOutState           0x0800719c   Section        0  tasks.o(i.vTaskInternalSetTimeOutState)
    i.vTaskMissedYield                       0x080071b4   Section        0  tasks.o(i.vTaskMissedYield)
    i.vTaskPlaceOnEventList                  0x080071c0   Section        0  tasks.o(i.vTaskPlaceOnEventList)
    i.vTaskStartScheduler                    0x080071f8   Section        0  tasks.o(i.vTaskStartScheduler)
    i.vTaskSuspendAll                        0x08007280   Section        0  tasks.o(i.vTaskSuspendAll)
    i.vTaskSwitchContext                     0x08007290   Section        0  tasks.o(i.vTaskSwitchContext)
    i.xPortStartScheduler                    0x0800731c   Section        0  port.o(i.xPortStartScheduler)
    i.xQueueGenericCreate                    0x080073e8   Section        0  queue.o(i.xQueueGenericCreate)
    i.xQueueGenericReset                     0x08007444   Section        0  queue.o(i.xQueueGenericReset)
    i.xQueueGenericSend                      0x080074dc   Section        0  queue.o(i.xQueueGenericSend)
    i.xQueueGenericSendFromISR               0x0800765c   Section        0  queue.o(i.xQueueGenericSendFromISR)
    i.xQueueReceive                          0x08007754   Section        0  queue.o(i.xQueueReceive)
    i.xTaskCheckForTimeOut                   0x08007894   Section        0  tasks.o(i.xTaskCheckForTimeOut)
    i.xTaskCreate                            0x08007920   Section        0  tasks.o(i.xTaskCreate)
    i.xTaskIncrementTick                     0x08007980   Section        0  tasks.o(i.xTaskIncrementTick)
    i.xTaskRemoveFromEventList               0x08007ac8   Section        0  tasks.o(i.xTaskRemoveFromEventList)
    i.xTaskResumeAll                         0x08007b60   Section        0  tasks.o(i.xTaskResumeAll)
    .constdata                               0x08007c64   Section       64  states.o(.constdata)
    .constdata                               0x08007ca4   Section      126  slave.o(.constdata)
    .data                                    0x20000000   Section       20  system_stm32f10x.o(.data)
    .data                                    0x20000014   Section       20  stm32f10x_rcc.o(.data)
    APBAHBPrescTable                         0x20000014   Data          16  stm32f10x_rcc.o(.data)
    ADCPrescTable                            0x20000024   Data           4  stm32f10x_rcc.o(.data)
    .data                                    0x20000028   Section       24  heap_4.o(.data)
    xStart                                   0x20000028   Data           8  heap_4.o(.data)
    pxEnd                                    0x20000030   Data           4  heap_4.o(.data)
    xFreeBytesRemaining                      0x20000034   Data           4  heap_4.o(.data)
    xMinimumEverFreeBytesRemaining           0x20000038   Data           4  heap_4.o(.data)
    xBlockAllocatedBit                       0x2000003c   Data           4  heap_4.o(.data)
    .data                                    0x20000040   Section       12  port.o(.data)
    uxCriticalNesting                        0x20000040   Data           4  port.o(.data)
    ucMaxSysCallPriority                     0x20000044   Data           1  port.o(.data)
    ulMaxPRIGROUPValue                       0x20000048   Data           4  port.o(.data)
    .data                                    0x2000004c   Section       60  tasks.o(.data)
    pxDelayedTaskList                        0x20000050   Data           4  tasks.o(.data)
    pxOverflowDelayedTaskList                0x20000054   Data           4  tasks.o(.data)
    uxDeletedTasksWaitingCleanUp             0x20000058   Data           4  tasks.o(.data)
    uxCurrentNumberOfTasks                   0x2000005c   Data           4  tasks.o(.data)
    xTickCount                               0x20000060   Data           4  tasks.o(.data)
    uxTopReadyPriority                       0x20000064   Data           4  tasks.o(.data)
    xSchedulerRunning                        0x20000068   Data           4  tasks.o(.data)
    uxPendedTicks                            0x2000006c   Data           4  tasks.o(.data)
    xYieldPending                            0x20000070   Data           4  tasks.o(.data)
    xNumOfOverflows                          0x20000074   Data           4  tasks.o(.data)
    uxTaskNumber                             0x20000078   Data           4  tasks.o(.data)
    xNextTaskUnblockTime                     0x2000007c   Data           4  tasks.o(.data)
    xIdleTaskHandle                          0x20000080   Data           4  tasks.o(.data)
    uxSchedulerSuspended                     0x20000084   Data           4  tasks.o(.data)
    .data                                    0x20000088   Section       12  timer.o(.data)
    .data                                    0x20000094   Section        1  stm32f10x_it.o(.data)
    Data                                     0x20000094   Data           1  stm32f10x_it.o(.data)
    .data                                    0x20000098   Section       20  canopen_drv.o(.data)
    xCANSendQueue                            0x20000098   Data           4  canopen_drv.o(.data)
    xCANRcvQueue                             0x2000009c   Data           4  canopen_drv.o(.data)
    last_counter_val                         0x200000a0   Data           4  canopen_drv.o(.data)
    elapsed_time                             0x200000a4   Data           4  canopen_drv.o(.data)
    xHigherPriorityTaskWoken                 0x200000a8   Data           4  canopen_drv.o(.data)
    .data                                    0x200000ac   Section     1344  slave.o(.data)
    .data                                    0x200005ec   Section        4  stdout.o(.data)
    .bss                                     0x200005f0   Section    10240  heap_4.o(.bss)
    ucHeap                                   0x200005f0   Data       10240  heap_4.o(.bss)
    .bss                                     0x20002df0   Section      740  tasks.o(.bss)
    pxReadyTasksLists                        0x20002df0   Data         640  tasks.o(.bss)
    xDelayedTaskList1                        0x20003070   Data          20  tasks.o(.bss)
    xDelayedTaskList2                        0x20003084   Data          20  tasks.o(.bss)
    xPendingReadyList                        0x20003098   Data          20  tasks.o(.bss)
    xTasksWaitingTermination                 0x200030ac   Data          20  tasks.o(.bss)
    xSuspendedTaskList                       0x200030c0   Data          20  tasks.o(.bss)
    .bss                                     0x200030d4   Section      192  timer.o(.bss)
    .bss                                     0x20003194   Section       20  stm32f10x_it.o(.bss)
    RxMsg                                    0x20003194   Data          20  stm32f10x_it.o(.bss)
    .bss                                     0x200031a8   Section       72  canopen_drv.o(.bss)
    TxMsg                                    0x200031a8   Data          20  canopen_drv.o(.bss)
    RxMsg                                    0x200031bc   Data          20  canopen_drv.o(.bss)
    msg                                      0x200031d0   Data          12  canopen_drv.o(.bss)
    TxMsg                                    0x200031dc   Data          20  canopen_drv.o(.bss)
    STACK                                    0x200031f0   Section     2048  startup_stm32f10x_hd.o(STACK)

    Global Symbols

    Symbol Name                              Value     Ov Type        Size  Object(Section)

    BuildAttributes$$THM_ISAv4$P$D$K$B$S$PE$A:L22UL41UL21$X:L11$S22US41US21$IEEE1$IW$USESV6$~STKCKD$USESV7$~SHL$OTIME$ROPI$EBA8$MICROLIB$REQ8$PRES8$EABIv2 0x00000000   Number         0  anon$$obj.o ABSOLUTE
    __ARM_use_no_argv                        0x00000000   Number         0  main.o ABSOLUTE
    __cpp_initialize__aeabi_                  - Undefined Weak Reference
    __cxa_finalize                            - Undefined Weak Reference
    _clock_init                               - Undefined Weak Reference
    _microlib_exit                            - Undefined Weak Reference
    __Vectors_Size                           0x00000130   Number         0  startup_stm32f10x_hd.o ABSOLUTE
    __Vectors                                0x08000000   Data           4  startup_stm32f10x_hd.o(RESET)
    __Vectors_End                            0x08000130   Data           0  startup_stm32f10x_hd.o(RESET)
    __main                                   0x08000131   Thumb Code     0  entry.o(.ARM.Collect$$$$00000000)
    _main_stk                                0x08000131   Thumb Code     0  entry2.o(.ARM.Collect$$$$00000001)
    _main_scatterload                        0x08000135   Thumb Code     0  entry5.o(.ARM.Collect$$$$00000004)
    __main_after_scatterload                 0x08000139   Thumb Code     0  entry5.o(.ARM.Collect$$$$00000004)
    _main_clock                              0x08000139   Thumb Code     0  entry7b.o(.ARM.Collect$$$$00000008)
    _main_cpp_init                           0x08000139   Thumb Code     0  entry8b.o(.ARM.Collect$$$$0000000A)
    _main_init                               0x08000139   Thumb Code     0  entry9a.o(.ARM.Collect$$$$0000000B)
    __rt_final_cpp                           0x08000141   Thumb Code     0  entry10a.o(.ARM.Collect$$$$0000000D)
    __rt_final_exit                          0x08000141   Thumb Code     0  entry11a.o(.ARM.Collect$$$$0000000F)
    SVC_Handler                              0x08000145   Thumb Code    32  port.o(.emb_text)
    __asm___6_port_c_39a90d8d__prvStartFirstTask 0x08000169   Thumb Code    28  port.o(.emb_text)
    PendSV_Handler                           0x08000189   Thumb Code    72  port.o(.emb_text)
    vPortGetIPSR                             0x080001d5   Thumb Code     6  port.o(.emb_text)
    Reset_Handler                            0x080001dd   Thumb Code     8  startup_stm32f10x_hd.o(.text)
    ADC1_2_IRQHandler                        0x080001f7   Thumb Code     0  startup_stm32f10x_hd.o(.text)
    ADC3_IRQHandler                          0x080001f7   Thumb Code     0  startup_stm32f10x_hd.o(.text)
    CAN1_RX1_IRQHandler                      0x080001f7   Thumb Code     0  startup_stm32f10x_hd.o(.text)
    CAN1_SCE_IRQHandler                      0x080001f7   Thumb Code     0  startup_stm32f10x_hd.o(.text)
    DMA1_Channel1_IRQHandler                 0x080001f7   Thumb Code     0  startup_stm32f10x_hd.o(.text)
    DMA1_Channel2_IRQHandler                 0x080001f7   Thumb Code     0  startup_stm32f10x_hd.o(.text)
    DMA1_Channel3_IRQHandler                 0x080001f7   Thumb Code     0  startup_stm32f10x_hd.o(.text)
    DMA1_Channel4_IRQHandler                 0x080001f7   Thumb Code     0  startup_stm32f10x_hd.o(.text)
    DMA1_Channel5_IRQHandler                 0x080001f7   Thumb Code     0  startup_stm32f10x_hd.o(.text)
    DMA1_Channel6_IRQHandler                 0x080001f7   Thumb Code     0  startup_stm32f10x_hd.o(.text)
    DMA1_Channel7_IRQHandler                 0x080001f7   Thumb Code     0  startup_stm32f10x_hd.o(.text)
    DMA2_Channel1_IRQHandler                 0x080001f7   Thumb Code     0  startup_stm32f10x_hd.o(.text)
    DMA2_Channel2_IRQHandler                 0x080001f7   Thumb Code     0  startup_stm32f10x_hd.o(.text)
    DMA2_Channel3_IRQHandler                 0x080001f7   Thumb Code     0  startup_stm32f10x_hd.o(.text)
    DMA2_Channel4_5_IRQHandler               0x080001f7   Thumb Code     0  startup_stm32f10x_hd.o(.text)
    EXTI0_IRQHandler                         0x080001f7   Thumb Code     0  startup_stm32f10x_hd.o(.text)
    EXTI15_10_IRQHandler                     0x080001f7   Thumb Code     0  startup_stm32f10x_hd.o(.text)
    EXTI1_IRQHandler                         0x080001f7   Thumb Code     0  startup_stm32f10x_hd.o(.text)
    EXTI2_IRQHandler                         0x080001f7   Thumb Code     0  startup_stm32f10x_hd.o(.text)
    EXTI3_IRQHandler                         0x080001f7   Thumb Code     0  startup_stm32f10x_hd.o(.text)
    EXTI4_IRQHandler                         0x080001f7   Thumb Code     0  startup_stm32f10x_hd.o(.text)
    EXTI9_5_IRQHandler                       0x080001f7   Thumb Code     0  startup_stm32f10x_hd.o(.text)
    FLASH_IRQHandler                         0x080001f7   Thumb Code     0  startup_stm32f10x_hd.o(.text)
    FSMC_IRQHandler                          0x080001f7   Thumb Code     0  startup_stm32f10x_hd.o(.text)
    I2C1_ER_IRQHandler                       0x080001f7   Thumb Code     0  startup_stm32f10x_hd.o(.text)
    I2C1_EV_IRQHandler                       0x080001f7   Thumb Code     0  startup_stm32f10x_hd.o(.text)
    I2C2_ER_IRQHandler                       0x080001f7   Thumb Code     0  startup_stm32f10x_hd.o(.text)
    I2C2_EV_IRQHandler                       0x080001f7   Thumb Code     0  startup_stm32f10x_hd.o(.text)
    PVD_IRQHandler                           0x080001f7   Thumb Code     0  startup_stm32f10x_hd.o(.text)
    RCC_IRQHandler                           0x080001f7   Thumb Code     0  startup_stm32f10x_hd.o(.text)
    RTCAlarm_IRQHandler                      0x080001f7   Thumb Code     0  startup_stm32f10x_hd.o(.text)
    RTC_IRQHandler                           0x080001f7   Thumb Code     0  startup_stm32f10x_hd.o(.text)
    SDIO_IRQHandler                          0x080001f7   Thumb Code     0  startup_stm32f10x_hd.o(.text)
    SPI1_IRQHandler                          0x080001f7   Thumb Code     0  startup_stm32f10x_hd.o(.text)
    SPI2_IRQHandler                          0x080001f7   Thumb Code     0  startup_stm32f10x_hd.o(.text)
    SPI3_IRQHandler                          0x080001f7   Thumb Code     0  startup_stm32f10x_hd.o(.text)
    TAMPER_IRQHandler                        0x080001f7   Thumb Code     0  startup_stm32f10x_hd.o(.text)
    TIM1_BRK_IRQHandler                      0x080001f7   Thumb Code     0  startup_stm32f10x_hd.o(.text)
    TIM1_CC_IRQHandler                       0x080001f7   Thumb Code     0  startup_stm32f10x_hd.o(.text)
    TIM1_TRG_COM_IRQHandler                  0x080001f7   Thumb Code     0  startup_stm32f10x_hd.o(.text)
    TIM1_UP_IRQHandler                       0x080001f7   Thumb Code     0  startup_stm32f10x_hd.o(.text)
    TIM3_IRQHandler                          0x080001f7   Thumb Code     0  startup_stm32f10x_hd.o(.text)
    TIM4_IRQHandler                          0x080001f7   Thumb Code     0  startup_stm32f10x_hd.o(.text)
    TIM5_IRQHandler                          0x080001f7   Thumb Code     0  startup_stm32f10x_hd.o(.text)
    TIM6_IRQHandler                          0x080001f7   Thumb Code     0  startup_stm32f10x_hd.o(.text)
    TIM7_IRQHandler                          0x080001f7   Thumb Code     0  startup_stm32f10x_hd.o(.text)
    TIM8_BRK_IRQHandler                      0x080001f7   Thumb Code     0  startup_stm32f10x_hd.o(.text)
    TIM8_CC_IRQHandler                       0x080001f7   Thumb Code     0  startup_stm32f10x_hd.o(.text)
    TIM8_TRG_COM_IRQHandler                  0x080001f7   Thumb Code     0  startup_stm32f10x_hd.o(.text)
    TIM8_UP_IRQHandler                       0x080001f7   Thumb Code     0  startup_stm32f10x_hd.o(.text)
    UART4_IRQHandler                         0x080001f7   Thumb Code     0  startup_stm32f10x_hd.o(.text)
    UART5_IRQHandler                         0x080001f7   Thumb Code     0  startup_stm32f10x_hd.o(.text)
    USART2_IRQHandler                        0x080001f7   Thumb Code     0  startup_stm32f10x_hd.o(.text)
    USART3_IRQHandler                        0x080001f7   Thumb Code     0  startup_stm32f10x_hd.o(.text)
    USBWakeUp_IRQHandler                     0x080001f7   Thumb Code     0  startup_stm32f10x_hd.o(.text)
    USB_HP_CAN1_TX_IRQHandler                0x080001f7   Thumb Code     0  startup_stm32f10x_hd.o(.text)
    WWDG_IRQHandler                          0x080001f7   Thumb Code     0  startup_stm32f10x_hd.o(.text)
    __aeabi_memcpy                           0x08000201   Thumb Code    36  memcpya.o(.text)
    __aeabi_memcpy4                          0x08000201   Thumb Code     0  memcpya.o(.text)
    __aeabi_memcpy8                          0x08000201   Thumb Code     0  memcpya.o(.text)
    memcmp                                   0x08000225   Thumb Code    26  memcmp.o(.text)
    __aeabi_dadd                             0x0800023f   Thumb Code   322  dadd.o(.text)
    __aeabi_dsub                             0x08000381   Thumb Code     6  dadd.o(.text)
    __aeabi_drsub                            0x08000387   Thumb Code     6  dadd.o(.text)
    __aeabi_f2d                              0x0800038d   Thumb Code    38  f2d.o(.text)
    __aeabi_d2f                              0x080003b3   Thumb Code    56  d2f.o(.text)
    __aeabi_llsl                             0x080003eb   Thumb Code    30  llshl.o(.text)
    _ll_shift_l                              0x080003eb   Thumb Code     0  llshl.o(.text)
    __aeabi_lasr                             0x08000409   Thumb Code    36  llsshr.o(.text)
    _ll_sshift_r                             0x08000409   Thumb Code     0  llsshr.o(.text)
    __I$use$fp                               0x0800042d   Thumb Code     0  iusefp.o(.text)
    _float_round                             0x0800042d   Thumb Code    18  fepilogue.o(.text)
    _float_epilogue                          0x0800043f   Thumb Code    92  fepilogue.o(.text)
    _double_round                            0x0800049b   Thumb Code    30  depilogue.o(.text)
    _double_epilogue                         0x080004b9   Thumb Code   156  depilogue.o(.text)
    __scatterload                            0x08000555   Thumb Code    28  init.o(.text)
    __scatterload_rt2                        0x08000555   Thumb Code     0  init.o(.text)
    __aeabi_llsr                             0x08000579   Thumb Code    32  llushr.o(.text)
    _ll_ushift_r                             0x08000579   Thumb Code     0  llushr.o(.text)
    __decompress                             0x08000599   Thumb Code     0  __dczerorl2.o(.text)
    __decompress1                            0x08000599   Thumb Code    86  __dczerorl2.o(.text)
    AppTaskCreate                            0x0800061d   Thumb Code    40  app.o(i.AppTaskCreate)
    BSP_Init                                 0x0800066d   Thumb Code    20  bsp.o(i.BSP_Init)
    BusFault_Handler                         0x08000681   Thumb Code     4  stm32f10x_it.o(i.BusFault_Handler)
    CANOpen_App_Init                         0x08000685   Thumb Code    38  canopen_app.o(i.CANOpen_App_Init)
    CANOpen_Driver_Init                      0x0800073d   Thumb Code   146  canopen_drv.o(i.CANOpen_Driver_Init)
    CANOpen_TIM_Configuration                0x0800086d   Thumb Code   126  bsp_timer.o(i.CANOpen_TIM_Configuration)
    CANRcv_DateFromISR                       0x080008f5   Thumb Code    48  canopen_drv.o(i.CANRcv_DateFromISR)
    CAN_Configuration                        0x080009f1   Thumb Code   166  bsp_can.o(i.CAN_Configuration)
    CAN_FilterInit                           0x08000a9d   Thumb Code   258  stm32f10x_can.o(i.CAN_FilterInit)
    CAN_GPIO_Configuration                   0x08000ba5   Thumb Code    72  bsp_can.o(i.CAN_GPIO_Configuration)
    CAN_ITConfig                             0x08000bf1   Thumb Code    18  stm32f10x_can.o(i.CAN_ITConfig)
    CAN_Init                                 0x08000c03   Thumb Code   276  stm32f10x_can.o(i.CAN_Init)
    CAN_Initializes                          0x08000d17   Thumb Code    12  bsp_can.o(i.CAN_Initializes)
    CAN_Receive                              0x08000d23   Thumb Code   240  stm32f10x_can.o(i.CAN_Receive)
    CAN_Transmit                             0x08000e13   Thumb Code   294  stm32f10x_can.o(i.CAN_Transmit)
    ConsumerHeartbeatAlarm                   0x08000f39   Thumb Code    50  lifegrd.o(i.ConsumerHeartbeatAlarm)
    CopyBits                                 0x08000f6b   Thumb Code   236  pdo.o(i.CopyBits)
    DEBUG_SendByte                           0x08001059   Thumb Code    28  bsp_usart.o(i.DEBUG_SendByte)
    DebugMon_Handler                         0x08001079   Thumb Code     2  stm32f10x_it.o(i.DebugMon_Handler)
    DelAlarm                                 0x0800107d   Thumb Code    46  timer.o(i.DelAlarm)
    GPIO_Init                                0x080010b5   Thumb Code   278  stm32f10x_gpio.o(i.GPIO_Init)
    GPIO_PinRemapConfig                      0x080011cd   Thumb Code   138  stm32f10x_gpio.o(i.GPIO_PinRemapConfig)
    GPIO_ResetBits                           0x0800125d   Thumb Code     4  stm32f10x_gpio.o(i.GPIO_ResetBits)
    GPIO_SetBits                             0x08001261   Thumb Code     4  stm32f10x_gpio.o(i.GPIO_SetBits)
    GuardTimeAlarm                           0x08001265   Thumb Code   118  lifegrd.o(i.GuardTimeAlarm)
    HardFault_Handler                        0x080012db   Thumb Code     4  stm32f10x_it.o(i.HardFault_Handler)
    LED_Initializes                          0x080012e1   Thumb Code    50  bsp.o(i.LED_Initializes)
    MemManage_Handler                        0x08001319   Thumb Code     4  stm32f10x_it.o(i.MemManage_Handler)
    NMI_Handler                              0x0800131d   Thumb Code     2  stm32f10x_it.o(i.NMI_Handler)
    NVIC_Init                                0x08001321   Thumb Code   100  misc.o(i.NVIC_Init)
    NVIC_PriorityGroupConfig                 0x08001391   Thumb Code    10  misc.o(i.NVIC_PriorityGroupConfig)
    NVIC_SetVectorTable                      0x080013a5   Thumb Code    12  misc.o(i.NVIC_SetVectorTable)
    OnCOB_ID_SyncUpdate                      0x080013b9   Thumb Code    18  sync.o(i.OnCOB_ID_SyncUpdate)
    OnHeartbeatProducerUpdate                0x080013cd   Thumb Code    64  lifegrd.o(i.OnHeartbeatProducerUpdate)
    OnNodeGuardUpdate                        0x08001411   Thumb Code    24  lifegrd.o(i.OnNodeGuardUpdate)
    OnNumberOfErrorsUpdate                   0x08001429   Thumb Code    44  emcy.o(i.OnNumberOfErrorsUpdate)
    PDOEventTimerAlarm                       0x08001455   Thumb Code    46  pdo.o(i.PDOEventTimerAlarm)
    PDOInhibitTimerAlarm                     0x08001483   Thumb Code    56  pdo.o(i.PDOInhibitTimerAlarm)
    PDOInit                                  0x080014bd   Thumb Code    82  pdo.o(i.PDOInit)
    PDOStop                                  0x08001515   Thumb Code   120  pdo.o(i.PDOStop)
    ProducerHeartbeatAlarm                   0x0800158d   Thumb Code    72  lifegrd.o(i.ProducerHeartbeatAlarm)
    RCC_APB1PeriphClockCmd                   0x080015d5   Thumb Code    26  stm32f10x_rcc.o(i.RCC_APB1PeriphClockCmd)
    RCC_APB2PeriphClockCmd                   0x080015f5   Thumb Code    26  stm32f10x_rcc.o(i.RCC_APB2PeriphClockCmd)
    RCC_GetClocksFreq                        0x08001615   Thumb Code   192  stm32f10x_rcc.o(i.RCC_GetClocksFreq)
    RegisterSetODentryCallBack               0x080016e9   Thumb Code    50  objacces.o(i.RegisterSetODentryCallBack)
    SDOTimeoutAlarm                          0x0800171d   Thumb Code   298  sdo.o(i.SDOTimeoutAlarm)
    SDOlineToObjdict                         0x0800184d   Thumb Code   172  sdo.o(i.SDOlineToObjdict)
    SDOtoLine                                0x080018f9   Thumb Code   134  sdo.o(i.SDOtoLine)
    SetAlarm                                 0x08001981   Thumb Code   170  timer.o(i.SetAlarm)
    Slave_scanIndexOD                        0x08001b21   Thumb Code   168  slave.o(i.Slave_scanIndexOD)
    Slave_valueRangeTest                     0x08001bd1   Thumb Code    22  slave.o(i.Slave_valueRangeTest)
    SyncAlarm                                0x08001bed   Thumb Code    14  sync.o(i.SyncAlarm)
    SysInit                                  0x08001bfb   Thumb Code    22  main.o(i.SysInit)
    SysTick_Handler                          0x08001c11   Thumb Code    46  port.o(i.SysTick_Handler)
    SystemInit                               0x08001c45   Thumb Code    78  system_stm32f10x.o(i.SystemInit)
    TIM2_IRQHandler                          0x08001ca5   Thumb Code    26  stm32f10x_it.o(i.TIM2_IRQHandler)
    TIM_ClearFlag                            0x08001cbf   Thumb Code     6  stm32f10x_tim.o(i.TIM_ClearFlag)
    TIM_ClearITPendingBit                    0x08001cc5   Thumb Code     6  stm32f10x_tim.o(i.TIM_ClearITPendingBit)
    TIM_Cmd                                  0x08001ccb   Thumb Code    24  stm32f10x_tim.o(i.TIM_Cmd)
    TIM_GetCounter                           0x08001ce3   Thumb Code     6  stm32f10x_tim.o(i.TIM_GetCounter)
    TIM_GetITStatus                          0x08001ce9   Thumb Code    34  stm32f10x_tim.o(i.TIM_GetITStatus)
    TIM_ITConfig                             0x08001d0b   Thumb Code    18  stm32f10x_tim.o(i.TIM_ITConfig)
    TIM_Initializes                          0x08001d1d   Thumb Code     8  bsp_timer.o(i.TIM_Initializes)
    TIM_SetAutoreload                        0x08001d25   Thumb Code     4  stm32f10x_tim.o(i.TIM_SetAutoreload)
    TIM_SetCounter                           0x08001d29   Thumb Code     4  stm32f10x_tim.o(i.TIM_SetCounter)
    TIM_TimeBaseInit                         0x08001d2d   Thumb Code   122  stm32f10x_tim.o(i.TIM_TimeBaseInit)
    TIMx_DispatchFromISR                     0x08001dd1   Thumb Code    18  canopen_drv.o(i.TIMx_DispatchFromISR)
    TPDO_Communication_Parameter_Callback    0x08001ded   Thumb Code   148  pdo.o(i.TPDO_Communication_Parameter_Callback)
    TimeDispatch                             0x08001e81   Thumb Code   178  timer.o(i.TimeDispatch)
    UART_DEBUG_Configuration                 0x08001f41   Thumb Code   170  bsp_usart.o(i.UART_DEBUG_Configuration)
    USART1_IRQHandler                        0x08001ff5   Thumb Code    36  stm32f10x_it.o(i.USART1_IRQHandler)
    USART_ClearFlag                          0x08002021   Thumb Code    18  stm32f10x_usart.o(i.USART_ClearFlag)
    USART_Cmd                                0x08002033   Thumb Code    24  stm32f10x_usart.o(i.USART_Cmd)
    USART_GetFlagStatus                      0x0800204b   Thumb Code    26  stm32f10x_usart.o(i.USART_GetFlagStatus)
    USART_GetITStatus                        0x08002065   Thumb Code    84  stm32f10x_usart.o(i.USART_GetITStatus)
    USART_ITConfig                           0x080020b9   Thumb Code    74  stm32f10x_usart.o(i.USART_ITConfig)
    USART_Init                               0x08002105   Thumb Code   210  stm32f10x_usart.o(i.USART_Init)
    USART_Initializes                        0x080021dd   Thumb Code     8  bsp_usart.o(i.USART_Initializes)
    USART_ReceiveData                        0x080021e5   Thumb Code    10  stm32f10x_usart.o(i.USART_ReceiveData)
    USART_SendData                           0x080021ef   Thumb Code     8  stm32f10x_usart.o(i.USART_SendData)
    USB_LP_CAN1_RX0_IRQHandler               0x080021f9   Thumb Code    20  stm32f10x_it.o(i.USB_LP_CAN1_RX0_IRQHandler)
    UsageFault_Handler                       0x08002215   Thumb Code     4  stm32f10x_it.o(i.UsageFault_Handler)
    _RxPDO_EventTimers_Handler               0x08002219   Thumb Code     2  pdo.o(i._RxPDO_EventTimers_Handler)
    __0printf$bare                           0x0800221d   Thumb Code     8  printfb.o(i.__0printf$bare)
    __1printf$bare                           0x0800221d   Thumb Code     0  printfb.o(i.__0printf$bare)
    __2printf                                0x0800221d   Thumb Code     0  printfb.o(i.__0printf$bare)
    __scatterload_copy                       0x0800222d   Thumb Code    14  handlers.o(i.__scatterload_copy)
    __scatterload_null                       0x0800223b   Thumb Code     2  handlers.o(i.__scatterload_null)
    __scatterload_zeroinit                   0x0800223d   Thumb Code    14  handlers.o(i.__scatterload_zeroinit)
    _getODentry                              0x0800224d   Thumb Code   224  objacces.o(i._getODentry)
    _heartbeatError                          0x08002339   Thumb Code     2  lifegrd.o(i._heartbeatError)
    _initialisation                          0x0800233b   Thumb Code     2  states.o(i._initialisation)
    _nodeguardError                          0x0800233d   Thumb Code     2  lifegrd.o(i._nodeguardError)
    _operational                             0x0800233f   Thumb Code     2  states.o(i._operational)
    _post_SlaveBootup                        0x08002341   Thumb Code     2  lifegrd.o(i._post_SlaveBootup)
    _post_SlaveStateChange                   0x08002343   Thumb Code     2  lifegrd.o(i._post_SlaveStateChange)
    _post_TPDO                               0x08002345   Thumb Code     2  sync.o(i._post_TPDO)
    _post_emcy                               0x08002347   Thumb Code     6  emcy.o(i._post_emcy)
    _post_sync                               0x0800234d   Thumb Code     2  sync.o(i._post_sync)
    _preOperational                          0x0800234f   Thumb Code    22  states.o(i._preOperational)
    _sendPDOevent                            0x08002387   Thumb Code   408  pdo.o(i._sendPDOevent)
    _setODentry                              0x08002521   Thumb Code   298  objacces.o(i._setODentry)
    _stopped                                 0x08002659   Thumb Code     2  states.o(i._stopped)
    _storeODSubIndex                         0x0800265b   Thumb Code     6  objacces.o(i._storeODSubIndex)
    accessDictionaryError                    0x08002661   Thumb Code    10  objacces.o(i.accessDictionaryError)
    buildPDO                                 0x0800266b   Thumb Code   238  pdo.o(i.buildPDO)
    canDispatch                              0x08002759   Thumb Code   154  states.o(i.canDispatch)
    canSend                                  0x080027f5   Thumb Code   144  canopen_drv.o(i.canSend)
    emergencyInit                            0x08002891   Thumb Code    28  emcy.o(i.emergencyInit)
    emergencyStop                            0x080028b1   Thumb Code     2  emcy.o(i.emergencyStop)
    failedSDO                                0x080028b3   Thumb Code   182  sdo.o(i.failedSDO)
    fputc                                    0x08002969   Thumb Code    16  bsp_usart.o(i.fputc)
    getElapsedTime                           0x08002979   Thumb Code    42  canopen_drv.o(i.getElapsedTime)
    getNodeId                                0x080029ad   Thumb Code     8  states.o(i.getNodeId)
    getSDOfreeLine                           0x080029b5   Thumb Code    66  sdo.o(i.getSDOfreeLine)
    getSDOlineOnUse                          0x080029f7   Thumb Code   114  sdo.o(i.getSDOlineOnUse)
    getSDOlineRestBytes                      0x08002a69   Thumb Code    74  sdo.o(i.getSDOlineRestBytes)
    getState                                 0x08002ab3   Thumb Code     8  states.o(i.getState)
    heartbeatInit                            0x08002abd   Thumb Code   126  lifegrd.o(i.heartbeatInit)
    heartbeatStop                            0x08002b49   Thumb Code    56  lifegrd.o(i.heartbeatStop)
    initSDOline                              0x08002b81   Thumb Code   444  sdo.o(i.initSDOline)
    lifeGuardInit                            0x08002d45   Thumb Code    18  lifegrd.o(i.lifeGuardInit)
    lifeGuardStop                            0x08002d57   Thumb Code    18  lifegrd.o(i.lifeGuardStop)
    lineToSDO                                0x08002d69   Thumb Code   176  sdo.o(i.lineToSDO)
    main                                     0x08002e19   Thumb Code    18  main.o(i.main)
    masterSendNMTnodeguard                   0x08002e2b   Thumb Code    38  nmtmaster.o(i.masterSendNMTnodeguard)
    masterSendNMTstateChange                 0x08002e51   Thumb Code    44  nmtmaster.o(i.masterSendNMTstateChange)
    nodeguardInit                            0x08002e7d   Thumb Code   126  lifegrd.o(i.nodeguardInit)
    nodeguardStop                            0x08002f05   Thumb Code    18  lifegrd.o(i.nodeguardStop)
    objdictToSDOline                         0x08002f17   Thumb Code   142  sdo.o(i.objdictToSDOline)
    proceedEMCY                              0x08002fa5   Thumb Code    58  emcy.o(i.proceedEMCY)
    proceedNMTstateChange                    0x08002fdf   Thumb Code   224  nmtslave.o(i.proceedNMTstateChange)
    proceedNODE_GUARD                        0x080030c1   Thumb Code   274  lifegrd.o(i.proceedNODE_GUARD)
    proceedPDO                               0x080031d9   Thumb Code   730  pdo.o(i.proceedPDO)
    proceedSDO                               0x080034b5   Thumb Code 11072  sdo.o(i.proceedSDO)
    proceedSYNC                              0x08005ffd   Thumb Code    44  sync.o(i.proceedSYNC)
    pvPortMalloc                             0x080065c9   Thumb Code   296  heap_4.o(i.pvPortMalloc)
    pxPortInitialiseStack                    0x08006705   Thumb Code    30  port.o(i.pxPortInitialiseStack)
    resetSDO                                 0x08006729   Thumb Code    26  sdo.o(i.resetSDO)
    resetSDOline                             0x08006743   Thumb Code    96  sdo.o(i.resetSDOline)
    sendOnePDOevent                          0x080067a5   Thumb Code   336  pdo.o(i.sendOnePDOevent)
    sendSDO                                  0x08006929   Thumb Code   162  sdo.o(i.sendSDO)
    sendSDOabort                             0x080069cb   Thumb Code    82  sdo.o(i.sendSDOabort)
    sendSYNC                                 0x08006a1d   Thumb Code    22  sync.o(i.sendSYNC)
    sendSYNCMessage                          0x08006a33   Thumb Code    38  sync.o(i.sendSYNCMessage)
    setNodeId                                0x08006a59   Thumb Code   428  states.o(i.setNodeId)
    setSDOlineRestBytes                      0x08006c09   Thumb Code    34  sdo.o(i.setSDOlineRestBytes)
    setState                                 0x08006c2d   Thumb Code   200  states.o(i.setState)
    setTimer                                 0x08006cf9   Thumb Code    16  canopen_drv.o(i.setTimer)
    slaveSendBootUp                          0x08006d09   Thumb Code    46  nmtslave.o(i.slaveSendBootUp)
    startSYNC                                0x08006d39   Thumb Code   108  sync.o(i.startSYNC)
    stopSYNC                                 0x08006dad   Thumb Code    46  sync.o(i.stopSYNC)
    switchCommunicationState                 0x08006ddb   Thumb Code   284  states.o(i.switchCommunicationState)
    uxListRemove                             0x08006ef7   Thumb Code    40  list.o(i.uxListRemove)
    vListInitialise                          0x08006f1f   Thumb Code    26  list.o(i.vListInitialise)
    vListInitialiseItem                      0x08006f39   Thumb Code     6  list.o(i.vListInitialiseItem)
    vListInsert                              0x08006f3f   Thumb Code    52  list.o(i.vListInsert)
    vListInsertEnd                           0x08006f73   Thumb Code    24  list.o(i.vListInsertEnd)
    vPortEnterCritical                       0x08006f8d   Thumb Code    76  port.o(i.vPortEnterCritical)
    vPortExitCritical                        0x08006fe1   Thumb Code    56  port.o(i.vPortExitCritical)
    vPortFree                                0x0800701d   Thumb Code   140  heap_4.o(i.vPortFree)
    vPortSetupTimerInterrupt                 0x080070b1   Thumb Code    20  port.o(i.vPortSetupTimerInterrupt)
    vPortValidateInterruptPriority           0x080070c9   Thumb Code   106  port.o(i.vPortValidateInterruptPriority)
    vTaskDelay                               0x08007141   Thumb Code    82  tasks.o(i.vTaskDelay)
    vTaskInternalSetTimeOutState             0x0800719d   Thumb Code    14  tasks.o(i.vTaskInternalSetTimeOutState)
    vTaskMissedYield                         0x080071b5   Thumb Code     8  tasks.o(i.vTaskMissedYield)
    vTaskPlaceOnEventList                    0x080071c1   Thumb Code    52  tasks.o(i.vTaskPlaceOnEventList)
    vTaskStartScheduler                      0x080071f9   Thumb Code   108  tasks.o(i.vTaskStartScheduler)
    vTaskSuspendAll                          0x08007281   Thumb Code    12  tasks.o(i.vTaskSuspendAll)
    vTaskSwitchContext                       0x08007291   Thumb Code   118  tasks.o(i.vTaskSwitchContext)
    xPortStartScheduler                      0x0800731d   Thumb Code   182  port.o(i.xPortStartScheduler)
    xQueueGenericCreate                      0x080073e9   Thumb Code    90  queue.o(i.xQueueGenericCreate)
    xQueueGenericReset                       0x08007445   Thumb Code   146  queue.o(i.xQueueGenericReset)
    xQueueGenericSend                        0x080074dd   Thumb Code   380  queue.o(i.xQueueGenericSend)
    xQueueGenericSendFromISR                 0x0800765d   Thumb Code   248  queue.o(i.xQueueGenericSendFromISR)
    xQueueReceive                            0x08007755   Thumb Code   316  queue.o(i.xQueueReceive)
    xTaskCheckForTimeOut                     0x08007895   Thumb Code   132  tasks.o(i.xTaskCheckForTimeOut)
    xTaskCreate                              0x08007921   Thumb Code    96  tasks.o(i.xTaskCreate)
    xTaskIncrementTick                       0x08007981   Thumb Code   282  tasks.o(i.xTaskIncrementTick)
    xTaskRemoveFromEventList                 0x08007ac9   Thumb Code   128  tasks.o(i.xTaskRemoveFromEventList)
    xTaskResumeAll                           0x08007b61   Thumb Code   224  tasks.o(i.xTaskResumeAll)
    Slave_iam_a_slave                        0x08007ca4   Data           1  slave.o(.constdata)
    Slave_objdict                            0x08007ca8   Data          96  slave.o(.constdata)
    Slave_firstIndex                         0x08007d08   Data          12  slave.o(.constdata)
    Slave_lastIndex                          0x08007d14   Data          12  slave.o(.constdata)
    Slave_ObjdictSize                        0x08007d20   Data           2  slave.o(.constdata)
    Region$$Table$$Base                      0x08007d24   Number         0  anon$$obj.o(Region$$Table)
    Region$$Table$$Limit                     0x08007d44   Number         0  anon$$obj.o(Region$$Table)
    SystemCoreClock                          0x20000000   Data           4  system_stm32f10x.o(.data)
    AHBPrescTable                            0x20000004   Data          16  system_stm32f10x.o(.data)
    pxCurrentTCB                             0x2000004c   Data           4  tasks.o(.data)
    total_sleep_time                         0x20000088   Data           4  timer.o(.data)
    last_timer_raw                           0x2000008c   Data           2  timer.o(.data)
    tdcount                                  0x20000090   Data           4  timer.o(.data)
    Temperture                               0x200000ac   Data           4  slave.o(.data)
    ctr_para                                 0x200000b0   Data           1  slave.o(.data)
    sdo_test                                 0x200000b1   Data           1  slave.o(.data)
    Slave_bDeviceNodeId                      0x200000b2   Data           1  slave.o(.data)
    Slave_heartBeatTimers                    0x200000b4   Data           2  slave.o(.data)
    Slave_obj1000                            0x200000b8   Data           4  slave.o(.data)
    Slave_Index1000                          0x200000bc   Data          16  slave.o(.data)
    Slave_obj1001                            0x200000cc   Data           1  slave.o(.data)
    Slave_Index1001                          0x200000d0   Data          16  slave.o(.data)
    Slave_highestSubIndex_obj1003            0x200000e0   Data           1  slave.o(.data)
    Slave_obj1003                            0x200000e4   Data           4  slave.o(.data)
    Slave_Index1003                          0x200000e8   Data          32  slave.o(.data)
    Slave_obj1005                            0x20000108   Data           4  slave.o(.data)
    Slave_obj1006                            0x2000010c   Data           4  slave.o(.data)
    Slave_obj100C                            0x20000110   Data           2  slave.o(.data)
    Slave_obj100D                            0x20000112   Data           1  slave.o(.data)
    Slave_obj1014                            0x20000114   Data           4  slave.o(.data)
    Slave_highestSubIndex_obj1016            0x20000118   Data           1  slave.o(.data)
    Slave_obj1016                            0x2000011c   Data           4  slave.o(.data)
    Slave_obj1017                            0x20000120   Data           2  slave.o(.data)
    Slave_Index1017                          0x20000124   Data          16  slave.o(.data)
    Slave_highestSubIndex_obj1018            0x20000134   Data           1  slave.o(.data)
    Slave_obj1018_Vendor_ID                  0x20000138   Data           4  slave.o(.data)
    Slave_obj1018_Product_Code               0x2000013c   Data           4  slave.o(.data)
    Slave_obj1018_Revision_Number            0x20000140   Data           4  slave.o(.data)
    Slave_obj1018_Serial_Number              0x20000144   Data           4  slave.o(.data)
    Slave_Index1018                          0x20000148   Data          80  slave.o(.data)
    Slave_highestSubIndex_obj1200            0x20000198   Data           1  slave.o(.data)
    Slave_obj1200_COB_ID_Client_to_Server_Receive_SDO 0x2000019c   Data           4  slave.o(.data)
    Slave_obj1200_COB_ID_Server_to_Client_Transmit_SDO 0x200001a0   Data           4  slave.o(.data)
    Slave_Index1200                          0x200001a4   Data          48  slave.o(.data)
    Slave_highestSubIndex_obj1400            0x200001d4   Data           1  slave.o(.data)
    Slave_obj1400_COB_ID_used_by_PDO         0x200001d8   Data           4  slave.o(.data)
    Slave_obj1400_Transmission_Type          0x200001dc   Data           1  slave.o(.data)
    Slave_obj1400_Inhibit_Time               0x200001de   Data           2  slave.o(.data)
    Slave_obj1400_Compatibility_Entry        0x200001e0   Data           1  slave.o(.data)
    Slave_obj1400_Event_Timer                0x200001e2   Data           2  slave.o(.data)
    Slave_obj1400_SYNC_start_value           0x200001e4   Data           1  slave.o(.data)
    Slave_Index1400                          0x200001e8   Data         112  slave.o(.data)
    Slave_highestSubIndex_obj1600            0x20000258   Data           1  slave.o(.data)
    Slave_obj1600                            0x2000025c   Data           4  slave.o(.data)
    Slave_Index1600                          0x20000260   Data          32  slave.o(.data)
    Slave_highestSubIndex_obj1800            0x20000280   Data           1  slave.o(.data)
    Slave_obj1800_COB_ID_used_by_PDO         0x20000284   Data           4  slave.o(.data)
    Slave_obj1800_Transmission_Type          0x20000288   Data           1  slave.o(.data)
    Slave_obj1800_Inhibit_Time               0x2000028a   Data           2  slave.o(.data)
    Slave_obj1800_Compatibility_Entry        0x2000028c   Data           1  slave.o(.data)
    Slave_obj1800_Event_Timer                0x2000028e   Data           2  slave.o(.data)
    Slave_obj1800_SYNC_start_value           0x20000290   Data           1  slave.o(.data)
    Slave_Index1800                          0x20000294   Data         112  slave.o(.data)
    Slave_highestSubIndex_obj1A00            0x20000304   Data           1  slave.o(.data)
    Slave_obj1A00                            0x20000308   Data           4  slave.o(.data)
    Slave_Index1A00                          0x2000030c   Data          32  slave.o(.data)
    Slave_highestSubIndex_obj2000            0x2000032c   Data           1  slave.o(.data)
    Slave_Index2000                          0x20000330   Data          32  slave.o(.data)
    Slave_highestSubIndex_obj2001            0x20000350   Data           1  slave.o(.data)
    Slave_Index2001                          0x20000354   Data          32  slave.o(.data)
    Slave_highestSubIndex_obj2002            0x20000374   Data           1  slave.o(.data)
    Slave_Index2002                          0x20000378   Data          32  slave.o(.data)
    Slave_PDO_status                         0x20000398   Data          18  slave.o(.data)
    Slave_Data                               0x200003ac   Data         576  slave.o(.data)
    __stdout                                 0x200005ec   Data           4  stdout.o(.data)
    timers                                   0x200030d4   Data         192  timer.o(.bss)
    __initial_sp                             0x200039f0   Data           0  startup_stm32f10x_hd.o(STACK)



==============================================================================

Memory Map of the image

  Image Entry point : 0x08000131

  Load Region LR_IROM1 (Base: 0x08000000, Size: 0x00008334, Max: 0x00010000, ABSOLUTE, COMPRESSED[0x00007ecc])

    Execution Region ER_IROM1 (Exec base: 0x08000000, Load base: 0x08000000, Size: 0x00007d44, Max: 0x00010000, ABSOLUTE)

    Exec Addr    Load Addr    Size         Type   Attr      Idx    E Section Name        Object

    0x08000000   0x08000000   0x00000130   Data   RO          121    RESET               startup_stm32f10x_hd.o
    0x08000130   0x08000130   0x00000000   Code   RO         3312  * .ARM.Collect$$$$00000000  mc_w.l(entry.o)
    0x08000130   0x08000130   0x00000004   Code   RO         3587    .ARM.Collect$$$$00000001  mc_w.l(entry2.o)
    0x08000134   0x08000134   0x00000004   Code   RO         3590    .ARM.Collect$$$$00000004  mc_w.l(entry5.o)
    0x08000138   0x08000138   0x00000000   Code   RO         3592    .ARM.Collect$$$$00000008  mc_w.l(entry7b.o)
    0x08000138   0x08000138   0x00000000   Code   RO         3594    .ARM.Collect$$$$0000000A  mc_w.l(entry8b.o)
    0x08000138   0x08000138   0x00000008   Code   RO         3595    .ARM.Collect$$$$0000000B  mc_w.l(entry9a.o)
    0x08000140   0x08000140   0x00000000   Code   RO         3597    .ARM.Collect$$$$0000000D  mc_w.l(entry10a.o)
    0x08000140   0x08000140   0x00000000   Code   RO         3599    .ARM.Collect$$$$0000000F  mc_w.l(entry11a.o)
    0x08000140   0x08000140   0x00000004   Code   RO         3588    .ARM.Collect$$$$00002712  mc_w.l(entry2.o)
    0x08000144   0x08000144   0x00000096   Code   RO         1446    .emb_text           port.o
    0x080001da   0x080001da   0x00000002   PAD
    0x080001dc   0x080001dc   0x00000024   Code   RO          122    .text               startup_stm32f10x_hd.o
    0x08000200   0x08000200   0x00000024   Code   RO         3315    .text               mc_w.l(memcpya.o)
    0x08000224   0x08000224   0x0000001a   Code   RO         3317    .text               mc_w.l(memcmp.o)
    0x0800023e   0x0800023e   0x0000014e   Code   RO         3581    .text               mf_w.l(dadd.o)
    0x0800038c   0x0800038c   0x00000026   Code   RO         3583    .text               mf_w.l(f2d.o)
    0x080003b2   0x080003b2   0x00000038   Code   RO         3585    .text               mf_w.l(d2f.o)
    0x080003ea   0x080003ea   0x0000001e   Code   RO         3606    .text               mc_w.l(llshl.o)
    0x08000408   0x08000408   0x00000024   Code   RO         3608    .text               mc_w.l(llsshr.o)
    0x0800042c   0x0800042c   0x00000000   Code   RO         3610    .text               mc_w.l(iusefp.o)
    0x0800042c   0x0800042c   0x0000006e   Code   RO         3611    .text               mf_w.l(fepilogue.o)
    0x0800049a   0x0800049a   0x000000ba   Code   RO         3613    .text               mf_w.l(depilogue.o)
    0x08000554   0x08000554   0x00000024   Code   RO         3623    .text               mc_w.l(init.o)
    0x08000578   0x08000578   0x00000020   Code   RO         3625    .text               mc_w.l(llushr.o)
    0x08000598   0x08000598   0x00000056   Code   RO         3635    .text               mc_w.l(__dczerorl2.o)
    0x080005ee   0x080005ee   0x00000008   Code   RO         3056    i.APP_Init          app.o
    0x080005f6   0x080005f6   0x00000002   PAD
    0x080005f8   0x080005f8   0x00000024   Code   RO         3057    i.APP_Task          app.o
    0x0800061c   0x0800061c   0x00000050   Code   RO         3058    i.AppTaskCreate     app.o
    0x0800066c   0x0800066c   0x00000014   Code   RO         2942    i.BSP_Init          bsp.o
    0x08000680   0x08000680   0x00000004   Code   RO         3109    i.BusFault_Handler  stm32f10x_it.o
    0x08000684   0x08000684   0x00000040   Code   RO         3186    i.CANOpen_App_Init  canopen_app.o
    0x080006c4   0x080006c4   0x00000078   Code   RO         3187    i.CANOpen_App_Task  canopen_app.o
    0x0800073c   0x0800073c   0x00000130   Code   RO         3219    i.CANOpen_Driver_Init  canopen_drv.o
    0x0800086c   0x0800086c   0x00000088   Code   RO         2996    i.CANOpen_TIM_Configuration  bsp_timer.o
    0x080008f4   0x080008f4   0x0000003c   Code   RO         3220    i.CANRcv_DateFromISR  canopen_drv.o
    0x08000930   0x08000930   0x00000084   Code   RO         3221    i.CANRcv_Task       canopen_drv.o
    0x080009b4   0x080009b4   0x0000003c   Code   RO         3223    i.CANSend_Task      canopen_drv.o
    0x080009f0   0x080009f0   0x000000ac   Code   RO         2972    i.CAN_Configuration  bsp_can.o
    0x08000a9c   0x08000a9c   0x00000108   Code   RO          173    i.CAN_FilterInit    stm32f10x_can.o
    0x08000ba4   0x08000ba4   0x0000004c   Code   RO         2973    i.CAN_GPIO_Configuration  bsp_can.o
    0x08000bf0   0x08000bf0   0x00000012   Code   RO          179    i.CAN_ITConfig      stm32f10x_can.o
    0x08000c02   0x08000c02   0x00000114   Code   RO          180    i.CAN_Init          stm32f10x_can.o
    0x08000d16   0x08000d16   0x0000000c   Code   RO         2974    i.CAN_Initializes   bsp_can.o
    0x08000d22   0x08000d22   0x000000f0   Code   RO          183    i.CAN_Receive       stm32f10x_can.o
    0x08000e12   0x08000e12   0x00000126   Code   RO          188    i.CAN_Transmit      stm32f10x_can.o
    0x08000f38   0x08000f38   0x00000032   Code   RO         2268    i.ConsumerHeartbeatAlarm  lifegrd.o
    0x08000f6a   0x08000f6a   0x000000ec   Code   RO         2463    i.CopyBits          pdo.o
    0x08001056   0x08001056   0x00000002   PAD
    0x08001058   0x08001058   0x00000020   Code   RO         3014    i.DEBUG_SendByte    bsp_usart.o
    0x08001078   0x08001078   0x00000002   Code   RO         3110    i.DebugMon_Handler  stm32f10x_it.o
    0x0800107a   0x0800107a   0x00000002   PAD
    0x0800107c   0x0800107c   0x00000038   Code   RO         2881    i.DelAlarm          timer.o
    0x080010b4   0x080010b4   0x00000116   Code   RO          328    i.GPIO_Init         stm32f10x_gpio.o
    0x080011ca   0x080011ca   0x00000002   PAD
    0x080011cc   0x080011cc   0x00000090   Code   RO          330    i.GPIO_PinRemapConfig  stm32f10x_gpio.o
    0x0800125c   0x0800125c   0x00000004   Code   RO          335    i.GPIO_ResetBits    stm32f10x_gpio.o
    0x08001260   0x08001260   0x00000004   Code   RO          336    i.GPIO_SetBits      stm32f10x_gpio.o
    0x08001264   0x08001264   0x00000076   Code   RO         2269    i.GuardTimeAlarm    lifegrd.o
    0x080012da   0x080012da   0x00000004   Code   RO         3111    i.HardFault_Handler  stm32f10x_it.o
    0x080012de   0x080012de   0x00000002   PAD
    0x080012e0   0x080012e0   0x00000038   Code   RO         2943    i.LED_Initializes   bsp.o
    0x08001318   0x08001318   0x00000004   Code   RO         3112    i.MemManage_Handler  stm32f10x_it.o
    0x0800131c   0x0800131c   0x00000002   Code   RO         3113    i.NMI_Handler       stm32f10x_it.o
    0x0800131e   0x0800131e   0x00000002   PAD
    0x08001320   0x08001320   0x00000070   Code   RO          127    i.NVIC_Init         misc.o
    0x08001390   0x08001390   0x00000014   Code   RO          128    i.NVIC_PriorityGroupConfig  misc.o
    0x080013a4   0x080013a4   0x00000014   Code   RO          129    i.NVIC_SetVectorTable  misc.o
    0x080013b8   0x080013b8   0x00000012   Code   RO         2821    i.OnCOB_ID_SyncUpdate  sync.o
    0x080013ca   0x080013ca   0x00000002   PAD
    0x080013cc   0x080013cc   0x00000044   Code   RO         2270    i.OnHeartbeatProducerUpdate  lifegrd.o
    0x08001410   0x08001410   0x00000018   Code   RO         2271    i.OnNodeGuardUpdate  lifegrd.o
    0x08001428   0x08001428   0x0000002c   Code   RO         2213    i.OnNumberOfErrorsUpdate  emcy.o
    0x08001454   0x08001454   0x0000002e   Code   RO         2466    i.PDOEventTimerAlarm  pdo.o
    0x08001482   0x08001482   0x00000038   Code   RO         2467    i.PDOInhibitTimerAlarm  pdo.o
    0x080014ba   0x080014ba   0x00000002   PAD
    0x080014bc   0x080014bc   0x00000058   Code   RO         2468    i.PDOInit           pdo.o
    0x08001514   0x08001514   0x00000078   Code   RO         2469    i.PDOStop           pdo.o
    0x0800158c   0x0800158c   0x00000048   Code   RO         2272    i.ProducerHeartbeatAlarm  lifegrd.o
    0x080015d4   0x080015d4   0x00000020   Code   RO          438    i.RCC_APB1PeriphClockCmd  stm32f10x_rcc.o
    0x080015f4   0x080015f4   0x00000020   Code   RO          440    i.RCC_APB2PeriphClockCmd  stm32f10x_rcc.o
    0x08001614   0x08001614   0x000000d4   Code   RO          448    i.RCC_GetClocksFreq  stm32f10x_rcc.o
    0x080016e8   0x080016e8   0x00000032   Code   RO         2427    i.RegisterSetODentryCallBack  objacces.o
    0x0800171a   0x0800171a   0x00000002   PAD
    0x0800171c   0x0800171c   0x00000130   Code   RO         2565    i.SDOTimeoutAlarm   sdo.o
    0x0800184c   0x0800184c   0x000000ac   Code   RO         2566    i.SDOlineToObjdict  sdo.o
    0x080018f8   0x080018f8   0x00000086   Code   RO         2567    i.SDOtoLine         sdo.o
    0x0800197e   0x0800197e   0x00000002   PAD
    0x08001980   0x08001980   0x000000b8   Code   RO         2882    i.SetAlarm          timer.o
    0x08001a38   0x08001a38   0x00000008   Code   RO            1    i.SetSysClock       system_stm32f10x.o
    0x08001a40   0x08001a40   0x000000e0   Code   RO            2    i.SetSysClockTo72   system_stm32f10x.o
    0x08001b20   0x08001b20   0x000000b0   Code   RO         3284    i.Slave_scanIndexOD  slave.o
    0x08001bd0   0x08001bd0   0x0000001c   Code   RO         3285    i.Slave_valueRangeTest  slave.o
    0x08001bec   0x08001bec   0x0000000e   Code   RO         2822    i.SyncAlarm         sync.o
    0x08001bfa   0x08001bfa   0x00000016   Code   RO         3091    i.SysInit           main.o
    0x08001c10   0x08001c10   0x00000034   Code   RO         1447    i.SysTick_Handler   port.o
    0x08001c44   0x08001c44   0x00000060   Code   RO            4    i.SystemInit        system_stm32f10x.o
    0x08001ca4   0x08001ca4   0x0000001a   Code   RO         3114    i.TIM2_IRQHandler   stm32f10x_it.o
    0x08001cbe   0x08001cbe   0x00000006   Code   RO          646    i.TIM_ClearFlag     stm32f10x_tim.o
    0x08001cc4   0x08001cc4   0x00000006   Code   RO          647    i.TIM_ClearITPendingBit  stm32f10x_tim.o
    0x08001cca   0x08001cca   0x00000018   Code   RO          652    i.TIM_Cmd           stm32f10x_tim.o
    0x08001ce2   0x08001ce2   0x00000006   Code   RO          671    i.TIM_GetCounter    stm32f10x_tim.o
    0x08001ce8   0x08001ce8   0x00000022   Code   RO          673    i.TIM_GetITStatus   stm32f10x_tim.o
    0x08001d0a   0x08001d0a   0x00000012   Code   RO          677    i.TIM_ITConfig      stm32f10x_tim.o
    0x08001d1c   0x08001d1c   0x00000008   Code   RO         2997    i.TIM_Initializes   bsp_timer.o
    0x08001d24   0x08001d24   0x00000004   Code   RO          711    i.TIM_SetAutoreload  stm32f10x_tim.o
    0x08001d28   0x08001d28   0x00000004   Code   RO          717    i.TIM_SetCounter    stm32f10x_tim.o
    0x08001d2c   0x08001d2c   0x000000a4   Code   RO          723    i.TIM_TimeBaseInit  stm32f10x_tim.o
    0x08001dd0   0x08001dd0   0x0000001c   Code   RO         3224    i.TIMx_DispatchFromISR  canopen_drv.o
    0x08001dec   0x08001dec   0x00000094   Code   RO         2470    i.TPDO_Communication_Parameter_Callback  pdo.o
    0x08001e80   0x08001e80   0x000000c0   Code   RO         2883    i.TimeDispatch      timer.o
    0x08001f40   0x08001f40   0x000000b4   Code   RO         3016    i.UART_DEBUG_Configuration  bsp_usart.o
    0x08001ff4   0x08001ff4   0x0000002c   Code   RO         3115    i.USART1_IRQHandler  stm32f10x_it.o
    0x08002020   0x08002020   0x00000012   Code   RO         1184    i.USART_ClearFlag   stm32f10x_usart.o
    0x08002032   0x08002032   0x00000018   Code   RO         1188    i.USART_Cmd         stm32f10x_usart.o
    0x0800204a   0x0800204a   0x0000001a   Code   RO         1191    i.USART_GetFlagStatus  stm32f10x_usart.o
    0x08002064   0x08002064   0x00000054   Code   RO         1192    i.USART_GetITStatus  stm32f10x_usart.o
    0x080020b8   0x080020b8   0x0000004a   Code   RO         1194    i.USART_ITConfig    stm32f10x_usart.o
    0x08002102   0x08002102   0x00000002   PAD
    0x08002104   0x08002104   0x000000d8   Code   RO         1195    i.USART_Init        stm32f10x_usart.o
    0x080021dc   0x080021dc   0x00000008   Code   RO         3017    i.USART_Initializes  bsp_usart.o
    0x080021e4   0x080021e4   0x0000000a   Code   RO         1202    i.USART_ReceiveData  stm32f10x_usart.o
    0x080021ee   0x080021ee   0x00000008   Code   RO         1205    i.USART_SendData    stm32f10x_usart.o
    0x080021f6   0x080021f6   0x00000002   PAD
    0x080021f8   0x080021f8   0x0000001c   Code   RO         3116    i.USB_LP_CAN1_RX0_IRQHandler  stm32f10x_it.o
    0x08002214   0x08002214   0x00000004   Code   RO         3117    i.UsageFault_Handler  stm32f10x_it.o
    0x08002218   0x08002218   0x00000002   Code   RO         2471    i._RxPDO_EventTimers_Handler  pdo.o
    0x0800221a   0x0800221a   0x00000002   PAD
    0x0800221c   0x0800221c   0x00000010   Code   RO         3322    i.__0printf$bare    mc_w.l(printfb.o)
    0x0800222c   0x0800222c   0x0000000e   Code   RO         3629    i.__scatterload_copy  mc_w.l(handlers.o)
    0x0800223a   0x0800223a   0x00000002   Code   RO         3630    i.__scatterload_null  mc_w.l(handlers.o)
    0x0800223c   0x0800223c   0x0000000e   Code   RO         3631    i.__scatterload_zeroinit  mc_w.l(handlers.o)
    0x0800224a   0x0800224a   0x00000002   PAD
    0x0800224c   0x0800224c   0x000000ec   Code   RO         2428    i._getODentry       objacces.o
    0x08002338   0x08002338   0x00000002   Code   RO         2273    i._heartbeatError   lifegrd.o
    0x0800233a   0x0800233a   0x00000002   Code   RO         2754    i._initialisation   states.o
    0x0800233c   0x0800233c   0x00000002   Code   RO         2274    i._nodeguardError   lifegrd.o
    0x0800233e   0x0800233e   0x00000002   Code   RO         2755    i._operational      states.o
    0x08002340   0x08002340   0x00000002   Code   RO         2275    i._post_SlaveBootup  lifegrd.o
    0x08002342   0x08002342   0x00000002   Code   RO         2276    i._post_SlaveStateChange  lifegrd.o
    0x08002344   0x08002344   0x00000002   Code   RO         2823    i._post_TPDO        sync.o
    0x08002346   0x08002346   0x00000006   Code   RO         2214    i._post_emcy        emcy.o
    0x0800234c   0x0800234c   0x00000002   Code   RO         2824    i._post_sync        sync.o
    0x0800234e   0x0800234e   0x00000016   Code   RO         2756    i._preOperational   states.o
    0x08002364   0x08002364   0x00000022   Code   RO         3329    i._printf_core      mc_w.l(printfb.o)
    0x08002386   0x08002386   0x00000198   Code   RO         2472    i._sendPDOevent     pdo.o
    0x0800251e   0x0800251e   0x00000002   PAD
    0x08002520   0x08002520   0x00000138   Code   RO         2429    i._setODentry       objacces.o
    0x08002658   0x08002658   0x00000002   Code   RO         2757    i._stopped          states.o
    0x0800265a   0x0800265a   0x00000006   Code   RO         2430    i._storeODSubIndex  objacces.o
    0x08002660   0x08002660   0x0000000a   Code   RO         2431    i.accessDictionaryError  objacces.o
    0x0800266a   0x0800266a   0x000000ee   Code   RO         2473    i.buildPDO          pdo.o
    0x08002758   0x08002758   0x0000009a   Code   RO         2758    i.canDispatch       states.o
    0x080027f2   0x080027f2   0x00000002   PAD
    0x080027f4   0x080027f4   0x0000009c   Code   RO         3225    i.canSend           canopen_drv.o
    0x08002890   0x08002890   0x00000020   Code   RO         2215    i.emergencyInit     emcy.o
    0x080028b0   0x080028b0   0x00000002   Code   RO         2216    i.emergencyStop     emcy.o
    0x080028b2   0x080028b2   0x000000b6   Code   RO         2571    i.failedSDO         sdo.o
    0x08002968   0x08002968   0x00000010   Code   RO         3019    i.fputc             bsp_usart.o
    0x08002978   0x08002978   0x00000034   Code   RO         3226    i.getElapsedTime    canopen_drv.o
    0x080029ac   0x080029ac   0x00000008   Code   RO         2759    i.getNodeId         states.o
    0x080029b4   0x080029b4   0x00000042   Code   RO         2573    i.getSDOfreeLine    sdo.o
    0x080029f6   0x080029f6   0x00000072   Code   RO         2574    i.getSDOlineOnUse   sdo.o
    0x08002a68   0x08002a68   0x0000004a   Code   RO         2575    i.getSDOlineRestBytes  sdo.o
    0x08002ab2   0x08002ab2   0x00000008   Code   RO         2760    i.getState          states.o
    0x08002aba   0x08002aba   0x00000002   PAD
    0x08002abc   0x08002abc   0x0000008c   Code   RO         2278    i.heartbeatInit     lifegrd.o
    0x08002b48   0x08002b48   0x00000038   Code   RO         2279    i.heartbeatStop     lifegrd.o
    0x08002b80   0x08002b80   0x000001c4   Code   RO         2578    i.initSDOline       sdo.o
    0x08002d44   0x08002d44   0x00000012   Code   RO         2280    i.lifeGuardInit     lifegrd.o
    0x08002d56   0x08002d56   0x00000012   Code   RO         2281    i.lifeGuardStop     lifegrd.o
    0x08002d68   0x08002d68   0x000000b0   Code   RO         2579    i.lineToSDO         sdo.o
    0x08002e18   0x08002e18   0x00000012   Code   RO         3092    i.main              main.o
    0x08002e2a   0x08002e2a   0x00000026   Code   RO         2386    i.masterSendNMTnodeguard  nmtmaster.o
    0x08002e50   0x08002e50   0x0000002c   Code   RO         2387    i.masterSendNMTstateChange  nmtmaster.o
    0x08002e7c   0x08002e7c   0x00000088   Code   RO         2282    i.nodeguardInit     lifegrd.o
    0x08002f04   0x08002f04   0x00000012   Code   RO         2283    i.nodeguardStop     lifegrd.o
    0x08002f16   0x08002f16   0x0000008e   Code   RO         2580    i.objdictToSDOline  sdo.o
    0x08002fa4   0x08002fa4   0x0000003a   Code   RO         2217    i.proceedEMCY       emcy.o
    0x08002fde   0x08002fde   0x000000e0   Code   RO         2409    i.proceedNMTstateChange  nmtslave.o
    0x080030be   0x080030be   0x00000002   PAD
    0x080030c0   0x080030c0   0x00000118   Code   RO         2284    i.proceedNODE_GUARD  lifegrd.o
    0x080031d8   0x080031d8   0x000002da   Code   RO         2474    i.proceedPDO        pdo.o
    0x080034b2   0x080034b2   0x00000002   PAD
    0x080034b4   0x080034b4   0x00002b48   Code   RO         2581    i.proceedSDO        sdo.o
    0x08005ffc   0x08005ffc   0x0000002c   Code   RO         2825    i.proceedSYNC       sync.o
    0x08006028   0x08006028   0x00000098   Code   RO         1811    i.prvAddCurrentTaskToDelayedList  tasks.o
    0x080060c0   0x080060c0   0x000000b4   Code   RO         1812    i.prvAddNewTaskToReadyList  tasks.o
    0x08006174   0x08006174   0x00000048   Code   RO         1813    i.prvCheckTasksWaitingTermination  tasks.o
    0x080061bc   0x080061bc   0x0000002a   Code   RO         1672    i.prvCopyDataFromQueue  queue.o
    0x080061e6   0x080061e6   0x0000006a   Code   RO         1673    i.prvCopyDataToQueue  queue.o
    0x08006250   0x08006250   0x00000012   Code   RO         1814    i.prvDeleteTCB      tasks.o
    0x08006262   0x08006262   0x00000002   PAD
    0x08006264   0x08006264   0x0000007c   Code   RO         1364    i.prvHeapInit       heap_4.o
    0x080062e0   0x080062e0   0x00000008   Code   RO         1815    i.prvIdleTask       tasks.o
    0x080062e8   0x080062e8   0x00000026   Code   RO         1674    i.prvInitialiseNewQueue  queue.o
    0x0800630e   0x0800630e   0x000000bc   Code   RO         1816    i.prvInitialiseNewTask  tasks.o
    0x080063ca   0x080063ca   0x00000002   PAD
    0x080063cc   0x080063cc   0x00000068   Code   RO         1817    i.prvInitialiseTaskLists  tasks.o
    0x08006434   0x08006434   0x00000068   Code   RO         1365    i.prvInsertBlockIntoFreeList  heap_4.o
    0x0800649c   0x0800649c   0x0000001a   Code   RO         1675    i.prvIsQueueEmpty   queue.o
    0x080064b6   0x080064b6   0x0000001e   Code   RO         1676    i.prvIsQueueFull    queue.o
    0x080064d4   0x080064d4   0x00000034   Code   RO         1818    i.prvResetNextTaskUnblockTime  tasks.o
    0x08006508   0x08006508   0x00000040   Code   RO         1448    i.prvTaskExitError  port.o
    0x08006548   0x08006548   0x0000007e   Code   RO         1677    i.prvUnlockQueue    queue.o
    0x080065c6   0x080065c6   0x00000002   PAD
    0x080065c8   0x080065c8   0x0000013c   Code   RO         1366    i.pvPortMalloc      heap_4.o
    0x08006704   0x08006704   0x00000024   Code   RO         1449    i.pxPortInitialiseStack  port.o
    0x08006728   0x08006728   0x0000001a   Code   RO         2586    i.resetSDO          sdo.o
    0x08006742   0x08006742   0x00000060   Code   RO         2587    i.resetSDOline      sdo.o
    0x080067a2   0x080067a2   0x00000002   PAD
    0x080067a4   0x080067a4   0x00000158   Code   RO         2475    i.sendOnePDOevent   pdo.o
    0x080068fc   0x080068fc   0x0000002c   Code   RO         2478    i.sendPdo           pdo.o
    0x08006928   0x08006928   0x000000a2   Code   RO         2588    i.sendSDO           sdo.o
    0x080069ca   0x080069ca   0x00000052   Code   RO         2589    i.sendSDOabort      sdo.o
    0x08006a1c   0x08006a1c   0x00000016   Code   RO         2826    i.sendSYNC          sync.o
    0x08006a32   0x08006a32   0x00000026   Code   RO         2827    i.sendSYNCMessage   sync.o
    0x08006a58   0x08006a58   0x000001b0   Code   RO         2761    i.setNodeId         states.o
    0x08006c08   0x08006c08   0x00000022   Code   RO         2590    i.setSDOlineRestBytes  sdo.o
    0x08006c2a   0x08006c2a   0x00000002   PAD
    0x08006c2c   0x08006c2c   0x000000cc   Code   RO         2762    i.setState          states.o
    0x08006cf8   0x08006cf8   0x00000010   Code   RO         3227    i.setTimer          canopen_drv.o
    0x08006d08   0x08006d08   0x0000002e   Code   RO         2410    i.slaveSendBootUp   nmtslave.o
    0x08006d36   0x08006d36   0x00000002   PAD
    0x08006d38   0x08006d38   0x00000074   Code   RO         2828    i.startSYNC         sync.o
    0x08006dac   0x08006dac   0x0000002e   Code   RO         2829    i.stopSYNC          sync.o
    0x08006dda   0x08006dda   0x0000011c   Code   RO         2763    i.switchCommunicationState  states.o
    0x08006ef6   0x08006ef6   0x00000028   Code   RO         1633    i.uxListRemove      list.o
    0x08006f1e   0x08006f1e   0x0000001a   Code   RO         1634    i.vListInitialise   list.o
    0x08006f38   0x08006f38   0x00000006   Code   RO         1635    i.vListInitialiseItem  list.o
    0x08006f3e   0x08006f3e   0x00000034   Code   RO         1636    i.vListInsert       list.o
    0x08006f72   0x08006f72   0x00000018   Code   RO         1637    i.vListInsertEnd    list.o
    0x08006f8a   0x08006f8a   0x00000002   PAD
    0x08006f8c   0x08006f8c   0x00000054   Code   RO         1451    i.vPortEnterCritical  port.o
    0x08006fe0   0x08006fe0   0x0000003c   Code   RO         1452    i.vPortExitCritical  port.o
    0x0800701c   0x0800701c   0x00000094   Code   RO         1367    i.vPortFree         heap_4.o
    0x080070b0   0x080070b0   0x00000018   Code   RO         1453    i.vPortSetupTimerInterrupt  port.o
    0x080070c8   0x080070c8   0x00000078   Code   RO         1454    i.vPortValidateInterruptPriority  port.o
    0x08007140   0x08007140   0x0000005c   Code   RO         1825    i.vTaskDelay        tasks.o
    0x0800719c   0x0800719c   0x00000018   Code   RO         1829    i.vTaskInternalSetTimeOutState  tasks.o
    0x080071b4   0x080071b4   0x0000000c   Code   RO         1830    i.vTaskMissedYield  tasks.o
    0x080071c0   0x080071c0   0x00000038   Code   RO         1832    i.vTaskPlaceOnEventList  tasks.o
    0x080071f8   0x080071f8   0x00000088   Code   RO         1838    i.vTaskStartScheduler  tasks.o
    0x08007280   0x08007280   0x00000010   Code   RO         1840    i.vTaskSuspendAll   tasks.o
    0x08007290   0x08007290   0x0000008c   Code   RO         1841    i.vTaskSwitchContext  tasks.o
    0x0800731c   0x0800731c   0x000000cc   Code   RO         1455    i.xPortStartScheduler  port.o
    0x080073e8   0x080073e8   0x0000005a   Code   RO         1682    i.xQueueGenericCreate  queue.o
    0x08007442   0x08007442   0x00000002   PAD
    0x08007444   0x08007444   0x00000098   Code   RO         1683    i.xQueueGenericReset  queue.o
    0x080074dc   0x080074dc   0x00000180   Code   RO         1684    i.xQueueGenericSend  queue.o
    0x0800765c   0x0800765c   0x000000f8   Code   RO         1685    i.xQueueGenericSendFromISR  queue.o
    0x08007754   0x08007754   0x00000140   Code   RO         1691    i.xQueueReceive     queue.o
    0x08007894   0x08007894   0x0000008c   Code   RO         1842    i.xTaskCheckForTimeOut  tasks.o
    0x08007920   0x08007920   0x00000060   Code   RO         1843    i.xTaskCreate       tasks.o
    0x08007980   0x08007980   0x00000148   Code   RO         1848    i.xTaskIncrementTick  tasks.o
    0x08007ac8   0x08007ac8   0x00000098   Code   RO         1851    i.xTaskRemoveFromEventList  tasks.o
    0x08007b60   0x08007b60   0x00000104   Code   RO         1852    i.xTaskResumeAll    tasks.o
    0x08007c64   0x08007c64   0x00000040   Data   RO         2764    .constdata          states.o
    0x08007ca4   0x08007ca4   0x0000007e   Data   RO         3286    .constdata          slave.o
    0x08007d22   0x08007d22   0x00000002   PAD
    0x08007d24   0x08007d24   0x00000020   Data   RO         3627    Region$$Table       anon$$obj.o


    Execution Region RW_IRAM1 (Exec base: 0x20000000, Load base: 0x08007d44, Size: 0x000039f0, Max: 0x00005000, ABSOLUTE, COMPRESSED[0x00000188])

    Exec Addr    Load Addr    Size         Type   Attr      Idx    E Section Name        Object

    0x20000000   COMPRESSED   0x00000014   Data   RW            5    .data               system_stm32f10x.o
    0x20000014   COMPRESSED   0x00000014   Data   RW          468    .data               stm32f10x_rcc.o
    0x20000028   COMPRESSED   0x00000018   Data   RW         1372    .data               heap_4.o
    0x20000040   COMPRESSED   0x0000000c   Data   RW         1456    .data               port.o
    0x2000004c   COMPRESSED   0x0000003c   Data   RW         1855    .data               tasks.o
    0x20000088   COMPRESSED   0x0000000c   Data   RW         2885    .data               timer.o
    0x20000094   COMPRESSED   0x00000001   Data   RW         3119    .data               stm32f10x_it.o
    0x20000095   COMPRESSED   0x00000003   PAD
    0x20000098   COMPRESSED   0x00000014   Data   RW         3229    .data               canopen_drv.o
    0x200000ac   COMPRESSED   0x00000540   Data   RW         3287    .data               slave.o
    0x200005ec   COMPRESSED   0x00000004   Data   RW         3601    .data               mc_w.l(stdout.o)
    0x200005f0        -       0x00002800   Zero   RW         1371    .bss                heap_4.o
    0x20002df0        -       0x000002e4   Zero   RW         1854    .bss                tasks.o
    0x200030d4        -       0x000000c0   Zero   RW         2884    .bss                timer.o
    0x20003194        -       0x00000014   Zero   RW         3118    .bss                stm32f10x_it.o
    0x200031a8        -       0x00000048   Zero   RW         3228    .bss                canopen_drv.o
    0x200031f0        -       0x00000800   Zero   RW          119    STACK               startup_stm32f10x_hd.o


==============================================================================

Image component sizes


      Code (inc. data)   RO Data    RW Data    ZI Data      Debug   Object Name

       124         46          0          0          0       1304   app.o
        76          6          0          0          0        917   bsp.o
       260         10          0          0          0       1643   bsp_can.o
       144         10          0          0          0       1026   bsp_timer.o
       236         14          0          0          0       2168   bsp_usart.o
       184         48          0          0          0       1067   canopen_app.o
       808        234          0         20         72      20471   canopen_drv.o
         0          0          0          0          0       5140   croutine.o
         0          0          0          0          0      12460   dcf.o
       142          4          0          0          0       3320   emcy.o
         0          0          0          0          0       7980   event_groups.o
       692         62          0         24      10240      10443   heap_4.o
      1006         34          0          0          0       9812   lifegrd.o
       148          0          0          0          0       3026   list.o
        40          0          0          0          0        877   main.o
       152         30          0          0          0       2245   misc.o
        82          0          0          0          0       1320   nmtmaster.o
       270          0          0          0          0       1386   nmtslave.o
       614         26          0          0          0       4688   objacces.o
      2460         14          0          0          0      10830   pdo.o
       794         80          0         12          0      10525   port.o
      1562         14          0          0          0      13322   queue.o
     13296        154          0          0          0      18129   sdo.o
       204         14        126       1344          0       6245   slave.o
        36          8        304          0       2048        892   startup_stm32f10x_hd.o
      1118         24         64          0          0       6997   states.o
      1092          6          0          0          0       4628   stm32f10x_can.o
       430          6          0          0          0       4090   stm32f10x_gpio.o
       118         16          0          1         20       4020   stm32f10x_it.o
       276         32          0         20          0       4630   stm32f10x_rcc.o
       266         42          0          0          0       6124   stm32f10x_tim.o
       460          6          0          0          0       7115   stm32f10x_usart.o
       302          8          0          0          0       4786   sync.o
       328         28          0         20          0     262569   system_stm32f10x.o
      2226        310          0         60        740      20213   tasks.o
       432         38          0         12        192      13650   timer.o
         0          0          0          0          0       2236   timers.o

    ----------------------------------------------------------------------
     30432       1324        528       1516      13312     492294   Object Totals
         0          0         32          0          0          0   (incl. Generated)
        54          0          2          3          0          0   (incl. Padding)

    ----------------------------------------------------------------------

      Code (inc. data)   RO Data    RW Data    ZI Data      Debug   Library Member Name

        86          0          0          0          0          0   __dczerorl2.o
         0          0          0          0          0          0   entry.o
         0          0          0          0          0          0   entry10a.o
         0          0          0          0          0          0   entry11a.o
         8          4          0          0          0          0   entry2.o
         4          0          0          0          0          0   entry5.o
         0          0          0          0          0          0   entry7b.o
         0          0          0          0          0          0   entry8b.o
         8          4          0          0          0          0   entry9a.o
        30          0          0          0          0          0   handlers.o
        36          8          0          0          0         68   init.o
         0          0          0          0          0          0   iusefp.o
        30          0          0          0          0         68   llshl.o
        36          0          0          0          0         68   llsshr.o
        32          0          0          0          0         68   llushr.o
        26          0          0          0          0         80   memcmp.o
        36          0          0          0          0         68   memcpya.o
        50          8          0          0          0        152   printfb.o
         0          0          0          4          0          0   stdout.o
        56          0          0          0          0         88   d2f.o
       334          0          0          0          0        148   dadd.o
       186          0          0          0          0        176   depilogue.o
        38          0          0          0          0         68   f2d.o
       110          0          0          0          0        168   fepilogue.o

    ----------------------------------------------------------------------
      1108         24          0          4          0       1220   Library Totals
         2          0          0          0          0          0   (incl. Padding)

    ----------------------------------------------------------------------

      Code (inc. data)   RO Data    RW Data    ZI Data      Debug   Library Name

       382         24          0          4          0        572   mc_w.l
       724          0          0          0          0        648   mf_w.l

    ----------------------------------------------------------------------
      1108         24          0          4          0       1220   Library Totals

    ----------------------------------------------------------------------

==============================================================================


      Code (inc. data)   RO Data    RW Data    ZI Data      Debug   

     31540       1348        528       1520      13312     482982   Grand Totals
     31540       1348        528        392      13312     482982   ELF Image Totals (compressed)
     31540       1348        528        392          0          0   ROM Totals

==============================================================================

    Total RO  Size (Code + RO Data)                32068 (  31.32kB)
    Total RW  Size (RW Data + ZI Data)             14832 (  14.48kB)
    Total ROM Size (Code + RO Data + RW Data)      32460 (  31.70kB)

==============================================================================

